:020000040800F2
:10C00000000001201D3705083135050833350508C6
:10C0100035350508373505083935050800000000B5
:10C020000000000000000000000000003D35050891
:10C030003B350508000000003F350508413505087F
:10C0400043350508453505084735050849350508D0
:10C050004B3505084D3505084F35050851350508A0
:10C060005335050855350508573505085935050870
:10C070005B3505085D3505085F3505086135050840
:10C080006335050865350508673505086935050810
:10C090006D350508713505087335050875350508D2
:10C0A00077350508793505087B3505087D350508A0
:10C0B0007F3505088135050895360508973605084A
:10C0C000993605089B3605089D3605089F360508F4
:10C0D000A1360508A3360508B1360508B3360508AC
:10C0E000B5360508B7360508B9360508BB36050864
:10C0F000BD360508BF360508C1360508C336050834
:10C10000C5360508C7360508C9360508CB36050803
:10C11000CD360508CF360508D1360508D3360508D3
:10C12000D5360508D7360508D9360508DB360508A3
:020000040804EE
:10C0000020B10368197003680133036070472DE99C
:10C01000F041161E04460D4614DD002200E00132F8
:10C02000A95C0029FBD1B24203F00208B4BFC2EB05
:10C0300006060E46B8F1000F0CBF4FF020084FF077
:10C04000300801E04FF0200813F0010709D105E0A6
:10C0500020464146FFF7D4FF0137013E002EF7DCB2
:10C0600005E0002703E02046FFF7CAFF013715F877
:10C07000011B0029F7D105E020464146FFF7C0FF2C
:10C080000137013E002EF7DC3846BDE8F0812DE98E
:10C09000FF410A9F05460B9EDDF830C08E4651B920
:10C0A00030238DF804308DF805103A4601A9334647
:10C0B000FFF7ADFF3CE03BB10A2A07D1002905DAC2
:10C0C000C1F1000E012402E01C4600E0002404A996
:10C0D000002301F8013D0EE0BEFBF2F302FB13EE7C
:10C0E000BEF1090FC4BFACF13A0086440EF1300E28
:10C0F00001F801ED9E468846BEF1000FECD184B1F7
:10C100004FB116F0020F06D028462D21FFF778FF19
:10C11000013F012405E02D2301F1FF3801F8013C26
:10C120000024284641463A463346FFF770FF00197F
:10C1300004B0BDE8F0812DE9F0478AB006460D460F
:10C1400005920024DBE0252B40F0D38015F8013F59
:10C15000002B00F0D880252B00F0CB802D2B02D1B6
:10C1600001352C3B03E0002301E043F002032946A4
:10C1700015F8012B302AF8D0002702E00A2202FB32
:10C1800007070A780D46A2F130005FFA80FC013102
:10C19000BCF1090FF2D9732A09D1059A3046111D55
:10C1A000059111685C4A002908BF11469DE0642A88
:10C1B0000ED1059A01936123111D029300970591F9
:10C1C00030461168603B0A22FFF761FF241895E0B2
:10C1D000662A54D1059B073323F0070303F10802B5
:10C1E000D3E9000105921AF0BDFB002180461AF048
:10C1F000B5FE38B12D238DF8183008F100480DF147
:10C20000190A01E00DF1180A40461AF0CFFE012389
:10C2100000E013460A225A439042FADA90FBF3F206
:10C2200002F1300103FB12000A2293FBF2F30AF839
:10C23000011B002BF2D124328AF80020002F08BF06
:10C240000327994640461AF0B1FE1AF095FC0146C4
:10C2500040461AF0DBFB31491AF0E2FC80461AF046
:10C26000A5FE09F101093030B9450AF8010FE9DBF3
:10C2700000228AF80120304606A9202336E0782AD9
:10C280000AD1059A01936123111D0097029305912C
:10C2900030461168102219E0582A0BD1059A0193F3
:10C2A0004123111D02930097059130461168413BCF
:10C2B000102289E7752A0BD1059A01936123111D7C
:10C2C000009702930591304611680A22613B7BE793
:10C2D000632A13D1059A3046111D126805918DF815
:10C2E000242000228DF8252009A93A46FFF78FFE69
:10C2F0006CE730462978FFF783FE013401352B784F
:10C30000002B7FF420AF16B1336800221A7020464C
:10C310000AB0BDE8F08700BF70A406080000204105
:10C32000014BD86C80B2704700240140014B186863
:10C33000704700BF68A7002001461420B7F786BFEA
:10C34000034B18801A8892B2002AFBD1704700BFB5
:10C3500074A70020044B10B5196804460320B7F7F2
:10C3600075FF024B1C8010BD0030002076A7002016
:10C3700030B5002308E00A24B0FBF4F104FB1100FF
:10C380003030D054013388B2084A0028F3D1D05459
:10C390005910013BD31804E0145C5D7815545C70AF
:10C3A0000130013B8842F7DB004830BDA03200205D
:10C3B00008B506200021B7F74DFF5A234343A3F5E4
:10C3C0008223A3F56B6340F2145093FBF0F00A3024
:10C3D0006428A8BF642020EAE07008BD0128ACBF33
:10C3E000014601210220B7F731BF00EBD070024BAC
:10C3F00040101860704700BF00300020052810B5BD
:10C4000007D8044B53F8200018B1046807F03EF831
:10C41000A04710BD98950608C0B2B7F717BF47F2FE
:10C420006623984201D1B7F705BFC0B2B7F712BF74
:10C4300043680A6823F4702323F4807313430A7952
:10C4400010B543EA022343608A68CB6884681A43C4
:10C45000094B04EA030342EA03034A7943EA42032D
:10C4600083600B7CC26A013B22F47002DBB242EAB9
:10C470000353C36210BD00BFFDF7F1FF002303604B
:10C48000037143718360C36001330374704719B152
:10C49000836843F0010302E0836823F001038360B3
:10C4A000704719B1836843F4807302E0836823F412
:10C4B000807383607047C9B212B14368194302E0C8
:10C4C000436823EA010141607047836843F0080331
:10C4D000836070478068C0F3C0007047836843F092
:10C4E0000403836070478068C0F38000704719B10F
:10C4F000836843F4A00302E0836823F4A00383600D
:10C5000070478068C0F3805070474368013923F456
:10C51000604343EA41334360704719B1436843F4D1
:10C52000006302E0436823F4006343607047092915
:10C5300070B54FEA41040BD964181E3C0725A5408D
:10C54000A340C66826EA050545EA0304C4600AE07C
:10C5500064180725A54013FA04F4066926EA0505C0
:10C5600045EA04030361062A0CD8013A02EB820271
:10C570001F2393409140446B24EA030343EA0102E2
:10C58000426370BD0C2A4FEA82030BD89A18233AF3
:10C590001F2393409140046B24EA030343EA010202
:10C5A000026370BD9A18413A1F2393409140C46AB8
:10C5B00024EA030343EA0102C26270BD19B1836831
:10C5C00043F4801302E0836823F480138360704790
:10C5D000C06C80B27047014B186870474C24014012
:10C5E00019B1436843F4806302E0436823F4806335
:10C5F0004360704719B1436843F4805302E04368D5
:10C6000023F4805343607047836823F4E04341EA96
:10C6100003038360704719B1836843F4004302E069
:10C62000836823F400438360704719B1836843F43F
:10C63000021302E0836823F402138360704780686A
:10C64000C0F340507047092970B54FEA41040BD937
:10C6500064181E3C0725A540A340C66826EA0505C8
:10C6600045EA0304C4600AE064180725A54013FAEC
:10C6700004F4066926EA050545EA04030361836BB1
:10C6800003F440146FEA145412190332D2B202EBCD
:10C6900082021F249440914023EA04030B438363E6
:10C6A00070BD836B013923F4401343EA0153836364
:10C6B000704782B00A5002B0704782B001902830B3
:10C6C000405880B202B07047436823F4400323F41B
:10C6D000007341EA0303436070474162826270471E
:10C6E000436823F01F0341EA030343607047054B8F
:10C6F00018B19A6842F4000202E09A6822F400023B
:10C700009A60704700240140036819420CBF002062
:10C7100001207047C943016070474368006810EA10
:10C72000112004D0C9B219420CBF0020012070476B
:10C730006FEA112101607047044B11B1DA681043B0
:10C7400002E0DA6822EA0000D86070470010024078
:10C7500007B5124B019098420DD0114B984212D060
:10C76000104B984219D14FF400700121FFF7E4FFFC
:10C770004FF400700EE04FF480600121FFF7DCFF02
:10C780004FF4806006E04FF400400121FFF7D4FF32
:10C790004FF400400021FFF7CFFF0EBD00280140FD
:10C7A000003C014000240140044B11B15A69104380
:10C7B00002E05A6922EA0000586170470010024006
:10C7C000044B11B19A69104302E09A6922EA000011
:10C7D000986170470010024008B50120FFF787FFFD
:10C7E00010210A4801220523FFF7A1FE0120FFF7CF
:10C7F000A7FD06480121FFF77AFE02210348FFF753
:10C8000083FF0128F9D1FFF78BFD08BD002401400B
:10C8100008B50120FFF76BFF11210A48012205230B
:10C82000FFF785FE0120FFF78BFD06480121FFF78A
:10C830005EFE02210348FFF767FF0128F9D1FFF7E9
:10C840006FFD08BD00240140024B0E2202FB0030A8
:10C85000704700BFB0950608034B18801A8892B243
:10C86000002AFBD1704700BF74A70020044A4FF490
:10C87000805313604FF0C0421080024A136070472B
:10C88000141401401014014010B5EF20FFF7EEFF23
:10C890004FF0C0431A881C8818881A881988C3B2B8
:10C8A000C9B241EA046141EA0343120643EA124273
:10C8B000014B9A6010BD00BFA0320020054B4FF421
:10C8C00080521A604FF0C0431880034802601980FC
:10C8D000704700BF14140140101401402DE9F041CD
:10C8E000E9204FF0C044FFF7C1FF20222280112031
:10C8F000FFF7BCFF6420FFF7AFFFD120FFF7B6FFC3
:10C90000002517225E232580D02023802280FFF778
:10C91000ADFF0C2607232380362023804FF04008EC
:10C920002680FFF7A3FF3046A4F800804936FFF7C2
:10C930009DFF26803A20FFF799FF2680C120FFF750
:10C9400095FF533E10232380C0202380268026801D
:10C95000FFF78CFF012735232580C5202380258004
:10C96000258027802680FFF781FF2780D220FFF7D0
:10C970007DFF22232780C8202380FFF777FF7322C3
:10C98000372327802280238004220F2325802380C1
:10C99000268022806722A4F80080228025808022C1
:10C9A0002680238008232380292022802580FFF7EA
:10C9B0005DFF2C20BDE8F04158E7002008B5014696
:10C9C000FFF77CFF00200146FFF778FF00200146BB
:10C9D000FFF774FF00200146FFF770FF0A20FFF702
:10C9E0003BFF01214FF4C060FFF768FF0A20FFF70B
:10C9F00033FF40214FF4DE60FFF760FF0A20FFF7AE
:10CA00002BFF4FF480604FF4C441FFF757FF08201D
:10CA100040F60801FFF752FF01204FF48071FFF745
:10CA20004DFF02204FF48071FFF748FF03203021B3
:10CA3000FFF744FF09200121FFF740FF0C200021F0
:10CA4000FFF73CFF90204FF40041FFF737FF0F2026
:10CA50000021FFF733FF10201621FFF72FFF1120D1
:10CA600040F20111FFF72AFF12200021FFF726FFF5
:10CA700013200121FFF722FF4FF480704FF44C7117
:10CA8000FFF71CFF40F2011040F23721FFF716FFBD
:10CA900040F203104FF47061FFF710FF4FF4207065
:10CAA0004FF4D641FFF70AFF4CF2B0114FF48170FA
:10CAB000FFF704FF6420FFF7CFFE4FF440704FF400
:10CAC0004061FFF7FBFE40F2013045F60B21FFF716
:10CAD000F5FE40F2023040F60611FFF7EFFE40F29D
:10CAE000033041F21701FFF7E9FE4FF441704FF4B4
:10CAF0000C51FFF7E3FE40F205304FF4B851FFF759
:10CB0000DDFE40F2063046F20931FFF7D7FE40F273
:10CB1000073040F60941FFF7D1FE4FF4427041F271
:10CB20000C01FFF7CBFE40F2093042F23221FFF751
:10CB3000C5FE4FF404700021FFF7C0FE40F2112043
:10CB4000EF21FFF7BBFE40F212200021FFF7B6FEF7
:10CB500040F2132040F28F11FFF7B0FE4FF4A060B7
:10CB60000021FFF7ABFE40F201500021FFF7A6FEC7
:10CB700040F202500521FFF7A1FE40F201400121E1
:10CB8000FFF79CFE002140F20440FFF797FE64206F
:10CB9000FFF762FE4FF480710720FFF78FFE6420DD
:10CBA000FFF75AFE4FF400700021FFF787FE0021C7
:10CBB00040F20120FFF782FE054A4FF480531360D4
:10CBC00040F202214FF0C0421180024A136008BDBA
:10CBD000141401401014014070B5104C4FF48053F0
:10CBE0004FF40065236001202560FFF735FE0C4BF4
:10CBF0000A201D60FFF730FE32202560FFF72CFE73
:10CC0000FFF742FE074B9A68074B9A4202D1BDE8F4
:10CC1000704063E6BDE87040CFE600BF10140140ED
:10CC200014140140A0320020279304020B4B10B5CE
:10CC30009A680B4B4FF0C0449A4209D12E20FFF75F
:10CC400015FE238824882C20A4B2FFF70FFE02E0F3
:10CC500023882488A4B2204610BD00BFA032002043
:10CC6000279304020EB403B503AA52F8041B0190E3
:10CC700001A80092FFF75FFABDE80C4003B07047CF
:10CC8000AAE713B502AC24F8020D00200146B7F75D
:10CC9000BDFA20464BF68031B7F7C6FAB7F7C0FAAF
:10CCA00020464BF68031B7F7BFFAB7F7B9FA1CBD8B
:10CCB000C1F1EF0110B580B289B21446B7F7A6FAF8
:10CCC0002046BDE81040B7F7A3BAC1F1EF0110B597
:10CCD00080B289B2B7F79AFABDE81040B7F7C4BA84
:10CCE00038B5151A5C1A6C434BF67F35AC4280B2EE
:10CCF00002F1FF35C3F1F0020FD9C1F1EF0392B297
:10CD0000A9B29BB26508B7F789FA04A8A9B2B7F728
:10CD10008BFA641BB7F784FA06E0C1F1EF0392B215
:10CD2000A9B29BB2B7F77AFA04A8A1B2B7F77CFA16
:10CD3000B7F776FA002040F28F110246EF23B7F7DB
:10CD40006DFA38BD37B50D46B0F9021004464B1CDC
:10CD5000B0F90000B4F904200095FFF7C1FFB4F961
:10CD60000630B4F90000591EB4F904200095FFF70D
:10CD7000B7FFB4F90000B4F90210421CB4F9063050
:10CD80000095FFF7ADFFB4F90420B4F90210B4F92F
:10CD90000630501E0095FFF7A3FF3EBD2DE9F14F71
:10CDA0000A9C1E460B9B88461746511E04EB4309FE
:10CDB000C6F1F002C8F1EF03054689B280B292B223
:10CDC0009BB2B7F72BFAA2460CE03AF8020BB7F782
:10CDD0001FFACA4508BFA2460BF1010BBB45F4DBA5
:10CDE00008F10108B04501DAAB46F7E7002040F250
:10CDF0008F110246EF2301B0BDE8F04FB7F70EBA2E
:10CE00002DE9F843B0F80080044689461FFA88F7F8
:10CE1000002614E0B4F9065009E0C5F1EF013846E8
:10CE200089B2B7F7F3F9FFF701FF29F8020BB4F95C
:10CE30000230013D9D42F0DA01370136BFB20FFAF0
:10CE400088F2B4F90430B2189A42E3DBBDE8F88303
:10CE50002DE9F047C28843880D468188C2F1F0026F
:10CE60000139C3F1EF03044689B2008892B29BB244
:10CE7000B7F7D4F90026B4F8028010E0B4F80090B7
:10CE8000002703E035F8020BB7F7C2F90FFA89F271
:10CE9000B4F90430BA1801379A42F3DB01360FFABD
:10CEA00088F2B4F90630B2189A42E7DB002040F26B
:10CEB0008F110246EF23BDE8F047B7F7AFB913B5BE
:10CEC0000346B3F90240B3F90420B0F90000B3F906
:10CED000063000912146FFF703FF1CBD0268034B9B
:10CEE000DA6042681A6102685A617047A032002015
:10CEF00010B50B4C0246B4F91610B4F91400FFF744
:10CF0000D7FEA38AB4F910200133A3821BB29A4240
:10CF100004DCA389A382E38A0133E38210BD00BF4E
:10CF2000A032002070472DE9F74F99460C9B0191E4
:10CF3000924613F801BB054600241DE018F8013B9A
:10CF4000FBB113F0040F4FF61E0305D09A450AD02B
:10CF500028463146524604E0994504D028463146D9
:10CF60004A46FFF7A5FE013701365F454346E5DB3C
:10CF700001340135502C03D0019E98460027F4E778
:10CF800008242046BDE8FE8F2DE9F0411E460F46DD
:10CF9000B6B2C7F1F00714460546B7F747F9B91B13
:10CFA000A8B289B2B7F732F920463146B7F73AF955
:10CFB000BDE8F041B7F734B930F0030309D131F0DF
:10CFC000030208D140EA81000449091891F8180EBB
:10CFD0007047002070471846704700BF98950608B4
:10CFE0002DE9F04F85B004469A469DF839009DF82A
:10CFF00038300D4616469DF83AB002900393274606
:10D0000045E0C5EB0A01701E0139C01B3B1BC8EB94
:10D0100001019842A8BF18464145A8BF4146FFF705
:10D02000CBFF68BBC9F1EF0189B2B8B2B7F7EEF830
:10D03000B7F71AF91A4BC10001F0FF01C208000A44
:10D0400000EA0303C1EB0B000190DDF808C0039870
:10D0500002F0FC02C2EB0C0EC3EB000C03EB6C0302
:10D06000DDF804C0DB1001EB6C00C01040EAC32304
:10D0700002EB6E00801043EA401080B2B7F7C8F8A8
:10D0800009F1010908F10108D145BADB0137B742BE
:10D0900003DAA9464FF00008F6E705B0BDE8F08FC7
:10D0A000F8FF07002DE9F74F06468A4615461C464D
:10D0B000BDF830B088462DE00AF10303984509D148
:10D0C000E71E414630462A463B46CDF800B0FFF702
:10D0D00007FEB846B146002718E0A81B0138611EBC
:10D0E000C01BC8EB0101CAEB0803B842A8BF384611
:10D0F0009942A8BF1946FFF75FFF20B9484641464D
:10D100005A46FFF7D5FD09F101090137A945E4DBCE
:10D1100008F10108A045CFDBBDE8FE8F13B503463B
:10D12000B3F90240B3F90420B0F90000B3F90630B6
:10D1300000912146FFF7B6FF1CBD2DE9F74F019086
:10D140009DF830001F460D469246FFF77DFB4FF6D7
:10D150001E039F4283461DD100241BF80480019FBB
:10D160006FEA08085FFA88F8082618F0800F04D0E4
:10D17000384661195246FFF79BFD013EF6B2013772
:10D1800026B14FEA48085FFA88F8EEE701340E2C22
:10D19000E3D145E09A451FD100241BF80490DDF847
:10D1A00004806FEA09095FFA89F9082619F0800FEF
:10D1B00004D1404661193A46FFF77AFD013EF6B2C6
:10D1C00008F1010826B14FEA49095FFA89F9EDE74C
:10D1D00001340E2CE1D123E000241BF80490019EC1
:10D1E0006FEA09095FFA89F94FF0080819F0800F12
:10D1F00008F1FF38304614BF52463A4629465FFAD6
:10D2000088F8FFF755FD0136B8F1000F04D04FEA5A
:10D2100049095FFA89F9E9E7013401350E2CDCD1BF
:10D220000820BDE8FE8F2DE9F7430A9F05460E460C
:10D2300091469846AFB1387818B913E00A2B02D15D
:10D2400010362C4607E00093204631464A464346B6
:10D25000FFF773FF241817F8013B002BEED1601B7A
:10D2600000E03846BDE8FE83DDE72DE9F043A5B0D8
:10D2700015462CAA0E4652F8041B07460DF1080865
:10D2800023A899462292CDF88C80FEF754FF3146B0
:10D2900004462A4638464B46CDF80080FFF7E4FFA7
:10D2A000204625B0BDE8F08337B5124B05460C4645
:10D2B000009330211F2328204FF6FF72FFF7D4FF81
:10D2C00020211F234FF6FF7228200095FFF7CCFF87
:10D2D000A0B2FFF74DF8102100904FF6FF72282002
:10D2E0001F23FFF7C1FF4FF47A7003B0BDE8304051
:10D2F000FFF726B877A4060808B502480421FFF70F
:10D30000D3FFFEE789A406080FB430B5A5B028AA5C
:10D3100052F8041B02AC23A823942292FEF70BFFC1
:10D3200023941EE00A2B134C03D0A569B5F5C47FE6
:10D3300009DBE26900230E32E02AA361E2610DDD20
:10D340000C4AD3610AE000932846E1694FF6FF7268
:10D350004FF43043FFF7F1FE4019A061239B0133E6
:10D360002393239B1B78002BDCD125B0BDE83040F4
:10D3700004B07047A03200202DE9F74FC0EB020B3C
:10D380005F1A1FFA8BFBBFB20FFA8BFA0FFA87F8FE
:10D390004FEADB3BFF0BBDF83090BAF1000FD4BF72
:10D3A000CBF1000BCBF1010BB8F1000FD4BF7F42E2
:10D3B000C7F10107BAF1000FB8BFCAF1000AB8F10E
:10D3C000000FB8BFC8F100084FEA4A0A4FEA480800
:10D3D00000921FFA8AFA1FFA88F84A460193044617
:10D3E0000D460FFA8AF6FFF763FC0FFA88F39E42A8
:10D3F00020DB1FFA88F8A8EB6606B6B216E016F432
:10D40000004F09D11EB94FFA8BF3002B04DD7BB21C
:10D41000CAEB0606ED18B6B24FFA8BF3E418464491
:10D42000204629464A46B6B2FFF742FC009B9C4282
:10D43000E5D11EE01FFA8AFAAAEB6306B6B215E040
:10D4400016F4004F09D116B97BB2002B05DD4FFA57
:10D450008BF3C8EB0606E418B6B27BB2ED1856445F
:10D46000204629464A46B6B2FFF722FC019B9D4260
:10D47000E6D1BDE8FE8F0020FFF7E6B908B5002130
:10D480000420B6F7E7FEC3439BB2C3F3802013F436
:10D49000006F1CBF40F0020080B213F4805F18BF21
:10D4A00040F4807013F0080F18BF40F0040013F42C
:10D4B000004F18BF40F0080013F0400F18BF40F4B1
:10D4C000007013F4804F18BF40F0100013F4005F99
:10D4D00018BF40F0200013F4807F18BF40F04000D8
:10D4E00013F4007F18BF40F0800008BD07B50B2083
:10D4F0000021B6F7AFFE40B9074B303000931E2134
:10D500001F224FF6FF73FFF78EFE1420002103B099
:10D510005DF804EBB6F79ABEAFA40608024B0146CD
:10D5200018712420B6F792BE00300020014B187904
:10D53000704700BF0030002070B50CE09C1804EB71
:10D54000D474641050F8246025468E4201D2621CC7
:10D5500001E004D9631E9342F0DA4FF0FF3528460C
:10D5600070BD2DE9F84F214C074604F56260083084
:10D570000E4615469846002215230C99FFF7DCFF4E
:10D58000B0F1FF3F9DF82890BDF82CA083462AD02B
:10D590000C9A174B05209A600021B6F757FE092018
:10D5A0003946B6F753FE0A203146B6F74FFE002043
:10D5B0002946B6F74BFE0B204146B6F747FE0C2036
:10D5C0004946B6F743FE04EB4B0401205146B6F73B
:10D5D0003DFE0720B4F8801EB6F738FE0820B4F8E8
:10D5E000AC1EB6F733FEBDE8F88F00BF989506086D
:10D5F0000030002008B503200021B6F72BFEC0B292
:10D6000008BDB6F717BE08B506200121B6F71EFE05
:10D61000FEF78CFE014B186208BD00BFA03200204F
:10D620002DE9F04106460C462220314615461F469C
:10D63000B6F70CFE21202146B6F708FE202047EA67
:10D64000C501BDE8F041B6F701BEB0F5805F70B529
:10D6500003DD0A48CA21FFF727FE094C04F580457F
:10D660002668FFF7CEFF06F07F4620F07F4040EAB5
:10D67000060644F8046BAC42F2D170BDC8A406089B
:10D68000C43200204FF480507047B0F5805F10B571
:10D69000044603D30348DB21FFF706FE024800EBF4
:10D6A000840010BDC8A40608C432002010B50021B3
:10D6B0000220B6F7CFFD00210120B6F7CBFD0021F7
:10D6C00000F001040320B6F7C5FD10F0010F18BFEC
:10D6D00044F00204204610BD08B5FEF727FE0B4BB0
:10D6E0001B6AC01A19F048FA094919F04DFB094B99
:10D6F000996819F049FB084919F092FA19F056FC9B
:10D70000B0F5805FA8BF4FF4805008BDA032002064
:10D7100000007A44003000200000F041034670B55C
:10D7200010200C4619461546B6F790FD11202146EB
:10D73000B6F78CFD12202946BDE87040B6F786BDCD
:10D74000094B10B51A68094C22F001021A60084A08
:10D75000146043F2B0521A60064A116090601A6871
:10D7600042F001021A6010BD4404024008740040F7
:10D770004C04024048040240034B0121A3F83C0D35
:10D7800003F552601C30DBE78865002001460D2060
:10D79000B6F75CBD00487047C672002008B5034666
:10D7A00002730020012A587305D11A46094808332C
:10D7B000B6F76CFD06E0022A09D11A46054808337F
:10D7C000B6F762FDD0F1010038BF002008BD01208E
:10D7D00008BD00BFC672002008B5034608461946BA
:10D7E000B6F756FDD0F1010038BF002008BD10B5D6
:10D7F000044608462146B6F74DFD20B9637B01304B
:10D800000133637310BD002010BD10B5037B0446C7
:10D81000022B10D1B1F1FF3F08BF417B224608BF68
:10D820004902074804F10803B6F736FD28B9032377
:10D830002373013010BD012010BD002010BD00BFBA
:10D84000C6720020024B034A93FBF0F3138170472A
:10D8500000A24A040038014005E0054A118811F091
:10D86000800FFAD0938010F8013B002BF5D1704760
:10D87000003801400F4B10489A6942F480429A6187
:10D880000E4A40F27123138142F22C0393811388D4
:10D8900023F4A46323F005031B041B0C1380084B23
:10D8A0005A6822F47F6242F40A625A604FF480623E
:10D8B0001A61D1E700100240F2A4060800380140C6
:10D8C0000008014010B54FF4FA70FEF739FDFFF77C
:10D8D000D7F9FFF70BFEBDE81040CBE705F008BE17
:10D8E000034B1A8812F0800FFAD09880704700BF5F
:10D8F000003801400E200021B6F7ACBC0D200021FD
:10D90000B6F7A8BC0F200021B6F7A4BC1020002158
:10D91000B6F7A0BCB6F792BC014B9868704700BF41
:10D92000A03200202DE9F0433F3189B0234B8046DF
:10D9300087B28CB2ADF1020213F8010C1978C01055
:10D940008910C002490141185878043301EBD00115
:10D9500022F8021F1A498B42EED11A4E3D4616F8A4
:10D96000013B08AA1B0902EB430328460135214667
:10D9700033F8202CADB208F1FF09FFF799F94D45B6
:10D9800002DD013CA4B23D4616F8013C08AA03F0B2
:10D990000F0302EB430328460135214633F8202CC0
:10D9A000ADB2FFF785F94D4502DD013CA4B23D461D
:10D9B000054B9E42D3D109B0BDE8F08337D80308A8
:10D9C00077D8030876D8030876F80308704700BFB5
:10D9D000014B1860704700BFC87400207047014BAE
:10D9E00018687047C874002037B5FEF79FFC294CB3
:10D9F0002368B3F1FF3F08BF20602368C51AB5F55F
:10DA00007A7F0ED94FF47A72B5FBF2F502FB05333B
:10DA100020490B6005F09EF900F53250C36DED18FA
:10DA2000C565FFF72BFDADF8060000B9A08005F035
:10DA300091F900F546500DF10601583003F0ECFE67
:10DA400005F088F900F5465058300DF1060103F055
:10DA5000EBFEBDF80630ABB105F07CF90221BDF854
:10DA6000062009F045FCBDF80620A3889A4206D09E
:10DA7000094B1B681B7A13B93220FEF76BFCBDF80B
:10DA80000630A38005F066F90321002209F030FC7E
:10DA900001203EBD1030002088A7002010B5FFF700
:10DAA00011FF05F057F909F0D6F905F053F90121F6
:10DAB000002209F01DFC14F0AFFA14F067FA14F01C
:10DAC000CFF8BDE81040FFF79EBD00BF08B5036862
:10DAD00049421B6849B2984708BD0000014B1868CD
:10DAE000704700BF68B80608704701207047436858
:10DAF000826819688A181A607047436882681968D2
:10DB00008A1A1A6070470820704783681B78CB1800
:10DB100005D4027B9342CCBF002001207047002037
:10DB2000704783681A7801321A70704783681A78D0
:10DB3000013A1A70704783681970704783681878C3
:10DB4000704702207047182070470220704700205D
:10DB5000704700207047082070470000034B1B6887
:10DB6000586A0028B8BF03308010704788A700208B
:10DB70000020704719207047034B1B68986A0028E3
:10DB8000B8BF03308010704788A70020002070477E
:10DB90001920704770477047436882681B68CB182C
:10DBA000934205DBC0688342CCBF00200120704750
:10DBB0000020704743681A6801321A607047436852
:10DBC0001A68013A1A607047024840F21F11FFF7C5
:10DBD0006BBB00BF98B2060808B503484FF48F71BD
:10DBE000FFF762FB002008BD98B20608024840F229
:10DBF0001D11FFF759BB00BF98B2060802484FF449
:10DC00008E71FFF751BB00BF98B20608024840F280
:10DC10001B11FFF749BB00BF98B2060808B50348BF
:10DC200040F21911FFF740FB022008BD98B2060828
:10DC300039B9042A05D146F26742934201D108F06E
:10DC4000D3BC704739B9042A05D146F267429342E2
:10DC500001D108F0C9BC704739B9042A05D146F290
:10DC60006742934201D108F0BFBC7047C36A70B5E8
:10DC700004460D461BB916484E21FFF715FB15F05B
:10DC8000010F07D0E36A9A7922B1013A9A712046CE
:10DC900008F0AAFC15F0020F08D0E36A9A790A2A64
:10DCA00004D801329A71204608F09EFC15F0100F3E
:10DCB00008D0E168E36A204646F66352BDE870404A
:10DCC00008F099BC20462946BDE8704008F009BD1F
:10DCD000B2B2060811F0100F70B505460C4605D01B
:10DCE000C16846F66F52002308F085FC284621469D
:10DCF000BDE8704008F0F5BC11F0010F70B50446A6
:10DD00000D4615D0C06A012103685B689847012859
:10DD10000ED1E06A00210368DB689847204608F0CE
:10DD200063FC2046E16847F27052002308F063FC70
:10DD300015F0020F15D0E06A012103681B689847AF
:10DD400001280ED1E06A002103689B6898472046AD
:10DD500008F04AFC2046E16847F27052002308F0C0
:10DD60004AFC15F0100F0ED0E06A0368DB69984793
:10DD7000084B1B68984206D02046E16846F665428B
:10DD8000E36A08F038FC20462946BDE87040FFF7FA
:10DD9000A1BF00BF68B8060811F0010F70B50446B6
:10DDA0000D460DD0C36A002B0ADD013BC36208F0AB
:10DDB0001BFC2046E16846F67512002308F01BFCA8
:10DDC00015F0020F0ED0E36A132B0BDC0133E36274
:10DDD000204608F009FC2046E16846F6751200234B
:10DDE00008F009FC20462946BDE87040FFF772BFE5
:10DDF00011F0010F70B504460D460DD0C36A012B1A
:10DE00000ADD013BC36208F0EFFB2046E16846F6FD
:10DE10007512002308F0EFFB15F0020F0ED0E36A35
:10DE20001D2B0BDC0133E362204608F0DDFB2046AE
:10DE3000E16846F67512002308F0DDFB204629460E
:10DE4000BDE87040FFF746BF11F0200F70B50546E2
:10DE50000C4606D0C06846F278520146002308F00E
:10DE6000CAFB28462146BDE8704008F03ABC0000D5
:10DE700011F0010F70B504460D4615D0006A01215E
:10DE800003685B68984701280ED1206A0021036867
:10DE9000DB689847204608F0A7FB2046E16847F278
:10DEA0007052002308F0A7FB15F0020F15D0206A6E
:10DEB000012103681B68984701280ED1206A0021C0
:10DEC00003689B689847204608F08EFB2046E1686F
:10DED00047F27052002308F08EFB15F0100F0ED0A1
:10DEE000206A0368DB699847084B1B68984206D094
:10DEF0002046E16846F66542236A08F07CFB20462E
:10DF00002946BDE87040FFF79FBF00BF68B806080C
:10DF100011F0010F70B504460D4615D0C06A0121FD
:10DF200003685B68984701280ED1E06A0021036806
:10DF3000DB689847204608F057FB2046E16846F624
:10DF40007512002308F057FB15F0020F15D0E06A98
:10DF5000012103681B68984701280ED1E06A00215F
:10DF600003689B689847204608F03EFB2046E1681E
:10DF700046F67512002308F03EFB20462946BDE810
:10DF8000704008F0AEBB0000C36A70B504460D4691
:10DF90001BB91A482A21FFF787F915F0100F08D08E
:10DFA000E168E36A204646F66352BDE8704008F037
:10DFB00022BBE36A1A79043AD2B2012A17D815F0C3
:10DFC000010F08D0DA6812F1FE0F04DB013ADA60C3
:10DFD000204608F009FB15F0020F08D0E36ADA6862
:10DFE000FE2A04DC0132DA60204608F0FDFA204601
:10DFF0002946BDE8704008F074BB00BFDDB20608DA
:10E00000C36A70B504460D461BB91D482221FFF7AF
:10E010004BF915F0100F08D0E168E36A204646F688
:10E020006352BDE8704008F0E6BA15F0010F0ED05B
:10E03000E36A1A795AB1013A1A71204608F0D4FA03
:10E040002046E16846F67512E36A08F0D4FA15F046
:10E05000020F0FD0E36A1A790B2A0BD801321A711A
:10E06000204608F0C1FA2046E16846F67512E36AD8
:10E0700008F0C1FA20462946BDE8704008F031BBDF
:10E080000BB30608C36A70B504460D461BB91648A3
:10E090004D21FFF709F915F0010F07D0E36A9A79CE
:10E0A00022B1013A9A71204608F09EFA15F0020F4B
:10E0B00008D0E36A9A79092A04D801329A71204675
:10E0C00008F092FA15F0100F08D0E168E36A2046D4
:10E0D00046F66352BDE8704008F08DBA20462946E6
:10E0E000BDE8704008F0FDBA3AB30608C36A70B5DF
:10E0F00004460D461BB916484D21FFF7D5F815F01B
:10E10000010F07D0E36A9A7922B1013A9A71204649
:10E1100008F06AFA15F0020F08D0E36A9A79092A22
:10E1200004D801329A71204608F05EFA15F0100FFB
:10E1300008D0E168E36A204646F66352BDE87040C5
:10E1400008F059BA20462946BDE8704008F0C9BA1F
:10E150005CB3060830B5028400250122456280F8D0
:10E160002820BDE8304008F003BA00007FB5043332
:10E1700002AC05460E4693E8030084E80300BDF8B0
:10E180000E30284604339BB2ADF80A300733ADF8A1
:10E190000E30044942F002022346009608F0E8F9E6
:10E1A0007FBD00BF7EB306087FB5043302AC0546D1
:10E1B0000E4693E8030084E80300BDF80E302846BD
:10E1C00002339BB2ADF80A300733ADF80E30044984
:10E1D00042F002022346009608F0CAF97FBD00BF54
:10E1E0008AB3060830B5049D028401224562BDE869
:10E1F000304008F0BDB92DE9FF410A9E0D460021CF
:10E200004162028480F8283004464FF011083046FD
:10E2100008FB03F808F064F95FFA88F802AF68B108
:10E22000304608F05DF9043003C887E80300BDF804
:10E230000E3002339BB2ADF80A3006E0331D93E88E
:10E24000030087E80300BDF80A30984420462946B9
:10E25000012202ABADF80E80009608F089F9BDE806
:10E26000FF81FFF7C8BF00002DE9F041DDF81880FD
:10E27000044615461F460E4621B9084840F21B21A8
:10E28000FFF712F8204629463A460223E662CDF807
:10E290001880BDE8F041FFF7AEBF00BF98B2060896
:10E2A000DBB2FFF7A8BFFFF7A6BF10B50A24C46210
:10E2B000BDE81040FFF79FBF10B50A24C462BDE857
:10E2C0001040FFF798BF000073B5044616460D4690
:10E2D00019B907480C21FEF7E7FFE5622046002147
:10E2E00046F20C3202230096FFF785FF7CBD00BF8B
:10E2F000DDB2060810B50524C462BDE81040FFF782
:10E300007ABF13B503469C685B682478088853F885
:10E310002430B1F9021000934FF6FF73002A14BFA6
:10E320001A4600224FF61E03FEF77DFF1CBD0000BB
:10E330002DE9F341274DB0F906402B68B0F9046090
:10E34000B3F84C20244B2146009330460023FEF7BF
:10E350006AFF2B68214F93F84A30214657F8233043
:10E36000801900934FF6FF720023FEF75CFF2B68C5
:10E3700006F16408B3F86020194B2146009340462B
:10E380000023FEF750FF2B68214693F85E3040448F
:10E3900057F823304FF6FF7200930023FEF743FF38
:10E3A000104BC83600932146002330464BF296525C
:10E3B000FEF739FF2B68801993F898200A4B214605
:10E3C00053F822304FF6FF7200930023FEF72BFF25
:10E3D000BDE8FC8188A70020C3EE06087CB90608CA
:10E3E000A9EF060896B30608E4B9060813B5043089
:10E3F0000021FEF764FD2D4B4021009304200023F3
:10E4000048F21042FEF70FFF294B50210093294C90
:10E410000023042048F21042FEF705FF602100238C
:10E42000082044F208220094FEF7FDFE224B7021E2
:10E4300000930420002348F21042FEF7F4FE1F4B25
:10E44000802100930420002348F21042FEF7EBFEE7
:10E450001B4B902100930420002348F21042FEF74A
:10E46000E2FEB0210023082044F208220094FEF7C7
:10E47000DAFE144BC0210093042048F2104200231E
:10E48000FEF7D1FE104BD02100930420002348F268
:10E490001042FEF7C8FE0D4B04200093E02148F225
:10E4A00010420023FEF7BFFE1CBD00BF9AB3060852
:10E4B000ABB30608B8B30608E1B30608F8B306081C
:10E4C00014B4060825B4060838B4060850B4060883
:10E4D000F7B50E88154B083E4FF6FF75002A08BFAA
:10E4E0000025B6B20C460746B1F902102A46009341
:10E4F00030464FF61E03FEF716FD7B683618B6B29F
:10E50000B4F90210009330462B464FF61E02FEF778
:10E510008AFE074B30180093B4F902102A464FF6D2
:10E520001E0380B2FEF7FFFCFEBD00BF0A04070811
:10E530007C04070873B5044608F046F8A688144B17
:10E54000083E4FF6FF75002808BF0025B6B2B4F9A3
:10E55000061000932A4630464FF61E03FEF7E3FCF2
:10E56000E3693618B6B2B4F90610009330462B466C
:10E570004FF61E02FEF757FE064B30180093B4F913
:10E5800006102A464FF61E0380B2FEF7CCFC7CBD77
:10E590000A0407087C04070813B504464FF6FF7108
:10E5A0000430FEF78CFCB4F90400B4F90A10054BF2
:10E5B00008300093143900224FF61E03FEF733FE95
:10E5C0001CBD00BF5DB4060808B583681A784368AF
:10E5D00053F8220019F008F8C3004FF6F87003EA68
:10E5E000000008BD7FB5436804460D46164623B9B2
:10E5F000124840F2CB21FEF757FE63681A68A36801
:10E6000092FBF3F20A2392FBF3F103FB11220023A6
:10E61000ADF80C30303204AB03F8042D4FF6FF7226
:10E620000093B5F90000B5F90210002E08BF0022D2
:10E630004FF61E03FEF718FE7FBD00BF98B2060816
:10E6400070B50E4615461C4607F043FF2A460146A4
:10E6500023463046BDE8704007F0CDBF11F0130FE0
:10E6600070B505460C4607D007F033FF022201467D
:10E670002346284607F0BFFF28462146BDE87040E4
:10E6800008F02FB811F0010F2DE9F04104460D46B6
:10E6900016D0006A012103685B68984780B1206A40
:10E6A00000210368DB689847204607F012FF07F057
:10E6B0009BFFE06847F27052C168002307F09BFFA0
:10E6C00015F0020F16D0206A012103681B689847D5
:10E6D00080B1206A002103689B689847204607F0B4
:10E6E000F8FE07F081FFE06847F27052C16800232E
:10E6F00007F081FF15F00C0F0FD00C4E2046294675
:10E700003768FFF7A1FB3368BB420CD0204607F007
:10E71000E0FEBDE8F04107F067BF20462946BDE8AE
:10E72000F041FFF791BBBDE8F08100BF9CA700203E
:10E7300010B50C4607F0CDFE036821465B6898478C
:10E7400010BD11F0130F10B50C4606D007F0C1FE36
:10E75000036821465B68984710BDBDE8104007F08C
:10E76000C0BF000011F0030F10B507D0FFF7D0FBBA
:10E77000044B1868BDE8104006F0ECBABDE8104044
:10E78000FFF7C6BB88A7002011F0030F10B507D014
:10E79000FFF7BEFB044B1868BDE8104006F0DABA7C
:10E7A000BDE81040FFF7B4BB88A7002011F0030FAD
:10E7B00010B507D0FFF7ACFB044B1868BDE810405C
:10E7C00006F0C8BABDE81040FFF7A2BB88A700203A
:10E7D00008B54368B3F9000007F08CFB18F004FF9C
:10E7E000C3004FF6F87003EA000008BD4368F7B5B0
:10E7F0004FF6FF7604460D46002A08BF00261BB9D7
:10E8000013489721FEF750FD6368B5F9007018684A
:10E81000A368984202DBE36898420ADD0D4BB5F924
:10E8200002100093384632464FF61E03FEF7FBFCFB
:10E830000CE000B2B5F9024007F05CFB2146009005
:10E84000324638464FF61E03FEF70EFDFEBD00BFF2
:10E850006AB4060885B406082DE9F0471F4647F25A
:10E8600070539A4204460D4616463FD100F13803D4
:10E8700099423BD1436A93F80480A8F104095FFAF6
:10E8800089F9B9F1010F8CBF4FF000094FF0010970
:10E89000B9F1000F06D0A8F10503D3F1000848EB49
:10E8A000030801E04FF0010804F1A00A504607F008
:10E8B00084FF814506D04946504607F0A4FE4FF03C
:10E8C000010901E04FF0000904F16C0A504607F01D
:10E8D00074FF804504D05046414607F094FE02E0A4
:10E8E000B9F1000F02D0204607F07EFE20462946EF
:10E8F00032463B46BDE8F047FFF7A2BEF7B5436896
:10E900000E881C88083E134BB6B20D462246B1F95C
:10E910000210304600934FF61E03FEF704FB361834
:10E920002046B5F9027007F029FBB6B200903946CF
:10E93000234630464FF61E02FEF796FC064B301873
:10E940000093B5F9021022464FF61E0380B2FEF77F
:10E95000EAFAFEBD0A0407087C040708002280F8D2
:10E96000312008F055B844F644418A4201D108F0FC
:10E970004FB844F645418A4202D1012280F8202056
:10E98000704744F644439A4201D108F041B844F636
:10E9900045439A4202D1642107F040BF70470121EC
:10E9A00017F042B910B544F64444A24204D045F2EF
:10E9B0004834A24207D153B9002380F83130BDE872
:10E9C000104008F025B844F64544A24200E0012B6F
:10E9D00003D1012380F8303010BD49B9042A07D192
:10E9E00046F2674293420CD1BDE8104017F01CB9C3
:10E9F00047F269439A4204D10021BDE8104016F065
:10EA0000DEBE10BD11F0100F70B5044617D007F030
:10EA100062FD18B90A483D21FEF746FC204607F082
:10EA200058FD0546204607F056FD0346DB692046A3
:10EA3000294646F26452BDE8704007F0DCBD70BD67
:10EA400087B4060801804280704710B58380BDF806
:10EA5000083001804280C38010BD00007FB5DE23F6
:10EA600005460E461446009300211622D33B02A809
:10EA7000FFF7EBFF2846044944F0020202AB009680
:10EA800007F076FD7FBD00BFAAB406087FB5152349
:10EA900005460E46144600930C21102202A84FF49E
:10EAA0009C73FFF7D2FF2846034944F0020202ABF1
:10EAB000009607F05DFD7FBDBEB406087FB5F0236C
:10EAC00005460E461446009300211022A03302A8EA
:10EAD000FFF7BBFF2846044944F0020202AB009650
:10EAE00007F046FD7FBD00BFD1B406087FB5F02317
:10EAF00005460E461446009300211022A03302A8BA
:10EB0000FFF7A3FF2846044944F0020202AB009637
:10EB100007F02EFD7FBD00BFDDB406087FB5F023F2
:10EB200005460E461446009300211022A03302A889
:10EB3000FFF78BFF2846044944F0020202AB00961F
:10EB400007F016FD7FBD00BFEDB406087FB5F023CA
:10EB500005460E4614460093002110224C3302A8AD
:10EB6000FFF773FF2846044944F0320202AB0096D7
:10EB700007F0FEFC7FBD00BFFDB4060870B5F023B2
:10EB800088B004460E461546009300211022A0339B
:10EB900006A8FFF75AFF20461A4945F0200206ABA7
:10EBA000009607F0E5FCB4F90A204FF49671009244
:10EBB0004FF4A573103A04A8FFF747FF04F1400093
:10EBC0001149012204AB009407F0D2FCB4F90A20E9
:10EBD0004FF4B47100924FF4C373103A02A8FFF7D8
:10EBE00034FF04F120000949012202AB009407F030
:10EBF000BFFC00232366FEF745FD0138606608B0C0
:10EC000070BD00BF09B5060816B506081BB5060895
:10EC10007FB5F02305460E461446009300211022CE
:10EC2000A03302A8FFF711FF2846044944F012025E
:10EC300002AB009607F09CFC7FBD00BF20B5060824
:10EC40007FB5F02305460E4614460093002110229E
:10EC5000A03302A8FFF7F9FE28460349224602AB7B
:10EC6000009607F085FC7FBD30B50608B0F904209A
:10EC7000B0F90030D0184010704707B5B0F9003037
:10EC8000B0F90410B0F90620C918B0F902304910E3
:10EC9000D218521001A8FFF7D5FE019B00209AB2AE
:10ECA00062F30F001B0C63F31F400EBD10B5048808
:10ECB000091901804188521842808288D31A8380C2
:10ECC000C288029BD31AC38010BD10B50488611A94
:10ECD000018041888A1A428082889B188380029A28
:10ECE000C388D318C38010BDB0F90420B0F9003038
:10ECF000D01A7047F0B587B004AC051D064695E8FC
:10ED0000030084E80300012100220B462046009204
:10ED1000FFF7DBFF204648F21041FEF7D0F894E8F9
:10ED20000300184B02AF1B6887E803002846B3F8BE
:10ED30009A40FFF7D9FFBDF80A3004FB00F2013317
:10ED4000ADF80A3004F59674BDF80E304443013B2B
:10ED5000ADF80E30B388384603EB223203EB24348F
:10ED6000BDF81430ADF80C40ADF8082024B21AB24A
:10ED70009442C8BFADF80C300021FEF7A0F807B0F0
:10ED8000F0BD00BF88A7002073B5051D0021044613
:10ED90002846FEF794F80F4B1B68B3F8AA60B3F847
:10EDA0009A30F61A36B2002E12DB2846FFF79CFF87
:10EDB00086420DDAB4F90400074B04380093B4F925
:10EDC0000610801946F20C324FF61E03FEF7ABF820
:10EDD0007CBD00BF88A700207603070830B5051D5D
:10EDE00085B0044600212846FEF769F8384B80219B
:10EDF00000930420002348F21042FEF714FA354B2A
:10EE0000802100937E230193A0207E3B4BF29652FB
:10EE1000FEF72BFA304B902100930420002348F298
:10EE20001042FEF700FA2D4B90210093A020002302
:10EE30004BF29652FEF7F7F9294BA02100930420DC
:10EE4000002348F21042FEF7EEF9264BA020009373
:10EE5000014600234BF29652FEF7E5F9224BB02112
:10EE600000930420002348F21042FEF7DCF91F4B08
:10EE7000B0210093A0204BF296520023FEF7D3F965
:10EE80001B4BC02100930420002348F21042FEF7E0
:10EE9000CAF9184BC0210093042301930133029354
:10EEA000033B03934BF29652023BA020FEF7DDF9A1
:10EEB0002846FFF719FFB4F90610A0F5807000EBA3
:10EEC000D0704010183105B0BDE83040FEF72ABDC3
:10EED0003AB506084CB5060858B5060862B50608E6
:10EEE0006AB5060874B5060881B5060891B5060826
:10EEF000A6B50608B8B50608F7B5061D00210546F3
:10EF00003046FDF7DCFF514B802148F21042009360
:10EF100004200023FEF787F9FEF7F0FC8021002390
:10EF200000904BF29652A020FEF77DF9484B9021BD
:10EF300048F21042009304200023FEF774F9FEF714
:10EF4000E1FC9021002300904BF29652A020FEF7A6
:10EF50006AF9404BA02148F210420093042000239C
:10EF6000FEF761F9FEF7D2FC0090A02000230146D5
:10EF70004BF29652FEF757F9374BB02148F2104248
:10EF8000009304200023FEF74EF9FEF7B3FCB021F6
:10EF900000234BF296520090A020FEF744F9FEF7B2
:10EFA000BBFC2E4B0446009304200023C02148F2F2
:10EFB0001042FEF738F92A4B2A4F9C4204D02A4BC4
:10EFC0009C4203D064B114E0284B00E0284B00932E
:10EFD000A020C0214BF296520023FEF724F911E045
:10EFE000244BA0200093C0214BF296522346FEF7FB
:10EFF0001AF9A020C0214BF29652002300970194E9
:10F00000FEF733F91C4BD021009348F21042002345
:10F010000420FEF708F9FEF77DFCD02101904BF2A9
:10F0200096520023A0200097FEF71FF93046FFF705
:10F030005BFEB5F90610A0F5807000EBD0704010B3
:10F04000183103B0BDE8F040FEF76CBCC5B506084A
:10F05000D7B50608E7B50608F5B5060802B60608EE
:10F060007667610026B606082793040212B60608E2
:10F0700016B606081EB606082BB60608B0F9062016
:10F08000B0F90230D01A70470388CB180380838808
:10F09000C91843888180D3184380C388D218C2809E
:10F0A00070470023038043808380C3807047B0F99A
:10F0B0000420B0F900309A42D4BF002001207047EC
:10F0C0002DE9F04F00F126068BB004463046FFF7DD
:10F0D000EEFF0546002847D108AF04F1040898E880
:10F0E000030087E8030001210A460B4638460091D9
:10F0F000FFF7EBFD38464BF29651FDF723FE29460C
:10F100004046FDF7DCFE48F21042ADF81650ADF86F
:10F110001850ADF81A50ADF81C50ADF81420193540
:10F12000B4F90400B4F90A3005AA2818009205229F
:10F130000192043B421CB4F906101935FDF72EFE6E
:10F14000FA2DEDD1E13DB4F9061005AB6918009335
:10F1500005230193B4F904004B1CB4F908201935B8
:10F16000FDF71CFEC82DEED1236A002B00F0A7800E
:10F17000251D2846FFF7B8FD80462846FFF77EFF8D
:10F18000B4F90AA0323803902046AAF1190A07F010
:10F190001BFA60B1216BA38C01FB08F198FBF3F221
:10F1A00002EBD27291FBF3F303EB620301E06FF029
:10F1B000130330460293FFF77AFF18B9E084A4F8EE
:10F1C0002A802BE0B4F90420B4F9263000259A42B5
:10F1D000A8BF1346E384B4F90820B4F92A3001210A
:10F1E0009A42B8BF134663852A460B4630460095BF
:10F1F000FFF75CFD30462946FDF761FE01213046F0
:10F200002A460B460095FFF760FDB4F90410B4F9E7
:10F210000620304649425242FFF736FF4FF00009C0
:10F22000E58CCB4644E0A28C236A6A4392FBF8F259
:10F2300033F81270B7F5805F03D322485D21FEF7E3
:10F2400033F8039AB4F92630574344BF07F57E6775
:10F250001F373F13B4F90420BFB29D4208BFBB461D
:10F26000AA184FF6FF730093501EC7EB0A03CBEBAF
:10F270000A01FEF781F8029B9D4208BFB94603339D
:10F280009D4212D1B4F904000F4B626B0638AAF10B
:10F29000040100934019C9EB0101082A14BF16228A
:10F2A0001F224FF61E03FDF73EFE0135ADB2BB46F1
:10F2B000B4F92A309D42B6DB3046FFF7F2FE0BB0C0
:10F2C000BDE8F08F3AB60608A40D070813B504464A
:10F2D000B4F90220B0F90000B4F9063000911146EB
:10F2E00000F10C02FDF7DEFEB4F90000B4F90210E3
:10F2F000B4F90420B4F9063008304BF29654009467
:10F30000FDF7EEFC1CBD37B50446B4F90250B0F968
:10F310000000B4F90420B4F90630023800912946FF
:10F32000FDF7C0FEB4F90000B4F90210B4F90420EE
:10F33000B4F9063006304FF6FF740131013A013B53
:10F340000094FDF7AFFE3EBD07B50346B0F90000DF
:10F350000022B3F90210B3F90630009200F108025E
:10F36000FDF7BEFC0EBD37B50446B0F90000B4F998
:10F370000210B4F90630002500F108020095FDF7EF
:10F38000AFFCB4F90420B4F90210B4F90630101F30
:10F390000095FDF7A5FC3EBD436A37B504460BB1A9
:10F3A0001B880384204607F00FF9231D18B1184667
:10F3B000FFF7D9FF02E01846FFF7C6FFA3882046F3
:10F3C0000433A38007F000F90546218C201D5DB1B0
:10F3D000FFF799FFE369B3B1B4F90400B4F906107B
:10F3E00000930C3000220AE0FFF770FFE36953B18D
:10F3F000B4F90400B4F9061000930C302A464FF615
:10F400001E03FDF710FFA388043BA3803EBD000050
:10F41000F0B5C669002585B00446C561FFF7BCFF9D
:10F42000E661231D02AE93E803002A4686E8030046
:10F430002B46304610210095FFF738FCE3692A4639
:10F44000BDF90A100093BDF908004FF61E03FDF741
:10F45000EAFEBDF80A3020461033ADF80A3007F056
:10F46000B3F80246002837D0BDF808701E4B083F9D
:10F47000BFB2BDF90A102A46009338B24FF61E03F8
:10F48000ADF80870FDF74FFD3818ADF80800E06AD8
:10F4900003685B699847BDF90A100746BDF9080083
:10F4A00001F10E033A180095FDF71AFCE06A3146A7
:10F4B000036801221B699847BDF80830BDF90A109E
:10F4C000FF180A4B38B200932A464FF61E03ADF8D8
:10F4D0000870FDF728FD04E0E06A314603681B6907
:10F4E000984705B0F0BD00BF0A0407087C04070870
:10F4F000F0B5044685B0FFF74FFFB4F90450B4F9F6
:10F500000670E369103500932846394600224FF60D
:10F510001E03FDF788FE204607F1100607F054F899
:10F5200000282ED0234B31460022009328464FF668
:10F530001E03FDF7F8FC4519E06A1E3703685B6996
:10F54000984732464319294602A80097FFF77DFAEB
:10F55000002102A8FDF7B3FCE76A20463B681D695D
:10F5600007F032F802A902463846A847124BBDF907
:10F570000C000093314600224FF61E03FDF7D3FC2A
:10F5800015E0E06A1E3703685B699847294643190E
:10F59000324602A80097FFF758FAE66A2046336819
:10F5A0001D6907F011F802A902463046A84705B0C8
:10F5B000F0BD00BF0A0407087C040708FFF7ECBE93
:10F5C00013B50446FFF7E8FE084BB4F904000093B6
:10F5D000E36AB4F9061003EB830301931C30103186
:10F5E00000224FF61E03FDF740FE1CBDD1E60608C3
:10F5F00013B50446FFF7D0FE084BB4F9040000939E
:10F60000E36AB4F9061003EB830301931C30103155
:10F6100000224FF61E03FDF728FE1CBDD1E60608AA
:10F6200073B50546FFF7B8FEEB6AB5F90440B5F9C6
:10F6300006601B690E340022009331464FF61E030C
:10F640002046FDF7F0FDEB6A31461A79114B00199F
:10F6500053F82230002200934FF61E03FDF7E3FD1E
:10F66000EB6A06F110011A79052A01D10A4A06E06F
:10F67000042A03D0094A00929B6802E0084A0092DB
:10F68000DB680193204600224FF61E03FDF7EDFDD7
:10F690007CBD00BF30BC060866B60608D1E6060889
:10F6A0006DB60608C36AF7B51D79044648F21043E3
:10F6B000002D0CBF1D460025FFF76EFEB4F9047047
:10F6C000B4F906600C4B0E37009331462A46384693
:10F6D0004FF61E03FDF7A7FDE36A38461A79074B7C
:10F6E00006F1100153F822302A4600934FF61E030C
:10F6F000FDF799FDFEBD00BF71B60608FCBB06080C
:10F700007FB50646FFF748FE0E4BF06A009317F0F0
:10F7100033FA0D4917F038FB0C4917F079F916F058
:10F7200093FEB6F90450B6F906401C351034CDE905
:10F7300002010022284621464FF61E03FDF795FDE3
:10F740007FBD00BF7BB60608000020410AD7233CDE
:10F7500073B5B0F90420B0F906300E46B0F90210C6
:10F7600004464FF4E045101F043104320433009581
:10F77000FDF798FCB4F90630B4F90000B4F90420A0
:10F78000191F0430043204330095FDF78BFCB4F9E3
:10F790000000B4F90210B4F9063000F10C02009632
:10F7A000FDF780FCB4F90000B4F90420B4F90210AC
:10F7B000B4F906304BF296550830043A0095FDF73F
:10F7C0008FFAB4F90420B4F90210B4F90630A2F1AA
:10F7D00008000095FDF766FC7CBD73B5B0F9042008
:10F7E000B0F906300E46B0F9021004464FF4E04579
:10F7F000101F0431043204330095FDF753FCB4F9B3
:10F800000630B4F90000B4F90420191F04300432A2
:10F8100004330095FDF746FCB4F90000B4F902107A
:10F82000B4F90420B4F906300096FDF73BFC7CBD2A
:10F8300030B5024685B00D460068516802AB02241F
:10F8400003C302A80021FDF769FC2246234602A853
:10F8500021460094FFF72AFA02A82946FDF75EFC2C
:10F8600002A821460E2223460094FFF71FFA02A8A1
:10F870004BF29651FDF752FC05B030BD73B504460E
:10F88000051D218C2846FFF7D3FF2846FFF7EEF928
:10F89000E5690646284617F0A7FEB4F90610C0B27F
:10F8A0008000301A023100224FF61E030095FDF74A
:10F8B000BAFC7CBDF0B589B0031D054604AC93E8E5
:10F8C000030084E803001846298CFFF7B1FF2046A7
:10F8D000FFF7CCF9EE690746304617F085FEBDF913
:10F8E0001210C0B2800002310022381A4FF61E03F7
:10F8F0000096FDF798FC122104230A460093204647
:10F900000B46FFF7D3F9686A17F06EFE07462046EC
:10F91000FFF7B3F9ADF80800C0F30F40ADF80A00E7
:10F92000029E20460796FFF7A8F9ADF80800C0F33D
:10F930000F40ADF80A0002996B6AFF0036B2A6EBE1
:10F9400067060691091400933046073900224FF6E6
:10F950001E03FDF768FC09B0F0BDF0B585B0031DCE
:10F96000044602AD93E8030085E803001846218CA5
:10F97000FFF75EFF2846FFF779F9E669074630464C
:10F9800017F032FEBDF90A10C0B280000231002229
:10F99000381A4FF61E030096FDF745FC122104238A
:10F9A000009328460A460B46FFF780F9636ABDF9C3
:10F9B0000800BDF90A1000930430043100224FF60C
:10F9C0001E03FDF730FC05B0F0BD4BF29651FDF77C
:10F9D00076BA2DE9F041012104460026FDF77EFAB2
:10F9E000D02514E0EB10DA024FEAA50842EA4818E5
:10F9F000204648EA0308FFF777F9074602E0404649
:10FA0000FDF776FA013FFAD20D3DEDB20136204600
:10FA1000FFF734FB8642E5DBBDE8F041FDF782BA33
:10FA200010B5044606F0D0FD231D20B91846BDE8E8
:10FA30001040FFF7CABF1846BDE81040FFF7C9BF26
:10FA40002DE9FF47044606F0BFFD4FF6FF7500287D
:10FA500008BF00252046FFF7E3FFE369B4F904007F
:10FA60002A46B4F90610009304304FF61E03FDF742
:10FA7000DAFB206A01210368B4F904805B689847C7
:10FA80008146206A0121036808F178071B689847BE
:10FA9000B9F1010F064607D1244BB4F906100093C3
:10FAA00008F170002A460AE0B9F1000F0BD11F4B94
:10FAB000B4F90610009308F1700048F210424FF6B6
:10FAC0001E03FDF730FAD4F820A0231D93E80300AD
:10FAD0000DF10809DAF8003089E803002046D3F870
:10FAE0001080ADF80870ADF80C7006F06DFD494659
:10FAF00002465046C047206A03685B699847012E5A
:10FB0000384405D10A4BB4F9061000932A4606E0A2
:10FB10004EB9074BB4F90610009348F210424FF665
:10FB20001E03FDF700FABDE8FF8700BF00010708CC
:10FB30007201070837B5054606F046FD4FF6FF741B
:10FB4000002808BF00242846FFF76AFFEB69B5F9D3
:10FB500004000093B5F90610043022464FF61E0348
:10FB6000FDF761FB3EBD13B50446FFF759FFE3699E
:10FB7000B4F904000093B4F90610043000224FF6E3
:10FB80001E03FDF750FB1CBDF0B585B0044606F022
:10FB90001BFD4FF6FF75002808BF0025204606F024
:10FBA00013FD90B102AB221D92E8030083E803002D
:10FBB000BDF808201846083AADF80820BDF80C201A
:10FBC0000832ADF80C20FFF704FF204606F0FCFCDD
:10FBD00058B1174BB4F904000093B4F90610073874
:10FBE0002A464FF61E03FDF79EF9276A20463B681A
:10FBF0001E6906F0E9FC211D02463846B047206A1E
:10FC0000A78803685B6998470646204606F0DCFC37
:10FC100058B1084B3FB2781C0093B4F90610801914
:10FC20002A464FF61E03FDF77EF905B0F0BD00BF72
:10FC3000000107087201070838B54FF61F03994203
:10FC400004460A4607D0056961698068E368281898
:10FC5000C918FDF72DF86269236912F0010F07D06A
:10FC6000591E002921610BDA01322361626138BD1E
:10FC7000A069591C8142216102DB0132236162616A
:10FC800038BD10B500231A46416811F8014B416098
:10FC900004F07F019140073214F0800F43EA010322
:10FCA000F2D1184610BD38B54FF0FF3303600B7822
:10FCB0000446472B0D461CD18B1C4360FFF7E1FF28
:10FCC000A0612046FFF7DDFFE0616B78422B10D189
:10FCD000234604F1200061680A4612F8015B626065
:10FCE00049780132626041EA05221A840233834274
:10FCF000F1D138BD03460068B0F1FF3F06D15A6824
:10FD000012F8010B18605A60001170474FF0FF3273
:10FD100000F00F001A60704770B5002406462546B3
:10FD20003046FFF7E7FFC0B200F00703AB400335F2
:10FD300010F0080F44EA0304F2D1204670BD000021
:10FD40002DE9F8434FF0FF33036001330361436152
:10FD50008769C36904468160C260D0F804805F434C
:10FD600001262FE0AEB12046FFF7D6FF451C204606
:10FD7000FFF7C0FF0026814607E009F11003204687
:10FD800034F81310FFF758FF0136AE42F5DB0026BA
:10FD900012E02046FFF7AEFF451C0AE02046FFF7C1
:10FDA000A9FF00F1100334F813102046FFF744FFB9
:10FDB0000136AE42F2DB01267F1B03D50448482101
:10FDC000FDF772FA002FCDDCC4F80480BDE8F8839B
:10FDD00081B60608074A08481168084B30B5046820
:10FDE000074DCB1805FB0433013103605804116043
:10FDF000400C30BDD8A6002018300020F39024001D
:10FE000021F17D004162704773B5044616460D46E8
:10FE100019B90C480D21FDF747FA0B4B00211B685F
:10FE20002046B3F84C300A462386E562022300964A
:10FE3000FEF7E1F9204604F1300102B0BDE8704060
:10FE4000FFF7E0BFB2B2060888A7002073B50546E9
:10FE500016460C4619B90A480C21FDF725FAEC6242
:10FE6000284634F8062F002102230096FEF7C3F936
:10FE70002846214602B0BDE87040FFF7C3BF00BF6F
:10FE80000BB3060873B5044616460D4619B90C485F
:10FE90003F21FDF709FA0B4B00211B682046B3F800
:10FEA0004C300A462386E56202230096FEF7A3F94A
:10FEB000204604F1300102B0BDE87040FFF7A2BF58
:10FEC0003AB3060888A7002073B5044616460D46C7
:10FED00019B90C483F21FDF7E7F90B4B00211B68CE
:10FEE0002046B3F84C300A462386E562022300968A
:10FEF000FEF781F9204604F1300102B0BDE8704000
:10FF0000FFF780BF5CB3060888A70020F7B5B0F9FB
:10FF10000A40B0F90470B0F90660B0F9085006F074
:10FF200053FB4BF296524FF6FF73002808BF13465F
:10FF30000F371036043D0093384631462A46234693
:10FF4000FCF7CEFEFEBD2DE9F0410C461546984665
:10FF50000026A75B1FB94FF61F03A3530DE0FA0855
:10FF6000294602F0FC02404606F05AF9FA0AA0536C
:10FF70000021D20006F054F9A0530236202EE8D119
:10FF8000BDE8F08110B592B0044606F01DFB231DBC
:10FF9000218C70B11846FFF720FC616A21B302A8DA
:10FFA000FFF781FE20460AA94EF210424FF6FF737A
:10FFB0000DE01846FFF7CCFB616AA9B102A8FFF774
:10FFC00072FE20460AA94EF21C724BF29653FFF7BE
:10FFD000BAFF089BB4F90810B4F90A20C91A099BA2
:10FFE00002A8D21AFFF7ACFEE369B4F9040000934B
:10FFF000B4F906100C3000224FF61E03FDF713F97A
:020000040805ED
:1000000012B010BD416082600373704708B5037978
:10001000012B09D002D3022B0FD10AE08368188884
:1000200000F01F00400808BD83681888C0F3C310A3
:1000300008BD83681888000B08BD03484FF482711F
:10004000FDF732F9002008BD6AB4060830B54FF656
:10005000FF7585B00C46002A08BF0025FFF7D6FFC4
:1000600005F07CFF00238DF80D3003AB8DF80C00FC
:100070000093B4F90000B4F902102A464FF61E03AB
:10008000FDF7F2F805B030BD002908B50CDDFFF72B
:10009000BDFF0E288CBF0020012008BDFFF7B6FF72
:1000A000003818BF012008BDF8DB002008BD0000A3
:1000B0000379012B12D002D3022B2CD11DE08268D0
:1000C000138823F01F031B041B0C0F2902D04900C7
:1000D000C9B200E01F2141EA03031AE082681388D5
:1000E00023F4FC631B041B0C0F2902D08900C9B246
:1000F00000E03F2143EA41130BE0826813885B056F
:100100005B0D0F2902D04900C9B200E01F2143EA6C
:10011000C1231380704702484FF48E71FDF7C4B8B5
:100120006AB4060810B50446FFF770FF30B1411EEF
:10013000C9B22046BDE81040FFF7BABF10BD10B5E8
:100140000446FFF763FF0E2806D8411CC9B22046BB
:10015000BDE81040FFF7ACBF10BDC8684042704713
:1001600010B5044606F036FB014B2046236010BD57
:1001700020A60608014B0360704700BF68A606086A
:1001800010B50446FFF7F6FF014B2046236010BD73
:1001900040A6060810B50446FFF7ECFF014B2046C9
:1001A000236010BD08AA060810B5044606F012FB2D
:1001B000014B2046236010BDB0A6060810B50446CA
:1001C000FFF7F2FF014B2046236010BD90A6060802
:1001D00010B50446FFF7E8FF014B2046236010BD31
:1001E000C8AB0608C36A2DE9F0431F795B79A7F114
:1001F0000102574247EB020748F21048002F18BF90
:100200004FF00008012B87B0044608D002D3022B20
:100210000FD109E03C4B1B68B3F84C3008E03A4B77
:100220001B68B3F8603003E0374B1B68B3F8E2316A
:100230000386B4F90450B4F906600E3581B1204646
:10024000FFF7AAF8E36A28469A79304B314653F80B
:100250002230424600934FF61E03FCF7E4FF02E013
:100260002046FFF753FE002F4AD0E36A284A9979C7
:100270009F6852F8214038460021103616F06EFE75
:1002800068B1244B28460093424631464FF61E0380
:10029000FCF749FE07F100424519174600E0063514
:1002A000384616F0D1F802460B4602A81A49FCF768
:1002B000D9FC05E006AA02EB0903002203F8112C81
:1002C00002AF384617F090F98146204617F08CF9B6
:1002D00048440728EED82846314642464FF61E03CA
:1002E0000097FCF7C1FF5CB123784BB104352818A7
:1002F000314644F208224FF61E030094FCF793FFA8
:1003000007B0BDE8F08300BF88A7002020BB060827
:1003100050BB06084E0D070899B606080121FFF7E5
:1003200061BF10B5044606F073FB2046BDE81040DF
:1003300006F038BBFFF7F5BFFFF7F3BF38B50D4B3D
:100340001B68D3F8C840002C11DDD3F8BC00013085
:1003500016F012FC0146084816F016FD0546204628
:1003600016F00AFC0146284616F00EFD38BD0020A6
:1003700038BD00BF88A7002000BA5B4A37B50446E5
:10038000FFF70AF82046FFF7D9FF16F00FFE16F028
:10039000F3FB0821B4F90450B4F9064005F034FE2B
:1003A0001C35103400902146284600224FF61E03CB
:1003B000FCF75AFF3EBD000038B5104B0846104907
:1003C0001C6816F02DFC0546D4F8C80016F0D4FBC6
:1003D0000146284616F024FC01460A4816F0D4FCD3
:1003E00016F0E4FDD4F8BC3001380128B8BF012074
:1003F000C4F8BC00C01A18BF012038BD88A700206F
:100400000000A0414054894C2DE9F04711F001094A
:1004100004460D4603D111F0020F00F0CE802046B5
:10042000FFF78CFF00210646012716F0ABFD00B94F
:10043000002717F0FF0F03D162482321FCF734FF98
:100440003046614916F094FDE8B930465F4916F030
:100450008FFDD8B930465E4916F08AFDC0B93046E6
:100460005C4916F085FDA8B930465B4916F080FD61
:1004700090B93046594916F07BFD78B93046584955
:1004800016F076FD60B94FF07E570AE0554F08E050
:100490004D4F06E04D4F04E04D4F02E04D4F00E060
:1004A0004D4FB9F1000F11D03046394616F074FDAA
:1004B00028B13046394616F0A9FA804600E0B04629
:1004C0004046002116F054FD10B903E0B04601E0AB
:1004D0004FF07E5815F0020F10D04046424916F0FA
:1004E0003DFD20B14046394616F092FA804640461E
:1004F000002116F03DFD08B14FF07E5839464046C8
:1005000016F042FC16F052FD16F036FB394616F096
:1005100087FB4FF07E51074616F020FD08B14FF0E3
:100520007E573846314616F00FFD002843D1394634
:100530002046FFF741FF80462046FFF7FFFE314689
:100540008246384616F028FD38B15046314616F03E
:100550000FFD002818BF4FF000083846314616F04E
:10056000FDFC20B15046314616F00CFD10B9B8F133
:10057000000F16D11D4BB9F1000F07D01B68D3F83F
:10058000BC00B0F5803F0CDA013005E01B68D3F801
:10059000BC00012805DD0138C3F8BC0080B2FDF7BE
:1005A000F5F8204606F020F82046E16846F6751278
:1005B000002306F020F820462946BDE8F047FDF765
:1005C00089BB00BF9DB606080000C84200007A44FF
:1005D00000401C460050C347002474498096184BC5
:1005E00020BCBE4C000020418096984B88A700207C
:1005F0000023036043608360704710B50446FFF733
:10060000F7FF204610BD836830B5456803B98560A3
:100610008368DC225343B83A02FB0533002BB8BF92
:10062000FF331A128260046805B944604368DC2510
:100630006B43B83D05FB0433002BB8BFFF331B12DF
:1006400043600CB90B0203600368DC2463434FF47E
:10065000105404FB01310029B8BFFF3109120160B9
:10066000101EB8BFFF30001230BD0000F0B585B0DD
:10067000FCF7B2F80746FCF7CBF8644C0646236853
:1006800013F0010F04D16248FFF7B7FF0123236085
:1006900039465F48FFF7B7FF5E4D04467021F020F2
:1006A0004BF29652002300950197FCF7DEFD002CDB
:1006B00040D04BF2965200238021F0200194009507
:1006C000FCF7D3FDA4F50660193816F055FA524927
:1006D00016F0A6FA514916F057FB0146504816F09D
:1006E00095F9504B50490093044616F091F915F0D6
:1006F000ABFE4BF29652CDE9020100239021F0208F
:10070000FCF7B3FD4949204616F08AFA484B4FF0F2
:100710008441009316F07CF9434916F079F915F0FD
:1007200093FE4BF29652CDE902010023F020A02166
:10073000FCF79BFD3F4C236813F0010F04D13E48AA
:10074000FFF75BFF0123236031463B48FFF75BFF68
:100750003A4D0446C021F0204BF2965200230095FA
:100760000196FCF782FD0CB34BF29652D021002388
:10077000F02000950194FCF778FD314B2046009362
:1007800016F0FAF92F4916F04BFA2F4916F0FCFA39
:10079000254916F03DF915F057FE4BF29652CDE97A
:1007A00002010023F020E021FCF75FFD002106207C
:1007B000FBF735FE002105460520FBF730FE234BF5
:1007C00004462846009316F0D7F9214916F028FA76
:1007D00015F03AFE0023CDE902014BF2965240217A
:1007E000F020FCF742FD1B4B1B4AF020002C0CBFF5
:1007F00014461C46194B502100934BF2965200238D
:100800000194FCF732FD05B0F0BD00BFB4A6002096
:10081000C8A6002005300708CCCC90410000CA4291
:10082000CDCC4C40D4B606080AD7A33B6666E63F5B
:10083000DDB60608B8A60020BCA60020BAC9060886
:10084000E6B60608333333400080DB44EEB60608D4
:100850006F12833ACDB60608D1B60608F5B606087B
:1008600010B5054C2368586AFBF7B8FD2368986AF1
:10087000BDE81040FBF7B9BD88A7002010B5054CB6
:10088000890023685962FFF7EBFF2068BDE810403C
:1008900004F060BA88A7002010B5074C89002368CF
:1008A0009962FFF7DDFF6420FBF754FD2068BDE887
:1008B000104004F04FBA00BF88A700202DE9FF4187
:1008C000044605F081FE4BF29655B4F90A204FF626
:1008D000FF73002818BF1D46B4F90410B4F908309E
:1008E000101F083B0C3A0090123102A8FEF7ADF839
:1008F00002A844F20821FCF7E2FA02210A460B465C
:1009000002A80091FEF7D2F902A8FEF7EDF92368DC
:100910008046DB6920469847236807469B6A204645
:100920009847236806465B6A20469847A8F1100856
:1009300007FB08F7361ABDF8083097FBF6F7FF18E3
:10094000BFB2ADF8087002A810372946ADF80C7098
:10095000FCF7B5FABDE8FF81036870B5DB690E46A8
:100960000446984716F0010F05460DD0236820462F
:100970005B6A9847854207DD236820461B6A691E2B
:1009800098472046FFF79AFF16F0020F0DD0236814
:1009900020469B6A9847854207DA236820461B6AEF
:1009A000691C98472046FFF789FF20463146BDE87D
:1009B0007040FDF78FB910B50446FEF7EDFC2046F8
:1009C000BDE81040FFF77ABF014B18682C30704724
:1009D00088A7002008B5FFF7F7FF0368013B036015
:1009E00008BD08B5FFF7F0FF03680133036008BDD9
:1009F00038B504460D46FFF7E7FF006863682D1819
:100A00009D4205DBA0688542CCBF0020012038BD97
:100A1000002038BD416082607047000010B5FFF7CC
:100A2000D3FF006838B100B205F064FA0349044608
:100A300016F0E4FB00E0024C204610BD00B70608AB
:100A4000FAB6060808B5FFF7E9FF16F0CDFDC300BA
:100A50004FF6F87003EA000008BD73B54FF6FF7457
:100A60000E88002A08BF0024B1F90250FFF7D6FF14
:100A700029460090224630464FF61E03FCF7D3FB72
:100A80007CBD2DE9F04100F1300405460F461646C5
:100A9000204600210F22DDF81880FFF7BBFF284613
:100AA00021463A463346CDF81880BDE8F041FDF7BF
:100AB000DBBB00007FB50E46F0233C210446154603
:100AC00000930A46283302A8FDF7BFFF20462A46B6
:100AD00002AB1049009605F04BFD04F12000022303
:100AE0000D4948F210420094FDF7BBFB04F14C00A5
:100AF00002230A4948F210420094FDF7B2FB04F1C8
:100B00007800074948F2104202230094FFF7B9FF2A
:100B10007FBD00BF06B706080BCD060819CD060835
:100B200017B706080A4B73B51A6800F1300405467A
:100B30000E462046083201230649FFF763FA28468D
:100B40002146054A48F210430096FDF78DFB7CBD17
:100B500088A70020BCBC06082AB706084160704779
:100B600010B504460AF03CFC63681B68002B04DAED
:100B7000094ADB4352F8230010BD0C2202FB03009C
:100B800002780AB9406810BD013B0C38B3F1FF3F51
:100B9000F6D1002010BD00BFC4BC0608436810B5E4
:100BA0001C68002C06DB0AF01BFC0C2303FB04046E
:100BB000606810BD002010BD38B50446FFF7D0FFB7
:100BC00005462046FFF7EAFF04461DB1284616F009
:100BD0000BFD05461CB1204616F006FD00E0204640
:100BE000451904B10235ED004FF6F87005EA000032
:100BF00038BD00002DE9F3414FF6FF7607460C465D
:100C0000002A08BF00260D88FFF7AAFF8046384655
:100C1000FFF7C4FF0746B8F1000F0BD02846B4F920
:100C2000021032464FF61E03CDF80080FCF7FBFAA7
:100C30002D18ADB2B7B10C4B0435ADB2B4F90210FA
:100C40000093284632464FF61E03FCF7ECFA0435B3
:100C50002818B4F9021080B232464FF61E030097EE
:100C6000FCF7E1FABDE8FC8137B7060838B50C4659
:100C700015460AF0B5FB2B1905D5124A13F1050FDD
:100C8000B8BF13461BE0002D4FF00C020BDD631CB8
:100C900002FB040402E00C348AB90133227B022AED
:100CA000F9D1084B0BE0631E02FB040403E014F8C7
:100CB0000C2D22B9013B002BF9DA4FF0FF33184617
:100CC00038BD00BF19FCFFFF10B544684FF0FF327C
:100CD0002168FFF7CBFF206010BD10B544680122EA
:100CE0002168FFF7C3FF206010BD000008B543680E
:100CF0000A461968FFF7BAFF024BC01A18BF012055
:100D000008BD00BF19FCFFFF07B5009111461A4648
:100D100048F21043FDF7A8FA0EBD00007FB5154656
:100D2000F023282204460E4600933C219B1802A87B
:100D3000FDF78BFE2A4602AB214D20462149009645
:100D400005F016FC04F120002146FFF7EBFE2968B0
:100D500004F1600630460C31FFF700FF324604F123
:100D600068002146184BFFF7CFFF296804F1980669
:100D700030461031FFF7F2FE324604F1A000214662
:100D8000124BFFF7C1FF296804F1D0063046143139
:100D9000FFF7E4FE324604F1D80021460C4BFFF782
:100DA000B3FF296804F5847630461831FFF7D6FE84
:100DB00004F5887021463246064BFFF7A5FF7FBD3C
:100DC00088A7002039B706084DB706085BB70608A4
:100DD0006BB7060875B7060810B5044605F0FAFCAF
:100DE000014B2046236010BDD8A5060810B5044667
:100DF000FFF7F2FF014B2046236010BDA0AB0608B1
:100E000010B50446FFF7B6F9014B2046236010BD2C
:100E1000E8AB060810B50446FFF7C6F9014B2046BB
:100E2000236010BD30AC060870B50546FFF7BCF96D
:100E3000064B2C4644F8203B05F1B00620462434EE
:100E4000FFF7E8FFB442F9D1284670BD10AC0608A0
:100E500010B50446FFF78EF9014B2046236010BD04
:100E600050AC060810B50446FFF77AF9214B20462E
:100E700040F8243BFFF7ACF904F14400FFF7A8F970
:100E800004F16400FFF7A4F904F18400FFF7A0F96E
:100E900004F1A400FFF7B4FF04F1B000FFF7B0FFC6
:100EA00004F1BC00FFF7ACFF04F1C800FFF7A8FF96
:100EB00004F1D400FFF7B8FF04F5C270FFF7A0FFFC
:100EC00004F5C870FFF79CFF04F5CE70FFF798FF9C
:100ED00004F5D470FFF794FF04F5DA70FFF7A4FF70
:100EE00004F51970FFF7B4FF04F51B70FFF766F9FE
:100EF000204610BD70E2060810B50446FFF754F90D
:100F0000014B2046236010BD78AC060810B504469E
:100F1000FFF726F92D4B204640F8643BFFF7ECFF26
:100F200004F18400FFF7E8FF04F1A400FFF7E4FFF9
:100F300004F1C400FFF74CF904F1E400FFF748F9AD
:100F400004F58270FFF744F904F59270FFF740F959
:100F500004F5A270FFF73CF904F5B270FFF738F919
:100F600004F5C270FFF70CF904F5CA70FFF726F913
:100F700004F5DC70FFF704F904F5E470FFF71EF9DF
:100F800004F5F670FFF764FF04F5FA70FFF716F941
:100F900004F50670FFF75CFF04F50870FFF70EF923
:100FA00004F51170FFF72CFF04F51470FFF728FF0C
:100FB00004F51770FFF724FF04F51A70FFF720FF00
:100FC00004F51D70FFF730FF204610BD98E10608BC
:100FD00010B5044605F0FEFB114B204640F8203BBF
:100FE000FFF704FF04F15000FFF7F6FE04F17C0068
:100FF000FFF7F2FE04F1A800FFF7EEFE04F1D400C3
:10100000FFF7EAFE04F58070FFF7E6FE04F5967040
:10101000FFF728FF04F57170FFF778FF204610BD39
:10102000C8E20608C36A2DE9F0431F795B79A7F18E
:1010300001056F4247EB050748F21048002F18BF23
:101040004FF00008012B394BB0F904501B6887B0F2
:1010500014BFB3F84C30B3F86030044603860E3545
:10106000B0F9066079B1FEF797F9E36A28469A79F4
:101070002F4B314653F82230424600934FF61E0361
:10108000FCF7D1F801E0FEF741FF002F4AD0E36AF8
:10109000284A99799F6852F8214038460021103635
:1010A00015F05CFF68B1244B284600934246314658
:1010B0004FF61E03FBF737FF07F1004245191746AD
:1010C00000E00635384615F0BFF902460B4602A887
:1010D0001A49FBF7C7FD05E006AA02EB0903002247
:1010E00003F8112C02AF384616F07EFA81462046EE
:1010F00016F07AFA48440728EED828463146424688
:101100004FF61E030097FCF7AFF85CB123784BB1A4
:1011100004352818314644F208224FF61E03009485
:10112000FCF781F807B0BDE8F08300BF88A7002076
:101130009CBB0608CCBB06084E0D070899B60608EE
:101140000121FFF76FBF0000C36A2DE9F0431F794B
:101150005B79A7F10106774247EB060748F2104892
:10116000002F18BF4FF00008012B394BB0F9045085
:101170001B6887B014BFB3F84C30B3F86030044636
:1011800003860E35B0F9066079B1FEF705F9E36A1A
:1011900028469A792F4B314653F822304246009325
:1011A0004FF61E03FCF73FF801E0FEF7AFFE002FFD
:1011B0004AD0E36A284A99799F6852F82140384614
:1011C0000021103615F0CAFE68B1244B2846009362
:1011D000424631464FF61E03FBF7A5FE07F10042DB
:1011E0004519174600E00635384615F02DF9024638
:1011F0000B4602A81A49FBF735FD05E006AA02EBEB
:101200000903002203F8112C02AF384616F0ECF95E
:101210008146204616F0E8F948440728EED82846CB
:10122000314642464FF61E030097FCF71DF85CB1AD
:1012300023784BB104352818314644F208224FF682
:101240001E030094FBF7EFFF07B0BDE8F08300BF7B
:1012500088A700209CBB0608CCBB06084E0D0708DB
:1012600099B606080121FFF76FBF000010B50446CC
:1012700005F0B0FA074B01222360002384F83020E8
:10128000236284F82420A362E36284F8313020468C
:1012900010BD00BF98AC060870B504460D46164652
:1012A00005F098FA024B256223606662204670BD05
:1012B00068EA060870B504460D46164605F08AFA37
:1012C000024B256223606662204670BD48EA06082C
:1012D00070B504460D46164605F07CFA034BED004A
:1012E000F600236025626662204670BD28EA060883
:1012F00010B5202132220446FFF7CEFF014B2046D5
:10130000236010BD30A50608202110B50A4604460A
:10131000FFF7C2FF014B2046236010BD50A5060811
:1013200010B5202107220446FFF7C4FF014B2046D9
:10133000236010BD70A5060810B5202110220446B8
:10134000FFF7C6FF014B2046236010BD90A506089D
:1013500070B5438986B0A3F11802153BADF8122091
:10136000ADF816300546066EFCF78CF94FF4C874DC
:101370006643B6FBF0F06D6EADF81000FCF782F935
:1013800001356543BDF81030B5FBF0F5ADF81450EC
:101390001AB22DB2AD1A012D07DC0233ADF81430AC
:1013A0001BB2A342C8BFADF8144004AC20464FF6B0
:1013B000FF71FBF784FDBDF8102013B2002B0EDD8A
:1013C00002AB94E8030083E80300ADF80C20184654
:1013D000002244F20821ADF80820FBF770FDBDF8AB
:1013E000142013B2B3F5C87F0FDA02AB04A903C906
:1013F00083E80300ADF8082018464FF4C87244F2A1
:101400000821ADF80C20FBF75AFDFCF765F90446FE
:10141000FCF738F94FF4C8735C43BDF91210BDF9FD
:1014200016301F22B4FBF0F0009201310246013B5E
:10143000FBF7A2FF06B070BD10B5044605F0CAF96F
:10144000034B204623604FF0FF332362636210BDDD
:10145000C8AD060830B51D4B87B0044603AD93E810
:1014600007000C3385E8070093E80700236A6D4600
:10147000B3F1FF3F85E8070002D1039B606223625E
:10148000FEF7A8FC032290FBF2F202EB420206A94F
:10149000821A01EB82020346216A52F80C0C9B006F
:1014A000401800EBD0704010206252F8181C626A9D
:1014B000891801EBD1714FF6FC72491003EA020260
:1014C000616207B0BDE83040FBF7F2BB00AE060832
:1014D00047F269439A4201D1FFF7BCBF704710B58C
:1014E00001704270837010BD02EBD27310B55B10B7
:1014F000192404FB030312F0010F0B4493F83C0082
:1015000001D0000910BD00F00F0010BD30B502EB96
:10151000D2746410192505FB0414041912F0010F8C
:1015200094F83C2015BF02F00F0222F00F0242EAAD
:101530000313134384F83C3030BD73B50646FEF701
:1015400049FC1923B0FBF3F505FB1305FEF742FC3C
:101550000E23B0FBF3F404FB130429463046224665
:10156000FFF7C2FF0128EAD130462946224602236E
:10157000FFF7CCFFE2B2002301A8E9B2FFF7AFFF0B
:10158000019B00201A0CDBB263F307009DF80530C5
:1015900063F30F20D3B263F317407CBDF8B5144B4F
:1015A0004FF4AF76074606FB013600251CE0335D9D
:1015B000202B02D0232B0CD104E0384621462A46AA
:1015C000012303E0384621462A460023FFF79EFF09
:1015D00003E00848F721FBF767FE0134192CE6D138
:1015E000013519360E2D01D00024E0E7F8BD00BF0B
:1015F00018AE06087FB70608002370B50446C3621C
:10160000FEF7E8FB1923B0FBF3F202FB130363625E
:10161000FEF7E0FB0E23B0FBF3F505FB1305666A4E
:10162000A562204631462A46FFF75EFF0128E7D132
:10163000204631462A460523BDE87040FFF766BFC5
:101640002DE9F0474FEA41180F242FE0032B03D870
:10165000DFE803F005090C0F00252E460BE0C0F172
:101660000F063D4607E02646054604E025460646A9
:1016700001E005463E46134946EA05154AEA40069A
:1016800001EB8606D6F8786146FA09FC1CF00F0CCF
:1016900008BF4FF0020C01EB4C01B1F87814013097
:1016A000102822F81510D1D1013C09D3C4F10F073D
:1016B00004F0070948EAE70A4FEA89090020C5E76C
:1016C000BDE8F08700AE060870B5ADF5027D0C46AA
:1016D00006461546FFF708FF0528014603D13046A8
:1016E00002AAF36A06E0042808BF336B304602AA58
:1016F00018BF0023FFF7A4FF02A8691C621CAB1CE3
:1017000000904FF4807001900901200112011B012B
:10171000FBF744FB0DF5027D70BD11F0020F03468F
:1017200006D0C26A0132032AC2620EDD002206E040
:1017300011F0010F07D0C26A002A02DD013ADA6215
:1017400003E00322FBE704F0CCBF596A9A6A18460B
:10175000FFF7BABF70B5064600240AE029463046B6
:1017600022460135FFF7B0FF192DF7D101340E2CB9
:1017700001D00025F2E770BD10B5044605F048F928
:10178000A36B6FF00901594301F596712046642956
:10179000B8BF6421BDE8104005F040B8836AC36259
:1017A0000023036343638363704700000D4B10B550
:1017B000C3610D4B044603620C4B43620C4B8362C6
:1017C0000C4BC3600C4B03600C4B43600C4B8360B1
:1017D0004FF07E530361002343618361FFF7DEFF17
:1017E000204610BD6F12033ACDCCCC3D9A991940DA
:1017F00066E6F6C20AD7233CCDCC4C3ECDCC4C3D60
:101800000000F04110B50446FAF790FD40F22D13A8
:1018100060602381204610BD038813B940F22D1368
:10182000038109880180704738B504460D46FAF7F0
:101830007DFD62682389821A9A4215D923889BB15B
:101840002B80238940F22D129342606002D14FF425
:10185000967307E0B3F5967F01D1642302E00A2B6B
:1018600004D90A3B238138BD00232B8038BD0000FA
:1018700010B5044604F0AEFF014B2046236010BDB6
:10188000B0D1060810B5044604F0A4FF014B204671
:10189000236010BD10A5060810B50446FFF79CFA9A
:1018A000014B2046236010BDB0A5060810B50446C4
:1018B000FEF756FC114B204640F8283BFEF760FC33
:1018C00004F13800FEF75CFC04F14800FEF758FC18
:1018D00004F15800FEF754FC04F16800FEF76EFCBA
:1018E00004F18C00FEF76AFC04F1B000FEF766FC20
:1018F00004F1D400FEF762FC204610BD00A60608E5
:1019000070B5054604F066FF084B2C4644F8203BB2
:1019100005F5AC7620463434FFF7BEFFB442F9D16A
:101920002046FFF7C3FF284670BD00BFF0E606085B
:1019300010B50446FFF750FA014B2046236010BD56
:1019400028A7060810B50446FFF7F2FF014B204612
:10195000236010BDF0A6060810B50446FFF7E8FFA7
:10196000014B2046236010BD60A7060810B5044651
:10197000FFF732FA014B2046236010BDC0A70608CE
:1019800010B50446FEF7F6FB014B2046236010BD60
:10199000E8A7060810B50446FFF7E8FF034B20460A
