:020000040800F2
:10C0000000000120395905084D57050875FE040840
:10C010004F57050851570508535705080000000001
:10C020000000000000000000000000005757050855
:10C030005557050800000000595705085B570508CB
:10C040005D5705085F5705086157050863570508E0
:10C050006557050867570508695705086B570508B0
:10C060006D5705086F570508715705087357050880
:10C070007557050877570508795705087B57050850
:10C080007D5705087F570508815705088357050820
:10C09000875705088B5705088D5705088F570508E2
:10C0A00091570508935705089557050897570508B0
:10C0B000995705089B570508B1580508B358050856
:10C0C000B5580508B7580508B9580508BB580508FC
:10C0D000BD580508BF580508CD580508CF580508B4
:10C0E000D1580508D3580508D5580508D75805086C
:10C0F000D9580508DB580508DD580508DF5805083C
:10C10000E1580508E3580508E5580508E75805080B
:10C11000E9580508EB580508ED580508EF580508DB
:10C12000F1580508F3580508F5580508F7580508AB
:10C1300044534F5F4150503A204761626F6E6174C3
:10C140006F72277320616C7465726E6174697665B5
:10C150002055493B416C7465722055493B476162EB
:10C160007269656C2056616C6B7920323031333BDB
:0CC170000000000042494F539DC5040828
:020000040804EE
:10C00000014B1868704700BF90A9002020B1036859
:10C01000197003680133036070472DE9F041161E63
:10C0200004460D4614DD002200E00132A95C00291F
:10C03000FBD1B24203F00208B4BFC2EB06060E46C3
:10C04000B8F1000F0CBF4FF020084FF0300801E0AE
:10C050004FF0200813F0010709D105E020464146C2
:10C06000FFF7D4FF0137013E002EF7DC05E0002783
:10C0700003E02046FFF7CAFF013715F8011B00292E
:10C08000F7D105E020464146FFF7C0FF0137013EEA
:10C09000002EF7DC3846BDE8F0812DE9FF410A9F0C
:10C0A00005460B9EDDF830C08E4651B930238DF821
:10C0B00004308DF805103A4601A93346FFF7ADFF6D
:10C0C0003CE03BB10A2A07D1002905DAC1F1000E94
:10C0D000012402E01C4600E0002404A9002301F82A
:10C0E000013D0EE0BEFBF2F302FB13EEBEF1090FC1
:10C0F000C4BFACF13A0086440EF1300E01F801EDF8
:10C100009E468846BEF1000FECD184B14FB116F0C7
:10C11000020F06D028462D21FFF778FF013F0124AA
:10C1200005E02D2301F1FF3801F8013C00242846E9
:10C1300041463A463346FFF770FF001904B0BDE8A8
:10C14000F081064B1A6912F0800F04D0044A5A603D
:10C15000044A5A601B690120704700BF002002405A
:10C1600023016745AB89EFCD024B1A6942F080028B
:10C170001A61704700200240034B00280CBF4FF4A7
:10C180000000802018617047000C0140034B1A89A1
:10C1900012F0020FFAD09881704700BF003C0040B7
:10C1A0000B4B1B8913F0020FFAD0094B1A8912F0BE
:10C1B000800F1A46F9D19B891389054BFF229A817A
:10C1C000034B1A8912F0010FFAD09889C0B2704758
:10C1D000003C004003E011F8013B00F8013B013A4C
:10C1E000F9D2704701E000F8011B013AFBD2704719
:10C1F0000B0A8176090C0175090AC37641757047EF
:10C20000036930B501F10902002B37D043690025DD
:10C2100010465C5D0246202C08D0052C08BFE524A2
:10C22000013500F8014B082D0246F2D11C7A202C72
:10C230000DD02E2200F8012B08241D5D0246202D72
:10C2400005D0013400F8015B0B2C0246F5D1D87AF9
:10C250000872987FDC7F000440EA04601C7F204362
:10C260005C7F40EA042008605C7E187E40EA04207F
:10C270008880D87D9B7D43EA0023CB800023137008
:10C2800030BD054B10B5196804460320B7F7DEFF33
:10C29000024B1C8010BD00BF003000209EA9002072
:10C2A00008B500210420B7F7D5FFC3439BB2C3F301
:10C2B000802013F4006F1CBF40F0020080B213F422
:10C2C000805F18BF40F4807013F0080F18BF40F073
:10C2D000040013F4004F18BF40F0080013F0400FA3
:10C2E00018BF40F4007013F4804F18BF40F01000E6
:10C2F00013F4005F18BF40F0200013F4807F18BFD4
:10C3000040F0400013F4007F18BF40F0800008BDEB
:10C310002DE9F14F0A9C1E460B9B88461746511E7D
:10C3200004EB4309C6F1F002C8F1EF03054689B2F8
:10C3300080B292B29BB2B7F771FFA2460CE03AF816
:10C34000020BB7F765FFCA4508BFA2460BF1010B08
:10C35000BB45F4DB08F10108B04501DAAB46F7E76D
:10C36000002040F28F110246EF2301B0BDE8F04FEC
:10C37000B7F754BFC1F1EF0110B580B289B21446CE
:10C38000B7F744FF2046BDE81040B7F741BF2DE99D
:10C39000F0478AB006460D4605920024EDE0252BB5
:10C3A00040F0E58015F8013F002B00F0EA80252BD6
:10C3B00000F0DD802D2B02D101352C3B03E0002362
:10C3C00001E043F00203294615F8012B302AF8D08A
:10C3D000002702E00A2202FB07070A780D46A2F1B5
:10C3E00030005FFA80FC0131BCF1090FF2D9732AE9
:10C3F0000DD1059A3046111D05911168654A002935
:10C4000008BF11463A46FFF708FE2418B4E0642A34
:10C410000ED1059A01936123111D02930097059196
:10C4200030461168603B0A22FFF737FE2418A3E06C
:10C43000662A57D1059B073323F0070303F108024F
:10C44000D3E9000105921EF085FB002180461EF015
:10C450007DFE38B12D238DF8183008F100480DF11C
:10C46000190A01E00DF1180A40461EF097FE01235B
:10C4700000E013460A225A439042FADA90FBF3F2A4
:10C4800002F1300103FB12000A2293FBF2F30AF8D7
:10C49000011B002BF2D124328AF80020002F08BFA4
:10C4A0000327994640461EF079FE1EF05DFC0146CA
:10C4B00040461EF0A3FB38491EF0AAFC80461EF041
:10C4C0006DFE09F101093030B9450AF8010FE9DBC9
:10C4D0000022304606A920238AF80120FFF79DFD9F
:10C4E000241849E0782A0ED1059A01936123111D81
:10C4F00002930097059130461168613B1022FFF7C7
:10C50000CCFD241838E0582A0ED1059A0193412316
:10C51000111D02930097059130461168413B10228E
:10C52000FFF7BBFD241827E0752A0ED1059A019369
:10C530006123111D02930097059130461168613BFC
:10C540000A22FFF7AAFD241816E0632A14D1059ADF
:10C550003046111D126805918DF8242000228DF8B7
:10C56000252009A93A46FFF758FD241804E0304673
:10C570002978FFF74BFD013401352B78002B7FF430
:10C580000EAF16B1336800221A7020460AB0BDE81B
:10C59000F08700BF54E806080000204110B541496B
:10C5A00004461EF0F1FF002838D020463E491EF018
:10C5B000EBFF002839D020463C491EF0E5FF00285B
:10C5C0003AD020463A491EF0DFFF00283BD02046F3
:10C5D00038491EF0D9FF00283CD0204636491EF0CD
:10C5E000D3FF08B9354810BD204635491EF0CCFFB1
:10C5F00008B9344810BD204633491EF0C5FF08B9BC
:10C60000324810BD204632491EF0BEFF08B93148FD
:10C6100010BD204630491EF0B7FF08B92F4810BDA5
:10C6200020462F491EF0B0FF08B92E4810BD204605
:10C630002D491EF0A9FF08B92C4810BD20462C49F1
:10C640001EF0A2FF08B92B4810BD20462A491EF053
:10C650009BFF08B9294810BD204629491EF094FFC8
:10C6600008B9284810BD204627491EF08DFF08B99B
:10C67000264810BD204626491EF086FF08B92548E9
:10C6800010BD204624491EF07FFF08B9234810BD85
:10C69000204623491EF078FF224B00280CBF184685
:10C6A000002010BD5BE806086FE8060880E8060871
:10C6B00093E80608A6E80608B8E80608D554050871
:10C6C000CCE806086D420008D7E8060805420008D5
:10C6D000E2E806080142000866E8060875C3040897
:10C6E0007AE80608C7D604088BE80608A1C2040841
:10C6F0009EE8060829C70408B1E806080BD7040815
:10C70000EBE8060819D80408F5E806087DC7040810
:10C71000FFE8060801C0040812E9060811C304086E
:10C7200025E9060883C2040810B505280DD8DFE8FE
:10C7300000F01012030507090B4C0DE00B4C0BE049
:10C740000B4C09E04FF0006406E040F00100804728
:10C7500010BD084C00E0084C206808F0A5FF636895
:10C760009847012010BD00BF00C00108004002082A
:10C770000040000800C00008004001080020D3E786
:10C78000CA7E8B7E032843EA022305D1487D0A7DB9
:10C7900042EA002243EA024318467047014BD86C34
:10C7A00080B270470024014001461420B7F74EBD07
:10C7B000034B18801A8892B2002AFBD1704700BF41
:10C7C0009CA9002030B5002308E00A24B0FBF4F156
:10C7D00004FB11003030D054013388B2084A0028DD
:10C7E000F3D1D0545910013BD31804E0145C5D78A8
:10C7F00015545C700130013B8842F7DB004830BDC6
:10C800006C32002008B506200021B7F723FD5A231B
:10C810004343A3F58223A3F56B6340F2145093FBCB
:10C82000F0F00A306428A8BF642020EAE07008BD58
:10C830000128ACBF014601210220B7F707BD00EB7C
:10C84000D070024B40101860704700BF00300020CD
:10C85000052898BF174B30B594BF53F820300023FC
:10C8600003F548711A461046134C52F8045BA54272
:10C870001ED08A42F7D11A6810495D6802EA0101A8
:10C88000B1F1005F9C68D8680FD19D420DD99542E7
:10C890000BD29C4209D9944207D2984207D9084B3F
:10C8A000904234BF1846002030BD002030BD00202B
:10C8B00030BD00BF38D9060844534F5FFF0000FF6A
:10C8C00035E90608C0B2B7F7C1BC47F26623984203
:10C8D00001D1B7F7AFBCC0B2B7F7BCBC43680A68B8
:10C8E00023F4702323F4807313430A7910B543EAC9
:10C8F000022343608A68CB6884681A43094B04EAC0
:10C90000030342EA03034A7943EA420383600B7C50
:10C91000C26A013B22F47002DBB242EA0353C362F3
:10C9200010BD00BFFDF7F1FF0023036003714371E9
:10C930008360C36001330374704721B1836843F09F
:10C94000010383607047836823F0010383607047AD
:10C9500021B1836843F4807383607047836823F454
:10C96000807383607047C9B21AB14368194341604C
:10C970007047436823EA010141607047836843F0D0
:10C980000803836070478068C0F3C0007047836805
:10C9900043F00403836070478068C0F380007047F1
:10C9A00021B1836843F4A00383607047836823F454
:10C9B000A003836070478068C0F38050704743686D
:10C9C000013923F4604343EA41334360704721B1A6
:10C9D000436843F4006343607047436823F4006393
:10C9E00043607047092970B54FEA41040BD96418B8
:10C9F0001E3C0725A540A340C66826EA050545EA72
:10CA00000304C4600AE064180725A54013FA04F47F
:10CA1000066926EA050545EA04030361062A0CD8DF
:10CA2000013A02EB82021F2393409140446B24EAB7
:10CA3000030343EA0102426370BD0C2A4FEA8203FA
:10CA40000BD89A18233A1F2393409140046B24EA91
:10CA5000030343EA0102026370BD9A18413A1F239F
:10CA600093409140C46A24EA030343EA0102C2628C
:10CA700070BD21B1836843F480138360704783687D
:10CA800023F4801383607047C06C80B27047014B01
:10CA9000186870474C24014021B1436843F4806317
:10CAA00043607047436823F480634360704721B15B
:10CAB000436843F4805343607047436823F48053D2
:10CAC00043607047836823F4E04341EA03038360D3
:10CAD000704721B1836843F40043836070478368E3
:10CAE00023F400438360704721B1836843F4021349
:10CAF00083607047836823F4021383607047806803
:10CB0000C0F340507047092970B54FEA41040BD972
:10CB100064181E3C0725A540A340C66826EA050503
:10CB200045EA0304C4600AE064180725A54013FA27
:10CB300004F4066926EA050545EA04030361836BEC
:10CB400003F440146FEA145412190332D2B202EB08
:10CB500082021F249440914023EA04030B43836321
:10CB600070BD836B013923F4401343EA015383639F
:10CB7000704782B00A5002B0704782B001902830EE
:10CB8000405880B202B07047436823F4400323F456
:10CB9000007341EA03034360704741628262704759
:10CBA000436823F01F0341EA030343607047064BC9
:10CBB00020B19A6842F400029A6070479A6822F4A1
:10CBC00000029A60704700BF0024014003681942C8
:10CBD0000CBF002001207047C943016070474368C3
:10CBE000006810EA112004D0C9B219420CBF00201D
:10CBF000012070476FEA112101607047054B19B1A0
:10CC0000DA681043D8607047DA6822EA0000D8601A
:10CC1000704700BF0010024007B5154B01909842C5
:10CC200010D0144B984218D0134B98421FD10121B9
:10CC30004FF40070FFF7E2FF4FF400700021FFF7A0
:10CC4000DDFF14E001214FF48060FFF7D7FF4FF4C0
:10CC500080600021FFF7D2FF09E04FF4004001217E
:10CC6000FFF7CCFF4FF400400021FFF7C7FF0EBDD8
:10CC700000280140003C014000240140054B19B14F
:10CC80005A691043586170475A6922EA0000586196
:10CC9000704700BF00100240054B19B19A6910435C
:10CCA000986170479A6922EA00009861704700BF56
:10CCB0000010024008B50120FFF779FF10210A4853
:10CCC00001220523FFF78EFE0120FFF771FD0648C4
:10CCD0000121FFF765FE02210348FFF777FF0128D6
:10CCE000F9D1FFF75BFD08BD0024014008B5012024
:10CCF000FFF75DFF11210A4801220523FFF772FEAD
:10CD00000120FFF755FD06480121FFF749FE0221EA
:10CD10000348FFF75BFF0128F9D1FFF73FFD08BD8E
:10CD200000240140084B5A68B2F1FF3F07D1074A7F
:10CD300007491068401A18BF0120586011605868F0
:10CD4000003818BF0120704700300020F017002085
:10CD5000708AB06A00487047000800204FF47F6076
:10CD60007047024B0E2202FB0030704750D9060874
:10CD7000034B18801A8892B2002AFBD1704700BF7B
:10CD80009CA90020044A4FF4805313604FF0C04226
:10CD90001080024A136070471414014010140140BF
:10CDA00010B5EF20FFF7EEFF4FF0C0431A881C8844
:10CDB00018881A881988C3B2C9B241EA046141EAE5
:10CDC0000343120643EA1242014B9A6010BD00BFB2
:10CDD0006C320020054B4FF480521A604FF0C04374
:10CDE0001880034802601980704700BF1414014086
:10CDF000101401402DE9F041E9204FF0C044FFF745
:10CE0000C1FF202222801120FFF7BCFF6420FFF722
:10CE1000AFFFD120FFF7B6FF002517225E23258044
:10CE2000D02023802280FFF7ADFF0C26072323802C
:10CE3000362023804FF040082680FFF7A3FF3046BE
:10CE4000A4F800804936FFF79DFF26803A20FFF7BF
:10CE500099FF2680C120FFF795FF533E10232380C2
:10CE6000C020238026802680FFF78CFF01273523F2
:10CE70002580C52023802580258027802680FFF7F8
:10CE800081FF2780D220FFF77DFF22232780C82043
:10CE90002380FFF777FF73223723278022802380A8
:10CEA00004220F2325802380268022806722A4F875
:10CEB00000802280258080222680238008232380F2
:10CEC000292022802580FFF75DFF2C20BDE8F0415E
:10CED00058E7002008B50146FFF77CFF0020014617
:10CEE000FFF778FF00200146FFF774FF002001469E
:10CEF000FFF770FF0A20FFF73BFF01214FF4C060EE
:10CF0000FFF768FF0A20FFF733FF40214FF4DE6090
:10CF1000FFF760FF0A20FFF72BFF4FF480604FF40C
:10CF2000C441FFF757FF082040F60801FFF752FF02
:10CF300001204FF48071FFF74DFF02204FF4807104
:10CF4000FFF748FF03203021FFF744FF09200121AC
:10CF5000FFF740FF0C200021FFF73CFF90204FF42B
:10CF60000041FFF737FF0F200021FFF733FF1020AC
:10CF70001621FFF72FFF112040F20111FFF72AFFC2
:10CF800012200021FFF726FF13200121FFF722FFC7
:10CF90004FF480704FF44C71FFF71CFF40F201100A
:10CFA00040F23721FFF716FF40F203104FF4706193
:10CFB000FFF710FF4FF420704FF4D641FFF70AFF40
:10CFC0004CF2B0114FF48170FFF704FF6420FFF7BB
:10CFD000CFFE4FF440704FF44061FFF7FBFE40F28C
:10CFE000013045F60B21FFF7F5FE40F2023040F626
:10CFF0000611FFF7EFFE40F2033041F21701FFF791
:10D00000E9FE4FF441704FF40C51FFF7E3FE40F29C
:10D0100005304FF4B851FFF7DDFE40F2063046F21E
:10D020000931FFF7D7FE40F2073040F60941FFF71C
:10D03000D1FE4FF4427041F20C01FFF7CBFE40F2FB
:10D04000093042F23221FFF7C5FE4FF4047000218F
:10D05000FFF7C0FE40F21120EF21FFF7BBFE40F2C8
:10D0600012200021FFF7B6FE40F2132040F28F118C
:10D07000FFF7B0FE4FF4A0600021FFF7ABFE40F2D7
:10D0800001500021FFF7A6FE40F202500521FFF7F4
:10D09000A1FE40F201400121FFF79CFE002140F279
:10D0A0000440FFF797FE6420FFF762FE4FF48071A3
:10D0B0000720FFF78FFE6420FFF75AFE4FF4007041
:10D0C0000021FFF787FE002140F20120FFF782FEDA
:10D0D000054A4FF48053136040F202214FF0C042E2
:10D0E0001180024A136008BD14140140101401405D
:10D0F00070B5104C4FF480534FF40065236001204D
:10D100002560FFF735FE0C4B0A201D60FFF730FE4F
:10D1100032202560FFF72CFEFFF742FE074B9A688E
:10D12000074B9A4202D1BDE8704063E6BDE870400B
:10D13000CFE600BF10140140141401406C320020EF
:10D14000279304020B4B10B59A680B4B4FF0C04469
:10D150009A4209D12E20FFF715FE238824882C201F
:10D16000A4B2FFF70FFE02E023882488A4B2204671
:10D1700010BD00BF6C320020279304020EB403B52B
:10D1800003AA52F8041B019001A80092FFF7FFF8D0
:10D19000BDE80C4003B07047AAE713B502AC24F811
:10D1A000020D00200146B7F731F820464BF68031DA
:10D1B000B7F73AF8B7F734F820464BF68031B7F7AF
:10D1C00033F8B7F72DF81CBDC1F1EF0110B580B2EF
:10D1D00089B2B7F71BF8BDE81040B7F745B838B5C6
:10D1E000151A5C1A6C434BF67F35AC4280B202F1E3
:10D1F000FF35C3F1F0020FD9C1F1EF0392B2A9B22A
:10D200009BB26508B7F70AF804A8A9B2B7F70CF8FB
:10D21000641BB7F705F806E0C1F1EF0392B2A9B2BB
:10D220009BB2B6F7FBFF04A8A1B2B6F7FDFFB6F7B5
:10D23000F7FF002040F28F110246EF23B6F7EEFF12
:10D2400038BD37B50D46B0F9021004464B1CB0F995
:10D250000000B4F904200095FFF7C1FFB4F90630CF
:10D26000B4F90000591EB4F904200095FFF7B7FF88
:10D27000B4F90000B4F90210421CB4F9063000956C
:10D28000FFF7ADFFB4F90420B4F90210B4F9063089
:10D29000501E0095FFF7A3FF3EBD2DE9F843B0F8FF
:10D2A0000080044689461FFA88F7002615E0B4F985
:10D2B0000650013D0AE0C5F1EF01384689B2B6F7E4
:10D2C000A5FFFFF73FFF013D29F8020BB4F902303B
:10D2D0009D42F0DA01370136BFB20FFA88F2B4F995
:10D2E0000430B2189A42E2DBBDE8F8832DE9F0473A
:10D2F000C28843880D468188C2F1F0020139C3F12A
:10D30000EF03044689B2008892B29BB2B6F786FF5B
:10D310000026B4F8028010E0B4F80090002703E083
:10D3200035F8020BB6F774FF0FFA89F2B4F904303E
:10D33000BA1801379A42F3DB01360FFA88F2B4F9D2
:10D340000630B2189A42E7DB002040F28F11024605
:10D35000EF23BDE8F047B6F761BF13B50346B3F955
:10D360000240B3F90420B0F90000B3F9063000918F
:10D370002146FFF734FF1CBD0268034BDA604268A8
:10D380001A6102685A6170476C32002010B50B4C6C
:10D390000246B4F91610B4F91400FEF7EBFFA38AA5
:10D3A000B4F910200133A3821BB29A4204DCA38992
:10D3B000A382E38A0133E38210BD00BF6C320020F8
:10D3C00070472DE9F74F99460C9B0191924613F84F
:10D3D00001BB054600241FE018F8013B0BB313F016
:10D3E000040F4FF61E0307D09A450CD0284631464D
:10D3F0005246FEF7BFFF06E0994504D02846314665
:10D400004A46FEF7B7FF013701365F454346E3DB87
:10D4100001340135502C03D0019E98460027F4E7D3
:10D4200008242046BDE8FE8F2DE9F0411E460F4638
:10D43000B6B2C7F1F00714460546B6F7F7FEB91BBA
:10D44000A8B289B2B6F7E2FE20463146B6F7EAFE48
:10D45000BDE8F041B6F7E4BE30F0030309D131F086
:10D46000030208D140EA81000449091891F8180E16
:10D470007047002070471846704700BF38D906082B
:10D480002DE9F04F85B004469A469DF839009DF885
:10D4900038300D4616469DF83AB002900393274661
:10D4A00045E0C5EB0A01701E0139C01B3B1BC8EBF0
:10D4B00001019842A8BF18464145A8BF4146FFF761
:10D4C000CBFF68BBC9F1EF0189B2B8B2B6F79EFED7
:10D4D000B6F7CAFE1A4BC10001F0FF01C208000AEC
:10D4E00000EA0303C1EB0B000190DDF808C00398CC
:10D4F00002F0FC02C2EB0C0EC3EB000C03EB6C035E
:10D50000DDF804C0DB1001EB6C00C01040EAC3235F
:10D5100002EB6E00801043EA401080B2B6F778FE4E
:10D5200009F1010908F10108D145BADB0137B74219
:10D5300003DAA9464FF00008F6E705B0BDE8F08F22
:10D54000F8FF07002DE9F74F06468A4615461C46A8
:10D55000BDF830B088462DE00AF10303984509D1A3
:10D56000E71E414630462A463B46CDF800B0FFF75D
:10D5700036FEB846B146002718E0A81B0138611EE8
:10D58000C01BC8EB0101CAEB0803B842A8BF38466C
:10D590009942A8BF1946FFF75FFF20B948464146A8
:10D5A0005A46FEF7E7FE09F101090137A945E4DB18
:10D5B00008F10108A045CFDBBDE8FE8F13B5034697
:10D5C000B3F90240B3F90420B0F90000B3F9063012
:10D5D00000912146FFF7B6FF1CBD2DE9F74F0190E2
:10D5E0009DF830001F460D469246FFF7BAFB4FF6F6
:10D5F0001E039F4283461DD100241BF80480019F17
:10D600006FEA08085FFA88F8082618F0800F04D03F
:10D61000384661195246FEF7ADFE013EF6B20137BB
:10D6200026B14FEA48085FFA88F8EEE701340E2C7D
:10D63000E3D145E09A451FD100241BF80490DDF8A2
:10D6400004806FEA09095FFA89F9082619F0800F4A
:10D6500004D1404661193A46FEF78CFE013EF6B20F
:10D6600008F1010826B14FEA49095FFA89F9EDE7A7
:10D6700001340E2CE1D123E000241BF80490019E1C
:10D680006FEA09095FFA89F94FF0080819F0800F6D
:10D6900008F1FF38304614BF52463A4629465FFA31
:10D6A00088F8FEF767FE0136B8F1000F04D04FEAA4
:10D6B00049095FFA89F9E9E7013401350E2CDCD11B
:10D6C0000820BDE8FE8F2DE9F7430A9F05460E4668
:10D6D00091469846AFB1387818B913E00A2B02D1B9
:10D6E00010362C4607E00093204631464A46434612
:10D6F000FFF773FF241817F8013B002BEED1601BD6
:10D7000000E03846BDE8FE83DDE72DE9F043A5B033
:10D7100015462CAA0E4652F8041B07460DF10808C0
:10D7200023A899462292CDF88C80FEF730FE314630
:10D7300004462A4638464B46CDF80080FFF7E4FF02
:10D74000204625B0BDE8F08337B5124B05460C46A0
:10D75000009330211F2328204FF6FF72FFF7D4FFDC
:10D7600020211F234FF6FF7228200095FFF7CCFFE2
:10D77000A0B2FFF727F8102100904FF6FF72282083
:10D780001F23FFF7C1FF4FF47A7003B0BDE83040AC
:10D79000FFF70EB83DE9060808B502480421FFF777
:10D7A000D3FFFEE74FE906080FB430B5A5B028AAAD
:10D7B00052F8041B02AC23A823942292FEF7E7FD43
:10D7C00023941EE00A2B134C03D0A569B5F5C47F42
:10D7D00009DBE26900230E32E02AA361E2610DDD7C
:10D7E0000C4AD3610AE000932846E1694FF6FF72C4
:10D7F0004FF43043FFF7F1FE4019A061239B013342
:10D800002393239B1B78002BDCD125B0BDE830404F
:10D8100004B070476C3200200048C5E775E906087F
:10D820002DE9F74FC0EB020B5F1A1FFA8BFBBFB25B
:10D830000FFA8BFA0FFA87F84FEADB3BFF0BBDF8C4
:10D840003090BAF1000FD4BFCBF1000BCBF1010B3C
:10D85000B8F1000FD4BF7F42C7F10107BAF1000F42
:10D86000B8BFCAF1000AB8F1000FB8BFC8F100088C
:10D870004FEA4A0A4FEA480800921FFA8AFA1FFA4A
:10D8800088F84A46019304460D460FFA8AF6FEF7D9
:10D8900071FD0FFA88F39E4220DB1FFA88F8A8EB8F
:10D8A0006606B6B216E016F4004F09D11EB94FFA5B
:10D8B0008BF3002B04DD7BB2CAEB0606ED18B6B283
:10D8C0004FFA8BF3E4184644204629464A46B6B23E
:10D8D000FEF750FD009B9C42E5D11EE01FFA8AFA3C
:10D8E000AAEB6306B6B215E016F4004F09D116B9DB
:10D8F0007BB2002B05DD4FFA8BF3C8EB0606E4186C
:10D90000B6B27BB2ED185644204629464A46B6B216
:10D91000FEF730FD019B9D42E6D1BDE8FE8F002061
:10D92000FFF71FBA07B50B200021B6F793FC40B9EB
:10D93000074B303000931E211F224FF6FF73FFF775
:10D94000C2FE1420002103B05DF804EBB6F77EBCE4
:10D950007FE90608024B014618722420B6F776BC10
:10D9600000300020014B187A704700BF00300020C3
:10D9700070B50CE09C1804EBD474641050F824606B
:10D9800025468E4201D2621C01E004D9631E9342F7
:10D99000F0DA4FF0FF35284670BD2DE9F84F214CE5
:10D9A000074604F5626008300E4615469846002288
:10D9B00015230C99FFF7DCFFB0F1FF3F9DF828908D
:10D9C000BDF82CA083462AD00C9A174B0520DA60AC
:10D9D0000021B6F73BFC09203946B6F737FC0A2090
:10D9E0003146B6F733FC00202946B6F72FFC0B2052
:10D9F0004146B6F72BFC0C204946B6F727FC04EB52
:10DA00004B0401205146B6F721FC0720B4F8801ED4
:10DA1000B6F71CFC0820B4F8AC1EB6F717FCBDE83E
:10DA2000F88F00BF38D906080030002008B5032061
:10DA30000021B6F70FFCC0B208BDB6F7FBBB08B5B6
:10DA400006200121B6F702FCFEF7DAFA014B186254
:10DA500008BD00BF6C3200202DE9F04106460C469F
:10DA60002220314615461F46B6F7F0FB21202146FD
:10DA7000B6F7ECFB202047EAC501BDE8F041B6F758
:10DA8000E5BBB0F5805F70B503DD0A48CA21FFF73A
:10DA90005BFE094C04F580452668FFF7CEFF06F0D3
:10DAA0007F4620F07F4040EA060644F8046BAC4213
:10DAB000F2D170BD98E90608683700204FF4805015
:10DAC0007047B0F5805F10B5044603D30348DB21EF
:10DAD000FFF73AFE024800EB840010BD98E9060803
:10DAE0006837002010B500210220B6F7B3FB0021F3
:10DAF0000120B6F7AFFB002100F001040320B6F7C8
:10DB0000A9FB10F0010F18BF44F00204204610BD1D
:10DB100008B5FEF775FA0B4B1B6AC01A1DF024F905
:10DB200009491DF029FA094BD9681DF025FA084961
:10DB30001DF06EF91DF032FBB0F5805FA8BF4FF409
:10DB4000805008BD6C32002000007A440030002074
:10DB50000000F041034670B510200C4619461546EA
:10DB6000B6F774FB11202146B6F770FB1220294648
:10DB7000BDE87040B6F76ABB094B10B51A68094C8E
:10DB800022F001021A60084A146043F2B0521A608F
:10DB9000064A116090601A6842F001021A6010BDD6
:10DBA00044040240087400404C040240480402400F
:10DBB000074B10B523F8240F18460121FFF7DCFFAF
:10DBC0000D204FF46161BDE81040B6F73FBB00BFC8
:10DBD0006C32002001460D20B6F738BB0048704774
:10DBE0009232002008B5034602730020012A5873C0
:10DBF00009D11A460B480833B6F748FBD0F10100AB
:10DC000038BF002008BD022A09D11A46054808334A
:10DC1000B6F73AFBD0F1010038BF002008BD012063
:10DC200008BD00BF9232002008B5034608461946D9
:10DC3000B6F72EFBD0F1010038BF002008BD10B5AB
:10DC4000044608462146B6F725FB20B9637B013020
:10DC50000133637310BD002010BD10B5037B044673
:10DC6000022B10D1B1F1FF3F08BF417B224608BF14
:10DC70004902074804F10803B6F70EFB28B903234D
:10DC80002373013010BD012010BD002010BD00BF66
:10DC900092320020024B034A93FBF0F3138170474A
:10DCA00000A24A040038014005E0054A118811F03D
:10DCB000800FFAD0938010F8013B002BF5D170470C
:10DCC000003801400F4B10489A6942F480429A6133
:10DCD0000E4A40F27123138142F22C039381138880
:10DCE00023F4A46323F005031B041B0C1380084BCF
:10DCF0005A6822F47F6242F40A625A604FF48062EA
:10DD00001A61D1E700100240C2E90608003801405C
:10DD10000008014010B5FFF705F850B14FF4FA7054
:10DD2000FEF746FDFFF738FA04480549054AFFF7B4
:10DD300025FAFFF7F7FDBDE81040C3E70008002013
:10DD4000D1E906089DC5040807F0E0BC034B1A881A
:10DD500012F0800FFAD09880704700BF0038014061
:10DD60000E200021B6F776BA0D200021B6F772BA60
:10DD70000F200021B6F76EBA10200021B6F76ABA5C
:10DD8000B6F75CBA014B9868704700BF6C32002050
:10DD90002DE9F0433F3189B0234B804687B28CB2E6
:10DDA000ADF1020213F8010C1978C0108910C002FD
:10DDB000490141185878043301EBD00122F8021FC1
:10DDC0001A498B42EED11A4E3D4616F8013B08AA7D
:10DDD0001B0902EB430328460135214633F8202C6A
:10DDE000ADB208F1FF09FEF7C5FA4D4502DD013C71
:10DDF000A4B23D4616F8013C08AA03F00F0302EB5B
:10DE0000430328460135214633F8202CADB2FEF7F6
:10DE1000B1FA4D4502DD013CA4B23D46054B9E42A0
:10DE2000D3D109B0BDE8F08337D8030877D8030809
:10DE300076D8030876F80308002070470020704762
:10DE40000020704700207047034B03EB8003D3F89A
:10DE5000D80E40EA8100704738D906080F2A70B5FD
:10DE600005460C46164603D912482421FFF76CFCE0
:10DE70000F2C03D90F482521FFF766FC072C0E4B0A
:10DE80004FEA850503DC5D19D5F8D83E05E05D193C
:10DE9000D5F8D83E04F007040433A4000F22A240B2
:10DEA00016FA04F4196821EA020242EA04041C602A
:10DEB00070BD00BFEBE9060838D90608074B03EB35
:10DEC0008003D3F8D83E01201AB110FA01F119618C
:10DED000704710FA01F15961704700BF38D9060840
:10DEE00001228A40054B03EB8003D3F8D83E9B68A0
:10DEF0001A420CBF00200120704700BF38D9060825
:10DF000000F580330A3300F10060DB0200F5B04019
:10DF100004E053F8042BB2F1FF3F03D19842F8D844
:10DF20000120704700207047174B10B5B3EBC02F8E
:10DF3000044625D3FEF705F9144BDA6812F0010FF9
:10DF4000FAD11A6942F002021A6104F580320A32EB
:10DF5000D2025A611A6942F040021A610B4BDA6828
:10DF600012F00102FAD119691A61FEF7FDF8204694
:10DF7000FFF7C6FF002814BF01206FF00A0010BD94
:10DF80004FF0FF3010BD00BFFFFF03000020024034
:10DF900008B500F580330A3308464FF40062D90211
:10DFA0001DF022F9012008BD30B500F580300A309F
:10DFB000C002002301221C58CD58AC4203D0B4F15A
:10DFC000FF3F07D100220433B3F5006FF3D182F095
:10DFD000010030BD022030BD70B51A4B00F5803411
:10DFE0000A34E402B3EBC02F0D4624D3FEF7A9F8A0
:10DFF000154BDB6813F00103FAD1134A116941F0A4
:10E0000001011161EA5A19191A530F4AD06810F028
:10E010000106FAD1106920F0010010610A88E95A5E
:10E0200092B291420AD10233B3F5006FE5D1FEF707
:10E030009BF8304670BD4FF0FF3070BD6FF00A00A6
:10E0400070BD00BFFFFF0300002002400C4B70B505
:10E05000B3EBC02F04460D460FD3FFF7A5FF0028F2
:10E060000DDD022802D12046FFF75EFF012806D110
:10E0700020462946BDE87040AEE74FF0FF3070BD46
:10E08000FFFF0300002380F80038C0F80438704711
:10E09000014690F8000810B1D1F80408D6E770479F
:10E0A0002DE9F84F01F17846A6F5A046F60A06F5E7
:10E0B000803A0AF10A0A4FEACA2ACAEB0101C1F5FD
:10E0C000006821F00101044693461D4600EB010A59
:10E0D00027E0D4F80438C4F80468B34206D03046C8
:10E0E0002146FFF755FF002384F80038A845CCBF30
:10E0F0002F464746504659463A46CCBF4FF0000996
:10E100004FF001091DF070F8012384F80038B9F1CF
:10E11000000F05D0D4F804082146FFF797FF18B97F
:10E12000ED1B002DD5DC0020BDE8F88F08B5FFF70A
:10E1300053FFA0F10103584240EB030008BD27E75D
:10E1400008B5FFF7F1FEA0F10102504240EB0200DA
:10E1500008BD10B5064B074C00211C61204640F657
:10E1600008021DF0E9F82046BDE810408AE700BF2C
:10E17000003000206837002038B5074D2869FFF7C8
:10E1800087FF0021044640F6080228691DF0D4F8F4
:10E19000201E18BF012038BD0030002038B51346BE
:10E1A000044A05460C46106929462246FFF778FFC7
:10E1B000012038BD00300020003818BF0120704712
:10E1C000003818BF0120704708B503686BB11A7892
:10E1D0005AB1D9888288914209D15878FFF7F0FF67
:10E1E00010F0010018BF032008BD092008BD092058
:10E1F00008BD2DE9F0410C4600285CD1002B5DD014
:10E200005202170C120A4FEA4328FFB2D6B201207D
:10E21000FDF7B2FF0020FDF7AFFF0520FDF7B6FFC9
:10E22000FDF7BEFF10F00105FAD10120FDF7A4FFB4
:10E230002846FDF7A1FF0320FDF7A8FF3846FDF7AC
:10E24000A5FF3046FDF7A2FF2846FDF79FFF1D4BB7
:10E250001B8913F0020FFAD01A4B1A8912F0800FA3
:10E260001A46F9D19B891389164BFF2098812246C3
:10E27000434611E01349088910F0020FFAD072B634
:10E28000FF2088810F49088910F0010FFAD0898991
:10E29000C94302F8011B62B6013BEBD2FDF780FFD8
:10E2A000094B9D6815F08005B1D10120FDF764FF91
:10E2B0002846BDE8F0810420BDE8F0810420BDE8D7
:10E2C000F08100BF003C0040000C014010B5044646
:10E2D0000A46407804F130010123FFF78AFF80BB32
:10E2E00094F82E3294F82F2243EA0222174B12B2EE
:10E2F0009A4228D194F8682094F86930120442EACE
:10E30000036294F866301A4394F8673042EA0322B5
:10E310000F4B22F07F429A4216D094F8840094F872
:10E320008520000440EA026094F88220104394F8AB
:10E33000832040EA022020F07F40C01A18BF01204D
:10E3400010BD032010BD022010BD00BF55AAFFFF65
:10E35000464154002DE9F843154602681378303BD6
:10E36000092B05D854783A2C02D10232026000E021
:10E37000002300220A60002B40F06881BE4ED6F8D0
:10E380002842002C00F065810C60237883B160780E
:10E39000FFF716FF10F0010F0AD1002D00F05C818D
:10E3A00000F00400002814BF0A200020BDE8F88314
:10E3B000002020706070FFF7FFFE10F0010F40F0AA
:10E3C0004E811DB110F0040F40F04C810021204619
:10E3D000FFF77CFF012817D194F8F231002B00F0F1
:10E3E000478194F8F87194F8F9313F0447EA0367DC
:10E3F00094F8F63120461F4394F8F73147EA032793
:10E400003946FFF763FF00E00027032800F02D8165
:10E41000002840F02D8194F83C2094F83B3043EAEA
:10E420000223B3F5007F40F0238194F8470094F86D
:10E43000463053EA00200DD194F8560094F8573036
:10E44000000440EA036094F85430184394F85530BF
:10E4500040EA032094F84080E06108F1FF33DBB22A
:10E46000012B84F8038000F2038194F83D10A17021
:10E47000002900F0FD804B1E0B4240F0F98094F81B
:10E48000422094F8413043EA022212F00F0F228119
:10E4900040F0EE8094F8445094F8433053EA05235A
:10E4A0000DD194F8523094F853501B0443EA05639D
:10E4B00094F850502B4394F8515043EA052394F8B4
:10E4C0003F9094F83E5055EA092900F0D18008FBAE
:10E4D00000F809EB121CC4446345C0F0C980CCEBC2
:10E4E0000303B3FBF1F3002B00F0C28040F6F5719B
:10E4F0008B4206D94FF6F575AB428CBF032502253A
:10E5000000E001250CEB07010233A162032D07EBAC
:10E510000901A361216213D1002A40F0A98094F877
:10E520005E2094F85F10120442EA016294F85C10D5
:10E530009B000A4394F85D1042EA0122626210E0F7
:10E54000002A00F09580022D4FEA430218BFD2182E
:10E55000414418BF03F0010361620CBF134603EB93
:10E56000520303F5FE730333B0EB532FC0F08C80DE
:10E570004FF0FF3323610133032DE3605AD1637100
:10E5800094F8612094F86030607843EA0222BA1867
:10E59000626104F130010123FFF72BFE002849D10D
:10E5A00094F82E3294F82F2243EA0222334B12B20F
:10E5B0009A423FD194F8322094F83330120442EA60
:10E5C000036294F830301A4394F8313042EA03225F
:10E5D0002B4B9A422ED194F8162294F8173212043B
:10E5E00042EA036294F814321A4394F8153242EA6C
:10E5F0000322244B9A421DD194F81E3294F81F2214
:10E600001B0443EA026394F81C22134394F81D226E
:10E6100043EA0223E36094F81A3294F81B221B04A5
:10E6200043EA026394F81822134394F8192243EA48
:10E63000022323612570B6F82C3200200133A6F89E
:10E640002C32E380E0622071BDE8F8830B20BDE846
:10E65000F8830C20BDE8F8832846BDE8F883032042
:10E66000BDE8F8830A20BDE8F8830120BDE8F883FF
:10E670000D20BDE8F88300BF6C32002055AAFFFFD3
:10E6800052526141727241610D20BDE8F88370B54C
:10E690000C461E46C0B9BBB155020FE020462946C4
:10E6A000B5F7E0FD90B905F5807104F58070B5F718
:10E6B000D9FD05F5007558B904F50074013EF6B2B0
:10E6C000FF2EEBD1002070BD042070BD012070BD75
:10E6D000012070BD2DE9F041C56A04468D420E4609
:10E6E0002AD00379E3B100F13008414640782A4648
:10E6F0000123FFF7CCFF10BBE269236A2071D31816
:10E700009D420DD2E77809E0E3696078ED18414653
:10E710002A460123FFF7BBFF013FFFB2012FF3D8C9
:10E7200086B1607804F1300132460123FFF761FDC4
:10E7300058B9E662BDE8F0810020BDE8F081012013
:10E74000BDE8F0813046BDE8F0810120BDE8F081F0
:10E7500070B979B1012903D14FF480531360704728
:10E760000239C9B2012907D84FF40073136070470A
:10E7700004207047084670470420704770B5002198
:10E780000446FFF7A7FF054600284FD12378032B47
:10E7900044D16379002B41D004F13006E062294670
:10E7A00030464FF40072FDF71DFD552384F82E32DC
:10E7B000DB1884F82F32583B84F8303084F831303D
:10E7C0000F3384F8323084F817322369412284F8F9
:10E7D000332084F816221A0A84F8183284F8192291
:10E7E0001A0C1B0E84F81B32E36884F81A221A0AEA
:10E7F000722184F81C3284F81D221A0C1B0E84F836
:10E80000141284F8151284F81E2284F81F326078DE
:10E81000314662690123FFF73AFF65710021607894
:10E820000A46FFF795FF003818BF012070BD014868
:10E83000704700BFA06C212810B50446FFF79EFF6B
:10E8400020460121BDE8104044E783690239023BBC
:10E85000994204D28278836A02FB0130704700201B
:10E8600070470129F8B504460D465AD98369994283
:10E8700057D20378022B29D0032B38D0012B52D149
:10E8800001EB5106016A01EB5621FFF723FF002837
:10E8900049D1F305216ADB0D0136E318204601EB6F
:10E8A000562193F83070FFF715FF00283BD1F6058D
:10E8B000F60DA61996F8300015F0010F47EA002072
:10E8C00001D00009F8BD0005000DF8BD016A01EB9B
:10E8D0001521FFF7FFFE30BB2D06ED0D63196419FE
:10E8E00093F8303094F8310043EA0020F8BD016A13
:10E8F00001EBD511FFF7EEFEC0B96D06ED0D05F188
:10E900003003E318D8789A7800065B7840EA024032
:10E91000641940EA032094F83030184320F0704026
:10E92000F8BD0120F8BD4FF0FF30F8BD4FF0FF30CB
:10E93000F8BD70B50D46C18081680446012939D003
:10E9400003689A69914235D271B91A78032A01D1C4
:10E95000596A49B90022E2601A89AA422AD95B6A37
:10E9600003EB151323611AE09E7836010EE0206850
:10E97000FFF777FFB0F1FF3F014619D0012819D901
:10E9800023689B69984217D2AD1BADB2B542EED257
:10E99000E1602068FFF759FF00EB15102061236844
:10E9A00005F00F0530336D015D196561002070BD04
:10E9B000012070BD022070BD022070BD10B5C1885D
:10E9C0000446FFF7B6FF50B920682169FFF782FEC1
:10E9D00028B96369E5221A702368E43A1A7110BDF8
:10E9E0000129F8B504460D4616466ED98369994249
:10E9F0006DD20378022B3AD0032B47D0012B60D184
:10EA000001EB5107016A01EB5721FFF763FE002874
:10EA100058D1FB05DB0D15F00105F2B206D0E11867
:10EA200091F8301001F00F0141EA0212E318216A57
:10EA300083F83020013701232371204601EB572151
:10EA4000FFF748FE00283DD1FF05FF0D0DB1360947
:10EA500009E0E31993F83030360A23F00F0306F08B
:10EA60000F0643EA0606E71987F830602AE0016AD4
:10EA700001EB1521FFF72EFE20BB2D06ED0D6319CE
:10EA800083F83060360A83F831601BE0016A01EBDD
:10EA9000D511FFF71FFEA8B96D06ED0D05F1300386
:10EAA000E318DA786519120602F0704242EA0606A7
:10EAB000320A85F830605A70320C360E9A70DE7069
:10EAC00000E0022001232371F8BD0220F8BD0220DE
:10EAD000F8BDF8B505460E4631B9C7686FB1836910
:10EAE0009F4228BF012709E0FFF7BBFE012839D963
:10EAF000AB6998423BD3374600E001273C46AB69FF
:10EB000001349C4202D3012F2ED9022428462146EB
:10EB1000FFF7A7FE38B1B0F1FF3F28D0012826D07B
:10EB2000BC42ECD120E0284621466FF07042FFF74E
:10EB300057FF88B92EB1284631462246FFF750FFCD
:10EB400050B92B69EC60B3F1FF3F0FD0013B2B6153
:10EB500001236B712046F8BD012814BF01204FF03E
:10EB6000FF30F8BD0120F8BD0020F8BD2046F8BDFB
:10EB70002DE9F843C68804460136B6B20F46002E8A
:10EB80006AD00369002B67D016F00F085AD1C1680C
:10EB900001330361006819B90389B34252D85BE0BD
:10EBA0008378013B13EA16134CD1FFF75AFE012874
:10EBB000054657D9B0F1FF3F57D0206883699D4281
:10EBC0003AD3002F48D0E168FFF783FF05460028BD
:10EBD00045D0012846D0B0F1FF3F46D02068002143
:10EBE000FFF778FD074600283FD1206839463030CE
:10EBF0004FF40072FDF7F6FAD4F800902946484623
:10EC0000FFF723FEC9F82C000FE04FF0010983F84D
:10EC1000049020680021FFF75DFD002828D12368BB
:10EC20004F44DA6AFFB24A44DA6223689A78BA42F9
:10EC3000EBD8DA6AD71BDF62E56020682946FFF768
:10EC400004FE206123684FEA481830334344E680CD
:10EC500063610020BDE8F8830420BDE8F883072045
:10EC6000BDE8F8830220BDE8F8830120BDE8F88301
:10EC70004846BDE8F8832DE9F0410B7804462F2B78
:10EC80000E4601D05C2B00D101360025A5603378FB
:10EC90001F2B06D820462946FFF74BFE6561BDE8CD
:10ECA000F08133461A781E4601332F2AFAD05C2AA7
:10ECB000F8D0A569202128460B22FDF793FA002100
:10ECC0000F4608200A46F35D0137202B35D92F2B3C
:10ECD00035D05C2B33D02E2B01D0814208D30828AD
:10ECE0007FD12E2B7DD192000146D2B20330EAE7CC
:10ECF00013F0800F75D1DFF804C11CF8018FB8F153
:10ED0000000F02D09845F8D16BE0A3F1410C5FFAF7
:10ED10008CFCBCF1190F02D842F002020AE0A3F108
:10ED2000610C5FFA8CFCBCF1190F03D8203B42F058
:10ED30000102DBB26B540131C5E7042300E000237C
:10ED400000294ED02978E52901D1E0392970082819
:10ED500001D19200D2B202F00301012902F00C02AB
:10ED600008BF43F01003042A08BF43F00803EB7206
:10ED700020460021FFF7DDFDC0B920682169FFF7BB
:10ED8000A9FC98B9626913787BB1D37A13F0080FA4
:10ED90002DD1A169034601E00B2B07D012F803C067
:10EDA000CD5C0133AC45F7D021E00420A369DB7AC8
:10EDB00040B1042819D103F00403002B08BF05203B
:10EDC000BDE8F08113F0040F0FD16169CB7A13F025
:10EDD000100F09D02368F6191878FDF7D1FCA06050
:10EDE0005FE70620BDE8F0810520BDE8F081204600
:10EDF0000021FFF7BDFE0028BFD0D7E715EA0608BF
:10EE000070B500210546FFF794FD044600BB286855
:10EE10002969FFF75FFC0446D0B96B691B78E52BC5
:10EE200018D0BBB128460121FFF7A2FE04460028F6
:10EE3000EDD00DE06E69214630462022FDF7D2F973
:10EE40000B223046A969FDF7C5F92B6801221A711A
:10EE5000204670BD28682969FFF73CFC044600285D
:10EE6000F6D1E7E710B50423044614E02068FFF765
:10EE700031FCD0B962691378B3B1E52B05D02E2BE4
:10EE800003D0D37A13F0080F0DD020460021FFF7EE
:10EE90006FFE034648B921690029E7D1184613B12E
:10EEA00000222261184610BD04200346F8E701291C
:10EEB00070B504460E4623D9836999421AD31FE0E0
:10EEC00020463146FFF7CDFC0546C0B1012817D0DA
:10EED000B0F1FF3F16D0204631460022FFF780FDFB
:10EEE00088B92369B3F1FF3F03D0013323610123C4
:10EEF00063712E46A3699E42E2D3002070BD70BDAF
:10EF0000022070BD012070BD58B9074AD2F82832DE
:10EF100003B1187009B100230B70C2F82812002049
:10EF200070470B20704700BF6C3200202DE9F04382
:10EF30008DB001910446002800F08E80002302F07D
:10EF40001F05036002A901A805F01E02FFF702FADF
:10EF50008046002840F0828009AB02A801990893FE
:10EF6000FFF789FE079E10B9002E08BF062015F096
:10EF70001C0F42D050B1042802D102A8FFF740FF75
:10EF8000079E002866D145F0080506E0F37A13F0E5
:10EF9000110F6BD115F0040F64D115F0080F38D0A4
:10EFA000A023B373343BF3734B3B00273374073315
:10EFB0007374F77237777777B777F777029B3146B5
:10EFC0001878FDF7DDFB394681463046FDF710F92C
:10EFD000029801230371B9F1000F1AD04946C76A9C
:10EFE000FFF765FF002835D1029809F1FF33C360B0
:10EFF0003946FFF76FFB60B12CE000282AD1F37A85
:10F0000013F0100F30D115F0020F02D013F0010FE2
:10F010002CD1029F15F0080FFB6A18BF45F02005A0
:10F02000E3612662A57138783146FDF7A9FB2061BE
:10F03000B37FF27F1B0443EA0263327F1343727F84
:10F04000276043EA0223FF88E3600023A360A361F3
:10F05000A78003E0804601E04FF0090840460DB06C
:10F06000BDE8F0830820F5E70420F3E70720F1E787
:10F070002DE9F74F99460023C9F8003004460E46A3
:10F080001746FFF7A1F80546002840F09980A379BC
:10F0900013F0800F40F0918013F0010F00F08F808B
:10F0A000E268A368C3EB0208474538BFB8467FE073
:10F0B000A368DA05D20D002A52D1206890F802A088
:10F0C0000AF1FF3A0AEA532A5FFA8AFABAF1000F04
:10F0D0000BD10BB9206902E06169FFF7C2FB01287F
:10F0E0000AD9B0F1FF3F41D06061D4F800B0616946
:10F0F0005846FFF7AAFB28B9A379022563F07F03DE
:10F10000A3715DE05FEA582700EB0A0C26D09BF85C
:10F11000023007EB0A029A4288BFCAEB03079BF84A
:10F12000010062463146FBB2CDF804C0FFF761F83A
:10F13000DDF804C0D0B921680B796BB1CB6ACCEB98
:10F14000030CBC4508D24FEA4C2C06EB0C003031C6
:10F150004FF40072FDF73EF87F021EE0C4F818C0BD
:10F160002068A169A768FFF7B5FA28B1A37901253E
:10F1700063F07F03A37123E0A368FF05FF0DDB05A8
:10F18000C7F50077DB0D2168B84538BF47463033F7
:10F190003046C9183A46FDF71DF8A368F619DB1981
:10F1A000A360D9F80030C7EB0808DB19C9F80030B4
:10F1B000B8F1000F7FF47CAF02E0022500E00725E4
:10F1C0002846BDE8FE8F2DE9F74F01931646019AB8
:10F1D0000023136004468846FEF7F6FF0546002824
:10F1E00040F0B480A37913F0800F40F0AC8013F0AE
:10F1F000020F00F0AA80E368DE4228BF002695E0F7
:10F20000A368DA05D20D002A67D1206890F802B011
:10F210000BF1FF3B0BEA532B5FFA8BFBBBF1000FAB
:10F2200013D133B9216951B9FFF753FC014620616D
:10F2300003E06169FFF74DFC0146002979D00129FF
:10F240000ED0B1F1FF3F4ED061612068A369C26A60
:10F250009A427ED10021FFF73DFA002879D042E0A2
:10F26000A379022563F07F03A3716FE0770A00EBB7
:10F270000B0924D09AF8023007EB0B029A4288BFA0
:10F28000CBEB03079AF8010041464A46FBB2FFF771
:10F29000FEF9824638BB2068C36AC9EB0309B94549
:10F2A0000BD24FEA4929303008EB09014FF40072C4
:10F2B000FCF790FF236883F804A07F022DE0A2688A
:10F2C000E3689A4207D350463946FFF703FA50B92C
:10F2D0002368C3F82C90C4F818902068A169A76827
:10F2E000FFF7F8F928B1A379012563F07F03A37133
:10F2F0002CE0A068FF05FF0DC0052368C7F5007767
:10F30000C00DBE4238BF3746303018183A46414625
:10F31000FCF760FF236801221A71A368019ADB19C8
:10F32000A3601368B844DB191360F61B002E7FF44A
:10F3300067AFA368E268934288BFE360A37943F0B4
:10F340002003A37102E0022500E007252846BDE85E
:10F35000FE8FD4F800A061695046FFF776FA0028C6
:10F3600084D17DE770B50446FEF72EFF002832D128
:10F37000A37913F0200F2ED02068E169FFF7AAF9D6
:10F380000646002827D1256AEB7A284643F0200359
:10F39000EB72E3682B77A3891B126B77E389AB775A
:10F3A000E37BEB772169FCF723FFA023AB75343BAC
:10F3B000EB754B3B2B7607336B76AE74EE74A3790B
:10F3C000012223F02003A37123681A712068BDE88D
:10F3D0007040FFF7D3B970BD10B50446FFF7C2FF08
:10F3E00000B9206010BD10B57B461B4A8AB0C2F838
:10F3F00030327346C2F834326B46C2F838323B467C
:10F40000C2F84032EFF30983C2F83C32134B02F5E5
:10F41000117203F12004186859680833A34203C22B
:10F42000F9D10F490A226846FFF780FD68464FF080
:10F4300000514FF4404209ABFFF7C5FE6846FFF7A5
:10F44000CBFF30B90998A0F54041484240EB01009C
:10F4500000E000200AB010BD6C3200202CE8060845
:10F4600025EA0608F8B504460D46FEF7ADFE064649
:10F47000002840F08180A27912F0800F7BD1E368F0
:10F480009D4204D902F00202002A08BF1D46002254
:10F49000A368A260002D5DD0206887787F0273B1D9
:10F4A000013B691EB1FBF7F1B3FBF7F2914206D3C2
:10F4B0007A4202EA0303A360ED1A61690BE0216955
:10F4C00041B9FFF706FB0128014637D0B0F1FF3FF5
:10F4D00015D020616161002939D021E0A37913F0B2
:10F4E000020F05D02068FFF7F4FA014620B91AE0B0
:10F4F0002068FFF7B6F90146B1F1FF3F05D1A379C6
:10F50000012663F07F03A37136E0012916D9236831
:10F510009B69994212D2A3686161DB19A360ED1B5C
:10F52000BD42DBD800E03D46A3685B19A360EB0554
:10F53000DB0D73B12068FFF788F928B9A37902269B
:10F5400063F07F03A37117E000EB552502E00D4641
:10F5500000E01D46A368DA05D20D1AB1A2699542F2
:10F5600018BFA561E268934206D9E360A37943F02E
:10F570002003A37100E002263046F8BD30B587B005
:10F580000191044628B301A821460022FEF7E2FEBD
:10F590002568D8B903ABA36120460199FFF76BFB3F
:10F5A00078B9616939B1CB7A13F0100F0DD0287892
:10F5B000FDF7E6F8A060ED882046A5800021FFF762
:10F5C000B8F9042801D028B100E005200023236009
:10F5D00000E0092007B030BD7FB505460E46FEF7B6
:10F5E000F3FD0446F0B92EB921462846FFF7A1F9EC
:10F5F000044617E001ABAB612846FFF733FC042853
:10F6000001D12C6100E060B928463146FCF7F8FDD5
:10F6100000212846FFF7ACFA042802D100232B6111
:10F6200000E00446204604B070BD30B58DB00CAB90
:10F6300043F82C0D0C46184602A90022FEF78AFE5C
:10F64000054678B909AB02A801990893FFF713FBA7
:10F65000054638B9079B23B102A82146FCF7D0FD27
:10F6600000E0062528460DB030BD2DE9F34702AB7A
:10F6700043F8040D15460C46184611460022FEF7C5
:10F6800069FE2D68064600285ED1D5F818802B69E2
:10F69000A8F10202934201D8236055E095F800904A
:10F6A000B9F1010F13D14FF0020807462846414631
:10F6B000FFF7D7F8B0F1FF3F3AD001283AD000B9B0
:10F6C0000137AB6908F101089845EFD335E0D5F86B
:10F6D00020A003460246074652B928465146FEF787
:10F6E000F9FF48BB0AF1010A05F130034FF400723B
:10F6F000B9F1020F08D15878197851EA002108BFF2
:10F7000001370233023A0FE09978D878090441EAC8
:10F71000006118780143587841EA002121F07041D6
:10F7200001B901370433043AB8F10108D4D104E037
:10F73000012602E0022600E00646B9F1030F2F6120
:10F7400001D101236B7127603046BDE8FC8770B59D
:10F750000446002838D0FEF737FD0646002834D18D
:10F76000A37913F0800F04D113F0020F2FD1C61D1F
:10F770002BE0022629E043F02003E560A37135B9B0
:10F7800020682169FFF793FB2561064616E0206893
:10F790006169FFF766F8B0F1FF3F05461CD001280C
:10F7A0001ED11BE061696FF07042FFF719F9064640
:10F7B00028B920682946FFF77AFB06462EB1A379BF
:10F7C00063F07F03A37100E00926304670BDA56891
:10F7D000E268AA42CFD8F8E70126F0E70226EEE772
:10F7E000206883699D42F0D2DCE770B594B014AB19
:10F7F00043F84C0D18460AA90122FEF7ABFD054659
:10F80000002843D111AB0AA801991093FFF733FAEE
:10F81000054600283AD10F9E3EB1F57A05F0010564
:10F82000002D14BF0725002500E006250A9B314660
:10F830001878FCF7A5FF044645BBF37A13F0100FC8
:10F8400027D0012813D903A80AA91C22FCF7C2FC5F
:10F8500003A802210594FFF76CF80546B0B903A888
:10F86000FFF700FB054620B1042812D00EE0022568
:10F870000CE007250AE02CB10A982146FFF717FB98
:10F88000054618B90A98FEF779FF0546284614B0D0
:10F8900070BD0AA8FFF792F805460028EBD0F5E7FF
:10F8A0002DE9F0438DB00CAB43F82C0D184602A99E
:10F8B0000122FEF74FFD80460446002840F0948068
:10F8C00009AB02A801990893FFF7D5F980460028F3
:10F8D00000F08880042840F0878002982146FFF7D6
:10F8E000F8F80546002800F08380012800F08380A6
:10F8F000B0F1FF3F00F0828083E0029C2946204661
:10F90000FEF7A3FF04F1300649464FF400720746A4
:10F910003046FCF767FC0B2220213046FCF762FCE6
:10F92000102384F83B30903384F84630343B84F81D
:10F9300047304B3B4FF02E0984F84830073384F8AA
:10F9400049303046294684F8309004F15008FCF7DD
:10F950004FFC202231464046FCF73CFC84F8519095
:10F96000029B04991A78032A03D15B6A994208BF63
:10F9700000214046FCF73CFC029B9C7811E0029879
:10F9800001230021C7620371FEF7A4FE01468046F1
:10F9900070B930464FF40072FCF724FC013C01378B
:10F9A000E4B2002CEBD102A8FFF72AFA804620B17E
:10F9B00002982946FFF77BFA16E007981023C372D6
:10F9C00090338375343BC3754B3B037607334376E3
:10F9D0002946FCF70DFC029801230371FEF7CEFEC9
:10F9E000804601E04FF0080840460DB0BDE8F083C6
:10F9F0004FF00708DCE74FF00208D9E74FF00108A5
:10FA0000D6E702982146FEF765FE8146804600282B
:10FA10003FF473AFCCE730B58DB00CAB43F82C0D91
:10FA20000C461546184602A90122FEF793FCC0B900
:10FA300009AB02A801990893FFF71DF988B9079B44
:10FA400073B1DA7A05F0270522EA0502254042EA79
:10FA50000505DD72029801230371FEF78FFE00E0B9
:10FA600006200DB030BD10B58CB00CAB43F82C0D9A
:10FA70000C46184602A90122FEF76CFCC8B909AB76
:10FA800002A801990893FFF7F6F890B9079B7BB19C
:10FA9000E2889A75E2881212DA75A2881A76A2882C
:10FAA00012125A76029801230371FEF767FE00E0F6
:10FAB00006200CB010BD30B59BB01AAB43F8640DF6
:10FAC0000C4618460AA90122FEF744FC002869D119
:10FAD0000A9B0AA80393019917AB1093FFF7CBF881
:10FAE00000285FD10F99002959D011A80B31152298
:10FAF000FCF770FB03A80AA91C22FCF76BFB03A808
:10FB00002146FFF7B8F800284BD004284AD103A8B3
:10FB1000FFF776F9002845D1089C132204F10D0067
:10FB20000DF14601FCF756FB9DF8443043F02003ED
:10FB3000E3720A9D01232B71059B0C9A9A4226D0F1
:10FB4000E37A13F0100F22D021462878FCF718FE34
:10FB500001462846FEF779FE0146002824D02846B3
:10FB6000FEF7B8FD0A9BE8B993F851202E2A0ED172
:10FB70001A780599032A03D15A6A914208BF0021D5
:10FB800003F15000FCF734FB0A9B01221A710AA80A
:10FB9000FEF714FF30B90A98FEF7F0FD02E00420EA
:10FBA00000E008201BB030BD0220FBE7052804D888
:10FBB000034B181890F8140F70470220704700BFCD
:10FBC00038D9060810B500200249FFF79DF9BDE8B5
:10FBD0001040EBE7D0340020022910B503460A4656
:10FBE00007D1194608320848FFF7A0F9BDE81040D0
:10FBF000DCE7012906D119460348FFF797F9BDE86C
:10FC00001040D3E7022010BD0037002007B50146A1
:10FC10004FF4007201AB0348FFF72AFAFFF7C6FF63
:10FC20000EBD00BF0037002007B5014601AB0748F5
:10FC30004FF40072FFF7C7FA019BB3F5007F02D1C2
:10FC4000FFF7B4FF00E005200EBD00BF0037002025
:10FC5000B0F1FF3F10B5014606D00648FFF702FCA1
:10FC600028B90448FFF773FD0248FFF7B5FBBDE86C
:10FC700010409BE700370020014610B50248FFF70F
:10FC80007DFCBDE8104091E72437002010B5044604
:10FC900021460548FFF7A0FC637A13B1BDE8104088
:10FCA00084E7032010BD00BF24370020014BD3F8A8
:10FCB000A00470476C320020014610B50248FFF7DF
:10FCC000D1FBBDE8104071E70037002010B586B0C9
:10FCD0000446002102A810221BF02EFB00230AE09C
:10FCE0000E498A4205D806A800EB830141F8102C82
:10FCF0000133032B08DC0A4A944205D254F8042B42
:10FD000008498A42ECD2F4E7059B07480093029920
:10FD1000039A049BFDF748FD06B010BD38D90608CC
:10FD20000000012000C0040830EA0608B0B505460E
:10FD300000AF0C4603200021B4F788FA0A48294690
:10FD4000FDF732FD09482146FDF72EFD3846FFF745
:10FD5000BDFFFFF748FB18B10548FDF725FD02E0A0
:10FD60000448FDF721FDFEE74EEA060858EA0608BA
:10FD700066EA060888EA060830B50D4691B0744672
:10FD800013460090054903A82A46FDF7F7F903A892
:10FD90002146FFF7CBFF11B030BD00BF9DEA06083A
:10FDA000684620F007018D4631B50021264C82B00F
:10FDB0000320B4F74BFA2548FDF7F6FCD4F8D41429
:10FDC00023488A694B69FDF7EFFC224B2248D96A28
:10FDD0009A6A9B6BFDF7E8FCD4F8D4341F48DA68C4
:10FDE000009219685A689B68FDF7DEFCD4F8E45469
:10FDF000D4F8E034D4F8D814D4F8DC2418480095AA
:10FE0000FDF7D2FC1748D4F8E814D4F8EC24FDF739
:10FE1000CBFCD4F8D4341448D4F8F014D4F8F42437
:10FE20001B69FDF7C1FCD4F8D4041C30FFF74EFF6A
:10FE3000FFF7D9FA18B10D48FDF7B6FCFEE70C48FC
:10FE4000FDF7B2FCFAE700BF6C320020B8EA060802
:10FE5000CCEA060800ED00E0E8EA06080CEB06082C
:10FE600030EB060854EB060868EB060866EA06085D
:10FE700088EA06080A4BEFF30882C3F8D844C3F8AF
:10FE8000D424C3F8DC54C3F8E064C3F8E474C3F8C2
:10FE9000E884C3F8EC94C3F8F0A4C3F8F4B47FE7A3
:10FEA0006C320020704700BF7047704700207047D9
:10FEB0007047014B0360704750F60608014B036022
:10FEC000704700BF50F6060837B5FCF799F8284C84
:10FED0002368B3F1FF3F08BF20602368C51AB5F55A
:10FEE0007A7F0ED94FF47A72B5FBF2F502FB053337
:10FEF0001F490B6004F0E4FE00F53050C36BED18B1
:10FF0000C563FCF7CDF9ADF8060000B9A08004F098
:10FF1000D7FE00F544500DF106014C3004F0C8F94D
:10FF200004F0CEFE00F544504C300DF1060104F013
:10FF3000C7F9BDF806309BB1A2889A4206D00D4B96
:10FF40001B681B7A13B93220FCF79BF904F0B8FE4A
:10FF50000221BDF8062009F067FCBDF80630A38039
:10FF600004F0AEFE0321002209F05EFC01203EBD3C
:10FF700018300020B0A9002010B5FDF7CBFEFFF728
:10FF800021FE04F09DFE09F02EF904F099FE0121F6
:10FF9000002209F049FC15F0E5F815F09DF814F081
:10FFA000EBFEBDE81040FDF74ABD10B50446FFF773
:10FFB00080FF034B20462360024B1C6010BD00BF36
:10FFC00068F6060868770020034B10B50446036006
:10FFD000FFF774FF204610BD68F60608014B18684D
:10FFE000704700BF6877002008B5036849421B6866
:10FFF00049B2984708BD0000014B1868704700BF20
:020000040805ED
:1000000058FD0608704701207047436882681968E8
:100010008A181A6070474368826819688A1A1A60D9
:1000200070470820704783681B78CB1805D4027B83
:100030009342CCBF002001207047002070478368A6
:100040001A7801321A70704783681A78013A1A7068
:10005000704783681970704783681878704702206A
:10006000704718207047022070470020704700201A
:100070007047082070470000034B1B68586A00282F
:10008000B8BF033080107047B0A90020002070472F
:1000900019207047034B1B68986A0028B8BF0330CB
:1000A00080107047B0A900200020704719207047C9
:1000B00070477047436882681B68CB18934205DB22
:1000C000C0688342CCBF00200120704700207047E9
:1000D00043681A6801321A60704743681A68013A27
:1000E0001A607047024840F21F11FDF72DBB00BF98
:1000F00078F6060808B503484FF48F71FDF724FB26
:10010000002008BD78F60608024840F21D11FDF7F0
:100110001BBB00BF78F6060802484FF48E71FDF74E
:1001200013BB00BF78F60608024840F21B11FDF72A
:100130000BBB00BF78F6060808B5034840F219115A
:10014000FDF702FB022008BD78F6060839B9042A3B
:1001500005D146F26742934201D108F0C3BB704714
:1001600039B9042A05D146F26742934201D108F019
:10017000B9BB704739B9042A05D146F267429342A8
:1001800001D108F0AFBB7047C36A70B504460D4695
:100190001BB916484E21FDF7D7FA15F0010F07D00D
:1001A000E36A9A7922B1013A9A71204608F09AFBE3
:1001B00015F0020F08D0E36A9A790B2A04D80132AD
:1001C0009A71204608F08EFB15F0100F08D0E168F8
:1001D000E36A204646F66352BDE8704008F08DBBE6
:1001E00020462946BDE8704008F006BC92F6060895
:1001F00011F0100F70B505460C4605D0C16846F6E3
:100200006F52002308F079FB28462146BDE8704074
:1002100008F0F2BB11F0010F70B504460D4615D081
:10022000C06A012103685B68984701280ED1E06A23
:1002300000210368DB689847204608F053FB2046FE
:10024000E16847F27052002308F057FB15F0020FE7
:1002500015D0E06A012103681B68984701280ED178
:10026000E06A002103689B689847204608F03AFB43
:100270002046E16847F27052002308F03EFB15F07B
:10028000100F0ED0E06A0368DB699847084B1B68C3
:10029000984206D02046E16846F66542E36A08F0D7
:1002A0002CFB20462946BDE87040FFF7A1BF00BFE8
:1002B00058FD060811F0010F70B504460D460DD02B
:1002C000C36A002B0ADD013BC36208F00BFB20462A
:1002D000E16846F67512002308F00FFB15F0020FD7
:1002E0000ED0E36A132B0BDC0133E362204608F0E7
:1002F000F9FA2046E16846F67512002308F0FDFA87
:1003000020462946BDE87040FFF772BF11F0010F8B
:1003100070B504460D4615D0C06A012103685B68BC
:10032000984701280ED1E06A00210368DB689847EE
:10033000204608F0D7FA2046E16847F270520023C1
:1003400008F0DBFA15F0020F15D0E06A012103680E
:100350001B68984701280ED1E06A002103689B685A
:100360009847204608F0BEFA2046E16847F27052EE
:10037000002308F0C2FA15F0100F0ED0E06A0368EF
:10038000DB699847084B1B68984206D02046E16815
:1003900046F66542E36A08F0B0FA20462946BDE811
:1003A0007040FFF725BF00BF58FD060811F0010F90
:1003B00070B504460D4615D0C06A012103685B681C
:1003C000984701280ED1E06A00210368DB6898474E
:1003D000204608F087FA2046E16847F27052002371
:1003E00008F08BFA15F0020F15D0E06A01210368BE
:1003F0001B68984701280ED1E06A002103689B68BA
:100400009847204608F06EFA2046E16847F270529D
:10041000002308F072FA15F0100F0ED0E06A03689E
:10042000DB699847084B1B68984206D02046E16874
:1004300046F66542E36A08F060FA20462946BDE8C0
:100440007040FFF7D5BE00BF58FD060811F0010F40
:1004500070B504460D460DD0C36A012B0ADD013B81
:10046000C36208F03FFA2046E16846F675120023A1
:1004700008F043FA15F0020F0ED0E36A1D2B0BDCD7
:100480000133E362204608F02DFA2046E16846F683
:100490007512002308F031FA20462946BDE8704065
:1004A000FFF7A6BE11F0200F70B505460C4606D02A
:1004B000C06846F278520146002308F01EFA28462A
:1004C0002146BDE8704008F097BA000011F0010F16
:1004D00070B504460D4615D0006A012103685B68BB
:1004E000984701280ED1206A00210368DB689847ED
:1004F000204608F0F7F92046E16847F270520023E1
:1005000008F0FBF915F0020F15D0206A01210368ED
:100510001B68984701280ED1206A002103689B6858
:100520009847204608F0DEF92046E16847F270520D
:10053000002308F0E2F915F0100F0ED0206A0368CE
:10054000DB699847084B1B68984206D02046E16853
:1005500046F66542236A08F0D0F920462946BDE8F0
:100560007040FFF79FBF00BF58FD060811F0010F54
:1005700070B504460D4615D0C06A012103685B685A
:10058000984701280ED1E06A00210368DB6898478C
:10059000204608F0A7F92046E16846F675120023C8
:1005A00008F0ABF915F0020F15D0E06A01210368DD
:1005B0001B68984701280ED1E06A002103689B68F8
:1005C0009847204608F08EF92046E16846F67512F5
:1005D000002308F092F920462946BDE8704008F053
:1005E0000BBA0000C36A70B504460D461BB91A4821
:1005F0002A21FDF7A9F815F0100F08D0E168E36A89
:10060000204646F66352BDE8704008F076B9E36ACA
:100610001A79043AD2B2012A17D815F0010F08D07E
:10062000DA6812F1FE0F04DB013ADA60204608F0C6
:1006300059F915F0020F08D0E36ADA68FE2A04DCE3
:100640000132DA60204608F04DF920462946BDE81F
:10065000704008F0D1B900BFBDF60608C36A70B596
:1006600004460D461BB91D482221FDF76DF815F013
:10067000100F08D0E168E36A204646F66352BDE8F1
:10068000704008F03AB915F0010F0ED0E36A1A79FC
:100690005AB1013A1A71204608F024F92046E1685F
:1006A00046F67512E36A08F028F915F0020F0FD02C
:1006B000E36A1A790B2A0BD801321A71204608F026
:1006C00011F92046E16846F67512E36A08F015F95B
:1006D00020462946BDE8704008F08EB9EBF60608C2
:1006E000C36A70B504460D461BB916483C21FDF798
:1006F0002BF815F0010F07D0E36A9A7922B1013A7D
:100700009A71204608F0EEF815F0020F08D0E36A5F
:100710009A79092A04D801329A71204608F0E2F841
:1007200015F0100F08D0E168E36A204646F66352E0
:10073000BDE8704008F0E1B820462946BDE87040A9
:1007400008F05AB91AF7060830B5028400250122CC
:10075000456280F82820BDE8304008F087B80000E6
:100760007FB5043302AC05460E4693E8030084E8E7
:100770000300BDF80E30284604339BB2ADF80A30B2
:100780000733ADF80E30044942F0020223460096CA
:1007900008F06CF87FBD00BF3CF706087FB5043356
:1007A00002AC05460E4693E8030084E80300BDF85A
:1007B0000E30284602339BB2ADF80A300733ADF84D
:1007C0000E30044942F002022346009608F04EF82B
:1007D0007FBD00BF48F7060830B5049D02840122A2
:1007E0004562BDE8304008F041B82DE9FF410A9E5E
:1007F0000D4600214162028480F8283004464FF003
:100800001108304608FB03F807F0E8FF5FFA88F8A4
:1008100002AF68B1304607F0E1FF043003C887E853
:100820000300BDF80E3002339BB2ADF80A3006E08B
:10083000331D93E8030087E80300BDF80A309844AD
:1008400020462946012202ABADF80E80009608F042
:100850000DF8BDE8FF81FFF7C8BF00002DE9F041AA
:10086000DDF81880044615461F460E4621B9084893
:1008700040F21B21FCF768FF204629463A46022336
:10088000E662CDF81880BDE8F041FFF7AEBF00BFCB
:1008900078F60608DBB2FFF7A8BFFFF7A6BF10B5D2
:1008A0000A24C462BDE81040FFF79FBF10B50A24B8
:1008B000C462BDE81040FFF798BFFFF796BF000085
:1008C00073B5044616460D4619B907480C21FCF7C6
:1008D0003BFFE5622046002146F20C3202230096DF
:1008E000FFF783FF7CBD00BFBDF6060810B50524E9
:1008F000C462BDE81040FFF778BF13B503469C689B
:100900005B682478088853F82430B1F9021000930A
:100910004FF6FF73002A14BF1A4600224FF61E033B
:10092000FCF7D1FE1CBD00002DE9F341274DB0F9C5
:1009300006402B68B0F90460B3F85020244B2146E0
:10094000009330460023FCF7BEFE2B68214F93F83E
:100950004E30214657F82330801900934FF6FF722E
:100960000023FCF7B0FE2B6806F16408B3F864209E
:10097000194B2146009340460023FCF7A4FE2B6848
:10098000214693F86230404457F823304FF6FF7207
:1009900000930023FCF797FE104BC83600932146C6
:1009A000002330464BF29652FCF78DFE2B688019DF
:1009B00093F89C200A4B214653F822304FF6FF72E1
:1009C00000930023FCF77FFEBDE8FC81B0A9002066
:1009D000033607087CFE0608E936070854F70608C0
:1009E000E4FE060813B504300021FCF7B6FC314BD9
:1009F000302100930420002348F21042FCF763FEEC
:100A00002D4B402100930420002348F21042FCF7B4
:100A10005AFE2A4B50210093294C0023042048F20F
:100A20001042FCF750FE60210023082044F2082207
:100A30000094FCF748FE234B702100930420002310
:100A400048F21042FCF73FFE1F4B80210093042028
:100A5000002348F21042FCF736FE1C4B9021009315
:100A6000042048F210420023FCF72DFEB02108209C
:100A700044F2082200230094FCF725FE144BC02109
:100A800000930420002348F21042FCF71CFE114B97
:100A9000D02100930420002348F21042FCF713FEFB
:100AA0000D4B04200093E02148F210420023FCF794
:100AB0000AFE1CBD58F7060863F7060874F7060817
:100AC00081F70608AAF70608C1F70608DDF7060849
:100AD000EEF7060801F8060819F80608F7B50E88BB
:100AE000154B083E4FF6FF75002A08BF0025B6B229
:100AF0000C460746B1F902102A46009330464FF6DD
:100B00001E03FCF75EFC7B683618B6B2B4F902101F
:100B1000009330462B464FF61E02FCF7D4FD074BE0
:100B200030180093B4F902102A464FF61E0380B223
:100B3000FCF747FCFEBD00BF524B0708C44B07083B
:100B400073B5044607F0BEFEA688144B083E4FF668
:100B5000FF75002808BF0025B6B2B4F9061000934F
:100B60002A4630464FF61E03FCF72BFCE369361885
:100B7000B6B2B4F90610009330462B464FF61E026B
:100B8000FCF7A1FD064B30180093B4F906102A4675
:100B90004FF61E0380B2FCF714FC7CBD524B0708D5
:100BA000C44B070808B583681A78436853F82200D5
:100BB0001AF036FEC3004FF6F87003EA000008BDD5
:100BC0007FB5436804460D46164623B9124840F2E5
:100BD000CB21FCF7B9FD63681A68A36892FBF3F2B6
:100BE0000A2392FBF3F103FB11220023ADF80C3032
:100BF000303204AB03F8042D4FF6FF720093B5F9C1
:100C00000000B5F90210002E08BF00224FF61E03A7
:100C1000FCF77AFD7FBD00BF78F6060870B50E467A
:100C200015461C4607F0D3FD2A46014623463046AA
:100C3000BDE8704007F061BE11F0130F70B50546B6
:100C40000C4607D007F0C3FD022201462346284682
:100C500007F053FE28462146BDE8704007F0CCBEA1
:100C600010B50C4607F0B3FD036821465B68984752
:100C700010BD11F0130F10B50C4606D007F0A7FDFC
:100C8000036821465B68984710BDBDE8104007F037
:100C9000B3BE000011F0030F10B507D0FFF766FCDC
:100CA000044B1868BDE8104006F080B9BDE810405C
:100CB000FFF75CBCB0A9002011F0030F10B507D0FE
:100CC000FFF754FC044B1868BDE8104006F06EB9FD
:100CD000BDE81040FFF74ABCB0A9002011F0030F97
:100CE00010B507D0FFF742FC044B1868BDE8104070
:100CF00006F05CB9BDE81040FFF738BCB0A9002091
:100D000008B54368B3F9000007F06CFA1AF088FDE3
:100D1000C3004FF6F87003EA000008BD4368F7B55A
:100D20004FF6FF7604460D46002A08BF00261BB981
:100D300013489721FCF708FD6368B5F9007018683F
:100D4000A368984202DBE36898420ADD0D4BB5F9CF
:100D500002100093384632464FF61E03FCF7B3FCF0
:100D60000CE000B2B5F9024007F03CFA21460090D1
:100D7000324638464FF61E03FCF7C6FCFEBD00BFE8
:100D800026F8060841F806082DE9F0471F4647F205
:100D900070539A4204460D4616463FD100F138037F
:100DA00099423BD1436A93F80480A8F104095FFAA1
:100DB00089F9B9F1010F8CBF4FF000094FF001091B
:100DC000B9F1000F06D0A8F10503D3F1000848EBF4
:100DD000030801E04FF0010804F1A00A504607F0B3
:100DE00080FE814506D04946504607F08EFD4FF003
:100DF000010901E04FF0000904F16C0A504607F0C8
:100E000070FE804504D05046414607F07EFD02E06A
:100E1000B9F1000F02D0204607F064FD20462946B4
:100E200032463B46BDE8F047FFF7F8BEF7B54368EA
:100E30000E881C88083E134BB6B20D462246B1F907
:100E40000210304600934FF61E03FCF7BAFA36182C
:100E50002046B5F9027007F009FAB6B2009039469B
:100E6000234630464FF61E02FCF74EFC064B301868
:100E70000093B5F9021022464FF61E0380B2FCF72C
:100E8000A0FAFEBD524B0708C44B0708002280F8A9
:100E9000312007F08DBF44F644439A4201D107F058
:100EA00087BF44F645439A4202D1642107F082BECF
:100EB0007047000070B5043092B00021FCF74DFA85
:100EC00001252824681EFBF7C3FC0646D0B128493B
:100ED0001AF05AFB034648B9264A042000922146DC
:100EE00048F210420195FCF710FC16E0224B04205A
:100EF0000093214648F21042002301950296FCF728
:100F000004FC0AE01D4B042000932146334648F2BE
:100F100010420195FCF7F9FB194E342205A8002177
:100F20001AF00AFA05AB06F130023068716808362B
:100F3000964203C3F9D13188B27805AE19809A7010
:100F400030463B211AF09AFA08B1002303700420BE
:100F5000002304F110014BF2965200960135FCF784
:100F6000D3FBB82C01D03034ACE712B070BD00BF59
:100F700035E9060851F8060872F8060897F80608D9
:100F800043F8060811F0010F70B504460D4616D05F
:100F9000006A012103685B68984780B1206A0021DC
:100FA0000368DB689847204607F011FC07F09AFCBD
:100FB000E06847F27052C168002307F09EFC15F00C
:100FC000020F16D0206A012103681B68984780B180
:100FD000206A002103689B689847204607F0F7FBCA
:100FE00007F080FCE06847F27052C168002307F008
:100FF00084FC15F00C0F13D0204607F0EAFB2946BD
:1010000006462046FFF74EFA204607F0E2FB8642EE
:101010000CD0204607F0DBFBBDE8704007F062BC57
:1010200020462946BDE87040FFF73CBA70BD00007D
:1010300011F0100F70B5044617D007F0CAFB18B9AD
:101040000A483D21FCF780FB204607F0C0FB05461F
:10105000204607F0BEFB0346DB692046294646F2E0
:101060006452BDE8704007F048BC70BDB8F806088F
:10107000012118F0A5BE10B544F64444A24204D0A4
:1010800045F24834A24207D153B9002380F83130E9
:10109000BDE8104007F08CBE44F64544A24200E093
:1010A000012B03D1012380F8303010BD49B9042A47
:1010B00007D146F2674293420CD1BDE8104018F0C8
:1010C0007FBE47F269439A4204D10021BDE8104037
:1010D00018F041BC10BD01804280704710B583807C
:1010E000BDF8083001804280C38010BD7FB5DE238B
:1010F00005460E461446009300211622D33B02A853
:10110000FFF7ECFF2846044944F0020202AB0096C8
:1011100007F0ACFB7FBD00BFDBF806087FB51523E9
:1011200005460E46144600930C21102202A84FF4E7
:101130009C73FFF7D3FF2846034944F0020202AB39
:10114000009607F093FB7FBDEFF806087FB5F0230C
:1011500005460E461446009300211022A03302A833
:10116000FFF7BCFF2846044944F0020202AB009698
:1011700007F07CFB7FBD00BF02F906087FB5F023B6
:1011800005460E461446009300211022A03302A803
:10119000FFF7A4FF2846044944F0020202AB009680
:1011A00007F064FB7FBD00BF0EF906087FB5F02392
:1011B00005460E461446009300211022A03302A8D3
:1011C000FFF78CFF2846044944F0020202AB009668
:1011D00007F04CFB7FBD00BF1EF906087FB5F0236A
:1011E00005460E461446009300211022A03302A8A3
:1011F000FFF774FF2846044944F0020202AB009650
:1012000007F034FB7FBD00BF2EF906087FB5F02341
:1012100005460E4614460093002110224C3302A8C6
:10122000FFF75CFF2846044944F0320202AB009607
:1012300007F01CFB7FBD00BF3FF906087FB5F02318
:1012400005460E461446009300211022A03302A842
:10125000FFF744FF2846044944F0220202AB0096FF
:1012600007F004FB7FBD00BF4BF90608B0F904206E
:10127000B0F90030D0184010704707B5B0F9003011
:10128000B0F90410B0F90620C918B0F902304910BD
:10129000D218521001A8FFF71EFF019B00209AB23E
:1012A00062F30F001B0C63F31F400EBD10B50488E2
:1012B000091901804188521842808288D31A83809C
:1012C000C288029BD31AC38010BD10B50488611A6E
:1012D000018041888A1A428082889B188380029A02
:1012E000C388D318C38010BDB0F90420B0F9003012
:1012F000D01A7047F0B587B004AC051D064695E8D6
:10130000030084E80300012100220B4620460092DE
:10131000FFF7DBFF204648F21041FCF71EF894E887
:101320000300184B02AF1B6887E803002846B3F898
:101330009E40FFF7D9FFBDF80A3004FB00F20133ED
:10134000ADF80A3004F59674BDF80E304443013B05
:10135000ADF80E30B388384603EB223203EB243469
:10136000BDF81430ADF80C40ADF8082024B21AB224
:101370009442C8BFADF80C300021FBF7EEFF07B078
:10138000F0BD00BFB0A9002073B5051D00210446C3
:101390002846FBF7E2FF0F4B1B68B3F8AE60B3F8CB
:1013A0009E30F61A36B2002E12DB2846FFF79CFF5D
:1013B00086420DDAB4F90400074B04380093B4F9FF
:1013C0000610801946F20C324FF61E03FBF7F9FFA8
:1013D0007CBD00BFB0A90020BE4A070830B5051D7E
:1013E00085B0044600212846FBF7B7FF2E4B80212D
:1013F00000930420002348F21042FCF764F92B4BC1
:1014000080210093A02000234BF29652FCF75BF959
:10141000274BA02100930420002348F21042FCF740
:1014200052F9244BA0200093014600234BF2965220
:10143000FCF749F9204BB02100930420002348F227
:101440001042FCF740F91D4BB0210093A02000236F
:101450004BF29652FCF737F9194BC0210093042048
:10146000002348F21042FCF72EF9164B4BF296522D
:1014700000930423019301330293033B0393A020C1
:10148000C021023BFCF741F92846FFF72DFFB4F9D4
:101490000610A0F5807000EBD0704010183105B038
:1014A000BDE83040FCF774BC55F9060867F906083A
:1014B0006BF9060875F9060882F9060892F906081C
:1014C000A7F90608B9F90608F7B5061D0021054673
:1014D0003046FBF742FF514B802148F21042009307
:1014E00004200023FCF7EFF8FCF73EFC80210023EA
:1014F00000904BF29652A020FCF7E5F8484B902163
:1015000048F21042009304200023FCF7DCF8FCF7BB
:101510002FFC9021002300904BF29652A020FCF764
:10152000D2F8404BA02148F210420093042000233F
:10153000FCF7C9F8FCF720FC0090A020002301462E
:101540004BF29652FCF7BFF8374BB02148F21042ED
:10155000009304200023FCF7B6F8FCF701FCB0214F
:1015600000234BF296520090A020FCF7ACF8FCF759
:1015700009FC2E4B0446009304200023C02148F2AE
:101580001042FCF7A0F82A4B2A4F9C4204D02A4B69
:101590009C4203D064B114E0284B00E0284B009338
:1015A000A020C0214BF296520023FCF78CF811E0EA
:1015B000244BA0200093C0214BF296522346FCF707
:1015C00082F8A020C0214BF296520023009701948C
:1015D000FCF79BF81C4BD021009348F210420023EB
:1015E0000420FCF770F8FCF7CBFBD02101904BF204
:1015F00096520023A0200097FCF787F83046FFF7AB
:1016000073FEB5F90610A0F5807000EBD0704010A5
:10161000183103B0BDE8F040FCF7BABBC6F90608C4
:10162000D8F90608E8F90608F6F9060803FA0608E4
:1016300076676100AE5B07082793040213FA060879
:1016400017FA06081FFA060827FA0608B0F9062056
:10165000B0F90230D01A70470388CB180380838812
:10166000C91843888180D3184380C388D218C280A8
:1016700070470023038043808380C3807047B0F9A4
:101680000420B0F900309A42D4BF002001207047F6
:101690002DE9F04F00F126068BB004463046FFF7E7
:1016A000EEFF0546002847D108AF04F1040898E88A
:1016B000030087E8030001210A460B4638460091E3
:1016C000FFF703FE38464BF29651FBF7BAFD294669
:1016D0004046FBF742FE48F21042ADF81650ADF816
:1016E0001850ADF81A50ADF81C50ADF8142019354B
:1016F000B4F90400B4F90A3005AA281800920522AA
:101700000192043B421CB4F906101935FAF700FEA9
:10171000FA2DEDD1E13DB4F9061005AB691800933F
:1017200005230193B4F904004B1CB4F908201935C2
:10173000FAF7EEFDC82DEED1236A002B00F0A7804A
:10174000251D2846FFF7D0FD80462846FFF77EFF7F
:10175000B4F90AA0323803902046AAF1190A07F01A
:10176000B1F860B1216BA38C01FB08F198FBF3F297
:1017700002EBD27291FBF3F303EB620301E06FF033
:10178000130330460293FFF77AFF18B9E084A4F8F8
:101790002A802BE0B4F90420B4F9263000259A42BF
:1017A000A8BF1346E384B4F90820B4F92A30012114
:1017B0009A42B8BF134663852A460B4630460095C9
:1017C000FFF774FD30462946FBF7C7FD012130467F
:1017D0002A460B460095FFF778FDB4F90410B4F9DA
:1017E0000620304649425242FFF736FF4FF00009CB
:1017F000E58CCB4644E0A28C236A6A4392FBF8F264
:1018000033F81270B7F5805F03D322485D21FBF7F0
:101810009BFF039AB4F92630574344BF07F57E6710
:101820001F373F13B4F90420BFB29D4208BFBB4627
:10183000AA184FF6FF730093501EC7EB0A03CBEBB9
:101840000A01FBF7EDFF029B9D4208BFB946033337
:101850009D4212D1B4F904000F4B626B0638AAF115
:10186000040100934019C9EB0101082A14BF162294
:101870001F224FF61E03FBF7A4FD0135ADB2BB4698
:10188000B4F92A309D42B6DB3046FFF7F2FE0BB0CA
:10189000BDE8F08F36FA0608EC54070813B5044685
:1018A000B4F90220B0F90000B4F9063000911146F5
:1018B00000F10C02FBF746FEB4F90000B4F9021087
:1018C000B4F90420B4F9063008304BF29654009471
:1018D000FBF785FC1CBD37B50446B4F90250B0F9DE
:1018E0000000B4F90420B4F906300238009129460A
:1018F000FBF728FEB4F90000B4F90210B4F9042093
:10190000B4F9063006304FF6FF740131013A013B5D
:101910000094FBF717FE3EBD07B50346B0F9000083
:101920000022B3F90210B3F90630009200F1080268
:10193000FBF755FC0EBD37B50446B0F90000B4F90D
:101940000210B4F90630002500F108020095FBF7FB
