:020000040800F2
:10C0000000000120252E0108392C01083B2C0108D5
:10C010003D2C01083F2C0108412C010800000000C4
:10C02000000000000000000000000000452C010896
:10C03000432C010800000000472C0108492C01088E
:10C040004B2C01084D2C01084F2C0108512C0108E4
:10C05000532C0108552C0108572C0108592C0108B4
:10C060005B2C01085D2C01085F2C0108612C010884
:10C07000632C0108652C0108672C0108692C010854
:10C080006B2C01086D2C01086F2C0108712C010824
:10C09000752C0108792C01087B2C01087D2C0108E6
:10C0A0007F2C0108812C0108832C0108852C0108B4
:10C0B000872C0108892C01089D2D01089F2D01085E
:10C0C000A12D0108A32D0108A52D0108A72D010808
:10C0D000A92D0108AB2D0108B92D0108BB2D0108C0
:10C0E000BD2D0108BF2D0108C12D0108C32D010878
:10C0F000C52D0108C72D0108C92D0108CB2D010848
:10C10000CD2D0108CF2D0108D12D0108D32D010817
:10C11000D52D0108D72D0108D92D0108DB2D0108E7
:10C12000DD2D0108DF2D0108E12D0108E32D0108B7
:10C1300020B10368197003680133036070472DE96B
:10C14000F041161E04460D4614DD002200E00132C7
:10C15000A95C0029FBD1B24203F00208B4BFC2EBD4
:10C1600006060E46B8F1000F0CBF4FF020084FF046
:10C17000300801E04FF0200813F0010709D105E075
:10C1800020464146FFF7D4FF0137013E002EF7DC81
:10C1900005E0002703E02046FFF7CAFF013715F846
:10C1A000011B0029F7D105E020464146FFF7C0FFFB
:10C1B0000137013E002EF7DC3846BDE8F0812DE95D
:10C1C000FF410A9F05460B9EDDF830C08E4651B9EF
:10C1D00030238DF804308DF805103A4601A9334616
:10C1E000FFF7ADFF3CE03BB10A2A07D1002905DA91
:10C1F000C1F1000E012402E01C4600E0002404A965
:10C20000002301F8013D0EE0BEFBF2F302FB13EE4A
:10C21000BEF1090FC4BFACF13A0086440EF1300EF6
:10C2200001F801ED9E468846BEF1000FECD184B1C5
:10C230004FB116F0020F06D028462D21FFF778FFE8
:10C24000013F012405E02D2301F1FF3801F8013CF5
:10C250000024284641463A463346FFF770FF00194E
:10C2600004B0BDE8F0812DE9F0478AB006460D46DE
:10C2700005920024DBE0252B40F0D38015F8013F28
:10C28000002B00F0D880252B00F0CB802D2B02D185
:10C2900001352C3B03E0002301E043F00203294673
:10C2A00015F8012B302AF8D0002702E00A2202FB01
:10C2B00007070A780D46A2F130005FFA80FC0131D1
:10C2C000BCF1090FF2D9732A09D1059A3046111D24
:10C2D000059111685C4A002908BF11469DE0642A57
:10C2E0000ED1059A01936123111D029300970591C8
:10C2F00030461168603B0A22FFF761FF241895E081
:10C30000662A54D1059B073323F0070303F1080283
:10C31000D3E90001059216F02DFD0021804617F0AB
:10C3200025F838B12D238DF8183008F100480DF1AB
:10C33000190A01E00DF1180A404617F03FF80123F1
:10C3400000E013460A225A439042FADA90FBF3F2D5
:10C3500002F1300103FB12000A2293FBF2F30AF808
:10C36000011B002BF2D124328AF80020002F08BFD5
:10C3700003279946404617F021F816F005FE0146BE
:10C38000404616F04BFD314916F052FE804617F03C
:10C3900015F809F101093030B9450AF8010FE9DB58
:10C3A00000228AF80120304606A9202336E0782AA8
:10C3B0000AD1059A01936123111D009702930591FB
:10C3C00030461168102219E0582A0BD1059A0193C2
:10C3D0004123111D02930097059130461168413B9E
:10C3E000102289E7752A0BD1059A01936123111D4B
:10C3F000009702930591304611680A22613B7BE762
:10C40000632A13D1059A3046111D126805918DF8E3
:10C41000242000228DF8252009A93A46FFF78FFE37
:10C420006CE730462978FFF783FE013401352B781D
:10C43000002B7FF420AF16B1336800221A7020461B
:10C440000AB0BDE8F08700BF806802080000204104
:10C45000014BD86C80B2704700240140014B186832
:10C46000704700BF18A6002001461420F7F7EEBE63
:10C47000034B18801A8892B2002AFBD1704700BF84
:10C4800024A60020044B10B5196804460320F7F7D2
:10C49000DDFE024B1C8010BD0030002026A60020CF
:10C4A00030B5002308E00A24B0FBF4F104FB1100CE
:10C4B0003030D054013388B2084A0028F3D1D05428
:10C4C0005910013BD31804E0145C5D7815545C707E
:10C4D0000130013B8842F7DB004830BD6C32002060
:10C4E00008B506200021F7F7B5FE5A234343A3F50C
:10C4F0008223A3F56B6340F2145093FBF0F00A30F3
:10C500006428A8BF642020EAE07008BD0128ACBF01
:10C51000014601210220F7F799BE00EBD070024BD3
:10C5200040101860704700BF00300020052810B58B
:10C5300007D8044B53F8200018B1046806F02AFB12
:10C54000A04710BDA8590208C0B2F7F77FBE47F256
:10C550006623984201D1F7F76DBEC0B2F7F77ABEF5
:10C5600043680A6823F4702323F4807313430A7921
:10C5700010B543EA022343608A68CB6884681A4393
:10C58000094B04EA030342EA03034A7943EA4203FC
:10C5900083600B7CC26A013B22F47002DBB242EA88
:10C5A0000353C36210BD00BFFDF7F1FF002303601A
:10C5B000037143718360C36001330374704719B121
:10C5C000836843F0010302E0836823F00103836082
:10C5D000704719B1836843F4807302E0836823F4E1
:10C5E000807383607047C9B212B14368194302E097
:10C5F000436823EA010141607047836843F0080300
:10C60000836070478068C0F3C0007047836843F060
:10C610000403836070478068C0F38000704719B1DD
:10C62000836843F4A00302E0836823F4A0038360DB
:10C6300070478068C0F3805070474368013923F425
:10C64000604343EA41334360704719B1436843F4A0
:10C65000006302E0436823F40063436070470929E4
:10C6600070B54FEA41040BD964181E3C0725A5405C
:10C67000A340C66826EA050545EA0304C4600AE04B
:10C6800064180725A54013FA04F4066926EA05058F
:10C6900045EA04030361062A0CD8013A02EB820240
:10C6A0001F2393409140446B24EA030343EA0102B1
:10C6B000426370BD0C2A4FEA82030BD89A18233AC2
:10C6C0001F2393409140046B24EA030343EA0102D1
:10C6D000026370BD9A18413A1F2393409140C46A87
:10C6E00024EA030343EA0102C26270BD19B1836800
:10C6F00043F4801302E0836823F48013836070475F
:10C70000C06C80B27047014B186870474C240140E0
:10C7100019B1436843F4806302E0436823F4806303
:10C720004360704719B1436843F4805302E04368A3
:10C7300023F4805343607047836823F4E04341EA65
:10C7400003038360704719B1836843F4004302E038
:10C75000836823F400438360704719B1836843F40E
:10C76000021302E0836823F4021383607047806839
:10C77000C0F340507047092970B54FEA41040BD906
:10C7800064181E3C0725A540A340C66826EA050597
:10C7900045EA0304C4600AE064180725A54013FABB
:10C7A00004F4066926EA050545EA04030361836B80
:10C7B00003F440146FEA145412190332D2B202EB9C
:10C7C00082021F249440914023EA04030B438363B5
:10C7D00070BD836B013923F4401343EA0153836333
:10C7E000704782B00A5002B0704782B00190283082
:10C7F000405880B202B07047436823F4400323F4EA
:10C80000007341EA030343607047416282627047EC
:10C81000436823F01F0341EA030343607047054B5D
:10C8200018B19A6842F4000202E09A6822F4000209
:10C830009A60704700240140036819420CBF002031
:10C8400001207047C943016070474368006810EADF
:10C85000112004D0C9B219420CBF0020012070473A
:10C860006FEA112101607047044B11B1DA6810437F
:10C8700002E0DA6822EA0000D86070470010024047
:10C8800007B5124B019098420DD0114B984212D02F
:10C89000104B984219D14FF400700121FFF7E4FFCB
:10C8A0004FF400700EE04FF480600121FFF7DCFFD1
:10C8B0004FF4806006E04FF400400121FFF7D4FF01
:10C8C0004FF400400021FFF7CFFF0EBD00280140CC
:10C8D000003C014000240140044B11B15A6910434F
:10C8E00002E05A6922EA00005861704700100240D5
:10C8F000044B11B19A69104302E09A6922EA0000E0
:10C90000986170470010024008B50120FFF787FFCB
:10C9100010210A4801220523FFF7A1FE0120FFF79D
:10C92000A7FD06480121FFF77AFE02210348FFF721
:10C9300083FF0128F9D1FFF78BFD08BD00240140DA
:10C9400008B50120FFF76BFF11210A4801220523DA
:10C95000FFF785FE0120FFF78BFD06480121FFF759
:10C960005EFE02210348FFF767FF0128F9D1FFF7B8
:10C970006FFD08BD00240140024B0E2202FB003077
:10C98000704700BFC0590208034B18801A8892B242
:10C99000002AFBD1704700BF24A60020044A4FF4B0
:10C9A000805313604FF0C0421080024A13607047FA
:10C9B000141401401014014010B5EF20FFF7EEFFF2
:10C9C0004FF0C0431A881C8818881A881988C3B287
:10C9D000C9B241EA046141EA0343120643EA124242
:10C9E000014B9A6010BD00BF6C320020054B4FF424
:10C9F00080521A604FF0C0431880034802601980CB
:10CA0000704700BF14140140101401402DE9F0419B
:10CA1000E9204FF0C044FFF7C1FF202222801120FF
:10CA2000FFF7BCFF6420FFF7AFFFD120FFF7B6FF91
:10CA3000002517225E232580D02023802280FFF747
:10CA4000ADFF0C2607232380362023804FF04008BB
:10CA50002680FFF7A3FF3046A4F800804936FFF791
:10CA60009DFF26803A20FFF799FF2680C120FFF71F
:10CA700095FF533E10232380C020238026802680EC
:10CA8000FFF78CFF012735232580C52023802580D3
:10CA9000258027802680FFF781FF2780D220FFF79F
:10CAA0007DFF22232780C8202380FFF777FF732292
:10CAB000372327802280238004220F232580238090
:10CAC000268022806722A4F8008022802580802290
:10CAD0002680238008232380292022802580FFF7B9
:10CAE0005DFF2C20BDE8F04158E7002008B5014665
:10CAF000FFF77CFF00200146FFF778FF002001468A
:10CB0000FFF774FF00200146FFF770FF0A20FFF7D0
:10CB10003BFF01214FF4C060FFF768FF0A20FFF7D9
:10CB200033FF40214FF4DE60FFF760FF0A20FFF77C
:10CB30002BFF4FF480604FF4C441FFF757FF0820EC
:10CB400040F60801FFF752FF01204FF48071FFF714
:10CB50004DFF02204FF48071FFF748FF0320302182
:10CB6000FFF744FF09200121FFF740FF0C200021BF
:10CB7000FFF73CFF90204FF40041FFF737FF0F20F5
:10CB80000021FFF733FF10201621FFF72FFF1120A0
:10CB900040F20111FFF72AFF12200021FFF726FFC4
:10CBA00013200121FFF722FF4FF480704FF44C71E6
:10CBB000FFF71CFF40F2011040F23721FFF716FF8C
:10CBC00040F203104FF47061FFF710FF4FF4207034
:10CBD0004FF4D641FFF70AFF4CF2B0114FF48170C9
:10CBE000FFF704FF6420FFF7CFFE4FF440704FF4CF
:10CBF0004061FFF7FBFE40F2013045F60B21FFF7E5
:10CC0000F5FE40F2023040F60611FFF7EFFE40F26B
:10CC1000033041F21701FFF7E9FE4FF441704FF482
:10CC20000C51FFF7E3FE40F205304FF4B851FFF727
:10CC3000DDFE40F2063046F20931FFF7D7FE40F242
:10CC4000073040F60941FFF7D1FE4FF4427041F240
:10CC50000C01FFF7CBFE40F2093042F23221FFF720
:10CC6000C5FE4FF404700021FFF7C0FE40F2112012
:10CC7000EF21FFF7BBFE40F212200021FFF7B6FEC6
:10CC800040F2132040F28F11FFF7B0FE4FF4A06086
:10CC90000021FFF7ABFE40F201500021FFF7A6FE96
:10CCA00040F202500521FFF7A1FE40F201400121B0
:10CCB000FFF79CFE002140F20440FFF797FE64203E
:10CCC000FFF762FE4FF480710720FFF78FFE6420AC
:10CCD000FFF75AFE4FF400700021FFF787FE002196
:10CCE00040F20120FFF782FE054A4FF480531360A3
:10CCF00040F202214FF0C0421180024A136008BD89
:10CD0000141401401014014070B5104C4FF48053BE
:10CD10004FF40065236001202560FFF735FE0C4BC2
:10CD20000A201D60FFF730FE32202560FFF72CFE41
:10CD3000FFF742FE074B9A68074B9A4202D1BDE8C3
:10CD4000704063E6BDE87040CFE600BF10140140BC
:10CD5000141401406C320020279304020B4B10B5D1
:10CD60009A680B4B4FF0C0449A4209D12E20FFF72E
:10CD700015FE238824882C20A4B2FFF70FFE02E0C2
:10CD800023882488A4B2204610BD00BF6C32002046
:10CD9000279304020EB403B503AA52F8041B0190B2
:10CDA00001A80092FFF75FFABDE80C4003B070479E
:10CDB000AAE713B502AC24F8020D00200146F7F7EC
:10CDC00025FA20464BF68031F7F72EFAF7F728FAC6
:10CDD00020464BF68031F7F727FAF7F721FA1CBD0A
:10CDE000C1F1EF0110B580B289B21446F7F70EFA1F
:10CDF0002046BDE81040F7F70BBAC1F1EF0110B5BE
:10CE000080B289B2F7F702FABDE81040F7F72CBA02
:10CE100038B5151A5C1A6C434BF67F35AC4280B2BC
:10CE200002F1FF35C3F1F0020FD9C1F1EF0392B265
:10CE3000A9B29BB26508F7F7F1F904A8A9B2F7F710
:10CE4000F3F9641BF7F7ECF906E0C1F1EF0392B2D6
:10CE5000A9B29BB2F7F7E2F904A8A1B2F7F7E4F997
:10CE6000F7F7DEF9002040F28F110246EF23F7F7C3
:10CE7000D5F938BD37B50D46B0F9021004464B1C44
:10CE8000B0F90000B4F904200095FFF7C1FFB4F930
:10CE90000630B4F90000591EB4F904200095FFF7DC
:10CEA000B7FFB4F90000B4F90210421CB4F906301F
:10CEB0000095FFF7ADFFB4F90420B4F90210B4F9FE
:10CEC0000630501E0095FFF7A3FF3EBD2DE9F14F40
:10CED0000A9C1E460B9B88461746511E04EB4309CD
:10CEE000C6F1F002C8F1EF03054689B280B292B2F2
:10CEF0009BB2F7F793F9A2460CE03AF8020BF7F76A
:10CF000087F9CA4508BFA2460BF1010BBB45F4DB0C
:10CF100008F10108B04501DAAB46F7E7002040F21E
:10CF20008F110246EF2301B0BDE8F04FF7F776B955
:10CF30002DE9F843B0F80080044689461FFA88F7C7
:10CF4000002614E0B4F9065009E0C5F1EF013846B7
:10CF500089B2F7F75BF9FFF701FF29F8020BB4F983
:10CF60000230013D9D42F0DA01370136BFB20FFABF
:10CF700088F2B4F90430B2189A42E3DBBDE8F883D2
:10CF80002DE9F047C28843880D468188C2F1F0023E
:10CF90000139C3F1EF03044689B2008892B29BB213
:10CFA000F7F73CF90026B4F8028010E0B4F80090DE
:10CFB000002703E035F8020BF7F72AF90FFA89F298
:10CFC000B4F90430BA1801379A42F3DB01360FFA8C
:10CFD00088F2B4F90630B2189A42E7DB002040F23A
:10CFE0008F110246EF23BDE8F047F7F717B913B5E5
:10CFF0000346B3F90240B3F90420B0F90000B3F9D5
:10D00000063000912146FFF703FF1CBD0268034B69
:10D01000DA6042681A6102685A6170476C32002017
:10D0200010B50B4C0246B4F91610B4F91400FFF712
:10D03000D7FEA38AB4F910200133A3821BB29A420F
:10D0400004DCA389A382E38A0133E38210BD00BF1D
:10D050006C32002070472DE9F74F99460C9B0191E7
:10D06000924613F801BB054600241DE018F8013B69
:10D07000FBB113F0040F4FF61E0305D09A450AD0FA
:10D0800028463146524604E0994504D028463146A8
:10D090004A46FFF7A5FE013701365F454346E5DB0B
:10D0A00001340135502C03D0019E98460027F4E747
:10D0B00008242046BDE8FE8F2DE9F0411E460F46AC
:10D0C000B6B2C7F1F00714460546F7F7AFF8B91B3B
:10D0D000A8B289B2F7F79AF820463146F7F7A2F8D6
:10D0E000BDE8F041F7F79CB830F0030309D131F007
:10D0F000030208D140EA81000449091891F8180E8A
:10D100007047002070471846704700BFA8590208B2
:10D110002DE9F04F85B004469A469DF839009DF8F8
:10D1200038300D4616469DF83AB0029003932746D4
:10D1300045E0C5EB0A01701E0139C01B3B1BC8EB63
:10D1400001019842A8BF18464145A8BF4146FFF7D4
:10D15000CBFF68BBC9F1EF0189B2B8B2F7F756F857
:10D16000F7F782F81A4BC10001F0FF01C208000A6C
:10D1700000EA0303C1EB0B000190DDF808C003983F
:10D1800002F0FC02C2EB0C0EC3EB000C03EB6C03D1
:10D19000DDF804C0DB1001EB6C00C01040EAC323D3
:10D1A00002EB6E00801043EA401080B2F7F730F8CF
:10D1B00009F1010908F10108D145BADB0137B7428D
:10D1C00003DAA9464FF00008F6E705B0BDE8F08F96
:10D1D000F8FF07002DE9F74F06468A4615461C461C
:10D1E000BDF830B088462DE00AF10303984509D117
:10D1F000E71E414630462A463B46CDF800B0FFF7D1
:10D2000007FEB846B146002718E0A81B0138611E8A
:10D21000C01BC8EB0101CAEB0803B842A8BF3846DF
:10D220009942A8BF1946FFF75FFF20B9484641461B
:10D230005A46FFF7D5FD09F101090137A945E4DB9D
:10D2400008F10108A045CFDBBDE8FE8F13B503460A
:10D25000B3F90240B3F90420B0F90000B3F9063085
:10D2600000912146FFF7B6FF1CBD2DE9F74F019055
:10D270009DF830001F460D469246FFF77DFB4FF6A6
:10D280001E039F4283461DD100241BF80480019F8A
:10D290006FEA08085FFA88F8082618F0800F04D0B3
:10D2A000384661195246FFF79BFD013EF6B2013741
:10D2B00026B14FEA48085FFA88F8EEE701340E2CF1
:10D2C000E3D145E09A451FD100241BF80490DDF816
:10D2D00004806FEA09095FFA89F9082619F0800FBE
:10D2E00004D1404661193A46FFF77AFD013EF6B295
:10D2F00008F1010826B14FEA49095FFA89F9EDE71B
:10D3000001340E2CE1D123E000241BF80490019E8F
:10D310006FEA09095FFA89F94FF0080819F0800FE0
:10D3200008F1FF38304614BF52463A4629465FFAA4
:10D3300088F8FFF755FD0136B8F1000F04D04FEA29
:10D3400049095FFA89F9E9E7013401350E2CDCD18E
:10D350000820BDE8FE8F2DE9F7430A9F05460E46DB
:10D3600091469846AFB1387818B913E00A2B02D12C
:10D3700010362C4607E00093204631464A46434685
:10D38000FFF773FF241817F8013B002BEED1601B49
:10D3900000E03846BDE8FE83DDE72DE9F043A5B0A7
:10D3A00015462CAA0E4652F8041B07460DF1080834
:10D3B00023A899462292CDF88C80FEF754FF31467F
:10D3C00004462A4638464B46CDF80080FFF7E4FF76
:10D3D000204625B0BDE8F08337B5124B05460C4614
:10D3E000009330211F2328204FF6FF72FFF7D4FF50
:10D3F00020211F234FF6FF7228200095FFF7CCFF56
:10D40000A0B2FFF74DF8102100904FF6FF722820D0
:10D410001F23FFF7C1FF4FF47A7003B0BDE830401F
:10D42000FFF726B88768020808B502480421FFF70D
:10D43000D3FFFEE7996802080FB430B5A5B028AA5B
:10D4400052F8041B02AC23A823942292FEF70BFF90
:10D4500023941EE00A2B134C03D0A569B5F5C47FB5
:10D4600009DBE26900230E32E02AA361E2610DDDEF
:10D470000C4AD3610AE000932846E1694FF6FF7237
:10D480004FF43043FFF7F1FE4019A061239B0133B5
:10D490002393239B1B78002BDCD125B0BDE83040C3
:10D4A00004B070476C3200202DE9F74FC0EB020B3F
:10D4B0005F1A1FFA8BFBBFB20FFA8BFA0FFA87F8CD
:10D4C0004FEADB3BFF0BBDF83090BAF1000FD4BF41
:10D4D000CBF1000BCBF1010BB8F1000FD4BF7F42B1
:10D4E000C7F10107BAF1000FB8BFCAF1000AB8F1DD
:10D4F000000FB8BFC8F100084FEA4A0A4FEA4808CF
:10D5000000921FFA8AFA1FFA88F84A4601930446E5
:10D510000D460FFA8AF6FFF763FC0FFA88F39E4276
:10D5200020DB1FFA88F8A8EB6606B6B216E016F400
:10D53000004F09D11EB94FFA8BF3002B04DD7BB2EB
:10D54000CAEB0606ED18B6B24FFA8BF3E418464460
:10D55000204629464A46B6B2FFF742FC009B9C4251
:10D56000E5D11EE01FFA8AFAAAEB6306B6B215E00F
:10D5700016F4004F09D116B97BB2002B05DD4FFA26
:10D580008BF3C8EB0606E418B6B27BB2ED1856442E
:10D59000204629464A46B6B2FFF722FC019B9D422F
:10D5A000E6D1BDE8FE8F0020FFF7E6B908B50021FF
:10D5B0000420F6F74FFEC3439BB2C3F3802013F45D
:10D5C000006F1CBF40F0020080B213F4805F18BFF0
:10D5D00040F4807013F0080F18BF40F0040013F4FB
:10D5E000004F18BF40F0080013F0400F18BF40F480
:10D5F000007013F4804F18BF40F0100013F4005F68
:10D6000018BF40F0200013F4807F18BF40F04000A6
:10D6100013F4007F18BF40F0800008BD07B50B2051
:10D620000021F6F717FE40B9074B303000931E215A
:10D630001F224FF6FF73FFF78EFE1420002103B068
:10D640005DF804EBF6F702BEBF680208024B014624
:10D6500018712420F6F7FABD00300020014B18792C
:10D66000704700BF0030002070B50CE09C1804EB40
:10D67000D474641050F8246025468E4201D2621C96
:10D6800001E004D9631E9342F0DA4FF0FF352846DB
:10D6900070BD2DE9F84F214C074604F56260083053
:10D6A0000E4615469846002215230C99FFF7DCFF1D
:10D6B000B0F1FF3F9DF82890BDF82CA083462AD0FA
:10D6C0000C9A174B05209A600021F6F7BFFD092040
:10D6D0003946F6F7BBFD0A203146F6F7B7FD0020C4
:10D6E0002946F6F7B3FD0B204146F6F7AFFD0C20B7
:10D6F0004946F6F7ABFD04EB4B0401205146F6F723
:10D70000A5FD0720B4F8801EF6F7A0FD0820B4F8A8
:10D71000AC1EF6F79BFDBDE8F88F00BFA8590208C4
:10D720000030002008B503200021F6F793FDC0B2B9
:10D7300008BDF6F77FBD08B506200121F6F786FD86
:10D74000FEF78CFE014B186208BD00BF6C32002052
:10D750002DE9F04106460C462220314615461F466B
:10D76000F6F774FD21202146F6F770FD202047EAE8
:10D77000C501BDE8F041F6F769BDB0F5805F70B551
:10D7800003DD0A48CA21FFF727FE094C04F580454E
:10D790002668FFF7CEFF06F07F4620F07F4040EA84
:10D7A000060644F8046BAC42F2D170BDD86802089A
:10D7B000903200204FF480507047B0F5805F10B574
:10D7C000044603D30348DB21FFF706FE024800EBC3
:10D7D000840010BDD86802089032002010B50021E6
:10D7E0000220F6F737FD00210120F6F733FD002176
:10D7F00000F001040320F6F72DFD10F0010F18BF13
:10D8000044F00204204610BD08B5FEF727FE0B4B7E
:10D810001B6AC01A15F0B8FB094915F0BDFC094B8D
:10D82000996815F0B9FC084915F002FC15F0C6FD21
:10D83000B0F5805FA8BF4FF4805008BD6C32002067
:10D8400000007A44003000200000F041034670B52B
:10D8500010200C4619461546F6F7F8FC1120214613
:10D86000F6F7F4FC12202946BDE87040F6F7EEBC4E
:10D87000094B10B51A68094C22F001021A60084AD7
:10D88000146043F2B0521A60064A116090601A6840
:10D8900042F001021A6010BD4404024008740040C6
:10D8A0004C04024048040240034B0121A3F83C0D04
:10D8B00003F552601C30DBE75465002001460D2063
:10D8C000F6F7C4BC004870479272002008B50346C2
:10D8D00002730020012A587305D11A4609480833FB
:10D8E000F6F7D4FC06E0022A09D11A4605480833A7
:10D8F000F6F7CAFCD0F1010038BF002008BD0120B6
:10D9000008BD00BF9272002008B5034608461946BC
:10D91000F6F7BEFCD0F1010038BF002008BD10B5FD
:10D92000044608462146F6F7B5FC20B9637B013072
:10D930000133637310BD002010BD10B5037B044696
:10D94000022B10D1B1F1FF3F08BF417B224608BF37
:10D950004902074804F10803F6F79EFC28B903239F
:10D960002373013010BD012010BD002010BD00BF89
:10D9700092720020024B034A93FBF0F3138170472D
:10D9800000A24A040038014005E0054A118811F060
:10D99000800FFAD0938010F8013B002BF5D170472F
:10D9A000003801400F4B10489A6942F480429A6156
:10D9B0000E4A40F27123138142F22C0393811388A3
:10D9C00023F4A46323F005031B041B0C1380084BF2
:10D9D0005A6822F47F6242F40A625A604FF480620D
:10D9E0001A61D1E7001002400269020800380140C4
:10D9F0000008014010B54FF4FA70FEF739FDFFF74B
:10DA0000D7F9FFF70BFEBDE81040CBE705F0F4B8FF
:10DA1000034B1A8812F0800FFAD09880704700BF2D
:10DA2000003801400E200021F6F714BC0D20002123
:10DA3000F6F710BC0F200021F6F70CBC10200021D7
:10DA4000F6F708BCF6F7FABB014B9868704700BFC1
:10DA50006C3200202DE9F0433F3189B0234B8046E2
:10DA600087B28CB2ADF1020213F8010C1978C01024
:10DA70008910C002490141185878043301EBD001E4
:10DA800022F8021F1A498B42EED11A4E3D4616F873
:10DA9000013B08AA1B0902EB430328460135214636
:10DAA00033F8202CADB208F1FF09FFF799F94D4585
:10DAB00002DD013CA4B23D4616F8013C08AA03F081
:10DAC0000F0302EB430328460135214633F8202C8F
:10DAD000ADB2FFF785F94D4502DD013CA4B23D46EC
:10DAE000054B9E42D3D109B0BDE8F08337D8030877
:10DAF00077D8030876D8030876F80308704700BF84
:10DB0000014B1860704700BF94740020704710B537
:10DB1000FFF770FF04F0ACF807F0CBFF04F0A8F8B3
:10DB20000121002208F0D8F911F0DEFC11F096FC7A
:10DB300011F0FEFABDE81040FFF7FDBD37B5FEF766
:10DB40008DFC294C2368B3F1FF3F08BF2060236898
:10DB5000C51AB5F57A7F0ED94FF47A72B5FBF2F596
:10DB600002FB053320490B6004F082F800F52E50CB
:10DB7000836CED188564FFF719FDADF8060000B958
:10DB8000A08004F075F800F542500DF106013C301C
:10DB900003F093FB04F06CF800F542503C300DF1BB
:10DBA000060103F092FBBDF80630ABB104F060F85B
:10DBB0000221BDF8062008F08FF9BDF80620A388E1
:10DBC0009A4206D0094B1B681B7A13B93220FEF724
:10DBD00059FCBDF80630A38004F04AF80321002266
:10DBE00008F07AF901203EBD1030002038A6002050
:10DBF000014B1868704700BF9474002008B5036893
:10DC000049421B6849B2984708BD0000014B18689B
:10DC1000704700BF3877020870470120704743689B
:10DC2000826819688A181A607047436882681968A0
:10DC30008A1A1A6070470820704783681B78CB18CF
:10DC400005D4027B9342CCBF002001207047002006
:10DC5000704783681A7801321A70704783681A789F
:10DC6000013A1A7070478368197070478368187892
:10DC7000704702207047182070470220704700202C
:10DC8000704700207047082070470000034B1B6856
:10DC9000586A0028B8BF03308010704738A60020AB
:10DCA0000020704719207047034B1B68986A0028B2
:10DCB000B8BF03308010704738A60020002070479E
:10DCC0001920704770477047436882681B68CB18FB
:10DCD000934205DBC0688342CCBF0020012070471F
:10DCE0000020704743681A6801321A607047436821
:10DCF0001A68013A1A60704702484FF48871FFF7BA
:10DD00006BBB00BFC071020808B5034840F20F1199
:10DD1000FFF762FB002008BDC071020802484FF403
:10DD20008771FFF759BB00BFC0710208024840F27B
:10DD30000D11FFF751BB00BFC071020802484FF43C
:10DD40008671FFF749BB00BFC071020808B50348E0
:10DD50004FF48571FFF740FB022008BDC071020837
:10DD600039B9042A05D146F26742934201D107F03E
:10DD70006BBA704739B9042A05D146F2674293421B
:10DD800001D107F061BA704739B9042A05D146F2CA
:10DD90006742934201D107F057BA7047C36A70B522
:10DDA00004460D461BB90B484221FFF715FB15F041
:10DDB000100F08D0E168E36A204646F66352BDE8DA
:10DDC000704007F048BA20462946BDE8704007F089
:10DDD000B8BA00BFDA71020811F0100F70B505462D
:10DDE0000C4605D0C16846F66F52002307F033FA9F
:10DDF00028462146BDE8704007F0A3BA11F0010F94
:10DE000070B504460D4615D0C06A012103685B68F1
:10DE1000984701280ED1E06A00210368DB68984723
:10DE2000204607F011FA2046E16847F270520023BD
:10DE300007F011FA15F0020F15D0E06A012103680E
:10DE40001B68984701280ED1E06A002103689B688F
:10DE50009847204607F0F8F92046E16847F27052EB
:10DE6000002307F0F8F915F0100F0ED0E06A0368F0
:10DE7000DB699847084B1B68984206D02046E1684A
:10DE800046F66542E36A07F0E6F920462946BDE812
:10DE90007040FFF7A1BF00BF3877020811F0010FF3
:10DEA00070B504460D460DD0C36A002B0ADD013B58
:10DEB000C36207F0C9F92046E16846F675120023EF
:10DEC00007F0C9F915F0020F0ED0E36A132B0BDC33
:10DED0000133E362204607F0B7F92046E16846F6D1
:10DEE0007512002307F0B7F920462946BDE87040B7
:10DEF000FFF772BF11F0010F70B504460D460DD04B
:10DF0000C36A012B0ADD013BC36207F09DF920467D
:10DF1000E16846F67512002307F09DF915F0020F2F
:10DF20000ED0E36A1D2B0BDC0133E362204607F0C1
:10DF30008BF92046E16846F67512002307F08BF94D
:10DF400020462946BDE87040FFF746BF11F0200F7C
:10DF500070B505460C4606D0C06846F278520146B8
:10DF6000002307F078F928462146BDE8704007F005
:10DF7000E8B9000011F0010F70B504460D4615D048
:10DF8000006A012103685B68984701280ED1206A66
:10DF900000210368DB689847204607F055F92046C2
:10DFA000E16847F27052002307F055F915F0020FAF
:10DFB00015D0206A012103681B68984701280ED1FB
:10DFC000206A002103689B689847204607F03CF9C7
:10DFD0002046E16847F27052002307F03CF915F043
:10DFE000100F0ED0206A0368DB699847084B1B6846
:10DFF000984206D02046E16846F66542236A07F05B
:10E000002AF920462946BDE87040FFF79FBF00BFB0
:10E010003877020811F0010F70B504460D4615D08F
:10E02000C06A012103685B68984701280ED1E06A45
:10E0300000210368DB689847204607F005F9204671
:10E04000E16846F67512002307F005F915F0020F96
:10E0500015D0E06A012103681B68984701280ED19A
:10E06000E06A002103689B689847204607F0ECF8B7
:10E070002046E16846F67512002307F0ECF82046CA
:10E080002946BDE8704007F05CB90000C36A70B56E
:10E0900004460D461BB91A482A21FFF79DF915F0D1
:10E0A000100F08D0E168E36A204646F66352BDE8E7
:10E0B000704007F0D0B8E36A1A79043AD2B2012A64
:10E0C00017D815F0010F08D0DA6812F1FE0F04DB43
:10E0D000013ADA60204607F0B7F815F0020F08D0D1
:10E0E000E36ADA68FE2A04DC0132DA60204607F0CF
:10E0F000ABF820462946BDE8704007F022B900BFC2
:10E1000005720208C36A70B504460D461BB91D4866
:10E110002221FFF761F915F0100F08D0E168E36ADA
:10E12000204646F66352BDE8704007F094B815F0FB
:10E13000010F0ED0E36A1A795AB1013A1A712046DA
:10E1400007F082F82046E16846F67512E36A07F0A8
:10E1500082F815F0020F0FD0E36A1A790B2A0BD858
:10E1600001321A71204607F06FF82046E16846F642
:10E170007512E36A07F06FF820462946BDE8704043
:10E1800007F0DFB833720208C36A70B504460D4663
:10E190001BB90B484121FFF71FF915F0100F08D0EC
:10E1A000E168E36A204646F66352BDE8704007F036
:10E1B00052B820462946BDE8704007F0C2B800BFFB
:10E1C0006272020830B5028400250122456280F89F
:10E1D0002820BDE8304006F0FBBF00007FB50433C7
:10E1E00002AC05460E4693E8030084E80300BDF840
:10E1F0000E30284604339BB2ADF80A300733ADF831
:10E200000E30044942F002022346009606F0E0FF79
:10E210007FBD00BF847202087FB5043302AC05469F
:10E220000E4693E8030084E80300BDF80E3028464C
:10E2300002339BB2ADF80A300733ADF80E30044913
:10E2400042F002022346009606F0C2FF7FBD00BFE7
:10E250009072020830B5049D028401224562BDE837
:10E26000304006F0B5BF2DE9FF410A9E0D46002162
:10E270004162028480F8283004464FF0110830468D
:10E2800008FB03F806F05CFF5FFA88F802AF68B19C
:10E29000304606F055FF043003C887E80300BDF898
:10E2A0000E3002339BB2ADF80A3006E0331D93E81E
:10E2B000030087E80300BDF80A3098442046294649
:10E2C000012202ABADF80E80009606F081FFBDE89A
:10E2D000FF81FFF7C8BF00002DE9F041DDF818808D
:10E2E000044615461F460E4621B908484FF40371EF
:10E2F000FFF772F8204629463A460223E662CDF837
:10E300001880BDE8F041FFF7AEBF00BFC071020842
:10E31000DBB2FFF7A8BFFFF7A6BF10B50A24C4629F
:10E32000BDE81040FFF79FBF10B50A24C462BDE8E6
:10E330001040FFF798BF000073B5044616460D461F
:10E3400019B907480C21FFF747F8E562204600217C
:10E3500046F20C3202230096FFF785FF7CBD00BF1A
:10E360000572020810B50524C462BDE81040FFF72D
:10E370007ABF13B503469C685B682478088853F815
:10E380002430B1F9021000934FF6FF73002A14BF36
:10E390001A4600224FF61E03FEF7DDFF1CBD0000EB
:10E3A0002DE9F341274DB0F906402B68B0F9046020
:10E3B000B3F84420244B2146009330460023FEF757
:10E3C000CAFF2B68214F93F84230214657F823307B
:10E3D000801900934FF6FF720023FEF7BCFF2B68F5
:10E3E00006F16408B3F85820194B214600934046C3
:10E3F0000023FEF7B0FF2B68214693F856304044C7
:10E4000057F823304FF6FF7200930023FEF7A3FF67
:10E41000104BC83600932146002330464BF29652EB
:10E42000FEF799FF2B68801993F890200A4B21463C
:10E4300053F822304FF6FF7200930023FEF78BFF54
:10E44000BDE8FC8138A600204B9602084C780208F3
:10E45000319702089C720208B478020813B504468A
:10E460004FF6FF710430FEF7C2FDB4F90400B4F9B1
:10E470000A10054B08300093143900224FF61E0392
:10E48000FEF769FF1CBD00BFA072020813B504307F
:10E490000021FEF7ACFD2D4B40210093042000230A
:10E4A00048F21042FEF757FF294B50210093294CA8
:10E4B0000023042048F21042FEF74DFF60210023A4
:10E4C000082044F208220094FEF745FF224B7021F9
:10E4D00000930420002348F21042FEF73CFF1F4B3C
:10E4E000802100930420002348F21042FEF733FFFE
:10E4F0001B4B902100930420002348F21042FEF7AA
:10E500002AFFB0210023082044F208220094FEF7DD
:10E5100022FF144BC0210093042048F21042002334
:10E52000FEF719FF104BD02100930420002348F27E
:10E530001042FEF710FF0D4B04200093E02148F23B
:10E5400010420023FEF707FF1CBD00BFAD7202089A
:10E55000BE720208CB720208F47202080B73020842
:10E5600027730208387302084B73020863730208AA
:10E57000F7B50E88154B083E4FF6FF75002A08BF09
:10E580000025B6B20C460746B1F902102A460093A0
:10E5900030464FF61E03FEF75EFD7B683618B6B2B6
:10E5A000B4F90210009330462B464FF61E02FEF7D8
:10E5B000D2FE074B30180093B4F902102A464FF6EA
:10E5C0001E0380B2FEF747FDFEBD00BF246E0608A5
:10E5D000966E060873B5044606F026FEA688144B10
:10E5E000083E4FF6FF75002808BF0025B6B2B4F903
:10E5F000061000932A4630464FF61E03FEF72BFD09
:10E60000E3693618B6B2B4F90610009330462B46CB
:10E610004FF61E02FEF79FFE064B30180093B4F92A
:10E6200006102A464FF61E0380B2FEF714FD7CBD8D
:10E63000246E0608966E060808B583681A78436843
:10E6400053F8220015F0D8F9C3004FF6F87003EA2A
:10E65000000008BD7FB5436804460D46164623B941
:10E6600012484FF42F71FEF7B7FE63681A68A3686B
:10E6700092FBF3F20A2392FBF3F103FB1122002336
:10E68000ADF80C30303204AB03F8042D4FF6FF72B6
:10E690000093B5F90000B5F90210002E08BF002262
:10E6A0004FF61E03FEF778FE7FBD00BFC071020863
:10E6B00070B50E4615461C4606F03BFD2A4601463F
:10E6C00023463046BDE8704006F0C5BD11F0130F7B
:10E6D00070B505460C4607D006F02BFD0222014618
:10E6E0002346284606F0B7FD28462146BDE870407F
:10E6F00006F027BE11F0010F2DE9F04104460D464A
:10E7000016D0006A012103685B68984780B1206ACF
:10E7100000210368DB689847204606F00AFD06F0F2
:10E7200093FDE06847F27052C168002306F093FD44
:10E7300015F0020F16D0206A012103681B68984764
:10E7400080B1206A002103689B689847204606F044
:10E75000F0FC06F079FDE06847F27052C1680023D2
:10E7600006F079FD15F00C0F0FD00C4E204629460F
:10E770003768FFF7EBFB3368BB420CD0204606F04E
:10E78000D8FCBDE8F04106F05FBD20462946BDE853
:10E79000F041FFF7DBBBBDE8F08100BF4CA60020D5
:10E7A00010B50C4606F0C5FC036821465B68984727
:10E7B00010BD11F0130F10B50C4606D006F0B9FCD1
:10E7C000036821465B68984710BDBDE8104006F01D
:10E7D000B8BD000011F0030F10B507D0FFF71AFC09
:10E7E000044B1868BDE8104005F086B9BDE810403C
:10E7F000FFF710BC38A6002011F0030F10B507D0AA
:10E80000FFF708FC044B1868BDE8104005F074B928
:10E81000BDE81040FFF7FEBB38A6002011F0030F43
:10E8200010B507D0FFF7F6FB044B1868BDE81040A1
:10E8300005F062B9BDE81040FFF7ECBB38A6002038
:10E8400008B54368B3F9000006F012FA15F0D4F8E1
:10E85000C3004FF6F87003EA000008BD4368F7B53F
:10E860004FF6FF7604460D46002A08BF00261BB966
:10E8700013489721FEF7B0FD6368B5F9007018687A
:10E88000A368984202DBE36898420ADD0D4BB5F9B4
:10E8900002100093384632464FF61E03FEF75BFD2A
:10E8A0000CE000B2B5F9024006F0E2F92146009012
:10E8B000324638464FF61E03FEF76EFDFEBD00BF22
:10E8C000707302088B7302082DE9F0471F4647F268
:10E8D00070539A4204460D4616463FD100F1380364
:10E8E00099423BD1436A93F80480A8F104095FFA86
:10E8F00089F9B9F1010F8CBF4FF000094FF0010900
:10E90000B9F1000F06D0A8F10503D3F1000848EBD8
:10E91000030801E04FF0010804F1A00A504606F098
:10E920007CFD814506D04946504606F09CFC4FF0E0
:10E93000010901E04FF0000904F16C0A504606F0AD
:10E940006CFD804504D05046414606F08CFC02E048
:10E95000B9F1000F02D0204606F076FC2046294689
:10E9600032463B46BDE8F047FFF7A2BEF7B5436825
:10E970000E881C88083E134BB6B20D462246B1F9EC
:10E980000210304600934FF61E03FEF764FB361864
:10E990002046B5F9027006F0AFF9B6B200903946DC
:10E9A000234630464FF61E02FEF7F6FC064B3018A3
:10E9B0000093B5F9021022464FF61E0380B2FEF70F
:10E9C0004AFBFEBD246E0608966E060844F64443D4
:10E9D0009A4201D106F04CBE44F645439A4202D118
:10E9E000642106F04BBD704711F0100F70B504465E
:10E9F00017D006F0A0FB18B90A483D21FEF7ECFC41
:10EA0000204606F096FB0546204606F094FB03469A
:10EA1000DB692046294646F26452BDE8704006F0A4
:10EA20001ABC70BD8D73020801804280704710B51A
:10EA30008380BDF8083001804280C38010BD000093
:10EA40007FB5DE2305460E461446009300211622AC
:10EA5000D33B02A8FFF7EBFF2846044944F002022B
:10EA600002AB009606F0B4FB7FBD00BFB073020896
:10EA70007FB5152305460E46144600930C2110223F
:10EA800002A84FF49C73FFF7D2FF2846034944F0D5
:10EA9000020202AB009606F09BFB7FBDC473020826
:10EAA0007FB5F02305460E46144600930021102240
:10EAB000A03302A8FFF7BBFF2846044944F0120226
:10EAC00002AB009606F084FB7FBD00BFD77302083F
:10EAD0007FB5F02305460E46144600930021102210
:10EAE000A03302A8FFF7A3FF2846044944F002021E
:10EAF00002AB009606F06CFB7FBD00BFE773020817
:10EB00007FB5F02305460E461446009300211022DF
:10EB1000A03302A8FFF78BFF2846044944F0020205
:10EB200002AB009606F054FB7FBD00BFF3730208F2
:10EB30007FB5F02305460E461446009300211022AF
:10EB4000A03302A8FFF773FF2846044944F00202ED
:10EB500002AB009606F03CFB7FBD00BF03740208C9
:10EB600070B5F02388B004460E4615460093002188
:10EB70001022A03306A8FFF75AFF20461A4945F095
:10EB8000200206AB009606F023FBB4F90A204FF4EE
:10EB9000967100924FF4A573103A04A8FFF747FF4F
:10EBA00004F140001149012204AB009406F010FB6F
:10EBB000B4F90A204FF4B47100924FF4C373103AC1
:10EBC00002A8FFF734FF04F120000949012202AB3B
:10EBD000009406F0FDFA00232366FEF7EBFD0138F2
:10EBE000606608B070BD00BF13740208207402088C
:10EBF00025740208B0F90420B0F90030D018401094
:10EC0000704707B5B0F90030B0F90410B0F906202C
:10EC1000C918B0F902304910D218521001A8FFF7F4
:10EC200003FF019B00209AB262F30F001B0C63F3F9
:10EC30001F400EBD10B50488091901804188521883
:10EC400042808288D31A8380C288029BD31AC380F1
:10EC500010BD10B50488611A018041888A1A42806B
:10EC600082889B188380029AC388D318C38010BD02
:10EC7000B0F90420B0F90030D01A7047F0B587B071
:10EC800004AC051D064695E8030084E80300012155
:10EC900000220B4620460092FFF7DBFF204648F299
:10ECA0001041FEF7A4F994E80300184B02AF1B686B
:10ECB00087E803002846B3F89240FFF7D9FFBDF874
:10ECC0000A3004FB00F20133ADF80A3004F5967403
:10ECD000BDF80E304443013BADF80E30B3883846E2
:10ECE00003EB223203EB2434BDF81430ADF80C40B2
:10ECF000ADF8082024B21AB29442C8BFADF80C3067
:10ED00000021FEF774F907B0F0BD00BF38A600205F
:10ED100073B5051D002104462846FEF768F90F4B20
:10ED20001B68B3F8A260B3F89230F61A36B2002E20
:10ED300012DB2846FFF79CFF86420DDAB4F9040087
:10ED4000074B04380093B4F90610801946F20C32D0
:10ED50004FF61E03FEF77FF97CBD00BF38A60020EA
:10ED6000906D060830B5051D85B004460021284683
:10ED7000FEF73DF9384B802100930420002348F230
:10ED80001042FEF7E8FA354B802100936B23019384
:10ED9000A0206B3B4BF29652FEF7FFFA304B9021CE
:10EDA00000930420002348F21042FEF7D4FA2D4BC2
:10EDB00090210093A02000234BF29652FEF7CBFA4D
:10EDC000294BA02100930420002348F21042FEF7B3
:10EDD000C2FA264BA0200093014600234BF2965224
:10EDE000FEF7B9FA224BB02100930420002348F229
:10EDF0001042FEF7B0FA1F4BB0210093A0204BF257
:10EE000096520023FEF7A7FA1B4BC0210093042063
:10EE1000002348F21042FEF79EFA184BC0210093DF
:10EE20000423019301330293033B03934BF2965265
:10EE3000023BA020FEF7B1FA2846FFF719FFB4F90C
:10EE40000610A0F5807000EBD0704010183105B0AE
:10EE5000BDE83040FEF7FEBD2A7402083C7402088B
:10EE600048740208527402085A7402086474020852
:10EE7000717402088174020896740208A87402086A
:10EE8000F7B5061D002105463046FEF7B0F8514B98
:10EE9000802148F21042009304200023FEF75BFA21
:10EEA000FEF7C4FD8021002300904BF29652A02073
:10EEB000FEF751FA484B902148F21042009304208B
:10EEC0000023FEF748FAFEF7B5FD902100230090DD
:10EED0004BF29652A020FEF73EFA404BA02148F29A
:10EEE0001042009304200023FEF735FAFEF7A6FD3A
:10EEF0000090A020002301464BF29652FEF72BFA19
:10EF0000374BB02148F21042009304200023FEF753
:10EF100022FAFEF787FDB02100234BF296520090B3
:10EF2000A020FEF718FAFEF78FFD2E4B0446009343
:10EF300004200023C02148F21042FEF70CFA2A4BAD
:10EF40002A4F9C4204D02A4B9C4203D064B114E067
:10EF5000284B00E0284B0093A020C0214BF2965292
:10EF60000023FEF7F8F911E0244BA0200093C02104
:10EF70004BF296522346FEF7EEF9A020C0214BF249
:10EF80009652002300970194FEF707FA1C4BD021FC
:10EF9000009348F2104200230420FEF7DCF9FEF74C
:10EFA00051FDD02101904BF296520023A0200097F2
:10EFB000FEF7F3F93046FFF75BFEB5F90610A0F552
:10EFC000807000EBD0704010183103B0BDE8F04005
:10EFD000FEF740BDB5740208C7740208D774020872
:10EFE000E5740208F274020876676100167502087B
:10EFF0002793040202750208067502080E750208BE
:10F000001B750208B0F90620B0F90230D01A70471B
:10F010000388CB1803808388C91843888180D3185C
:10F020004380C388D218C280704700230380438086
:10F030008380C3807047B0F90420B0F900309A4251
:10F04000D4BF0020012070472DE9F04F00F12606C3
:10F050008BB004463046FFF7EEFF0546002847D147
:10F0600008AF04F1040898E8030087E803000121D1
:10F070000A460B4638460091FFF7EBFD38464BF247
:10F080009651FDF7F7FE29464046FDF7B0FF48F2DE
:10F090001042ADF81650ADF81850ADF81A50ADF852
:10F0A0001C50ADF814201935B4F90400B4F90A3035
:10F0B00005AA2818009205220192043B421CB4F9CB
:10F0C00006101935FDF702FFFA2DEDD1E13DB4F937
:10F0D000061005AB6918009305230193B4F90400E9
:10F0E0004B1CB4F908201935FDF7F0FEC82DEED100
:10F0F000236A002B00F0A780251D2846FFF7B8FDE6
:10F1000080462846FFF77EFFB4F90AA03238039004
:10F110002046AAF1190A06F087F860B1216BA38C8A
:10F1200001FB08F198FBF3F202EBD27291FBF3F3CF
:10F1300003EB620301E06FF0130330460293FFF725
:10F140007AFF18B9E084A4F82A802BE0B4F90420EF
:10F15000B4F9263000259A42A8BF1346E384B4F9D7
:10F160000820B4F92A3001219A42B8BF13466385BA
:10F170002A460B4630460095FFF75CFD304629468F
:10F18000FDF735FF012130462A460B460095FFF773
:10F1900060FDB4F90410B4F90620304649425242E9
:10F1A000FFF736FF4FF00009E58CCB4644E0A28C18
:10F1B000236A6A4392FBF8F233F81270B7F5805F66
:10F1C00003D322485D21FEF707F9039AB4F92630EC
:10F1D000574344BF07F57E671F373F13B4F9042038
:10F1E000BFB29D4208BFBB46AA184FF6FF730093FB
:10F1F000501EC7EB0A03CBEB0A01FEF755F9029B41
:10F200009D4208BFB94603339D4212D1B4F90400B0
:10F210000F4B626B0638AAF1040100934019C9EB49
:10F220000101082A14BF16221F224FF61E03FDF704
:10F2300012FF0135ADB2BB46B4F92A309D42B6DBB0
:10F240003046FFF7F2FE0BB0BDE8F08F2A750208DA
:10F25000BE77060813B50446B4F90220B0F90000E1
:10F26000B4F906300091114600F10C02FDF7B2FF2F
:10F27000B4F90000B4F90210B4F90420B4F906306E
:10F2800008304BF296540094FDF7C2FD1CBD37B513
:10F290000446B4F90250B0F90000B4F90420B4F9FE
:10F2A0000630023800912946FDF794FFB4F90000BA
:10F2B000B4F90210B4F90420B4F9063006304FF660
:10F2C000FF740131013A013B0094FDF783FF3EBD1D
:10F2D00007B50346B0F900000022B3F90210B3F9F4
:10F2E0000630009200F10802FDF792FD0EBD37B521
:10F2F0000446B0F90000B4F90210B4F90630002554
:10F3000000F108020095FDF783FDB4F90420B4F97B
:10F310000210B4F90630101F0095FDF779FD3EBDCF
:10F32000436A37B504460BB11B880384204605F0B9
:10F330007BFF231D18B11846FFF7D9FF02E01846DE
:10F34000FFF7C6FFA38820460433A38005F06CFFB7
:10F350000546218C201D5DB1FFF799FFE369B3B12C
:10F36000B4F90400B4F9061000930C3000220AE04E
:10F37000FFF770FFE36953B1B4F90400B4F9061064
:10F3800000930C302A464FF61E03FDF7E4FFA388D6
:10F39000043BA3803EBD0000C36A2DE9F0431F7902
:10F3A0005B79A7F10102574247EB020748F2104888
:10F3B000002F18BF4FF00008012B87B0044608D07B
:10F3C00002D3022B0FD109E03A4B1B68B3F844304B
:10F3D00008E0384B1B68B3F8583003E0354B1B6826
:10F3E000B3F8DA3103862046FFF79AFFE36AB4F9EF
:10F3F00004909A79304BB4F9065053F8223009F151
:10F400000E0600933046294642464FF61E03FDF78E
:10F41000A2FF002F4BD0E36A284A99799F6852F8DF
:10F42000214038460021103513F0A0FF68B1244B6D
:10F4300030460093424629464FF61E03FDF70BFE69
:10F4400007F100428619174601E009F11406384613
:10F4500013F002FA02460B4602A81A49FDF79AFC7D
:10F4600005E006AA02EB0903002203F8112C02AF03
:10F47000384614F0C1FA8146204614F0BDFA4844DB
:10F480000728EED83046294642464FF61E0300971D
:10F49000FDF782FF5CB123784BB104363018294662
:10F4A00044F208224FF61E030094FDF754FF07B004
:10F4B000BDE8F08338A60020F0790208207A02081F
:10F4C0006877060856750208F0B5C669002585B04C
:10F4D0000446C561FFF724FFE661231D02AE93E8F1
:10F4E00003002A4686E803002B463046102100958B
:10F4F000FFF7A0FBE3692A46BDF90A100093BDF9A6
:10F5000008004FF61E03FDF726FFBDF80A3020461F
:10F510001033ADF80A3005F087FE0246002837D0D8
:10F52000BDF808701E4B083FBFB2BDF90A102A464D
:10F53000009338B24FF61E03ADF80870FDF78BFD4F
:10F540003818ADF80800E06A03685B699847BDF9B0
:10F550000A100746BDF9080001F10E033A1800959C
:10F56000FDF756FCE06A3146036801221B699847A3
:10F57000BDF80830BDF90A10FF180A4B38B20093E5
:10F580002A464FF61E03ADF80870FDF764FD04E04F
:10F59000E06A314603681B69984705B0F0BD00BFBB
:10F5A000246E0608966E0608F0B5044685B0FFF78F
:10F5B000B7FEB4F90450B4F90670E369103500934E
:10F5C0002846394600224FF61E03FDF7C4FE2046AA
:10F5D00007F1100605F028FE00282ED0234B3146F7
:10F5E0000022009328464FF61E03FDF734FD45190F
:10F5F000E06A1E3703685B6998473246431929461B
:10F6000002A80097FFF713FA002102A8FDF7EFFC0C
:10F61000E76A20463B681D6905F006FE02A902461E
:10F620003846A847124BBDF90C0000933146002222
:10F630004FF61E03FDF70FFD15E0E06A1E37036865
:10F640005B69984729464319324602A80097FFF79D
:10F65000EEF9E66A204633681D6905F0E5FD02A96A
:10F6600002463046A84705B0F0BD00BF246E06082C
:10F67000966E0608FFF754BE13B50446FFF750FE1A
:10F68000084BB4F904000093E36AB4F9061003EBE5
:10F69000830301931C30103100224FF61E03FDF747
:10F6A0007CFE1CBD398E020813B50446FFF738FEF8
:10F6B000084BB4F904000093E36AB4F9061003EBB5
:10F6C000830301931C30103100224FF61E03FDF717
:10F6D00064FE1CBD398E020873B50546FFF720FE97
:10F6E000EB6AB5F90440B5F906601B690E340022D7
:10F6F000009331464FF61E032046FDF72CFEEB6AC1
:10F7000031461A79114B001953F822300022009328
:10F710004FF61E03FDF71FFEEB6A06F110011A7982
:10F72000052A01D10A4A06E0042A03D0094A0092B8
:10F730009B6802E0084A0092DB68019320460022A1
:10F740004FF61E03FDF729FE7CBD00BF007B0208BB
:10F750005A750208398E020861750208C36AF7B546
:10F760001D79044648F21043002D0CBF1D460025AC
:10F77000FFF7D6FDB4F90470B4F906600C4B0E37F0
:10F78000009331462A4638464FF61E03FDF7E3FD47
:10F79000E36A38461A79074B06F1100153F8223014
:10F7A0002A4600934FF61E03FDF7D5FDFEBD00BFB0
:10F7B00065750208CC7A02087FB50646FFF7B0FDF2
:10F7C0000E4BF06A009313F0DFFB0D4913F0E4FCDD
:10F7D0000C4913F025FB13F03FF8B6F90450B6F9C5
:10F7E00006401C351034CDE902010022284621468E
:10F7F0004FF61E03FDF7D1FD7FBD00BF6F750208F8
:10F80000000020410AD7233CC36A2DE9F0431F7949
:10F810005B79A7F101014F4247EB010748F210481D
:10F82000002F18BF4FF00008012B384B04461B680F
:10F8300087B014BFB3F84430B3F858300386FFF7ED
:10F840006FFDE36AB4F904909A79314BB4F906502C
:10F8500053F8223009F10E060093304629464246FD
:10F860004FF61E03FDF777FD002F4BD0E36A294AC0
:10F8700099799F6852F8214038460021103513F0DD
:10F8800075FD68B1244B30460093424629464FF639
:10F890001E03FDF7E0FB07F100428619174601E061
:10F8A00009F11406384612F0D7FF02460B4602A8AB
:10F8B0001A49FDF76FFA05E006AA02EB09030022D8
:10F8C00003F8112C02AF384614F096F88146204612
:10F8D00014F092F848440728EED8304629464246AC
:10F8E0004FF61E030097FDF757FD5CB123784BB12F
:10F8F00004363018294644F208224FF61E030094BD
:10F90000FDF729FD07B0BDE8F08300BF38A6002051
:10F910006C7A02089C7A0208687706085675020815
:10F9200073B5B0F90420B0F906300E46B0F90210F4
:10F9300004464FF4E045101F0431043204330095AF
:10F94000FDF748FCB4F90630B4F90000B4F904201E
:10F95000191F0430043204330095FDF73BFCB4F961
:10F960000000B4F90210B4F9063000F10C02009660
:10F97000FDF730FCB4F90000B4F90420B4F902102A
:10F98000B4F906304BF296550830043A0095FDF76D
:10F990003FFAB4F90420B4F90210B4F90630A2F128
:10F9A00008000095FDF716FC7CBD73B5B0F9042086
:10F9B000B0F906300E46B0F9021004464FF4E045A7
:10F9C000101F0431043204330095FDF703FCB4F931
:10F9D0000630B4F90000B4F90420191F04300432D1
:10F9E00004330095FDF7F6FBB4F90000B4F90210FA
:10F9F000B4F90420B4F906300096FDF7EBFB7CBDAA
:10FA000030B5024685B00D460068516802AB02244D
:10FA100003C302A80021FDF719FC2246234602A8D1
:10FA200021460094FFF706F902A82946FDF70EFCCF
:10FA300002A821460E2223460094FFF7FBF802A8F5
:10FA40004BF29651FDF702FC05B030BD73B504468C
:10FA5000051D218C2846FFF7D3FF2846FFF7CAF87B
:10FA6000E5690646284613F0C7FFB4F90610C0B290
:10FA70008000301A023100224FF61E030095FDF778
:10FA80006AFC7CBDF0B589B0031D054604AC93E863
:10FA9000030084E803001846298CFFF7B1FF2046D5
:10FAA000FFF7A8F8EE690746304613F0A5FFBDF949
:10FAB0001210C0B2800002310022381A4FF61E0325
:10FAC0000096FDF748FC122104230A4600932046C5
:10FAD0000B46FFF7AFF8686A13F08EFF0746204623
:10FAE000FFF78FF8ADF80800C0F30F40ADF80A003B
:10FAF000029E20460796FFF784F8ADF80800C0F391
:10FB00000F40ADF80A0002996B6AFF0036B2A6EB0F
:10FB100067060691091400933046073900224FF614
:10FB20001E03FDF718FC09B0F0BDF0B585B0031D4C
:10FB3000044602AD93E8030085E803001846218CD3
:10FB4000FFF75EFF2846FFF755F8E669074630469F
:10FB500013F052FFBDF90A10C0B28000023100223A
:10FB6000381A4FF61E030096FDF7F5FB1221042309
:10FB7000009328460A460B46FFF75CF8636ABDF916
:10FB80000800BDF90A1000930430043100224FF63A
:10FB90001E03FDF7E0FB05B0F0BD4BF29651FDF7FB
:10FBA00026BA2DE9F041012104460026FDF72EFA80
:10FBB000D02514E0EB10DA024FEAA50842EA481813
:10FBC000204648EA0308FFF753F8074602E040469C
:10FBD000FDF726FA013FFAD20D3DEDB2013620467F
:10FBE000FFF710FA8642E5DBBDE8F041FDF732BAD7
:10FBF00010B5044605F018FB231D20B91846BDE8D2
:10FC00001040FFF7CABF1846BDE81040FFF7C9BF54
:10FC10002DE9FF47044605F007FB4FF6FF75002866
:10FC200008BF00252046FFF7E3FFE369B4F90400AD
:10FC30002A46B4F90610009304304FF61E03FDF770
:10FC40008AFB206A01210368B4F904805B68984745
:10FC50008146206A0121036808F178071B689847EC
:10FC6000B9F1010F064607D1244BB4F906100093F1
:10FC700008F170002A460AE0B9F1000F0BD11F4BC2
:10FC8000B4F90610009308F1700048F210424FF6E4
:10FC90001E03FDF7E0F9D4F820A0231D93E803002C
:10FCA0000DF10809DAF8003089E803002046D3F89E
:10FCB0001080ADF80870ADF80C7005F0B5FA494643
:10FCC00002465046C047206A03685B699847012E88
:10FCD000384405D10A4BB4F9061000932A4606E0D1
:10FCE0004EB9074BB4F90610009348F210424FF694
:10FCF0001E03FDF7B0F9BDE8FF8700BF1A6B0608C9
:10FD00008C6B060837B5054605F08EFA4FF6FF7482
:10FD1000002808BF00242846FFF76AFFEB69B5F901
:10FD200004000093B5F90610043022464FF61E0376
:10FD3000FDF711FB3EBD13B50446FFF759FFE3691C
:10FD4000B4F904000093B4F90610043000224FF611
:10FD50001E03FDF700FB1CBDF0B585B0044605F0A1
:10FD600063FA4FF6FF75002808BF0025204605F00E
:10FD70005BFA90B102AB221D92E8030083E8030016
:10FD8000BDF808201846083AADF80820BDF80C2048
:10FD90000832ADF80C20FFF704FF204605F044FAC6
:10FDA00058B1174BB4F904000093B4F906100738A2
:10FDB0002A464FF61E03FDF74EF9276A20463B6898
:10FDC0001E6905F031FA211D02463846B047206A07
:10FDD000A78803685B6998470646204605F024FA21
:10FDE00058B1084B3FB2781C0093B4F90610801943
:10FDF0002A464FF61E03FDF72EF905B0F0BD00BFF1
:10FE00001A6B06088C6B060838B54FF61F0399422B
:10FE100004460A4607D0056961698068E3682818C6
:10FE2000C918FCF7DDFF6269236912F0010F07D0E2
:10FE3000591E002921610BDA01322361626138BD4C
:10FE4000A069591C8142216102DB01322361626198
:10FE500038BD10B500231A46416811F8014B4160C6
:10FE600004F07F019140073214F0800F43EA010350
:10FE7000F2D1184610BD38B54FF0FF3303600B7850
:10FE80000446472B0D461CD18B1C4360FFF7E1FF56
:10FE9000A0612046FFF7DDFFE0616B78422B10D1B7
:10FEA000234604F1200061680A4612F8015B626093
:10FEB00049780132626041EA05221A8402338342A2
:10FEC000F1D138BD03460068B0F1FF3F06D15A6852
:10FED00012F8010B18605A60001170474FF0FF32A2
:10FEE00000F00F001A60704770B5002406462546E2
:10FEF0003046FFF7E7FFC0B200F00703AB40033521
:10FF000010F0080F44EA0304F2D1204670BD00004F
:10FF10002DE9F8434FF0FF33036001330361436180
:10FF20008769C36904468160C260D0F804805F437A
:10FF300001262FE0AEB12046FFF7D6FF451C204634
:10FF4000FFF7C0FF0026814607E009F110032046B5
:10FF500034F81310FFF758FF0136AE42F5DB0026E8
:10FF600012E02046FFF7AEFF451C0AE02046FFF7EF
:10FF7000A9FF00F1100334F813102046FFF744FFE7
:10FF80000136AE42F2DB01267F1B03D5044848212F
:10FF9000FDF722FA002FCDDCC4F80480BDE8F88319
:10FFA00075750208074A08481168084B30B504689F
:10FFB000074DCB1805FB0433013103605804116071
:10FFC000400C30BD64A5002018300020F3902400C0
:10FFD00021F17D004162704773B5044616460D4617
:10FFE00019B90C480D21FDF7F7F90B4B00211B68DF
:10FFF0002046B3F844300A462386E5620223009681
:020000040801F1
:10000000FEF731F9204604F1300102B0BDE870403E
:10001000FFF7E0BFDA71020838A6002073B5054685
:1000200016460C4619B90A480C21FDF7D5F9EC62C1
:10003000284634F8062F002102230096FEF713F914
:100040002846214602B0BDE87040FFF7C3BF00BF9D
:100050003372020873B5044616460D4619B90C48AA
:100060000D21FDF7B9F90B4B00211B682046B3F8B1
:1000700044300A462386E56202230096FEF7F3F831
:10008000204604F1300102B0BDE87040FFF7A2BF86
:100090006272020838A600202DE9F0410C46154690
:1000A00098460026A75B1FB94FF61F03A3530DE028
:1000B000FA08294602F0FC02404604F0E1FEFA0A82
:1000C000A0530021D20004F0DBFEA0530236202E04
:1000D000E8D1BDE8F08110B592B0044605F0A4F86F
:1000E000231D218C70B11846FFF75FFC616A21B3B4
:1000F00002A8FFF7C0FE20460AA94EF210424FF6B2
:10010000FF730DE01846FFF70BFC616AA9B102A866
:10011000FFF7B1FE20460AA94EF21C724BF296532D
:10012000FFF7BAFF089BB4F90810B4F90A20C91AFE
:10013000099B02A8D21AFFF7EBFEE369B4F90400A9
:100140000093B4F906100C3000224FF61E03FDF7A1
:1001500002F912B010BD4160826003737047000065
:1001600008B50379012B09D002D3022B0FD10AE085
:100170008368188800F01F00400808BD836818884D
:10018000C0F3C31008BD83681888000B08BD03487E
:100190004FF48271FDF720F9002008BD707302084A
:1001A00030B54FF6FF7585B00C46002A08BF002514
:1001B000FFF7D6FF04F090FD00238DF80D3003AB60
:1001C0008DF80C000093B4F90000B4F902102A462F
:1001D0004FF61E03FDF7E0F805B030BD002908B565
:1001E0000CDDFFF7BDFF0E288CBF0020012008BDED
:1001F000FFF7B6FF003818BF012008BDF8DB00206C
:1002000008BD00000379012B12D002D3022B2CD1A0
:100210001DE08268138823F01F031B041B0C0F29A9
:1002200002D04900C9B200E01F2141EA03031AE0ED
:100230008268138823F4FC631B041B0C0F2902D073
:100240008900C9B200E03F2143EA41130BE0826814
:1002500013885B055B0D0F2902D04900C9B200E08D
:100260001F2143EAC1231380704702484FF48E7167
:10027000FDF7B2B87073020810B50446FFF770FFBF
:1002800030B1411EC9B22046BDE81040FFF7BABFE9
:1002900010BD10B50446FFF763FF0E2806D8411CB9
:1002A000C9B22046BDE81040FFF7ACBF10BDC8681A
:1002B0004042704710B5044605F0BCF8014B20469B
:1002C000236010BD306A0208014B0360704700BF15
:1002D000786A020810B50446FFF7F6FF014B204686
:1002E000236010BD506A020810B50446FFF7ECFF0A
:1002F000014B2046236010BD186E020810B504465D
:1003000005F098F8014B2046236010BDC06A020832
:1003100010B50446FFF7F2FF014B2046236010BDE5
:10032000A06A020810B50446FFF7E8FF014B20461B
:10033000236010BDF86F020810B5044605F098F967
:100340002046BDE8104005F05DB9FFF7F5BFFFF7A7
:10035000F3BF000038B50D4B1B68D3F8C040002C2C
:1003600011DDD3F8B400013012F00EFE014608484A
:1003700012F012FF0546204612F006FE01462846FE
:1003800012F00AFF38BD002038BD00BF38A600209B
:1003900000BA5B4A37B50446FEF7C2FF2046FFF7B6
:1003A000D9FF13F00BF812F0EFFD0821B4F9045057
:1003B000B4F9064004F0E6FC1C35103400902146E8
:1003C000284600224FF61E03FCF7E6FF3EBD000064
:1003D00038B5104B084610491C6812F029FE054636
:1003E000D4F8C00012F0D0FD0146284612F020FEDD
:1003F00001460A4812F0D0FE12F0E0FFD4F8B43003
:1004000001380128B8BF0120C4F8B400C01A18BFD1
:10041000012038BD38A600200000A0414054894C7E
:100420002DE9F04711F0010904460D4603D111F002
:10043000020F00F0CE802046FFF78CFF0021064619
:10044000012712F0A7FF00B9002717F0FF0F03D113
:1004500062482321FCF7C0FF3046614912F090FF4B
:10046000E8B930465F4912F08BFFD8B930465E4993
:1004700012F086FFC0B930465C4912F081FFA8B97E
:1004800030465B4912F07CFF90B93046594912F072
:1004900077FF78B93046584912F072FF60B94FF0D3
:1004A0007E570AE0554F08E04D4F06E04D4F04E0FF
:1004B0004D4F02E04D4F00E04D4FB9F1000F11D00C
:1004C0003046394612F070FF28B13046394612F0F6
:1004D000A5FC804600E0B0464046002112F050FFE7
:1004E00010B903E0B04601E04FF07E5815F0020F5E
:1004F00010D04046424912F039FF20B140463946FB
:1005000012F08EFC80464046002112F039FF08B1FF
:100510004FF07E583946404612F03EFE12F04EFF34
:1005200012F032FD394612F083FD4FF07E5107463E
:1005300012F01CFF08B14FF07E573846314612F0DA
:100540000BFF002843D139462046FFF741FF804684
:100550002046FFF7FFFE31468246384612F024FF60
:1005600038B15046314612F00BFF002818BF4FF04B
:1005700000083846314612F0F9FE20B150463146A7
:1005800012F008FF10B9B8F1000F16D11D4BB9F1E8
:10059000000F07D01B68D3F8B400B0F5803F0CDA29
:1005A000013005E01B68D3F8B400012805DD0138EF
:1005B000C3F8B40080B2FDF781F9204604F044FE90
:1005C0002046E16846F67512002304F044FE2046FA
:1005D0002946BDE8F047FDF7FFBB00BF8D75020857
:1005E0000000C84200007A4400401C460050C34747
:1005F000002474498096184B20BCBE4C000020415A
:100600008096984B38A600200023036043608360E7
:10061000704710B50446FFF7F7FF204610BD83680A
:1006200030B5456803B985608368DC225343B83A26
:1006300002FB0533002BB8BFFF331A128260046837
:1006400005B944604368DC256B43B83D05FB0433C2
:10065000002BB8BFFF331B1243600CB90B020360C1
:100660000368DC2463434FF4105404FB0131002978
:10067000B8BFFF3109120160101EB8BFFF30001271
:1006800030BD0000F0B585B0FCF73EF90746FCF739
:1006900057F9644C0646236813F0010F04D16248F1
:1006A000FFF7B7FF0123236039465F48FFF7B7FF25
:1006B0005E4D04467021F0204BF2965200230095C7
:1006C0000197FCF76AFE002C40D04BF296520023B3
:1006D0008021F02001940095FCF75FFEA4F50660F0
:1006E000193812F051FC524912F0A2FC514912F093
:1006F00053FD0146504812F091FB504B5049009376
:10070000044612F08DFB12F0A7F84BF29652CDE999
:10071000020100239021F020FCF73FFE49492046CA
:1007200012F086FC484B4FF08441009312F078FBA6
:10073000434912F075FB12F08FF84BF29652CDE957
:1007400002010023F020A021FCF727FE3F4C236884
:1007500013F0010F04D13E48FFF75BFF0123236034
:1007600031463B48FFF75BFF3A4D0446C021F0207D
:100770004BF29652002300950196FCF70EFE0CB347
:100780004BF29652D0210023F02000950194FCF703
:1007900004FE314B2046009312F0F6FB2F4912F075
:1007A00047FC2F4912F0F8FC254912F039FB12F0F2
:1007B00053F84BF29652CDE902010023F020E021DC
:1007C000FCF7EBFD00210620FBF7C1FE00210546EA
:1007D0000520FBF7BCFE234B04462846009312F08D
:1007E000D3FB214912F024FC12F036F80023CDE9A6
:1007F00002014BF296524021F020FCF7CEFD1B4B3C
:100800001B4AF020002C0CBF14461C46194B5021EB
:1008100000934BF2965200230194FCF7BEFD05B005
:10082000F0BD00BF68A500207CA500204CA10208F7
:10083000CCCC90410000CA42CDCC4C40C4750208DB
:100840000AD7A33B6666E63FCD7502086CA500207B
:1008500070A5002006830208D675020833333340A2
:100860000080DB44DE7502086F12833ABD75020812
:10087000C1750208E575020810B5054C2368586A71
:10088000FBF744FE2368986ABDE81040FBF745BEBD
:1008900038A6002010B5054C890023685962FFF77F
:1008A000EBFF2068BDE8104003F026B938A6002011
:1008B00010B5074C890023689962FFF7DDFF6420BB
:1008C000FBF7E0FD2068BDE8104003F015B900BF5C
:1008D00038A600202DE9FF41044604F0A5FC4BF2A8
:1008E0009655B4F90A204FF6FF73002818BF1D462D
:1008F000B4F90410B4F90830101F083B0C3A00900A
:10090000123102A8FEF793F802A844F20821FCF77E
:100910006EFB02210A460B4602A80091FEF78AF9F7
:1009200002A8FEF7A5F923688046DB6920469847B0
:10093000236807469B6A20469847236806465B6AF9
:1009400020469847A8F1100807FB08F7361ABDF8AB
:10095000083097FBF6F7FF18BFB2ADF8087002A891
:1009600010372946ADF80C70FCF741FBBDE8FF815C
:10097000036870B5DB690E460446984716F0010F10
:1009800005460DD0236820465B6A9847854207DDFF
:10099000236820461B6A691E98472046FFF79AFF86
:1009A00016F0020F0DD0236820469B6A98478542B7
:1009B00007DA236820461B6A691C98472046FFF720
:1009C00089FF20463146BDE87040FDF705BA10B5F5
:1009D0000446FEF7A5FC2046BDE81040FFF77ABFAD
:1009E000014B18682C30704738A6002008B5FFF777
:1009F000F7FF0368013B036008BD08B5FFF7F0FF90
:100A000003680133036008BD38B504460D46FFF79F
:100A1000E7FF006863682D189D4205DBA0688542EA
:100A2000CCBF0020012038BD002038BD416082606D
:100A30007047000010B5FFF7D3FF006838B100B26F
:100A400004F016F90349044612F0E0FD00E0024C00
:100A5000204610BDF0750208EA75020808B5FFF7D8
:100A6000E9FF12F0C9FFC3004FF6F87003EA000077
:100A700008BD73B54FF6FF740E88002A08BF002426
:100A8000B1F90250FFF7D6FF2946009022463046C2
:100A90004FF61E03FCF75FFC7CBD2DE9F04100F131
:100AA000300405460F461646204600210F22DDF889
:100AB0001880FFF7BBFF284621463A463346CDF85B
:100AC0001880BDE8F041FDF707BC00007FB50E4679
:100AD000F0233C210446154600930A46283302A819
:100AE000FDF7A5FF20462A4602AB1049009604F008
:100AF0006FFB04F1200002230D4948F210420094DC
:100B0000FDF7E7FB04F14C0002230A4948F21042CA
:100B10000094FDF7DEFB04F17800074948F210422B
:100B200002230094FFF7B9FF7FBD00BFF6750208EE
:100B30000776020811760208187602080A4B73B588
:100B40001A6800F1300405460E462046083201239B
:100B50000649FFF700FB28462146054A48F21043A4
:100B60000096FDF7B9FB7CBD38A600208C7B0208FF
:100B70002B7602084160704710B5044608F036FA3B
:100B800063681B68002B04DA094ADB4352F8230030
:100B900010BD0C2202FB030002780AB9406810BDA8
:100BA000013B0C38B3F1FF3FF6D1002010BD00BF70
:100BB000947B0208436810B51C68002C06DB08F023
:100BC00015FA0C2303FB0404606810BD002010BD5F
:100BD00038B50446FFF7D0FF05462046FFF7EAFF89
:100BE00004461DB1284612F007FF05461CB12046F9
:100BF00012F002FF00E02046451904B10235ED0075
:100C00004FF6F87005EA000038BD00002DE9F34109
:100C10004FF6FF7607460C46002A08BF00260D88CF
:100C2000FFF7AAFF80463846FFF7C4FF0746B8F132
:100C3000000F0BD02846B4F9021032464FF61E03BF
:100C4000CDF80080FCF787FB2D18ADB2B7B10C4B87
:100C50000435ADB2B4F902100093284632464FF67F
:100C60001E03FCF778FB04352818B4F9021080B293
:100C700032464FF61E030097FCF76DFBBDE8FC8182
:100C80003876020838B50C46154608F0AFF92B192E
:100C900005D5124A13F1050FB8BF13461BE0002D0E
:100CA0004FF00C020BDD631C02FB040402E00C3469
:100CB0008AB90133227B022AF9D1084B0BE0631E6B
:100CC00002FB040403E014F80C2D22B9013B002BB5
:100CD000F9DA4FF0FF33184638BD00BF19FCFFFFAB
:100CE00010B544684FF0FF322168FFF7CBFF20605A
:100CF00010BD10B5446801222168FFF7C3FF2060D2
:100D000010BD000008B543680A461968FFF7BAFF2E
:100D1000024BC01A18BF012008BD00BF19FCFFFF1D
:100D200007B5009111461A4648F21043FDF7D4FA70
:100D30000EBD00007FB51546F023282204460E465E
:100D400000933C219B1802A8FDF771FE2A4602ABD6
:100D5000214D20462149009604F03AFA04F1200082
:100D60002146FFF7EBFE296804F1600630460C319E
:100D7000FFF700FF324604F168002146184BFFF7E9
:100D8000CFFF296804F1980630461031FFF7F2FED4
:100D9000324604F1A0002146124BFFF7C1FF29683B
:100DA00004F1D00630461431FFF7E4FE324604F178
:100DB000D80021460C4BFFF7B3FF296804F5847671
:100DC00030461831FFF7D6FE04F5887021463246CA
:100DD000064BFFF7A5FF7FBD38A600203A76020834
:100DE0004E7602085C7602086C7602087676020877
:100DF00010B5044604F01EFB014B2046236010BDD5
:100E0000E869020810B50446FFF7F2FF014B2046DF
:100E1000236010BDD06F020810B50446FFF754FAE6
:100E2000014B2046236010BD1870020810B504461F
:100E3000FFF764FA014B2046236010BD6070020882
:100E400070B50546FFF75AFA064B2C4644F8203B8E
:100E500005F1B00620462434FFF7E8FFB442F9D18B
:100E6000284670BD4070020810B50446FFF72CFA02
:100E7000014B2046236010BD8070020810B5044667
:100E8000FFF718FA214B204640F8243BFFF74AFAB7
:100E900004F14400FFF746FA04F16400FFF742FA58
:100EA00004F18400FFF73EFA04F1A400FFF7B4FF59
:100EB00004F1B000FFF7B0FF04F1BC00FFF7ACFF96
:100EC00004F1C800FFF7A8FF04F1D400FFF7B8FF52
:100ED00004F5C270FFF7A0FF04F5C870FFF79CFF90
:100EE00004F5CE70FFF798FF04F5D470FFF794FF78
:100EF00004F5DA70FFF7A4FF04F51970FFF7B4FFEB
:100F000004F51B70FFF704FA204610BDC8890208DB
:100F100010B50446FFF7F2F9014B2046236010BDDF
:100F2000A870020810B50446FFF7C4F92D4B2046FF
:100F300040F8643BFFF7ECFF04F18400FFF7E8FFA3
:100F400004F1A400FFF7E4FF04F1C400FFF7EAF99D
:100F500004F1E400FFF7E6F904F58270FFF7E2F927
:100F600004F59270FFF7DEF904F5A270FFF7DAF9E5
:100F700004F5B270FFF7D6F904F5C270FFF7AAF9CD
:100F800004F5CA70FFF7C4F904F5DC70FFF7A2F9A5
:100F900004F5E470FFF7BCF904F5F670FFF764FFA1
:100FA00004F5FA70FFF7B4F904F50670FFF75CFF7B
:100FB00004F50870FFF7ACF904F51170FFF72CFF8A
:100FC00004F51470FFF728FF04F51770FFF724FFEE
:100FD00004F51A70FFF720FF04F51D70FFF730FFCE
:100FE000204610BDE888020810B5044604F022FA35
:100FF000114B204640F8203BFFF704FF04F150005E
:10100000FFF7F6FE04F17C00FFF7F2FE04F1A80002
:10101000FFF7EEFE04F1D400FFF7EAFE04F580705E
:10102000FFF7E6FE04F59670FFF728FF04F57170F0
:10103000FFF778FF204610BD208A020810B504464D
:1010400004F0F8F9054B20462360012384F828308A
:1010500000232362002384F8293010BD10A4020865
:1010600070B504460D46164604F0E4F9024B2562BD
:1010700023606662204670BDF091020870B5044698
:101080000D46164604F0D6F9024B256223606662CF
:10109000204670BDD091020870B504460D46164634
:1010A00004F0C8F9034BED00F60023602562666288
:1010B000204670BDB091020810B5202132220446AE
:1010C000FFF7CEFF014B2046236010BD40690208A8
:1010D000202110B50A460446FFF7C2FF014B204607
:1010E000236010BD6069020810B520210722044664
:1010F000FFF7C4FF014B2046236010BD8069020842
:1011000010B5202110220446FFF7C6FF014B2046F0
:10111000236010BDA069020870B5438986B0A3F1B1
:101120001802153BADF81220ADF816300546066ED4
:10113000FCF740FB4FF4C8746643B6FBF0F06D6EED
:10114000ADF81000FCF736FB01356543BDF81030F3
:10115000B5FBF0F5ADF814501AB22DB2AD1A012D51
:1011600007DC0233ADF814301BB2A342C8BFADF8A0
:10117000144004AC20464FF6FF71FBF738FFBDF872
:10118000102013B2002B0EDD02AB94E8030083E8BD
:101190000300ADF80C201846002244F20821ADF8F7
:1011A0000820FBF724FFBDF8142013B2B3F5C87F65
:1011B0000FDA02AB04A903C983E80300ADF80820E5
:1011C00018464FF4C87244F20821ADF80C20FBF722
:1011D0000EFFFCF719FB0446FCF7ECFA4FF4C8735A
:1011E0005C43BDF91210BDF916301F22B4FBF0F0BC
:1011F000009201310246013BFCF756F906B070BD82
:1012000010B5044604F016F9034B204623604FF056
:10121000FF332362636210BD506F020830B51D4B6F
:1012200087B0044603AD93E807000C3385E8070058
:1012300093E80700236A6D46B3F1FF3F85E8070096
:1012400002D1039B60622362FEF7ACFE032290FB97
:10125000F2F202EB420206A9821A01EB8202034675
:10126000216A52F80C0C9B00401800EBD070401023
:10127000206252F8181C626A891801EBD1714FF68E
:10128000FC72491003EA0202616207B0BDE8304017
:10129000FBF7A6BDA871020847F269439A4201D143
:1012A000FFF7BCBF704710B50446FBF7D7F840F214
:1012B0002D1360602381204610BD038813B940F2CE
:1012C0002D13038109880180704738B504460D4607
:1012D000FBF7C4F862682389821A9A4215D92388D9
:1012E0009BB12B80238940F22D129342606002D182
:1012F0004FF4967307E0B3F5967F01D1642302E0C3
:101300000A2B04D90A3B238138BD00232B8038BD2A
:1013100010B5044604F08EF8014B2046236010BD42
:101320008886020810B5044604F084F8014B204674
:10133000236010BD2069020810B50446FFF758FD70
:10134000014B2046236010BDC069020810B5044659
:10135000FEF7B0FF114B204640F8283BFEF7BAFFDE
:1013600004F13800FEF7B6FF04F14800FEF7B2FFC3
:1013700004F15800FEF7AEFF04F16800FEF7C8FF65
:1013800004F18C00FEF7C4FF04F1B000FEF7C0FFCB
:1013900004F1D400FEF7BCFF204610BD106A02081D
:1013A00070B5054604F046F8084B2C4644F8203B3F
:1013B00005F5AC7620463434FFF7BEFFB442F9D1D0
:1013C0002046FFF7C3FF284670BD00BF588E0208B5
:1013D00010B50446FFF70CFD014B2046236010BDFD
:1013E000386B020810B50446FFF7F2FF014B2046A8
:1013F000236010BD006B020810B50446FFF7E8FF3C
:10140000014B2046236010BD706B020810B50446E6
:10141000FFF7EEFC014B2046236010BDD06B0208A5
:1014200010B50446FEF750FF014B2046236010BD67
:10143000F86B020810B50446FFF7E8FF034B20469F
:1014400040F8303BFFF7ECFF204610BDA86B0208C8
:1014500010B5044603F0EEFF094B204640F8203B50
:10146000FFF7C0FF04F14C00FFF7C6FF04F178005E
:10147000FFF7E0FF04F1B400FFF7BAFC204610BD0F
:10148000E06A020810B50446FFF7C0FF034B204690
:1014900040F8303BFEF71EFF204610BD406C0208AE
:1014A00010B50446FEF710FF014B2046236010BD27
:1014B000686C020810B50446FFF7A8FF014B2046F0
:1014C000236010BD906C020810B5044603F0B2FF13
:1014D000134B204640F8203BFFF7D4FF04F1600097
:1014E000FFF7DEFF04F16800FFF7E4FF04F1980066
:1014F000FFF7D6FF04F1A000FFF7DCFF04F1D000F6
:10150000FFF7CEFF04F1D800FFF7D4FF04F5847095
:10151000FFF7C6FF04F58870FFF7CCFF204610BD2B
:10152000206C020810B50446FFF762FC014B204610
:10153000236010BDB86C020810B5044603F07AFFB2
:10154000194B204640F8203BFEF7C4FE04F1300062
:10155000FEF7C0FE04F14000FEF7BCFE04F15000AF
:10156000FEF7B8FE04F16000FEF7B4FE04F170006F
:10157000FEF7B0FE04F18000FFF7D4FF04F1B000E5
:10158000FFF7D0FF04F1E000FFF7CCFF04F588700F
:10159000FFF7C8FF04F5A070FFF7C4FF04F5B870AB
:1015A000FFF7C0FF204610BD7091020810B5044639
:1015B000FFF71EFC014B2046236010BDE06C0208C3
:1015C00010B5044603F036FF154B204640F8203B8B
:1015D000FFF7ECFF04F14C00FFF7E8FF04F178009F
:1015E000FFF7E4FF04F1A400FFF7E0FF04F1D000EF
:1015F000FFF7DCFF04F1FC00FFF7D8FF04F594705F
:10160000FFF790FF04F5AC70FEF764FE04F5B470CC
:10161000FFF788FF04F5CC70FEF75CFE204610BD96
:1016200078A2020810B50446FFF7F0FE034B2046EF
:1016300040F8303BFEF74EFE204610BD086D020814
:1016400010B50446FFF7D4FB014B2046236010BDC4
:10165000306D020810B50446FFF7CAFB014B204667
:10166000236010BD586D020810B50446FFF7C0FB9B
:10167000014B2046236010BD806D020810B5044662
:1016800003F0D8FE094B204640F8203BFFF7CAFF85
:1016900004F16000FFF7D4FF04F18C00FFF7DAFFDC
:1016A00004F1BC00FFF7E0FF204610BD209C0208BB
:1016B00070B5054603F0BEFE064B2C4644F8203BB1
:1016C00005F1FC0620462C34FFF792FBB442F9D119
:1016D000284670BD009D020810B5044603F0AAFE1E
:1016E0000D4B204640F8203BFFF782FB04F14C00F5
:1016F000FFF77EFB04F17800FFF77AFB04F1A4000A
:10170000FFF776FB04F1D000FFF772FB04F1FC0059
:10171000FFF76EFB204610BD709C020810B5044612
:10172000FFF766FB014B2046236010BDA86D020841
:1017300010B50446FFF75CFB014B2046236010BD4B
:10174000D06D020810B50446FEF7B4FD0D4B2046DF
:1017500040F8283BFEF7BEFD04F13800FEF7D8FD47
:1017600004F15C00FEF7C0FD04F16C00FEF7D0FD53
:1017700004F19000FEF7B8FD04F1A000FEF7C8FDEB
:10178000204610BDF86D020810B50446FEF79CFD1A
:10179000014B2046236010BD606E020810B5044660
:1017A000FEF792FD014B2046236010BD886E0208B3
:1017B00010B50446FEF77EFD154B204640F8283B49
:1017C000FFF7E2FF04F13000FFF7E8FF04F13C000F
:1017D000FFF7E4FF04F14800FFF7E0FF04F15400D5
:1017E000FEF796FD04F17800FEF792FD04F19C00EF
:1017F000FEF78EFD04F1C000FEF78AFD04F1E4005F
:10180000FEF768FD04F1F400FEF782FD204610BDEE
:10181000406E020810B5044603F00CFE0D4B204646
:1018200040F8203BFFF77AFF04F15000FFF776FF06
:1018300004F18000FFF772FF04F1B000FFF778FFBA
:1018400004F1E000FFF77EFF04F5D270FFF7B0FF70
:10185000204610BD2091020810B5044603F0EAFDB1
:10186000014B2046236010BDB06E020810B504463F
:1018700003F0E0FD014B2046236010BDD06E02084E
:1018800010B5044603F0D6FD014B2046236010BD81
:10189000F06E020810B5044603F0CCFD014B204663
:1018A000236010BD306F020810B5044603F0C2FD7E
:1018B000014B2046236010BD706F020810B504462E
:1018C00003F0B8FD014B2046236010BD906F020865
:1018D00010B5044603F0AEFD014B2046236010BD59
:1018E000B06F020810B50446FFF782FA014B20469C
:1018F000236010BDC870020810B50446FEF7DAFC7C
:101900000D4B204640F8283BFEF7E4FC04F138007C
:10191000FEF7E0FC04F14800FEF7DCFC04F158009F
:10192000FEF7F6FC04F17C00FEF7F2FC04F1A000E7
:10193000FEF7EEFC204610BDF070020810B504461C
:1019400003F078FD094B204640F8203BFFF7CAFF23
:1019500004F15400FFF7C6FF04F18800FFF7C2FF4F
:1019600004F1BC00FFF7C8FF204610BD50A40208D8
:1019700010B5044603F05EFD014B2046236010BD08
:10198000E892020810B5044603F054FD014B2046CE
:10199000236010BD1071020810B5044603F04AFD23
:1019A000134B204640F8203BFFF7ECFF04F14800C2
:1019B000FFF7E8FF04F17000FFF7E4FF04F198007F
:1019C000FFF7E0FF04F1C000FFF7DCFF04F1E800DF
:1019D000FFF7D8FF04F58870FFF7D4FF04F59C707B
:1019E000FFF7D0FF04F5B070FFF7CCFF204610BD25
:1019F0004087020810B5044603F01CFD014B204649
:101A0000236010BD3071020810B5044603F012FDCA
:101A1000014B2046236010BD7071020810B50446CA
:101A200003F008FD054B204640F8303BFFF7ECFF84
:101A300004F15000FFF7E8FF204610BD5071020886
:101A400010B5044603F0F6FC014B2046236010BDA0
:101A500008A1020810B5044603F0ECFC054B204633
:101A600040F8203BFFF7D0FF04F14000FFF7CCFF28
:101A7000204610BD9071020810B5044603F0DAFC50
:101A8000014B2046236010BDE8A0020810B50446B3
:101A900003F0D0FC094B204640F8203BFEF71AFC2F
:101AA00004F13000FFF73EFD04F16000FFF7A0F9FC
:101AB00004F18C00FFF77AFD204610BDC0A002089B
:101AC00038B5044603F0B6FC604B204640F8203B96
