:020000040800F2
:10C0000000000120CD390508E1370508E3370508B0
:10C01000E5370508E7370508E9370508000000009F
:10C02000000000000000000000000000ED370508DF
:10C03000EB37050800000000EF370508F137050869
:10C04000F3370508F5370508F7370508F937050808
:10C05000FB370508FD370508FF37050801380508D7
:10C0600003380508053805080738050809380508A4
:10C070000B3805080D3805080F3805081138050874
:10C080001338050815380508173805081938050844
:10C090001D38050821380508233805082538050806
:10C0A00027380508293805082B3805082D380508D4
:10C0B0002F3805083138050845390508473905087E
:10C0C000493905084B3905084D3905084F39050828
:10C0D00051390508533905086139050863390508E0
:10C0E0006539050867390508693905086B39050898
:10C0F0006D3905086F390508713905087339050868
:10C100007539050877390508793905087B39050837
:10C110007D3905087F390508813905088339050807
:10C120008539050887390508893905088B390508D7
:10C1300044534F5F4150503A204761626F6E6174C3
:10C140006F72277320616C7465726E6174697665B5
:10C150002055493B416C7465722055493B476162EB
:10C160007269656C2056616C6B7920323031333BDB
:01C1700000CE
:020000040804EE
:10C0000020B10368197003680133036070472DE99C
:10C01000F041161E04460D4614DD002200E00132F8
:10C02000A95C0029FBD1B24203F00208B4BFC2EB05
:10C0300006060E46B8F1000F0CBF4FF020084FF077
:10C04000300801E04FF0200813F0010709D105E0A6
:10C0500020464146FFF7D4FF0137013E002EF7DCB2
:10C0600005E0002703E02046FFF7CAFF013715F877
:10C07000011B0029F7D105E020464146FFF7C0FF2C
:10C080000137013E002EF7DC3846BDE8F0812DE98E
:10C09000FF410A9F05460B9EDDF830C08E4651B920
:10C0A00030238DF804308DF805103A4601A9334647
:10C0B000FFF7ADFF3CE03BB10A2A07D1002905DAC2
:10C0C000C1F1000E012402E01C4600E0002404A996
:10C0D000002301F8013D0EE0BEFBF2F302FB13EE7C
:10C0E000BEF1090FC4BFACF13A0086440EF1300E28
:10C0F00001F801ED9E468846BEF1000FECD184B1F7
:10C100004FB116F0020F06D028462D21FFF778FF19
:10C11000013F012405E02D2301F1FF3801F8013C26
:10C120000024284641463A463346FFF770FF00197F
:10C1300004B0BDE8F0812DE9F0478AB006460D460F
:10C1400005920024DBE0252B40F0D38015F8013F59
:10C15000002B00F0D880252B00F0CB802D2B02D1B6
:10C1600001352C3B03E0002301E043F002032946A4
:10C1700015F8012B302AF8D0002702E00A2202FB32
:10C1800007070A780D46A2F130005FFA80FC013102
:10C19000BCF1090FF2D9732A09D1059A3046111D55
:10C1A000059111685C4A002908BF11469DE0642A88
:10C1B0000ED1059A01936123111D029300970591F9
:10C1C00030461168603B0A22FFF761FF241895E0B2
:10C1D000662A54D1059B073323F0070303F10802B5
:10C1E000D3E9000105921BF039FD002180461CF0C7
:10C1F00031F838B12D238DF8183008F100480DF1D1
:10C20000190A01E00DF1180A40461CF04BF8012311
:10C2100000E013460A225A439042FADA90FBF3F206
:10C2200002F1300103FB12000A2293FBF2F30AF839
:10C23000011B002BF2D124328AF80020002F08BF06
:10C240000327994640461CF02DF81BF011FE0146CD
:10C2500040461BF057FD31491BF05EFE80461CF046
:10C2600021F809F101093030B9450AF8010FE9DB7D
:10C2700000228AF80120304606A9202336E0782AD9
:10C280000AD1059A01936123111D0097029305912C
:10C2900030461168102219E0582A0BD1059A0193F3
:10C2A0004123111D02930097059130461168413BCF
:10C2B000102289E7752A0BD1059A01936123111D7C
:10C2C000009702930591304611680A22613B7BE793
:10C2D000632A13D1059A3046111D126805918DF815
:10C2E000242000228DF8252009A93A46FFF78FFE69
:10C2F0006CE730462978FFF783FE013401352B784F
:10C30000002B7FF420AF16B1336800221A7020464C
:10C310000AB0BDE8F08700BF80B7060800002041E2
:10C32000014BD86C80B2704700240140014B186863
:10C33000704700BFFCA7002001461420B7F786BF56
:10C34000034B18801A8892B2002AFBD1704700BFB5
:10C3500008A80020044B10B5196804460320B7F75D
:10C3600075FF024B1C8010BD003000200AA8002081
:10C3700030B5002308E00A24B0FBF4F104FB1100FF
:10C380003030D054013388B2084A0028F3D1D05459
:10C390005910013BD31804E0145C5D7815545C70AF
:10C3A0000130013B8842F7DB004830BDB03200204D
:10C3B00008B506200021B7F74DFF5A234343A3F5E4
:10C3C0008223A3F56B6340F2145093FBF0F00A3024
:10C3D0006428A8BF642020EAE07008BD0128ACBF33
:10C3E000014601210220B7F731BF00EBD070024BAC
:10C3F00040101860704700BF00300020052806D8A4
:10C40000034B53F8200010B1043007F097B9704780
:10C4100090A80608052898BF094B10B59ABF03EBF2
:10C4200080008369002303F548721846054953F8D4
:10C43000044B8C4202D09342F7D1002010BD00BFC4
:10C4400090A8060844534F5FC0B2B7F7FFBE47F24B
:10C450006623984201D1B7F7EDBEC0B2B7F7FABE76
:10C4600043680A6823F4702323F4807313430A7922
:10C4700010B543EA022343608A68CB6884681A4394
:10C48000094B04EA030342EA03034A7943EA4203FD
:10C4900083600B7CC26A013B22F47002DBB242EA89
:10C4A0000353C36210BD00BFFDF7F1FF002303601B
:10C4B000037143718360C36001330374704719B122
:10C4C000836843F0010302E0836823F00103836083
:10C4D000704719B1836843F4807302E0836823F4E2
:10C4E000807383607047C9B212B14368194302E098
:10C4F000436823EA010141607047836843F0080301
:10C50000836070478068C0F3C0007047836843F061
:10C510000403836070478068C0F38000704719B1DE
:10C52000836843F4A00302E0836823F4A0038360DC
:10C5300070478068C0F3805070474368013923F426
:10C54000604343EA41334360704719B1436843F4A1
:10C55000006302E0436823F40063436070470929E5
:10C5600070B54FEA41040BD964181E3C0725A5405D
:10C57000A340C66826EA050545EA0304C4600AE04C
:10C5800064180725A54013FA04F4066926EA050590
:10C5900045EA04030361062A0CD8013A02EB820241
:10C5A0001F2393409140446B24EA030343EA0102B2
:10C5B000426370BD0C2A4FEA82030BD89A18233AC3
:10C5C0001F2393409140046B24EA030343EA0102D2
:10C5D000026370BD9A18413A1F2393409140C46A88
:10C5E00024EA030343EA0102C26270BD19B1836801
:10C5F00043F4801302E0836823F480138360704760
:10C60000C06C80B27047014B186870474C240140E1
:10C6100019B1436843F4806302E0436823F4806304
:10C620004360704719B1436843F4805302E04368A4
:10C6300023F4805343607047836823F4E04341EA66
:10C6400003038360704719B1836843F4004302E039
:10C65000836823F400438360704719B1836843F40F
:10C66000021302E0836823F402138360704780683A
:10C67000C0F340507047092970B54FEA41040BD907
:10C6800064181E3C0725A540A340C66826EA050598
:10C6900045EA0304C4600AE064180725A54013FABC
:10C6A00004F4066926EA050545EA04030361836B81
:10C6B00003F440146FEA145412190332D2B202EB9D
:10C6C00082021F249440914023EA04030B438363B6
:10C6D00070BD836B013923F4401343EA0153836334
:10C6E000704782B00A5002B0704782B00190283083
:10C6F000405880B202B07047436823F4400323F4EB
:10C70000007341EA030343607047416282627047ED
:10C71000436823F01F0341EA030343607047054B5E
:10C7200018B19A6842F4000202E09A6822F400020A
:10C730009A60704700240140036819420CBF002032
:10C7400001207047C943016070474368006810EAE0
:10C75000112004D0C9B219420CBF0020012070473B
:10C760006FEA112101607047044B11B1DA68104380
:10C7700002E0DA6822EA0000D86070470010024048
:10C7800007B5124B019098420DD0114B984212D030
:10C79000104B984219D14FF400700121FFF7E4FFCC
:10C7A0004FF400700EE04FF480600121FFF7DCFFD2
:10C7B0004FF4806006E04FF400400121FFF7D4FF02
:10C7C0004FF400400021FFF7CFFF0EBD00280140CD
:10C7D000003C014000240140044B11B15A69104350
:10C7E00002E05A6922EA00005861704700100240D6
:10C7F000044B11B19A69104302E09A6922EA0000E1
:10C80000986170470010024008B50120FFF787FFCC
:10C8100010210A4801220523FFF7A1FE0120FFF79E
:10C820008FFD06480121FFF77AFE02210348FFF73A
:10C8300083FF0128F9D1FFF773FD08BD00240140F3
:10C8400008B50120FFF76BFF11210A4801220523DB
:10C85000FFF785FE0120FFF773FD06480121FFF772
:10C860005EFE02210348FFF767FF0128F9D1FFF7B9
:10C8700057FD08BD00240140024B0E2202FB003090
:10C88000704700BFC0A80608034B18801A8892B2F0
:10C89000002AFBD1704700BF08A80020044A4FF4CB
:10C8A000805313604FF0C0421080024A13607047FB
:10C8B000141401401014014010B5EF20FFF7EEFFF3
:10C8C0004FF0C0431A881C8818881A881988C3B288
:10C8D000C9B241EA046141EA0343120643EA124243
:10C8E000014B9A6010BD00BFB0320020054B4FF4E1
:10C8F00080521A604FF0C0431880034802601980CC
:10C90000704700BF14140140101401402DE9F0419C
:10C91000E9204FF0C044FFF7C1FF20222280112000
:10C92000FFF7BCFF6420FFF7AFFFD120FFF7B6FF92
:10C93000002517225E232580D02023802280FFF748
:10C94000ADFF0C2607232380362023804FF04008BC
:10C950002680FFF7A3FF3046A4F800804936FFF792
:10C960009DFF26803A20FFF799FF2680C120FFF720
:10C9700095FF533E10232380C020238026802680ED
:10C98000FFF78CFF012735232580C52023802580D4
:10C99000258027802680FFF781FF2780D220FFF7A0
:10C9A0007DFF22232780C8202380FFF777FF732293
:10C9B000372327802280238004220F232580238091
:10C9C000268022806722A4F8008022802580802291
:10C9D0002680238008232380292022802580FFF7BA
:10C9E0005DFF2C20BDE8F04158E7002008B5014666
:10C9F000FFF77CFF00200146FFF778FF002001468B
:10CA0000FFF774FF00200146FFF770FF0A20FFF7D1
:10CA10003BFF01214FF4C060FFF768FF0A20FFF7DA
:10CA200033FF40214FF4DE60FFF760FF0A20FFF77D
:10CA30002BFF4FF480604FF4C441FFF757FF0820ED
:10CA400040F60801FFF752FF01204FF48071FFF715
:10CA50004DFF02204FF48071FFF748FF0320302183
:10CA6000FFF744FF09200121FFF740FF0C200021C0
:10CA7000FFF73CFF90204FF40041FFF737FF0F20F6
:10CA80000021FFF733FF10201621FFF72FFF1120A1
:10CA900040F20111FFF72AFF12200021FFF726FFC5
:10CAA00013200121FFF722FF4FF480704FF44C71E7
:10CAB000FFF71CFF40F2011040F23721FFF716FF8D
:10CAC00040F203104FF47061FFF710FF4FF4207035
:10CAD0004FF4D641FFF70AFF4CF2B0114FF48170CA
:10CAE000FFF704FF6420FFF7CFFE4FF440704FF4D0
:10CAF0004061FFF7FBFE40F2013045F60B21FFF7E6
:10CB0000F5FE40F2023040F60611FFF7EFFE40F26C
:10CB1000033041F21701FFF7E9FE4FF441704FF483
:10CB20000C51FFF7E3FE40F205304FF4B851FFF728
:10CB3000DDFE40F2063046F20931FFF7D7FE40F243
:10CB4000073040F60941FFF7D1FE4FF4427041F241
:10CB50000C01FFF7CBFE40F2093042F23221FFF721
:10CB6000C5FE4FF404700021FFF7C0FE40F2112013
:10CB7000EF21FFF7BBFE40F212200021FFF7B6FEC7
:10CB800040F2132040F28F11FFF7B0FE4FF4A06087
:10CB90000021FFF7ABFE40F201500021FFF7A6FE97
:10CBA00040F202500521FFF7A1FE40F201400121B1
:10CBB000FFF79CFE002140F20440FFF797FE64203F
:10CBC000FFF762FE4FF480710720FFF78FFE6420AD
:10CBD000FFF75AFE4FF400700021FFF787FE002197
:10CBE00040F20120FFF782FE054A4FF480531360A4
:10CBF00040F202214FF0C0421180024A136008BD8A
:10CC0000141401401014014070B5104C4FF48053BF
:10CC10004FF40065236001202560FFF735FE0C4BC3
:10CC20000A201D60FFF730FE32202560FFF72CFE42
:10CC3000FFF742FE074B9A68074B9A4202D1BDE8C4
:10CC4000704063E6BDE87040CFE600BF10140140BD
:10CC500014140140B0320020279304020B4B10B58E
:10CC60009A680B4B4FF0C0449A4209D12E20FFF72F
:10CC700015FE238824882C20A4B2FFF70FFE02E0C3
:10CC800023882488A4B2204610BD00BFB032002003
:10CC9000279304020EB403B503AA52F8041B0190B3
:10CCA00001A80092FFF747FABDE80C4003B07047B7
:10CCB000AAE713B502AC24F8020D00200146B7F72D
:10CCC000A5FA20464BF68031B7F7AEFAB7F7A8FAC7
:10CCD00020464BF68031B7F7A7FAB7F7A1FA1CBD8B
:10CCE000C1F1EF0110B580B289B21446B7F78EFAE0
:10CCF0002046BDE81040B7F78BBAC1F1EF0110B57F
:10CD000080B289B2B7F782FABDE81040B7F7ACBA83
:10CD100038B5151A5C1A6C434BF67F35AC4280B2BD
:10CD200002F1FF35C3F1F0020FD9C1F1EF0392B266
:10CD3000A9B29BB26508B7F771FA04A8A9B2B7F710
:10CD400073FA641BB7F76CFA06E0C1F1EF0392B215
:10CD5000A9B29BB2B7F762FA04A8A1B2B7F764FA16
:10CD6000B7F75EFA002040F28F110246EF23B7F7C3
:10CD700055FA38BD37B50D46B0F9021004464B1CC4
:10CD8000B0F90000B4F904200095FFF7C1FFB4F931
:10CD90000630B4F90000591EB4F904200095FFF7DD
:10CDA000B7FFB4F90000B4F90210421CB4F9063020
:10CDB0000095FFF7ADFFB4F90420B4F90210B4F9FF
:10CDC0000630501E0095FFF7A3FF3EBD2DE9F14F41
:10CDD0000A9C1E460B9B88461746511E04EB4309CE
:10CDE000C6F1F002C8F1EF03054689B280B292B2F3
:10CDF0009BB2B7F713FAA2460CE03AF8020BB7F76A
:10CE000007FACA4508BFA2460BF1010BBB45F4DB8C
:10CE100008F10108B04501DAAB46F7E7002040F21F
:10CE20008F110246EF2301B0BDE8F04FB7F7F6B916
:10CE30002DE9F843B0F80080044689461FFA88F7C8
:10CE4000002614E0B4F9065009E0C5F1EF013846B8
:10CE500089B2B7F7DBF9FFF701FF29F8020BB4F944
:10CE60000230013D9D42F0DA01370136BFB20FFAC0
:10CE700088F2B4F90430B2189A42E3DBBDE8F883D3
:10CE80002DE9F047C28843880D468188C2F1F0023F
:10CE90000139C3F1EF03044689B2008892B29BB214
:10CEA000B7F7BCF90026B4F8028010E0B4F800909F
:10CEB000002703E035F8020BB7F7AAF90FFA89F259
:10CEC000B4F90430BA1801379A42F3DB01360FFA8D
:10CED00088F2B4F90630B2189A42E7DB002040F23B
:10CEE0008F110246EF23BDE8F047B7F797B913B5A6
:10CEF0000346B3F90240B3F90420B0F90000B3F9D6
:10CF0000063000912146FFF703FF1CBD0268034B6A
:10CF1000DA6042681A6102685A617047B0320020D4
:10CF200010B50B4C0246B4F91610B4F91400FFF713
:10CF3000D7FEA38AB4F910200133A3821BB29A4210
:10CF400004DCA389A382E38A0133E38210BD00BF1E
:10CF5000B032002070472DE9F74F99460C9B0191A4
:10CF6000924613F801BB054600241DE018F8013B6A
:10CF7000FBB113F0040F4FF61E0305D09A450AD0FB
:10CF800028463146524604E0994504D028463146A9
:10CF90004A46FFF7A5FE013701365F454346E5DB0C
:10CFA00001340135502C03D0019E98460027F4E748
:10CFB00008242046BDE8FE8F2DE9F0411E460F46AD
:10CFC000B6B2C7F1F00714460546B7F72FF9B91BFB
:10CFD000A8B289B2B7F71AF920463146B7F722F955
:10CFE000BDE8F041B7F71CB930F0030309D131F0C7
:10CFF000030208D140EA81000449091891F8300E73
:10D000007047002070471846704700BF90A8060878
:10D010002DE9F04F85B004469A469DF839009DF8F9
:10D0200038300D4616469DF83AB0029003932746D5
:10D0300045E0C5EB0A01701E0139C01B3B1BC8EB64
:10D0400001019842A8BF18464145A8BF4146FFF7D5
:10D05000CBFF68BBC9F1EF0189B2B8B2B7F7D6F818
:10D06000B7F702F91A4BC10001F0FF01C208000A2C
:10D0700000EA0303C1EB0B000190DDF808C0039840
:10D0800002F0FC02C2EB0C0EC3EB000C03EB6C03D2
:10D09000DDF804C0DB1001EB6C00C01040EAC323D4
:10D0A00002EB6E00801043EA401080B2B7F7B0F890
:10D0B00009F1010908F10108D145BADB0137B7428E
:10D0C00003DAA9464FF00008F6E705B0BDE8F08F97
:10D0D000F8FF07002DE9F74F06468A4615461C461D
:10D0E000BDF830B088462DE00AF10303984509D118
:10D0F000E71E414630462A463B46CDF800B0FFF7D2
:10D1000007FEB846B146002718E0A81B0138611E8B
:10D11000C01BC8EB0101CAEB0803B842A8BF3846E0
:10D120009942A8BF1946FFF75FFF20B9484641461C
:10D130005A46FFF7D5FD09F101090137A945E4DB9E
:10D1400008F10108A045CFDBBDE8FE8F13B503460B
:10D15000B3F90240B3F90420B0F90000B3F9063086
:10D1600000912146FFF7B6FF1CBD2DE9F74F019056
:10D170009DF830001F460D469246FFF77DFB4FF6A7
:10D180001E039F4283461DD100241BF80480019F8B
:10D190006FEA08085FFA88F8082618F0800F04D0B4
:10D1A000384661195246FFF79BFD013EF6B2013742
:10D1B00026B14FEA48085FFA88F8EEE701340E2CF2
:10D1C000E3D145E09A451FD100241BF80490DDF817
:10D1D00004806FEA09095FFA89F9082619F0800FBF
:10D1E00004D1404661193A46FFF77AFD013EF6B296
:10D1F00008F1010826B14FEA49095FFA89F9EDE71C
:10D2000001340E2CE1D123E000241BF80490019E90
:10D210006FEA09095FFA89F94FF0080819F0800FE1
:10D2200008F1FF38304614BF52463A4629465FFAA5
:10D2300088F8FFF755FD0136B8F1000F04D04FEA2A
:10D2400049095FFA89F9E9E7013401350E2CDCD18F
:10D250000820BDE8FE8F2DE9F7430A9F05460E46DC
:10D2600091469846AFB1387818B913E00A2B02D12D
:10D2700010362C4607E00093204631464A46434686
:10D28000FFF773FF241817F8013B002BEED1601B4A
:10D2900000E03846BDE8FE83DDE72DE9F043A5B0A8
:10D2A00015462CAA0E4652F8041B07460DF1080835
:10D2B00023A899462292CDF88C80FEF73CFF314698
:10D2C00004462A4638464B46CDF80080FFF7E4FF77
:10D2D000204625B0BDE8F08337B5124B05460C4615
:10D2E000009330211F2328204FF6FF72FFF7D4FF51
:10D2F00020211F234FF6FF7228200095FFF7CCFF57
:10D30000A0B2FFF735F8102100904FF6FF722820E9
:10D310001F23FFF7C1FF4FF47A7003B0BDE8304020
:10D32000FFF70EB887B7060808B502480421FFF7D3
:10D33000D3FFFEE799B706080FB430B5A5B028AA09
:10D3400052F8041B02AC23A823942292FEF7F3FEAA
:10D3500023941EE00A2B134C03D0A569B5F5C47FB6
:10D3600009DBE26900230E32E02AA361E2610DDDF0
:10D370000C4AD3610AE000932846E1694FF6FF7238
:10D380004FF43043FFF7F1FE4019A061239B0133B6
:10D390002393239B1B78002BDCD125B0BDE83040C4
:10D3A00004B07047B03200202DE9F74FC0EB020BFC
:10D3B0005F1A1FFA8BFBBFB20FFA8BFA0FFA87F8CE
:10D3C0004FEADB3BFF0BBDF83090BAF1000FD4BF42
:10D3D000CBF1000BCBF1010BB8F1000FD4BF7F42B2
:10D3E000C7F10107BAF1000FB8BFCAF1000AB8F1DE
:10D3F000000FB8BFC8F100084FEA4A0A4FEA4808D0
:10D4000000921FFA8AFA1FFA88F84A4601930446E6
:10D410000D460FFA8AF6FFF763FC0FFA88F39E4277
:10D4200020DB1FFA88F8A8EB6606B6B216E016F401
:10D43000004F09D11EB94FFA8BF3002B04DD7BB2EC
:10D44000CAEB0606ED18B6B24FFA8BF3E418464461
:10D45000204629464A46B6B2FFF742FC009B9C4252
:10D46000E5D11EE01FFA8AFAAAEB6306B6B215E010
:10D4700016F4004F09D116B97BB2002B05DD4FFA27
:10D480008BF3C8EB0606E418B6B27BB2ED1856442F
:10D49000204629464A46B6B2FFF722FC019B9D4230
:10D4A000E6D1BDE8FE8F0020FFF7E6B908B5002100
:10D4B0000420B6F7CFFEC3439BB2C3F3802013F41E
:10D4C000006F1CBF40F0020080B213F4805F18BFF1
:10D4D00040F4807013F0080F18BF40F0040013F4FC
:10D4E000004F18BF40F0080013F0400F18BF40F481
:10D4F000007013F4804F18BF40F0100013F4005F69
:10D5000018BF40F0200013F4807F18BF40F04000A7
:10D5100013F4007F18BF40F0800008BD07B50B2052
:10D520000021B6F797FE40B9074B303000931E211B
:10D530001F224FF6FF73FFF78EFE1420002103B069
:10D540005DF804EBB6F782BEBFB70608024B014692
:10D5500018712420B6F77ABE00300020014B1879EC
:10D56000704700BF0030002070B50CE09C1804EB41
:10D57000D474641050F8246025468E4201D2621C97
:10D5800001E004D9631E9342F0DA4FF0FF352846DC
:10D5900070BD2DE9F84F204C07460E4615469846BB
:10D5A0000022152304F564600C99FFF7DDFFB0F14C
:10D5B000FF3F9DF82890BDF82CA083462AD00C9AF6
:10D5C000164B05209A600021B6F740FE0920394627
:10D5D000B6F73CFE0A203146B6F738FE0020294651
:10D5E000B6F734FE0B204146B6F730FE0C20494614
:10D5F000B6F72CFE04EB4B0401205146B6F726FE8D
:10D600000720B4F8981EB6F721FE0820B4F8C41E0F
:10D61000B6F71CFEBDE8F88F90A806080030002081
:10D6200008B503200021B6F715FEC0B208BDB6F755
:10D6300001BE08B506200121B6F708FEFEF776FE0A
:10D64000014B186208BD00BFB03200202DE9F04147
:10D6500006460C462220314615461F46B6F7F6FD13
:10D6600021202146B6F7F2FD202047EAC501BDE89A
:10D67000F041B6F7EBBDB0F5805F70B503DD0A4849
:10D68000CA21FFF729FE094C04F580452668FFF7FB
:10D69000CEFF06F07F4620F07F4040EA060644F8C1
:10D6A000046BAC42F2D170BDD8B70608D43200206A
:10D6B0004FF480507047B0F5805F10B5044603D337
:10D6C0000348DB21FFF708FE024800EB840010BD91
:10D6D000D8B70608D432002010B500210220B6F7D2
:10D6E000B9FD00210120B6F7B5FD002100F00104CD
:10D6F0000320B6F7AFFD10F0010F18BF44F002048D
:10D70000204610BD08B5FEF711FE0B4B1B6AC01A70
:10D710001AF0AEFB09491AF0B3FC094B99681AF0EC
:10D72000AFFC08491AF0F8FB1AF0BCFDB0F5805FB9
:10D73000A8BF4FF4805008BDB032002000007A44EA
:10D74000003000200000F041034670B510200C4668
:10D7500019461546B6F77AFD11202146B6F776FD33
:10D7600012202946BDE87040B6F770BD094B10B5D0
:10D770001A68094C22F001021A60084A146043F248
:10D78000B0521A60064A116090601A6842F00102B5
:10D790001A6010BD44040240087400404C0402406A
:10D7A00048040240034B0121A3F83C0D03F55260ED
:10D7B0001C30DBE79865002001460D20B6F746BD1A
:10D7C00000487047D672002008B503460273002057
:10D7D000012A587305D11A4609480833B6F756FD91
:10D7E00006E0022A09D11A4605480833B6F74CFD6F
:10D7F000D0F1010038BF002008BD012008BD00BFE6
:10D80000D672002008B5034608461946B6F740FD13
:10D81000D0F1010038BF002008BD10B5044608460D
:10D820002146B6F737FD20B9637B013001336373BE
:10D8300010BD002010BD10B5037B0446022B10D193
:10D84000B1F1FF3F08BF417B224608BF49020748AC
:10D8500004F10803B6F720FD28B903232373013030
:10D8600010BD012010BD002010BD00BFD6720020E9
:10D87000024B034A93FBF0F31381704700A24A0462
:10D880000038014005E0054A118811F0800FFAD0F8
:10D89000938010F8013B002BF5D170470038014010
:10D8A0000F4B10489A6942F480429A610E4A40F246
:10D8B0007123138142F22C039381138823F4A46310
:10D8C00023F005031B041B0C1380084B5A6822F439
:10D8D0007F6242F40A625A604FF480621A61D1E7B3
:10D8E0000010024002B8060800380140000801405C
:10D8F00010B54FF4FA70FEF723FDFFF7D9F9FFF7E3
:10D900000DFEBDE81040CBE705F04ABF034B1A8877
:10D9100012F0800FFAD09880704700BF00380140A5
:10D920000E200021B6F796BC0D200021B6F792BC60
:10D930000F200021B6F78EBC10200021B6F78ABC5C
:10D94000B6F77CBC014B9868704700BFB03200202E
:10D950002DE9F0433F3189B0234B804687B28CB22A
:10D96000ADF1020213F8010C1978C0108910C00241
:10D97000490141185878043301EBD00122F8021F05
:10D980001A498B42EED11A4E3D4616F8013B08AAC1
:10D990001B0902EB430328460135214633F8202CAE
:10D9A000ADB208F1FF09FFF79BF94D4502DD013CDF
:10D9B000A4B23D4616F8013C08AA03F00F0302EB9F
:10D9C000430328460135214633F8202CADB2FFF73A
:10D9D00087F94D4502DD013CA4B23D46054B9E4210
:10D9E000D3D109B0BDE8F08337D8030877D803084E
:10D9F00076D8030876F803080020704700207047A7
:10DA00000020704700207047704700BF0368002B5C
:10DA100002DA0023036070478B42C8BF0160704781
:10DA2000014B1860704700BFD87400207047014B4D
:10DA300018687047D874002037B5FEF777FC294C7A
:10DA40002368B3F1FF3F08BF20602368C51AB5F50E
:10DA50007A7F0ED94FF47A72B5FBF2F502FB0533EB
:10DA600020490B6005F0CEFA00F53450036DED1837
:10DA70000565FFF71BFDADF8060000B9A08005F0B5
:10DA8000C1FA00F548500DF106015C3004F05CFC71
:10DA900005F0B8FA00F548505C300DF1060104F0CD
:10DAA0005BFCBDF80630ABB105F0ACFA0221BDF865
:10DAB000062009F037FEBDF80620A3889A4206D05A
:10DAC000094B1B681B7A13B93220FEF743FCBDF8E3
:10DAD0000630A38005F096FA0321002209F022FE09
:10DAE00001203EBD103000201CA8002010B5FFF71B
:10DAF000FFFE05F087FA09F044FB05F083FA0121E7
:10DB0000002209F00FFE15F059F915F011F914F083
:10DB10005FFFBDE81040FFF78CBD00BF08B503688C
:10DB200049421B6849B2984708BD0000014B18687C
:10DB3000704700BF00CC060870470120704743685B
:10DB4000826819688A181A60704743688268196881
:10DB50008A1A1A6070470820704783681B78CB18B0
:10DB600005D4027B9342CCBF0020012070470020E7
:10DB7000704783681A7801321A70704783681A7880
:10DB8000013A1A7070478368197070478368187873
:10DB9000704702207047182070470220704700200D
:10DBA000704700207047082070470000034B1B6837
:10DBB000586A0028B8BF0330801070471CA80020A6
:10DBC0000020704719207047034B1B68986A002893
:10DBD000B8BF0330801070471CA800200020704799
:10DBE0001920704770477047436882681B68CB18DC
:10DBF000934205DBC0688342CCBF00200120704700
:10DC00000020704743681A6801321A607047436801
:10DC10001A68013A1A607047024840F21F11FFF774
:10DC20005BBB00BFF0C5060808B503484FF48F7111
:10DC3000FFF752FB002008BDF0C50608024840F27D
:10DC40001D11FFF749BB00BFF0C5060802484FF49D
:10DC50008E71FFF741BB00BFF0C50608024840F2D5
:10DC60001B11FFF739BB00BFF0C5060808B5034814
:10DC700040F21911FFF730FB022008BDF0C506087D
:10DC800039B9042A05D146F26742934201D108F01E
:10DC900049BE704739B9042A05D146F2674293421A
:10DCA00001D108F03FBE704739B9042A05D146F2C8
:10DCB0006742934201D108F035BE7047C36A70B520
:10DCC00004460D461BB916484E21FFF705FB15F01B
:10DCD000010F07D0E36A9A7922B1013A9A7120467E
:10DCE00008F020FE15F0020F08D0E36A9A790B2A9B
:10DCF00004D801329A71204608F014FE15F0100F76
:10DD000008D0E168E36A204646F66352BDE87040F9
:10DD100008F00FBE20462946BDE8704008F07FBEDF
:10DD20000AC6060811F0100F70B505460C4605D05E
:10DD3000C16846F66F52002308F0FBFD28462146D5
:10DD4000BDE8704008F06BBE11F0010F70B50446DD
:10DD50000D4615D0C06A012103685B689847012809
:10DD60000ED1E06A00210368DB689847204608F07E
:10DD7000D9FD2046E16847F27052002308F0D9FD32
:10DD800015F0020F15D0E06A012103681B6898475F
:10DD900001280ED1E06A002103689B68984720465D
:10DDA00008F0C0FD2046E16847F27052002308F0F9
:10DDB000C0FD15F0100F0ED0E06A0368DB699847CC
:10DDC000084B1B68984206D02046E16846F665423B
:10DDD000E36A08F0AEFD20462946BDE87040FFF733
:10DDE000A1BF00BF00CC060811F0010F70B50446BA
:10DDF0000D460DD0C36A002B0ADD013BC36208F05B
:10DE000091FD2046E16846F67512002308F091FD69
:10DE100015F0020F0ED0E36A132B0BDC0133E36223
:10DE2000204608F07FFD2046E16846F67512002383
:10DE300008F07FFD20462946BDE87040FFF772BF1D
:10DE400011F0010F70B504460D4615D0C06A0121CE
:10DE500003685B68984701280ED1E06A00210368D7
:10DE6000DB689847204608F05DFD2046E16847F2F0
:10DE70007052002308F05DFD15F0020F15D0E06A26
:10DE8000012103681B68984701280ED1E06A002130
:10DE900003689B689847204608F044FD2046E168E7
:10DEA00047F27052002308F044FD15F0100F0ED019
:10DEB000E06A0368DB699847084B1B68984206D004
:10DEC0002046E16846F66542E36A08F032FD2046E6
:10DED0002946BDE87040FFF725BF00BF00CC06080B
:10DEE00011F0010F70B504460D460DD0C36A012B29
:10DEF0000ADD013BC36208F015FD2046E16846F6E5
:10DF00007512002308F015FD15F0020F0ED0E36A1C
:10DF10001D2B0BDC0133E362204608F003FD204695
:10DF2000E16846F67512002308F003FD20462946F5
:10DF3000BDE87040FFF7F6BE11F0200F70B5054642
:10DF40000C4606D0C06846F278520146002308F01D
:10DF5000F0FC28462146BDE8704008F060BD000096
:10DF600011F0010F70B504460D4615D0006A01216D
:10DF700003685B68984701280ED1206A0021036876
:10DF8000DB689847204608F0CDFC2046E16847F260
:10DF90007052002308F0CDFC15F0020F15D0206A56
:10DFA000012103681B68984701280ED1206A0021CF
:10DFB00003689B689847204608F0B4FC2046E16857
:10DFC00047F27052002308F0B4FC15F0100F0ED089
:10DFD000206A0368DB699847084B1B68984206D0A3
:10DFE0002046E16846F66542236A08F0A2FC204616
:10DFF0002946BDE87040FFF79FBF00BF00CC060870
:10E0000011F0010F70B504460D4615D0C06A01210C
:10E0100003685B68984701280ED1E06A0021036815
:10E02000DB689847204608F07DFC2046E16846F60C
:10E030007512002308F07DFC15F0020F15D0E06A80
:10E04000012103681B68984701280ED1E06A00216E
:10E0500003689B689847204608F064FC2046E16806
:10E0600046F67512002308F064FC20462946BDE8F8
:10E07000704008F0D4BC0000C36A70B504460D4679
:10E080001BB91A482A21FFF727F915F0100F08D0FD
:10E09000E168E36A204646F66352BDE8704008F046
:10E0A00048BCE36A1A79043AD2B2012A17D815F0AB
:10E0B000010F08D0DA6812F1FE0F04DB013ADA60D2
:10E0C000204608F02FFC15F0020F08D0E36ADA684A
:10E0D000FE2A04DC0132DA60204608F023FC2046E8
:10E0E0002946BDE8704008F09ABC00BF35C6060856
:10E0F000C36A70B504460D461BB91D482221FFF7BF
:10E10000EBF815F0100F08D0E168E36A204646F6F8
:10E110006352BDE8704008F00CBC15F0010F0ED042
:10E12000E36A1A795AB1013A1A71204608F0FAFBEB
:10E130002046E16846F67512E36A08F0FAFB15F02E
:10E14000020F0FD0E36A1A790B2A0BD801321A7129
:10E15000204608F0E7FB2046E16846F67512E36AC0
:10E1600008F0E7FB20462946BDE8704008F057BCA0
:10E1700063C60608C36A70B504460D461BB9164847
:10E180004D21FFF7A9F815F0010F07D0E36A9A793E
:10E1900022B1013A9A71204608F0C4FB15F0020F33
:10E1A00008D0E36A9A79092A04D801329A71204684
:10E1B00008F0B8FB15F0100F08D0E168E36A2046BC
:10E1C00046F66352BDE8704008F0B3BB20462946CE
:10E1D000BDE8704008F023BC92C6060830B5028442
:10E1E00000250122456280F82820BDE8304008F073
:10E1F0005DBB00007FB5043302AC05460E4693E8D4
:10E20000030084E80300BDF80E30284604339BB2B7
:10E21000ADF80A300733ADF80E30044942F002027F
:10E220002346009608F042FB7FBD00BFB4C6060837
:10E230007FB5043302AC05460E4693E8030084E83C
:10E240000300BDF80E30284602339BB2ADF80A3009
:10E250000733ADF80E30044942F00202234600961F
:10E2600008F024FB7FBD00BFC0C6060830B5049D82
:10E27000028401224562BDE8304008F017BB2DE959
:10E28000FF410A9E0D4600214162028480F8283039
:10E2900004464FF01108304608FB03F808F0BEFAB8
:10E2A0005FFA88F802AF68B1304608F0B7FA043078
:10E2B00003C887E80300BDF80E3002339BB2ADF807
:10E2C0000A3006E0331D93E8030087E80300BDF839
:10E2D0000A30984420462946012202ABADF80E8050
:10E2E000009608F0E3FABDE8FF81FFF7C8BF000021
:10E2F0002DE9F041DDF81880044615461F460E460C
:10E3000021B9084840F21B21FEF7E6FF20462946C6
:10E310003A460223E662CDF81880BDE8F041FFF7E7
:10E32000AEBF00BFF0C50608DBB2FFF7A8BFFFF71E
:10E33000A6BF10B50A24C462BDE81040FFF79FBF16
:10E3400010B50A24C462BDE81040FFF798BFFFF77C
:10E3500096BF000073B5044616460D4619B9074826
:10E360000C21FEF7B9FFE5622046002146F20C328F
:10E3700002230096FFF783FF7CBD00BF35C6060869
:10E3800010B50524C462BDE81040FFF778BF13B58F
:10E3900003469C685B682478088853F82430B1F9F8
:10E3A000021000934FF6FF73002A14BF1A46002292
:10E3B0004FF61E03FEF74FFF1CBD00002DE9F34191
:10E3C000274DB0F906402B68B0F90460B3F84C2033
:10E3D000244B2146009330460023FEF73CFF2B6878
:10E3E000214F93F84A30214657F823308019009383
:10E3F0004FF6FF720023FEF72EFF2B6806F164082C
:10E40000B3F86020194B2146009340460023FEF7E5
:10E4100022FF2B68214693F85E30404457F82330A2
:10E420004FF6FF7200930023FEF715FF104BC8361E
:10E4300000932146002330464BF29652FEF70BFF25
:10E440002B68801993F898200A4B214653F8223004
:10E450004FF6FF7200930023FEF7FDFEBDE8FC813E
:10E460001CA800206B03070824CD060851040708E8
:10E47000CCC606088CCD060813B504300021FEF783
:10E4800036FD2D4B402100930420002348F210421A
:10E49000FEF7E1FE294B50210093294C0023042074
:10E4A00048F21042FEF7D7FE60210023082044F214
:10E4B00008220094FEF7CFFE224B70210093042027
:10E4C000002348F21042FEF7C6FE1F4B8021009346
:10E4D0000420002348F21042FEF7BDFE1B4B9021A2
:10E4E00000930420002348F21042FEF7B4FEB0214E
:10E4F0000023082044F208220094FEF7ACFE144BDF
:10E50000C0210093042048F210420023FEF7A3FE2E
:10E51000104BD02100930420002348F21042FEF754
:10E520009AFE0D4B04200093E02148F21042002394
:10E53000FEF791FE1CBD00BFD0C60608E1C6060866
:10E54000EEC6060817C706082EC706084AC70608FB
:10E550005BC706086EC7060886C70608F7B50E88AB
:10E56000154B083E4FF6FF75002A08BF0025B6B2CE
:10E570000C460746B1F902102A46009330464FF682
:10E580001E03FEF7E8FC7B683618B6B2B4F9021039
:10E59000009330462B464FF61E02FEF75CFE074BFB
:10E5A00030180093B4F902102A464FF61E0380B2C9
:10E5B000FEF7D1FCFEBD00BFBA1807082C190708EA
:10E5C00073B5044608F09EF9A688144B083E4FF632
:10E5D000FF75002808BF0025B6B2B4F906100093F5
:10E5E0002A4630464FF61E03FEF7B5FCE36936189F
:10E5F000B6B2B4F90610009330462B464FF61E0211
:10E60000FEF729FE064B30180093B4F906102A468F
:10E610004FF61E0380B2FEF79EFC7CBDBA180708B9
:10E620002C19070813B504464FF6FF710430FEF7A6
:10E630005EFCB4F90400B4F90A10054B08300093ED
:10E64000143900224FF61E03FEF705FE1CBD00BF65
:10E6500093C7060808B583681A78436853F8220000
:10E660001AF03EF9C3004FF6F87003EA000008BD47
:10E670007FB5436804460D46164623B9124840F25A
:10E68000CB21FEF729FE63681A68A36892FBF3F2B8
:10E690000A2392FBF3F103FB11220023ADF80C30A7
:10E6A000303204AB03F8042D4FF6FF720093B5F936
:10E6B0000000B5F90210002E08BF00224FF61E031D
:10E6C000FEF7EAFD7FBD00BFF0C5060870B50E4637
:10E6D00015461C4608F09BF82A460146234630465C
:10E6E000BDE8704008F025B911F0130F70B505466C
:10E6F0000C4607D008F08BF8022201462346284634
:10E7000008F017F928462146BDE8704008F087B99F
:10E7100011F0010F2DE9F04104460D4616D0006AB4
:10E72000012103685B68984780B1206A0021036873
:10E73000DB689847204608F06AF808F0F3F8E068CC
:10E7400047F27052C168002308F0F3F815F0020F89
:10E7500016D0206A012103681B68984780B1206A9F
:10E76000002103689B689847204608F050F808F09D
:10E77000D9F8E06847F27052C168002308F0D9F870
:10E7800015F00C0F0FD00C4E204629463768FFF7C6
:10E79000D3FB3368BB420CD0204608F038F8BDE804
:10E7A000F04108F0BFB820462946BDE8F041FFF728
:10E7B000C3BBBDE8F08100BF30A8002010B50C46F7
:10E7C00008F025F8036821465B68984710BD11F0F2
:10E7D000130F10B50C4606D008F019F8036821464F
:10E7E0005B68984710BDBDE8104008F018B90000FC
:10E7F00011F0030F10B507D0FFF702FC044B1868A7
:10E80000BDE8104006F016BCBDE81040FFF7F8BBAD
:10E810001CA8002011F0030F10B507D0FFF7F0FB84
:10E82000044B1868BDE8104006F004BCBDE8104079
:10E83000FFF7E6BB1CA8002011F0030F10B507D0AE
:10E84000FFF7DEFB044B1868BDE8104006F0F2BB92
:10E85000BDE81040FFF7D4BB1CA8002008B54368F2
:10E86000B3F9000007F0DEFC1AF03AF8C3004FF6E7
:10E87000F87003EA000008BD4368F7B54FF6FF766D
:10E8800004460D46002A08BF00261BB913489721ED
:10E89000FEF722FD6368B5F900701868A368984216
:10E8A00002DBE36898420ADD0D4BB5F902100093D4
:10E8B000384632464FF61E03FEF7CDFC0CE000B2A0
:10E8C000B5F9024007F0AEFC2146009032463846CA
:10E8D0004FF61E03FEF7E0FCFEBD00BFA0C7060812
:10E8E000BBC706082DE9F0471F4647F270539A420E
:10E8F00004460D4616463FD100F1380399423BD1FC
:10E90000436A93F80480A8F104095FFA89F9B9F120
:10E91000010F8CBF4FF000094FF00109B9F1000F52
:10E9200006D0A8F10503D3F1000848EB030801E085
:10E930004FF0010804F1A00A504608F0DCF88145C8
:10E9400006D04946504607F0FCFF4FF0010901E0B0
:10E950004FF0000904F16C0A504608F0CCF88045ED
:10E9600004D05046414607F0ECFF02E0B9F1000F39
:10E9700002D0204607F0D6FF2046294632463B46C5
:10E98000BDE8F047FFF7A2BEF7B543680E881C88C4
:10E99000083E134BB6B20D462246B1F9021030467E
:10E9A00000934FF61E03FEF7D6FA36182046B5F947
:10E9B000027007F07BFCB6B2009039462346304621
:10E9C0004FF61E02FEF768FC064B30180093B5F9AF
:10E9D000021022464FF61E0380B2FEF7BCFAFEBDBF
:10E9E000BA1807082C190708002280F8312008F00F
:10E9F000ADB944F644418A4201D108F0A7B944F6C2
:10EA000045418A4202D1012280F82020704744F615
:10EA100044439A4201D108F099B944F645439A42D9
:10EA200002D1642108F098B87047000070B5043036
:10EA300092B00021FEF75BFA01252824681EFDF73D
:10EA4000E9FC064658B1204B029000930420214671
:10EA500048F2104200230195FEF71FFC0AE01B4B11
:10EA6000042000932146334648F210420195FEF7F8
:10EA700014FC174E342205A8002119F0E1FC05AB67
:10EA800006F13002306871680836964203C3F9D146
:10EA90003188B27805AE19809A7030463B2119F062
:10EAA0004DFD08B1002303700420002304F1100180
:10EAB0004BF2965200960135FEF7EEFBB82C01D0D2
:10EAC0003034BBE712B070BDC5C70608EAC70608F8
:10EAD000BDC70608012118F007BA10B544F6444432
:10EAE000A24204D045F24834A24207D153B90023D0
:10EAF00080F83130BDE8104008F028B944F64544AC
:10EB0000A24200E0012B03D1012380F8303010BD78
:10EB100049B9042A07D146F2674293420CD1BDE8B5
:10EB2000104018F0E1B947F269439A4204D100213C
:10EB3000BDE8104017F0A3BF10BD000011F0100F8A
:10EB400070B5044617D007F064FE18B90A483D2195
:10EB5000FEF7C2FB204607F05AFE0546204607F0A6
:10EB600058FE0346DB692046294646F26452BDE85A
:10EB7000704007F0DEBE70BD0BC8060873B50D46C9
:10EB8000044613F06DFF15F0010F01902BD0002803
:10EB900029DD431F2E4E02A8642140F8043DFEF7F4
:10EBA00035FF33680198C3F8CC0013F067FF13F00A
:10EBB00057FF019B984205D03368D3F8C020013A33
:10EBC000C3F8C020336803F1C000D3F8BC10FEF7CF
:10EBD0001DFF204607F0A6FE2046E16846F67512A6
:10EBE000002307F0A6FE15F0020F2CD0019B632B2B
:10EBF00029DC053302A8164E642140F8043DFEF7D7
:10EC000005FF33680198C3F8CC0013F037FF13F009
:10EC100027FF019B984205D03368D3F8C02001320A
:10EC2000C3F8C020336803F1C000D3F8BC10FEF76E
:10EC3000EDFE204607F076FE2046E16846F67512A6
:10EC4000002307F076FE20462946FFF76BF87CBDCF
:10EC50001CA8002001804280704710B58380BDF859
:10EC6000083001804280C38010BD00007FB5DE23E4
:10EC700005460E461446009300211622D33B02A8F7
:10EC8000FFF7EBFF2846044944F0020202AB00966E
:10EC900007F00CFE7FBD00BF2EC806087FB5152308
:10ECA00005460E46144600930C21102202A84FF48C
:10ECB0009C73FFF7D2FF2846034944F0020202ABDF
:10ECC000009607F0F3FD7FBD42C806087FB5F0232C
:10ECD00005460E461446009300211022A03302A8D8
:10ECE000FFF7BBFF2846044944F0020202AB00963E
:10ECF00007F0DCFD7FBD00BF55C806087FB5F023D7
:10ED000005460E461446009300211022A03302A8A7
:10ED1000FFF7A3FF2846044944F0020202AB009625
:10ED200007F0C4FD7FBD00BF61C806087FB5F023B2
:10ED300005460E461446009300211022A03302A877
:10ED4000FFF78BFF2846044944F0020202AB00960D
:10ED500007F0ACFD7FBD00BF71C806087FB5F0238A
:10ED600005460E461446009300211022A03302A847
:10ED7000FFF773FF2846044944F0020202AB0096F5
:10ED800007F094FD7FBD00BF81C806087FB5F02362
:10ED900005460E4614460093002110224C3302A86B
:10EDA000FFF75BFF2846044944F0320202AB0096AD
:10EDB00007F07CFD7FBD00BF92C8060870B5F02348
:10EDC00088B004460E461546009300211022A03359
:10EDD00006A8FFF742FF20461A4945F0200206AB7D
:10EDE000009607F063FDB4F90A204FF49671009283
:10EDF0004FF4A573103A04A8FFF72FFF04F1400069
:10EE00001149012204AB009407F050FDB4F90A2027
:10EE10004FF4B47100924FF4C373103A02A8FFF795
:10EE20001CFF04F120000949012202AB009407F005
:10EE30003DFD00232366FEF73BFC0138606608B009
:10EE400070BD00BF9EC80608ABC80608B0C806085B
:10EE50007FB5F02305460E4614460093002110228C
:10EE6000A03302A8FFF7F9FE2846044944F0120235
:10EE700002AB009607F01AFD7FBD00BFB5C80608BB
:10EE80007FB5F02305460E4614460093002110225C
:10EE9000A03302A8FFF7E1FE28460349224602AB51
:10EEA000009607F003FD7FBDC5C80608B0F9042031
:10EEB000B0F90030D0184010704707B5B0F90030F5
:10EEC000B0F90410B0F90620C918B0F902304910A1
:10EED000D218521001A8FFF7BDFE019B00209AB284
:10EEE00062F30F001B0C63F31F400EBD10B50488C6
:10EEF000091901804188521842808288D31A838080
:10EF0000C288029BD31AC38010BD10B50488611A51
:10EF1000018041888A1A428082889B188380029AE5
:10EF2000C388D318C38010BDB0F90420B0F90030F5
:10EF3000D01A7047F0B587B004AC051D064695E8B9
:10EF4000030084E80300012100220B4620460092C2
:10EF5000FFF7DBFF204648F21041FDF7C8FF94E8B9
:10EF60000300184B02AF1B6887E803002846B3F87C
:10EF70009A40FFF7D9FFBDF80A3004FB00F20133D5
:10EF8000ADF80A3004F59674BDF80E304443013BE9
:10EF9000ADF80E30B388384603EB223203EB24344D
:10EFA000BDF81430ADF80C40ADF8082024B21AB208
:10EFB0009442C8BFADF80C300021FDF798FF07B0B0
:10EFC000F0BD00BF1CA8002073B5051D002104463C
:10EFD0002846FDF78CFF0F4B1B68B3F8AA60B3F807
:10EFE0009A30F61A36B2002E12DB2846FFF79CFF45
:10EFF00086420DDAB4F90400074B04380093B4F9E3
:10F000000610801946F20C324FF61E03FDF7A3FFDF
:10F010007CBD00BF1CA800202618070830B5051DC0
:10F0200085B0044600212846FDF761FF384B80215A
:10F0300000930420002348F21042FEF70CF9354BF0
:10F040008021009382230193A020823B4BF29652B1
:10F05000FEF723F9304B902100930420002348F25F
:10F060001042FEF7F8F82D4B90210093A0200023CA
:10F070004BF29652FEF7EFF8294BA02100930420A3
:10F08000002348F21042FEF7E6F8264BA02000933A
:10F09000014600234BF29652FEF7DDF8224BB021D9
:10F0A00000930420002348F21042FEF7D4F81F4BCF
:10F0B000B0210093A0204BF296520023FEF7CBF82C
:10F0C0001B4BC02100930420002348F21042FEF79E
:10F0D000C2F8184BC021009304230193013302931B
:10F0E000033B03934BF29652023BA020FEF7D5F868
:10F0F0002846FFF719FFB4F90610A0F5807000EB61
:10F10000D0704010183105B0BDE83040FEF720BC8B
:10F11000CFC80608E1C80608EDC80608F7C8060803
:10F12000FFC8060809C9060816C9060826C9060840
:10F130003BC906084DC90608F7B5061D002105465E
:10F140003046FDF7D4FE514B802148F21042009327
:10F1500004200023FEF77FF8FEF7E6FB8021002362
:10F1600000904BF29652A020FEF775F8484B902184
:10F1700048F21042009304200023FEF76CF8FEF7DB
:10F18000D7FB9021002300904BF29652A020FEF76F
:10F1900062F8404BA02148F2104200930420002363
:10F1A000FEF759F8FEF7C8FB0090A02000230146A7
:10F1B0004BF29652FEF74FF8374BB02148F210420F
:10F1C000009304200023FEF746F8FEF7A9FBB021C8
:10F1D00000234BF296520090A020FEF73CF8FEF779
:10F1E000B1FB2E4B0446009304200023C02148F2BB
:10F1F0001042FEF730F82A4B2A4F9C4204D02A4B8B
:10F200009C4203D064B114E0284B00E0284B0093EB
:10F21000A020C0214BF296520023FEF71CF811E00B
:10F22000244BA0200093C0214BF296522346FEF7B8
:10F2300012F8A020C0214BF29652002300970194AF
:10F24000FEF72BF81C4BD021009348F2104200230C
:10F250000420FEF700F8FEF773FBD02101904BF27B
:10F2600096520023A0200097FEF717F83046FFF7CC
:10F270005BFEB5F90610A0F5807000EBD070401071
:10F28000183103B0BDE8F040FEF762BB5AC906086A
:10F290006CC906087CC906088AC9060897C9060809
:10F2A00076676100BBC9060827930402A7C9060850
:10F2B000ABC90608B3C90608C0C90608B0F90620DC
:10F2C000B0F90230D01A70470388CB1803808388C6
:10F2D000C91843888180D3184380C388D218C2805C
:10F2E00070470023038043808380C3807047B0F958
:10F2F0000420B0F900309A42D4BF002001207047AA
:10F300002DE9F04F00F126068BB004463046FFF79A
:10F31000EEFF0546002847D108AF04F1040898E83D
:10F32000030087E8030001210A460B463846009196
:10F33000FFF7EBFD38464BF29651FDF71BFD2946D2
:10F340004046FDF7D4FD48F21042ADF81650ADF836
:10F350001850ADF81A50ADF81C50ADF814201935FE
:10F36000B4F90400B4F90A3005AA2818009205225D
:10F370000192043B421CB4F906101935FDF726FD35
:10F38000FA2DEDD1E13DB4F9061005AB69180093F3
:10F3900005230193B4F904004B1CB4F90820193576
:10F3A000FDF714FDC82DEED1236A002B00F0A780D5
:10F3B000251D2846FFF7B8FD80462846FFF77EFF4B
:10F3C000B4F90AA0323803902046AAF1190A07F0CE
:10F3D00099FA60B1216BA38C01FB08F198FBF3F261
:10F3E00002EBD27291FBF3F303EB620301E06FF0E7
:10F3F000130330460293FFF77AFF18B9E084A4F8AC
:10F400002A802BE0B4F90420B4F9263000259A4272
:10F41000A8BF1346E384B4F90820B4F92A300121C7
:10F420009A42B8BF134663852A460B46304600957C
:10F43000FFF75CFD30462946FDF759FD01213046B6
:10F440002A460B460095FFF760FDB4F90410B4F9A5
:10F450000620304649425242FFF736FF4FF000097E
:10F46000E58CCB4644E0A28C236A6A4392FBF8F217
:10F4700033F81270B7F5805F03D322485D21FDF7A2
:10F480002BFF039AB4F92630574344BF07F57E6734
:10F490001F373F13B4F90420BFB29D4208BFBB46DB
:10F4A000AA184FF6FF730093501EC7EB0A03CBEB6D
:10F4B0000A01FDF779FF029B9D4208BFB94603335D
:10F4C0009D4212D1B4F904000F4B626B0638AAF1C9
:10F4D000040100934019C9EB0101082A14BF162248
:10F4E0001F224FF61E03FDF736FD0135ADB2BB46B8
:10F4F000B4F92A309D42B6DB3046FFF7F2FE0BB07E
:10F50000BDE8F08FCFC906085422070813B504469A
:10F51000B4F90220B0F90000B4F9063000911146A8
:10F5200000F10C02FDF7D6FDB4F90000B4F90210A9
:10F53000B4F90420B4F9063008304BF29654009424
:10F54000FDF7E6FB1CBD37B50446B4F90250B0F92F
:10F550000000B4F90420B4F90630023800912946BD
:10F56000FDF7B8FDB4F90000B4F90210B4F90420B5
:10F57000B4F9063006304FF6FF740131013A013B11
:10F580000094FDF7A7FD3EBD07B50346B0F90000A6
:10F590000022B3F90210B3F90630009200F108021C
:10F5A000FDF7B6FB0EBD37B50446B0F90000B4F95F
:10F5B0000210B4F90630002500F108020095FDF7AD
:10F5C000A7FBB4F90420B4F90210B4F90630101FF7
:10F5D0000095FDF79DFB3EBD436A37B504460BB170
:10F5E0001B880384204607F08DF9231D18B11846A7
:10F5F000FFF7D9FF02E01846FFF7C6FFA3882046B1
:10F600000433A38007F07EF90546218C201D5DB1EF
:10F61000FFF799FFE369B3B1B4F90400B4F9061038
:10F6200000930C3000220AE0FFF770FFE36953B14A
:10F63000B4F90400B4F9061000930C302A464FF6D2
:10F640001E03FDF708FEA388043BA3803EBD000017
:10F65000F0B5C669002585B00446C561FFF7BCFF5B
:10F66000E661231D02AE93E803002A4686E8030004
:10F670002B46304610210095FFF738FCE3692A46F7
:10F68000BDF90A100093BDF908004FF61E03FDF7FF
:10F69000E2FDBDF80A3020461033ADF80A3007F01D
:10F6A00031F90246002837D0BDF808701E4B083FDC
:10F6B000BFB2BDF90A102A46009338B24FF61E03B6
:10F6C000ADF80870FDF747FC3818ADF80800E06A9F
:10F6D00003685B699847BDF90A100746BDF9080041
:10F6E00001F10E033A180095FDF712FBE06A31466E
:10F6F000036801221B699847BDF80830BDF90A105C
:10F70000FF180A4B38B200932A464FF61E03ADF895
:10F710000870FDF720FC04E0E06A314603681B69CD
:10F72000984705B0F0BD00BFBA1807082C190708A4
:10F73000F0B5044685B0FFF74FFFB4F90450B4F9B3
:10F740000670E369103500932846394600224FF6CB
:10F750001E03FDF780FD204607F1100607F0D2F8E2
:10F7600000282ED0234B31460022009328464FF626
:10F770001E03FDF7F0FB4519E06A1E3703685B695D
:10F78000984732464319294602A80097FFF765FAC1
:10F79000002102A8FDF7ABFBE76A20463B681D6924
:10F7A00007F0B0F802A902463846A847124BBDF947
:10F7B0000C000093314600224FF61E03FDF7CBFBF1
:10F7C00015E0E06A1E3703685B69984729464319CC
:10F7D000324602A80097FFF740FAE66A20463368EF
:10F7E0001D6907F08FF802A902463046A84705B008
:10F7F000F0BD00BFBA1807082C190708FFF7ECBEC8
:10F8000013B50446FFF7E8FE084BB4F90400009373
:10F81000E36AB4F9061003EB830301931C30103143
:10F8200000224FF61E03FDF738FD1CBD79FB0608CC
:10F8300013B50446FFF7D0FE084BB4F9040000935B
:10F84000E36AB4F9061003EB830301931C30103113
:10F8500000224FF61E03FDF720FD1CBD79FB0608B4
:10F8600013B50446FFF7B8FE13F0FAF8B4F9043004
:10F87000B4F90610054A0190009203F11C00103102
:10F8800000224FF61E03FDF708FD1CBD79FB06089C
:10F8900073B50546FFF7A0FEEB6AB5F90440B5F96C
:10F8A00006601B690E340022009331464FF61E039A
:10F8B0002046FDF7D0FCEB6A31461A79114B00194E
:10F8C00053F82230002200934FF61E03FDF7C3FCCD
:10F8D000EB6A06F110011A79052A01D10A4A06E0FD
:10F8E000042A03D0094A00929B6802E0084A009269
:10F8F000DB680193204600224FF61E03FDF7CDFC86
:10F900007CBD00BFE0CF0608FBC9060879FB0608EE
:10F9100002CA0608C36AF7B51D79044648F21043C7
:10F92000002D0CBF1D460025FFF756FEB4F90470EC
:10F93000B4F906600C4B0E37009331462A46384620
:10F940004FF61E03FDF787FCE36A38461A79074B2A
:10F9500006F1100153F822302A4600934FF61E0399
:10F96000FDF779FCFEBD00BF06CA0608ACCF06084D
:10F970007FB50646FFF730FE0E4BF06A009318F095
:10F9800077FA0D4918F07CFB0C4918F0BDF917F017
:10F99000D7FEB6F90450B6F906401C351034CDE94F
:10F9A00002010022284621464FF61E03FDF775FC92
:10F9B0007FBD00BF10CA0608000020410AD7233CC3
:10F9C000F0B5044685B0FFF707FEB4F90450B4F96A
:10F9D0000670E369103500932846394600224FF639
:10F9E0001E03FDF738FC204607F1100606F08AFFDB
:10F9F00000282ED0234B31460022009328464FF694
:10FA00001E03FDF7A8FA4519E06A1E3703685B6913
:10FA1000984732464319294602A80097FFF71DF977
:10FA2000002102A8FDF763FAE76A20463B681D69DA
:10FA300006F068FF02A902463846A847124BBDF9F6
:10FA40000C000093314600224FF61E03FDF783FAA7
:10FA500015E0E06A1E3703685B6998472946431939
:10FA6000324602A80097FFF7F8F8E66A20463368A6
:10FA70001D6906F047FF02A902463046A84705B0B7
:10FA8000F0BD00BFBA1807082C19070873B5B0F904
:10FA90000420B0F906300E46B0F9021004464FF4C7
:10FAA000E045101F0431043204330095FDF712FBCA
:10FAB000B4F90630B4F90000B4F90420191F043079
:10FAC000043204330095FDF705FBB4F90000B4F9E6
:10FAD0000210B4F9063000F10C020096FDF7FAFAB4
:10FAE000B4F90000B4F90420B4F90210B4F90630F6
:10FAF0004BF296550830043A0095FDF709F9B4F930
:10FB00000420B4F90210B4F90630A2F108000095FF
:10FB1000FDF7E0FA7CBD73B5B0F90420B0F906300A
:10FB20000E46B0F9021004464FF4E045101F0431B0
:10FB3000043204330095FDF7CDFAB4F90630B4F978
:10FB40000000B4F90420191F043004320433009576
:10FB5000FDF7C0FAB4F90000B4F90210B4F90420BA
:10FB6000B4F906300096FDF7B5FA7CBD30B5024613
:10FB700085B00D460068516802AB022403C302A899
:10FB80000021FDF7E3FA2246234602A8214600940D
:10FB9000FFF7ACF902A82946FDF7D8FA02A82146DA
:10FBA0000E2223460094FFF7A1F902A84BF29651CA
:10FBB000FDF7CCFA05B030BD73B50446051D218CA8
:10FBC0002846FFF7D3FF2846FFF770F9E569064698
:10FBD000284618F085FEB4F90610C0B28000301A2D
:10FBE000023100224FF61E030095FDF734FB7CBD69
:10FBF000F0B589B0031D054604AC93E8030084E822
:10FC000003001846298CFFF7B1FF2046FFF74EF995
:10FC1000EE690746304618F063FEBDF91210C0B217
:10FC2000800002310022381A4FF61E030096FDF7BD
:10FC300012FB122104230A46009320460B46FFF7CD
:10FC400055F9686A18F04CFE07462046FFF735F96B
:10FC5000ADF80800C0F30F40ADF80A00029E204640
:10FC60000796FFF72AF9ADF80800C0F30F40ADF88A
:10FC70000A0002996B6AFF0036B2A6EB670606918E
:10FC8000091400933046073900224FF61E03FDF792
:10FC9000E2FA09B0F0BDF0B585B0031D044602AD2F
:10FCA00093E8030085E803001846218CFFF75EFF08
:10FCB0002846FFF7FBF8E6690746304618F010FEC5
:10FCC000BDF90A10C0B2800002310022381A4FF686
:10FCD0001E030096FDF7BFFA122104230093284665
:10FCE0000A460B46FFF702F9636ABDF90800BDF941
:10FCF0000A1000930430043100224FF61E03FDF772
:10FD0000AAFA05B0F0BD4BF29651FDF7F0B82DE917
:10FD1000F041012104460026FDF7F8F8D02514E053
:10FD2000EB10DA024FEAA50842EA4818204648EAF2
:10FD30000308FFF7F9F8074602E04046FDF7F0F840
:10FD4000013FFAD20D3DEDB201362046FFF7B6FA7B
:10FD50008642E5DBBDE8F041FDF7FCB810B504468E
:10FD600006F0D0FD231D20B91846BDE81040FFF76E
:10FD7000CABF1846BDE81040FFF7C9BF2DE9FF47CD
:10FD8000044606F0BFFD4FF6FF75002808BF0025AA
:10FD90002046FFF7E3FFE369B4F904002A46B4F90B
:10FDA0000610009304304FF61E03FDF754FA206A44
:10FDB00001210368B4F904805B6898478146206A92
:10FDC0000121036808F178071B689847B9F1010F12
:10FDD000064607D1244BB4F90610009308F17000D1
:10FDE0002A460AE0B9F1000F0BD11F4BB4F90610F7
:10FDF000009308F1700048F210424FF61E03FDF721
:10FE0000AAF8D4F820A0231D93E803000DF10809F7
:10FE1000DAF8003089E803002046D3F81080ADF806
:10FE20000870ADF80C7006F06DFD4946024650466C
:10FE3000C047206A03685B699847012E384405D1A2
:10FE40000A4BB4F9061000932A4606E04EB9074B58
:10FE5000B4F90610009348F210424FF61E03FDF766
:10FE60007AF8BDE8FF8700BFB0150708221607081B
:10FE700037B5054606F046FD4FF6FF74002808BF6B
:10FE800000242846FFF76AFFEB69B5F904000093E8
:10FE9000B5F90610043022464FF61E03FDF7DBF9D4
:10FEA0003EBD13B50446FFF759FFE369B4F90400FA
:10FEB0000093B4F90610043000224FF61E03FDF73C
:10FEC000CAF91CBDF0B585B0044606F01BFD4FF61F
:10FED000FF75002808BF0025204606F013FD90B1ED
:10FEE00002AB221D92E8030083E80300BDF808205E
:10FEF0001846083AADF80820BDF80C200832ADF8D5
:10FF00000C20FFF704FF204606F0FCFC58B1174B0D
:10FF1000B4F904000093B4F9061007382A464FF6E6
:10FF20001E03FDF718F8276A20463B681E6906F095
:10FF3000E9FC211D02463846B047206AA7880368BD
:10FF40005B6998470646204606F0DCFC58B1084B32
:10FF50003FB2781C0093B4F9061080192A464FF678
:10FF60001E03FCF7F8FF05B0F0BD00BFB015070891
:10FF70002216070838B54FF61F03994204460A4671
:10FF800007D0056961698068E3682818C918FCF71B
:10FF9000A7FE6269236912F0010F07D0591E0029DC
:10FFA00021610BDA01322361626138BDA069591CFD
:10FFB0008142216102DB01322361626138BD10B5EB
:10FFC00000231A46416811F8014B416004F07F019B
:10FFD0009140073214F0800F43EA0103F2D1184632
:10FFE00010BD38B54FF0FF3303600B780446472B44
:10FFF0000D461CD18B1C4360FFF7E1FFA06120463A
:020000040805ED
:10000000FFF7DDFFE0616B78422B10D1234604F14E
:10001000200061680A4612F8015B6260497801328B
:10002000626041EA05221A8402338342F1D138BD6D
:1000300003460068B0F1FF3F06D15A6812F8010B81
:1000400018605A60001170474FF0FF3200F00F0047
:100050001A60704770B50024064625463046FFF703
:10006000E7FFC0B200F00703AB40033510F0080F04
:1000700044EA0304F2D1204670BD00002DE9F843A4
:100080004FF0FF3303600133036143618769C36944
:1000900004468160C260D0F804805F4301262FE0EF
:1000A000AEB12046FFF7D6FF451C2046FFF7C0FF44
:1000B0000026814607E009F11003204634F81310AA
:1000C000FFF758FF0136AE42F5DB002612E020466E
:1000D000FFF7AEFF451C0AE02046FFF7A9FF00F13D
:1000E000100334F813102046FFF744FF0136AE42E8
:1000F000F2DB01267F1B03D504484821FDF7ECF80D
:10010000002FCDDCC4F80480BDE8F88316CA0608C9
:10011000074A08481168084B30B50468074DCB18EA
:1001200005FB04330131036058041160400C30BDFD
:100130006CA7002018300020F390240021F17D00EE
:100140004162704773B5044616460D4619B90C480E
:100150000D21FDF7C1F80B4B00211B682046B3F8B9
:100160004C300A462386E56202230096FEF787F8A4
:10017000204604F1300102B0BDE87040FFF7E0BF57
:100180000AC606081CA8002073B5054616460C468C
:1001900019B90A480C21FDF79FF8EC62284634F89B
:1001A000062F002102230096FEF769F82846214613
:1001B00002B0BDE87040FFF7C3BF00BF63C60608CA
:1001C00073B5044616460D4619B90C483F21FDF794
:1001D00083F80B4B00211B682046B3F84C300A46CD
:1001E0002386E56202230096FEF749F8204604F1D3
:1001F000300102B0BDE87040FFF7A2BF92C606080A
:100200001CA80020F7B5B0F90A40B0F90470B0F9A5
:100210000660B0F9085006F075FB4BF296524FF6A7
:10022000FF73002808BF13460F371036043D0093B4
:10023000384631462A462346FCF76AFDFEBD2DE9C5
:10024000F0410C46154698460026A75B1FB94FF6AD
:100250001F03A3530DE0FA08294602F0FC024046B2
:1002600006F07CF9FA0AA0530021D20006F076F9D4
:10027000A0530236202EE8D1BDE8F08110B592B02F
:10028000044606F03FFB231D218C70B11846FFF792
:1002900042FC616A21B302A8FFF7A3FE20460AA927
:1002A0004EF210424FF6FF730DE01846FFF7EEFBDB
:1002B000616AA9B102A8FFF794FE20460AA94EF28E
:1002C0001C724BF29653FFF7BAFF089BB4F9081063
:1002D000B4F90A20C91A099B02A8D21AFFF7CEFE68
:1002E000E369B4F904000093B4F906100C3000225D
:1002F0004FF61E03FCF7AFFF12B010BD41608260E5
:100300000373704708B50379012B09D002D3022B80
:100310000FD10AE08368188800F01F00400808BD6C
:1003200083681888C0F3C31008BD83681888000B61
:1003300008BD03484FF48271FCF7CEFF002008BDD2
:10034000A0C7060830B54FF6FF7585B00C46002AE9
:1003500008BF0025FFF7D6FF05F098FF00238DF8B2
:100360000D3003AB8DF80C000093B4F90000B4F924
:1003700002102A464FF61E03FCF78EFF05B030BD73
:10038000002908B50CDDFFF7BDFF0E288CBF00204B
:10039000012008BDFFF7B6FF003818BF012008BDD7
:1003A000F8DB002008BD00000379012B12D002D336
:1003B000022B2CD11DE08268138823F01F031B043D
:1003C0001B0C0F2902D04900C9B200E01F2141EAED
:1003D00003031AE08268138823F4FC631B041B0CDC
:1003E0000F2902D08900C9B200E03F2143EA41133E
:1003F0000BE0826813885B055B0D0F2902D0490072
:10040000C9B200E01F2143EAC123138070470248AC
:100410004FF48E71FCF760BFA0C7060810B5044604
:10042000FFF770FF30B1411EC9B22046BDE8104051
:10043000FFF7BABF10BD10B50446FFF763FF0E28E3
:1004400006D8411CC9B22046BDE81040FFF7ACBF3A
:1004500010BDC8684042704710B5044606F058FB0E
:10046000014B2046236010BD30B90608014B0360E4
:10047000704700BF78B9060810B50446FFF7F6FFCD
:10048000014B2046236010BD50B9060810B5044644
:10049000FFF7ECFF014B2046236010BD40BD06086E
:1004A00010B5044606F034FB014B2046236010BD16
:1004B000C0B9060810B50446FFF7F2FF014B20460D
:1004C000236010BDA0B9060810B50446FFF7E8FF89
:1004D000014B2046236010BD20BF0608C36A2DE9EA
:1004E000F0431F795B79A7F10102574247EB0207FE
:1004F00048F21048002F18BF4FF00008012B87B0BA
:10050000044608D002D3022B0FD109E03C4B1B68F4
:10051000B3F84C3008E03A4B1B68B3F8603003E0A6
:10052000374B1B68B3F8F2310386B4F90450B4F9C1
:1005300006600E3581B12046FFF74EF8E36A284683
:100540009A79304B314653F82230424600934FF6A9
:100550001E03FCF780FE02E02046FFF753FE002F4B
:100560004AD0E36A284A99799F6852F82140384670
:100570000021103617F06EFE68B1244B2846009318
:10058000424631464FF61E03FCF7E5FC07F10042F8
:100590004519174600E00635384617F0D1F80246EF
:1005A0000B4602A81A49FCF775FB05E006AA02EB08
:1005B0000903002203F8112C02AF384618F090F915
:1005C0008146204618F08CF948440728EED8284682
:1005D000314642464FF61E030097FCF75DFE5CB1C4
:1005E00023784BB104352818314644F208224FF6DF
:1005F0001E030094FCF72FFE07B0BDE8F08300BF98
:100600001CA80020C0CE0608F4CE0608FE2107086C
:100610002ECA06080121FFF761BF10B5044606F097
:1006200095FB2046BDE8104006F05ABBFFF7F5BF2A
:10063000FFF7F3BF38B5184B1C6894F8B430052B9E
:1006400011D1D4F8BC00013017F012FC0146134858
:1006500017F016FD0546D4F8B800013017F008FC75
:100660000146284612E0D4F8D050002D11DDD4F810
:10067000BC00013017F0FCFB0146094817F000FDF3
:100680000446284617F0F4FB0146204617F0F8FC14
:1006900038BD002038BD00BF1CA800204054894C44
:1006A00000BA5B4A37B50446FEF796FF2046FFF7CF
:1006B000C1FF17F0F7FD17F0DBFB0821B4F9045078
:1006C000B4F9064005F038FE1C3510340090214680
:1006D000284600224FF61E03FCF7DEFD3EBD00005B
:1006E000F8B5284B0D461C6894F8B460D4F8D07067
:1006F000052E1AD10846244917F0B6FD68B92846D8
:10070000224917F0B1FD50B92846214917F0ACFD38
:10071000002814BF1220012002E0F02000E0B420E5
:10072000431EC4F8B830012700E0142017F0A0FBE6
:10073000294617F0F1FB0546384617F099FB0146AC
:10074000284617F0E9FB0146124817F099FC17F00C
:10075000A9FD01380128ACBF03460123052E03D1B2
:100760000828ACBF03460823D4F8BC50D4F8CC000A
:100770005D1B18BF0125C4F8BC3012F07FF9284674
:10078000F8BD00BF1CA80020000020410000FA4472
:1007900000409C464054894C2DE9F04711F0010976
:1007A00004460D4603D111F0020F00F0DA80204616
:1007B000FFF740FF00210646012717F05FFD00B953
:1007C000002717F0FF0F03D168482321FCF784FDB1
:1007D0003046674917F048FDE8B93046654917F0DB
:1007E00043FDD8B93046644917F03EFDC0B93046E4
:1007F000624917F039FDA8B93046614917F034FD58
:1008000090B930465F4917F02FFD78B930465E4900
:1008100017F02AFD60B94FF07E570AE05B4F08E001
:10082000534F06E0534F04E0534F02E0534F00E0B4
:10083000534FB9F1000F11D03046394617F028FD5B
:1008400028B13046394617F05DFA804600E0B046E0
:100850004046002117F008FD10B903E0B04601E062
:100860004FF07E5815F0020F10D04046484917F05F
:10087000F1FC20B14046394617F046FA8046404622
:10088000002117F0F1FC08B14FF07E583946404680
:1008900017F0F6FB17F006FD17F0EAFA394617F0E5
:1008A0003BFB4FF07E51074617F0D4FC08B14FF0E8
:1008B0007E573846314617F0C3FC00284FD13946E1
:1008C0002046FFF70DFF80462046FFF7B3FE314676
:1008D0008246384617F0DCFC38B15046314617F0F6
:1008E000C3FC002818BF4FF000083846314617F007
:1008F000B1FC20B15046314617F0C0FC10B9B8F138
:10090000000F22D1234BB9F1000F07D01B68D3F899
:10091000BC10B1F5803F18DA013105E01B68D3F84F
:10092000BC10012911DD013993F8B420C3F8BC10C3
:10093000052A89B206D1B3F8B800B3F8C020FCF795
:1009400003FF02E00846FCF737FF204605F0EAFF08
:100950002046E16846F67512002305F0EAFF2046BE
:100960002946BDE8F047FDF7DDB900BF32CA0608E9
:100970000000C84200007A4400401C460050C347B3
:10098000002474498096184B20BCBE4C00002041C6
:100990008096984B1CA8002013B50B7802A89B18D2
:1009A0000C4640F8043DFF21FDF730F8019B237011
:1009B0001CBD00009D4B2DE9F0411B68044693F8D7
:1009C000B4300D46072B03D099487C21FCF784FCFA
:1009D00015F0020F29D0256B11F0FEFE0368013BD4
:1009E0009D4280F2208104F10408231D03CBC4F84A
:1009F0002600C4F82A104046FEF796FA256BA78C0D
:100A000005FB00F6E38C96FBF7F6023B9E19B6B2A7
:100A1000E6844046FEF788FA400090FBF7F704377B
:100A2000F61901356685256324E015F0010F26D0FF
:100A3000256B002D40F3F780013D271D231D03CBBF
:100A40002563C4F82600C4F82A103846FEF76CFA6D
:100A50004543A68CE38C95FBF6F5023B5D19ADB2E0
:100A6000E5843846FEF760FA400090FBF6F604365F
:100A7000AD1965852046BDE8F04105F053BF15F07E
:100A8000040F3AD0256B002D04DB11F0A5FE03689E
:100A90009D4203DB66489721FCF71EFC11F098FE8F
:100AA000216B626B41182046FFF776FF636B082BC2
:100AB00012D1256B11F090FE036801359D420BDACF
:100AC00011F086FE216B626B013102EBD27241188C
:100AD00052102046FFF760FF636B082B4FD1236B4A
:100AE000012B4CDD11F074FE216B626B013902EBBE
:100AF000D2724118521020463FE015F0080F74D012
:100B0000256B002D04DB11F067FE03689D4203DBBB
:100B10004748AD21FCF7E0FB11F05AFE216B626BF8
:100B2000411852422046FFF737FF636B082B13D161
:100B3000256B11F051FE036801359D420CDA11F06E
:100B400047FE626B216B02EBD272013152104118E9
:100B500052422046FFF720FF636B082B0FD1236B17
:100B6000012B0CDD11F034FE626B216B02EBD272B3
:100B700001395210411852422046FFF70DFF11F083
:100B800027FF261D231D03CBC4F82600C4F82A1016
:100B90003046FEF7C9F9276BE38C4743A58C013B30
:100BA00097FBF5F7DF19BFB2636B07F10A081FFA6D
:100BB00088F8082BE784A4F82A807FF45BAF3046DE
:100BC000FEF7B2F943005B4293FBF5F30137FF18E0
:100BD000E7843046FEF7A8F9400008F1FF3890FBA3
:100BE000F5F5A844A4F82A8044E715F0100F08D0C2
:100BF000636B2046082B14BF08230123636305F0B1
:100C000091FE15F0200F0ED0A36B1BB90848CA2126
:100C1000FCF762FBA16B204646F278520023BDE848
:100C2000F04105F086BEBDE8F08100BF1CA80020A1
:100C3000CFC906080023036043608360704710B586
:100C40000446FFF7F7FF204610BD836830B54568BE
:100C500003B985608368DC225343B83A02FB05334D
:100C6000002BB8BFFF331A128260046805B94460D4
:100C70004368DC256B43B83D05FB0433002BB8BF4C
:100C8000FF331B1243600CB90B0203600368DC24C2
:100C900063434FF4105404FB01310029B8BFFF3106
:100CA00009120160101EB8BFFF30001230BD0000F5
:100CB000F0B585B0FBF7A8FD0746FBF7C1FD644C16
:100CC0000646236813F0010F04D16248FFF7B7FF0F
:100CD0000123236039465F48FFF7B7FF5E4D0446A6
:100CE0007021F0204BF29652002300950197FCF7FB
:100CF000D4FA002C40D04BF2965200238021F020F1
:100D000001940095FCF7C9FAA4F50660193817F0AC
:100D1000AFF8524917F000F9514917F0B1F90146FF
:100D2000504816F0EFFF504B50490093044616F020
:100D3000EBFF16F005FD4BF29652CDE902010023C0
:100D40009021F020FCF7A9FA4949204617F0E4F871
:100D5000484B4FF08441009316F0D6FF434916F0FC
:100D6000D3FF16F0EDFC4BF29652CDE902010023C1
:100D7000F020A021FCF791FA3F4C236813F0010FFB
:100D800004D13E48FFF75BFF0123236031463B4817
:100D9000FFF75BFF3A4D0446C021F0204BF296521C
:100DA000002300950196FCF778FA0CB34BF29652AB
:100DB000D0210023F02000950194FCF76EFA314B0E
:100DC0002046009317F054F82F4917F0A5F82F4943
:100DD00017F056F9254916F097FF16F0B1FC4BF2C3
:100DE0009652CDE902010023F020E021FCF755FAEC
:100DF00000210620FBF72BFB002105460520FBF711
:100E000026FB234B04462846009317F031F821496E
:100E100017F082F816F094FC0023CDE902014BF2A2
:100E200096524021F020FCF738FA1B4B1B4AF02069
:100E3000002C0CBF14461C46194B502100934BF25A
:100E4000965200230194FCF728FA05B0F0BD00BFCC
:100E500048A700205CA70020CD440708CCCC9041D7
:100E60000000CA42CDCC4C4069CA06080AD7A33B51
:100E70006666E63F72CA06084CA7002050A700200D
:100E800019DE06087BCA0608333333400080DB4492
:100E900083CA06086F12833A62CA060866CA060841
:100EA0008ACA060810B5054C2368586AFBF796FAFB
:100EB0002368986ABDE81040FBF797BA1CA8002089
:100EC00010B5054C890023685962FFF7EBFF2068D5
:100ED000BDE8104004F0AEB81CA8002010B5074CC7
:100EE000890023689962FFF7DDFF6420FBF732FA7F
:100EF0002068BDE8104004F09DB800BF1CA8002089
:100F00002DE9FF41044605F0FDFC4BF29655B4F97E
:100F10000A204FF6FF73002818BF1D46B4F90410CD
:100F2000B4F90830101F083B0C3A0090123102A8A7
:100F3000FDF793FE02A844F20821FBF7D8FF022137
:100F40000A460B4602A80091FDF7D0FF02A8FDF764
:100F5000EBFF23688046DB692046984723680746F5
:100F60009B6A20469847236806465B6A2046984756
:100F7000A8F1100807FB08F7361ABDF8083097FBF0
:100F8000F6F7FF18BFB2ADF8087002A8103729466F
:100F9000ADF80C70FBF7ABFFBDE8FF81036870B5DF
:100FA000DB690E460446984716F0010F05460DD042
:100FB000236820465B6A9847854207DD2368204600
:100FC0001B6A691E98472046FFF79AFF16F0020F2A
:100FD0000DD0236820469B6A9847854207DA23682C
:100FE00020461B6A691C98472046FFF789FF204668
:100FF0003146BDE87040FCF795BE10B50446FEF7DB
:10100000EBFA2046BDE81040FFF77ABF014B1868A5
:101010002C3070471CA8002008B5FFF7F7FF0368C5
:10102000013B036008BD08B5FFF7F0FF036801331B
:10103000036008BD38B504460D46FFF7E7FF0068BA
:1010400063682D189D4205DBA0688542CCBF002057
:10105000012038BD002038BD41608260704700002B
:1010600010B5FFF7D3FF006838B100B205F0DAF829
:101070000349044617F03EFA00E0024C204610BD3A
:1010800095CA06088FCA060808B5FFF7E9FF17F0EA
:1010900027FCC3004FF6F87003EA000008BD73B5E3
:1010A0004FF6FF740E88002A08BF0024B1F90250E1
:1010B000FFF7D6FF29460090224630464FF61E0322
:1010C000FCF7C9F87CBD2DE9F04100F1300405467C
:1010D0000F461646204600210F22DDF81880FFF744
:1010E000BBFF284621463A463346CDF81880BDE876
:1010F000F041FDF7FDB800007FB50E46F0233C211E
:101100000446154600930A46283302A8FDF7A5FDBC
:1011100020462A4602AB1049009605F0C7FB04F1B1
:10112000200002230D4948F210420094FDF7DDF83B
:1011300004F14C0002230A4948F210420094FDF7E2
:10114000D4F804F17800074948F2104202230094D1
:10115000FFF7B9FF7FBD00BF9BCA060855E106082F
:1011600063E10608ACCA06080A4B73B51A6800F1B9
:10117000300405460E462046083201230649FFF793
:10118000BDF828462146054A48F210430096FDF76F
:10119000AFF87CBD1CA800206CD00608BFCA0608AA
:1011A0004160704710B504460AF07EFE63681B6814
:1011B000002B04DA094ADB4352F8230010BD0C224D
:1011C00002FB030002780AB9406810BD013B0C38ED
:1011D000B3F1FF3FF6D1002010BD00BF74D0060868
:1011E000436810B51C68002C06DB0AF05DFE0C237A
:1011F00003FB0404606810BD002010BD38B5044630
:10120000FFF7D0FF05462046FFF7EAFF04461DB171
:10121000284617F065FB05461CB1204617F060FB19
:1012200000E02046451904B10235ED004FF6F87094
:1012300005EA000038BD00002DE9F3414FF6FF76C6
:1012400007460C46002A08BF00260D88FFF7AAFFB4
:1012500080463846FFF7C4FF0746B8F1000F0BD0B1
:101260002846B4F9021032464FF61E03CDF800802E
:10127000FBF7F1FF2D18ADB2B7B10C4B0435ADB291
:10128000B4F902100093284632464FF61E03FBF7CE
:10129000E2FF04352818B4F9021080B232464FF646
:1012A0001E030097FBF7D7FFBDE8FC81CCCA0608F8
:1012B00038B50C4615460AF0F7FD2B1905D5124A2C
:1012C00013F1050FB8BF13461BE0002D4FF00C02C1
:1012D0000BDD631C02FB040402E00C348AB9013309
:1012E000227B022AF9D1084B0BE0631E02FB0404A7
:1012F00003E014F80C2D22B9013B002BF9DA4FF072
:10130000FF33184638BD00BF19FCFFFF10B5446815
:101310004FF0FF322168FFF7CBFF206010BD10B502
:10132000446801222168FFF7C3FF206010BD000060
:1013300008B543680A461968FFF7BAFF024BC01A9E
:1013400018BF012008BD00BF19FCFFFF07B50091C1
:1013500011461A4648F21043FCF7CAFF0EBD0000C2
:101360007FB51546F023282204460E4600933C2103
:101370009B1802A8FDF771FC2A4602AB214D2046BE
:101380002149009605F092FA04F120002146FFF76A
:10139000EBFE296804F1600630460C31FFF700FFD0
:1013A000324604F168002146184BFFF7CFFF296849
:1013B00004F1980630461031FFF7F2FE324604F190
:1013C000A0002146124BFFF7C1FF296804F1D006A7
:1013D00030461431FFF7E4FE324604F1D8002146CE
:1013E0000C4BFFF7B3FF296804F5847630461831BB
:1013F000FFF7D6FE04F5887021463246064BFFF70C
:10140000A5FF7FBD1CA80020CECA0608E2CA0608B8
:10141000F0CA060800CB06080ACB060810B5044639
:1014200005F076FB014B2046236010BDE8B80608A6
:1014300010B50446FFF7F2FF014B2046236010BDB4
:10144000F8BE060810B50446FFF710F8014B204619
:10145000236010BD40BF060810B50446FFF720F812
:10146000014B2046236010BD88BF060870B50546B5
:10147000FFF716F8064B2C4644F8203B05F1B00662
:1014800020462434FFF7E8FFB442F9D1284670BD66
:1014900068BF060810B50446FEF7E8FF014B20467A
:1014A000236010BDA8BF060810B50446FEF7D4FFA0
:1014B000214B204640F8243BFFF706F804F1440096
:1014C000FFF702F804F16400FEF7FEFF04F1840068
:1014D000FEF7FAFF04F1A400FFF7B4FF04F1B00037
:1014E000FFF7B0FF04F1BC00FFF7ACFF04F1C80048
:1014F000FFF7A8FF04F1D400FFF7B8FF04F5C270AE
:10150000FFF7A0FF04F5C870FFF79CFF04F5CE704D
:10151000FFF798FF04F5D470FFF794FF04F5DA7035
:10152000FFF7A4FF04F51970FFF7B4FF04F51B7073
:10153000FEF7C0FF204610BD18F7060810B5044698
:10154000FEF7AEFF014B2046236010BDD0BF06085A
:1015500010B50446FEF780FF2D4B204640F8643B53
:10156000FFF7ECFF04F18400FFF7E8FF04F1A400AB
:10157000FFF7E4FF04F1C400FEF7A6FF04F1E40066
:10158000FEF7A2FF04F58270FEF79EFF04F592704D
:10159000FEF79AFF04F5A270FEF796FF04F5B2700D
:1015A000FEF792FF04F5C270FEF766FF04F5CA70FD
:1015B000FEF780FF04F5DC70FEF75EFF04F5E470D3
:1015C000FEF778FF04F5F670FFF764FF04F5FA7094
:1015D000FEF770FF04F50670FFF75CFF04F5087076
:1015E000FEF768FF04F51170FFF72CFF04F5147087
:1015F000FFF728FF04F51770FFF724FF04F51A70B2
:10160000FFF720FF04F51D70FFF730FF204610BDE7
:1016100040F6060810B5044605F07AFA114B20464C
:1016200040F8203BFFF704FF04F15000FFF7F6FEFF
:1016300004F17C00FFF7F2FE04F1A800FFF7EEFED4
:1016400004F1D400FFF7EAFE04F58070FFF7E6FE30
:1016500004F59670FFF728FF04F57170FFF778FF27
:10166000204610BD70F70608C36A2DE9F0431F79C4
:101670005B79A7F101056F4247EB050748F2104877
:10168000002F18BF4FF00008012B394BB0F9045060
:101690001B6887B014BFB3F84C30B3F86030044611
:1016A00003860E35B0F9066079B1FDF795FFE36A60
:1016B00028469A792F4B314653F822304246009300
:1016C0004FF61E03FBF7C7FD01E0FEF79BFD002F61
:1016D0004AD0E36A284A99799F6852F821403846EF
:1016E0000021103616F0B6FD68B1244B2846009351
:1016F000424631464FF61E03FBF72DFC07F1004230
:101700004519174600E00635384616F019F8024626
:101710000B4602A81A49FBF7BDFA05E006AA02EB40
:101720000903002203F8112C02AF384617F0D8F84D
:101730008146204617F0D4F848440728EED82846BA
:10174000314642464FF61E030097FBF7A5FD5CB1FC
:1017500023784BB104352818314644F208224FF65D
:101760001E030094FBF777FD07B0BDE8F08300BFD0
:101770001CA8002040CF060870CF0608FE210708ED
:101780002ECA06080121FFF76FBF000010B50446FE
:1017900005F0BEF9074B01222360002384F83020B6
:1017A000236284F82420A362E36284F83130204667
:1017B00010BD00BFF0BF060870B504460D461646C2
:1017C00005F0A6F9024B256223606662204670BDD3
:1017D00010FF060870B504460D46164605F098F948
:1017E000024B256223606662204670BDF0FE06084B
:1017F00070B504460D46164605F08AF9034BED0018
:10180000F600236025626662204670BDD0FE0608A1
:1018100010B5202132220446FFF7CEFF014B2046AF
:10182000236010BD40B80608202110B50A460446C2
:10183000FFF7C2FF014B2046236010BD60B80608C9
:1018400010B5202107220446FFF7C4FF014B2046B4
:10185000236010BD80B8060810B520211022044670
:10186000FFF7C6FF014B2046236010BDA0B8060855
:10187000C8228260503AC260793A02614261013204
:10188000027642768276704700292DE9F74F0F469F
:10189000B8BF01F1FF073F1240F6FF73C8B207F16E
:1018A0000A099945A8BF99460D4616F0E1FA4FF08E
:1018B0006E5116F031FB2B4916F02EFB15F040FF50
:1018C00017F02AF916F0CAF9A7F10A0424EAE47419
:1018D0008046002637E02046FBF7EDFE90F800A09A
:1018E000204616F0C5FA8346284616F0C1FA4FF096
:1018F0006E5116F011FB0146584616F003FA00210E
:10190000834616F09DFC78B95846174916F004FB3B
:10191000E31B13F0010F01460CBF08F100404046E5
:1019200016F0AEFB834601E04FF07E5B504616F0AA
:101930009FFA0146584616F0EFFA0146304616F077
:10194000E3F9013406464C45C5DD304616F0AAFCE5
:1019500002AB43F8040D1846FF21FCF757F8019835
