:020000040800F2
:10C00000000001205D2A0108712801087328010839
:10C010007528010877280108792801080000000028
:10C020000000000000000000000000007D28010862
:10C030007B280108000000007F28010881280108F2
:10C040008328010885280108872801088928010814
:10C050008B2801088D2801088F28010891280108E4
:10C0600093280108952801089728010899280108B4
:10C070009B2801089D2801089F280108A128010884
:10C08000A3280108A5280108A7280108A928010854
:10C09000AD280108B1280108B3280108B528010816
:10C0A000B7280108B9280108BB280108BD280108E4
:10C0B000BF280108C1280108D5290108D72901088E
:10C0C000D9290108DB290108DD290108DF29010838
:10C0D000E1290108E3290108F1290108F3290108F0
:10C0E000F5290108F7290108F9290108FB290108A8
:10C0F000FD290108FF290108012A0108032A010876
:10C10000052A0108072A0108092A01080B2A010843
:10C110000D2A01080F2A0108112A0108132A010813
:10C12000152A0108172A0108192A01081B2A0108E3
:10C1300020B10368197003680133036070472DE96B
:10C14000F041161E04460D4614DD002200E00132C7
:10C15000A95C0029FBD1B24203F00208B4BFC2EBD4
:10C1600006060E46B8F1000F0CBF4FF020084FF046
:10C17000300801E04FF0200813F0010709D105E075
:10C1800020464146FFF7D4FF0137013E002EF7DC81
:10C1900005E0002703E02046FFF7CAFF013715F846
:10C1A000011B0029F7D105E020464146FFF7C0FFFB
:10C1B0000137013E002EF7DC3846BDE8F0812DE95D
:10C1C000FF410A9F05460B9EDDF830C08E4651B9EF
:10C1D00030238DF804308DF805103A4601A9334616
:10C1E000FFF7ADFF3CE03BB10A2A07D1002905DA91
:10C1F000C1F1000E012402E01C4600E0002404A965
:10C20000002301F8013D0EE0BEFBF2F302FB13EE4A
:10C21000BEF1090FC4BFACF13A0086440EF1300EF6
:10C2200001F801ED9E468846BEF1000FECD184B1C5
:10C230004FB116F0020F06D028462D21FFF778FFE8
:10C24000013F012405E02D2301F1FF3801F8013CF5
:10C250000024284641463A463346FFF770FF00194E
:10C2600004B0BDE8F0812DE9F0478AB006460D46DE
:10C2700005920024DBE0252B40F0D38015F8013F28
:10C28000002B00F0D880252B00F0CB802D2B02D185
:10C2900001352C3B03E0002301E043F00203294673
:10C2A00015F8012B302AF8D0002702E00A2202FB01
:10C2B00007070A780D46A2F130005FFA80FC0131D1
:10C2C000BCF1090FF2D9732A09D1059A3046111D24
:10C2D000059111685C4A002908BF11469DE0642A57
:10C2E0000ED1059A01936123111D029300970591C8
:10C2F00030461168603B0A22FFF761FF241895E081
:10C30000662A54D1059B073323F0070303F1080283
:10C31000D3E90001059217F03BFB0021804617F09E
:10C3200033FE38B12D238DF8183008F100480DF197
:10C33000190A01E00DF1180A404617F04DFE0123DD
:10C3400000E013460A225A439042FADA90FBF3F2D5
:10C3500002F1300103FB12000A2293FBF2F30AF808
:10C36000011B002BF2D124328AF80020002F08BFD5
:10C3700003279946404617F02FFE17F013FC01469D
:10C38000404617F059FB314917F060FC804617F022
:10C3900023FE09F101093030B9450AF8010FE9DB44
:10C3A00000228AF80120304606A9202336E0782AA8
:10C3B0000AD1059A01936123111D009702930591FB
:10C3C00030461168102219E0582A0BD1059A0193C2
:10C3D0004123111D02930097059130461168413B9E
:10C3E000102289E7752A0BD1059A01936123111D4B
:10C3F000009702930591304611680A22613B7BE762
:10C40000632A13D1059A3046111D126805918DF8E3
:10C41000242000228DF8252009A93A46FFF78FFE37
:10C420006CE730462978FFF783FE013401352B781D
:10C43000002B7FF420AF16B1336800221A7020461B
:10C440000AB0BDE8F08700BF9874020800002041E0
:10C45000014B1868704700BF58A500200146142002
:10C46000F7F7F4BE034B18801A8892B2002AFBD16A
:10C47000704700BF64A50020044B10B5196804463E
:10C480000320F7F7E3FE024B1C8010BD00300020B4
:10C4900066A5002030B5002308E00A24B0FBF4F1C3
:10C4A00004FB11003030D054013388B2084A002810
:10C4B000F3D1D0545910013BD31804E0145C5D78DB
:10C4C00015545C700130013B8842F7DB004830BDF9
:10C4D0005432002008B506200021F7F7BBFE5A238E
:10C4E0004343A3F58223A3F56B6340F2145093FBFF
:10C4F000F0F00A306428A8BF642020EAE07008BD8C
:10C500000128ACBF014601210220F7F79FBE00EBD6
:10C51000D070024B40101860704700BF0030002000
:10C52000052810B507D8044B53F8200018B104684B
:10C5300006F04CF9A04710BDC0650208C0B2F7F77D
:10C5400085BE47F26623984201D1F7F773BEC0B2A9
:10C55000F7F780BE43680A6823F4702323F48073DE
:10C5600013430A7910B543EA022343608A68CB6813
:10C5700084681A43094B04EA030342EA03034A7935
:10C5800043EA420383600B7CC26A013B22F47002DF
:10C59000DBB242EA0353C36210BD00BFFDF7F1FFF7
:10C5A00000230360037143718360C360013303742C
:10C5B000704719B1836843F0010302E0836823F0F8
:10C5C00001038360704719B1836843F4807302E00C
:10C5D000836823F4807383607047C9B212B14368E3
:10C5E000194302E0436823EA010141607047836810
:10C5F00043F00803836070478068C0F3C000704751
:10C60000836843F00403836070478068C0F3800050
:10C61000704719B1836843F4A00302E0836823F4F0
:10C62000A003836070478068C0F380507047436800
:10C63000013923F4604343EA41334360704719B141
:10C64000436843F4006302E0436823F400634360FB
:10C650007047092970B54FEA41040BD964181E3C94
:10C660000725A540A340C66826EA050545EA030458
:10C67000C4600AE064180725A54013FA04F40669AB
:10C6800026EA050545EA04030361062A0CD8013AA7
:10C6900002EB82021F2393409140446B24EA030380
:10C6A00043EA0102426370BD0C2A4FEA82030BD8B1
:10C6B0009A18233A1F2393409140046B24EA030302
:10C6C00043EA0102026370BD9A18413A1F23934066
:10C6D0009140C46A24EA030343EA0102C26270BDC6
:10C6E00019B1836843F4801302E0836823F4801354
:10C6F00083607047C06C80B27047014B1868704708
:10C700004C24014019B1436843F4806302E043685C
:10C7100023F480634360704719B1436843F4805346
:10C7200002E0436823F4805343607047836823F436
:10C73000E04341EA03038360704719B1836843F41F
:10C74000004302E0836823F400438360704719B11B
:10C75000836843F4021302E0836823F402138360C6
:10C7600070478068C0F340507047092970B54FEAA0
:10C7700041040BD964181E3C0725A540A340C66898
:10C7800026EA050545EA0304C4600AE064180725A3
:10C79000A54013FA04F4066926EA050545EA0403F0
:10C7A0000361836B03F440146FEA145412190332CB
:10C7B000D2B202EB82021F249440914023EA040388
:10C7C0000B43836370BD836B013923F4401343EA49
:10C7D00001538363704782B00A5002B0704782B041
:10C7E00001902830405880B202B07047436823F46B
:10C7F000400323F4007341EA03034360704741623E
:10C8000082627047436823F01F0341EA03034360D9
:10C810007047054B18B19A6842F4000202E09A682A
:10C8200022F400029A607047002401400368194214
:10C830000CBF002001207047C94301607047436866
:10C84000006810EA112004D0C9B219420CBF0020C0
:10C85000012070476FEA112101607047044B11B14C
:10C86000DA68104302E0DA6822EA0000D860704714
:10C870000010024007B5124B019098420DD0114BA9
:10C88000984212D0104B984219D14FF400700121F8
:10C89000FFF7E4FF4FF400700EE04FF480600121D9
:10C8A000FFF7DCFF4FF4806006E04FF40040012109
:10C8B000FFF7D4FF4FF400400021FFF7CFFF0EBD7C
:10C8C00000280140003C014000240140044B11B10C
:10C8D0005A69104302E05A6922EA00005861704721
:10C8E00000100240044B11B19A69104302E09A69AA
:10C8F00022EA0000986170470010024010B586B02F
:10C9000000234FF46022012401A9154801938DF8FA
:10C9100008308DF80930039204938DF81440FFF726
:10C9200019FE2046FFF775FF21460D48FFF741FE2F
:10C930002046FFF797FD0A48102122460523FFF7FE
:10C9400088FE07482146FFF764FE02210448FFF7EE
:10C950006DFF0128F9D10248FFF7CCFE06B010BDEB
:10C9600000240140024B0E2202FB0030704700BF42
:10C97000D8650208034B18801A8892B2002AFBD1AE
:10C98000704700BF64A50020044A4FF48053136031
:10C990004FF0C0421080024A1360704714140140E7
:10C9A0001014014010B5EF20FFF7EEFF4FF0C04329
:10C9B0001A881C8818881A881988C3B2C9B241EA33
:10C9C000046141EA0343120643EA1242014B9A60B2
:10C9D00010BD00BF54320020054B4FF480521A6046
:10C9E0004FF0C0431880034802601980704700BFB1
:10C9F00014140140101401402DE9F041E9204FF0DA
:10CA0000C044FFF7C1FF202222801120FFF7BCFFA6
:10CA10006420FFF7AFFFD120FFF7B6FF00251722F4
:10CA20005E232580D02023802280FFF7ADFF0C26D7
:10CA300007232380362023804FF040082680FFF70D
:10CA4000A3FF3046A4F800804936FFF79DFF2680FB
:10CA50003A20FFF799FF2680C120FFF795FF533E4C
:10CA600010232380C020238026802680FFF78CFFA0
:10CA7000012735232580C520238025802580278018
:10CA80002680FFF781FF2780D220FFF77DFF22233A
:10CA90002780C8202380FFF777FF73223723278062
:10CAA0002280238004220F23258023802680228059
:10CAB0006722A4F80080228025808022268023809F
:10CAC00008232380292022802580FFF75DFF2C206A
:10CAD000BDE8F04158E7002008B50146FFF77CFFAC
:10CAE00000200146FFF778FF00200146FFF774FFA2
:10CAF00000200146FFF770FF0A20FFF73BFF0121EE
:10CB00004FF4C060FFF768FF0A20FFF733FF4021B2
:10CB10004FF4DE60FFF760FF0A20FFF72BFF4FF4B2
:10CB200080604FF4C441FFF757FF082040F608012A
:10CB3000FFF752FF01204FF48071FFF74DFF0220F5
:10CB40004FF48071FFF748FF03203021FFF744FFC7
:10CB500009200121FFF740FF0C200021FFF73CFFD7
:10CB600090204FF40041FFF737FF0F200021FFF71F
:10CB700033FF10201621FFF72FFF112040F2011183
:10CB8000FFF72AFF12200021FFF726FF13200121C3
:10CB9000FFF722FF4FF480704FF44C71FFF71CFF3A
:10CBA00040F2011040F23721FFF716FF40F2031068
:10CBB0004FF47061FFF710FF4FF420704FF4D6412F
:10CBC000FFF70AFF4CF2B0114FF48170FFF704FF3A
:10CBD0006420FFF7CFFE4FF440704FF44061FFF741
:10CBE000FBFE40F2013045F60B21FFF7F5FE40F267
:10CBF000023040F60611FFF7EFFE40F2033041F23B
:10CC00001701FFF7E9FE4FF441704FF40C51FFF7A5
:10CC1000E3FE40F205304FF4B851FFF7DDFE40F27D
:10CC2000063046F20931FFF7D7FE40F2073040F6F2
:10CC30000941FFF7D1FE4FF4427041F20C01FFF7BA
:10CC4000CBFE40F2093042F23221FFF7C5FE4FF42D
:10CC500004700021FFF7C0FE40F21120EF21FFF722
:10CC6000BBFE40F212200021FFF7B6FE40F2132077
:10CC700040F28F11FFF7B0FE4FF4A0600021FFF7E4
:10CC8000ABFE40F201500021FFF7A6FE40F2025039
:10CC90000521FFF7A1FE40F201400121FFF79CFEB4
:10CCA000002140F20440FFF797FE6420FFF762FE88
:10CCB0004FF480710720FFF78FFE6420FFF75AFEC4
:10CCC0004FF400700021FFF787FE002140F20120A1
:10CCD000FFF782FE054A4FF48053136040F20221B1
:10CCE0004FF0C0421180024A136008BD1414014085
:10CCF0001014014070B5104C4FF480534FF4006590
:10CD0000236001202560FFF735FE0C4B0A201D60D3
:10CD1000FFF730FE32202560FFF72CFEFFF742FEC2
:10CD2000074B9A68074B9A4202D1BDE8704063E610
:10CD3000BDE87040CFE600BF10140140141401405C
:10CD400054320020279304020B4B10B59A680B4B0A
:10CD50004FF0C0449A4209D12E20FFF715FE2388D8
:10CD600024882C20A4B2FFF70FFE02E02388248839
:10CD7000A4B2204610BD00BF543200202793040205
:10CD80000EB403B503AA52F8041B019001A8009247
:10CD9000FFF769FABDE80C4003B07047AAE713B586
:10CDA00002AC24F8020D00200146F7F72FFA2046C6
:10CDB0004BF68031F7F738FAF7F732FA20464BF6A0
:10CDC0008031F7F731FAF7F72BFA1CBDC1F1EF010B
:10CDD00010B580B289B21446F7F718FA2046BDE8BC
:10CDE0001040F7F715BAC1F1EF0110B580B289B262
:10CDF000F7F70CFABDE81040F7F736BA38B5151A50
:10CE00005C1A6C434BF67F35AC4280B202F1FF35C1
:10CE1000C3F1F0020FD9C1F1EF0392B2A9B29BB2F4
:10CE20006508F7F7FBF904A8A9B2F7F7FDF9641B49
:10CE3000F7F7F6F906E0C1F1EF0392B2A9B29BB29F
:10CE4000F7F7ECF904A8A1B2F7F7EEF9F7F7E8F96C
:10CE5000002040F28F110246EF23F7F7DFF938BDCB
:10CE600037B50D46B0F9021004464B1CB0F900006E
:10CE7000B4F904200095FFF7C1FFB4F90630B4F906
:10CE80000000591EB4F904200095FFF7B7FFB4F96C
:10CE90000000B4F90210421CB4F906300095FFF707
:10CEA000ADFFB4F90420B4F90210B4F90630501EF5
:10CEB0000095FFF7A3FF3EBD2DE9F14F0A9C1E46EA
:10CEC0000B9B88461746511E04EB4309C6F1F0023E
:10CED000C8F1EF03054689B280B292B29BB2F7F770
:10CEE0009DF9A2460CE03AF8020BF7F791F9CA4512
:10CEF00008BFA2460BF1010BBB45F4DB08F10108AA
:10CF0000B04501DAAB46F7E7002040F28F11024648
:10CF1000EF2301B0BDE8F04FF7F780B92DE9F843F2
:10CF2000B0F80080044689461FFA88F7002614E00E
:10CF3000B4F9065009E0C5F1EF01384689B2F7F7B8
:10CF400065F9FFF701FF29F8020BB4F90230013D42
:10CF50009D42F0DA01370136BFB20FFA88F2B4F918
:10CF60000430B2189A42E3DBBDE8F8832DE9F047BC
:10CF7000C28843880D468188C2F1F0020139C3F1AD
:10CF8000EF03044689B2008892B29BB2F7F746F9E4
:10CF90000026B4F8028010E0B4F80090002703E007
:10CFA00035F8020BF7F734F90FFA89F2B4F90430C7
:10CFB000BA1801379A42F3DB01360FFA88F2B4F956
:10CFC0000630B2189A42E7DB002040F28F11024689
:10CFD000EF23BDE8F047F7F721B913B50346B3F9DE
:10CFE0000240B3F90420B0F90000B3F90630009113
:10CFF0002146FFF703FF1CBD0268034BDA6042685D
:10D000001A6102685A6170475432002010B50B4C07
:10D010000246B4F91610B4F91400FFF7D7FEA38A3C
:10D02000B4F910200133A3821BB29A4204DCA38915
:10D03000A382E38A0133E38210BD00BF5432002093
:10D0400070472DE9F74F99460C9B0191924613F8D2
:10D0500001BB054600241DE018F8013BFBB113F0AD
:10D06000040F4FF61E0305D09A450AD028463146D4
:10D07000524604E0994504D0284631464A46FFF717
:10D08000A5FE013701365F454346E5DB0134013536
:10D09000502C03D0019E98460027F4E70824204630
:10D0A000BDE8FE8F2DE9F0411E460F46B6B2C7F12E
:10D0B000F00714460546F7F7B9F8B91BA8B289B2CC
:10D0C000F7F7A4F820463146F7F7ACF8BDE8F04191
:10D0D000F7F7A6B830F0030309D131F0030208D105
:10D0E00040EA81000449091891F8180E70470020A1
:10D0F00070471846704700BFC06502082DE9F04F21
:10D1000085B004469A469DF839009DF838300D46A2
:10D1100016469DF83AB002900393274645E0C5EBCA
:10D120000A01701E0139C01B3B1BC8EB010198426C
:10D13000A8BF18464145A8BF4146FFF7CBFF68BBD3
:10D14000C9F1EF0189B2B8B2F7F760F8F7F78CF8D8
:10D150001A4BC10001F0FF01C208000A00EA0303F4
:10D16000C1EB0B000190DDF808C0039802F0FC024F
:10D17000C2EB0C0EC3EB000C03EB6C03DDF804C038
:10D18000DB1001EB6C00C01040EAC32302EB6E0021
:10D19000801043EA401080B2F7F73AF809F101092C
:10D1A00008F10108D145BADB0137B74203DAA946D5
:10D1B0004FF00008F6E705B0BDE8F08FF8FF070074
:10D1C0002DE9F74F06468A4615461C46BDF830B095
:10D1D00088462DE00AF10303984509D1E71E414630
:10D1E00030462A463B46CDF800B0FFF707FEB8466A
:10D1F000B146002718E0A81B0138611EC01BC8EB10
:10D200000101CAEB0803B842A8BF38469942A8BF3B
:10D210001946FFF75FFF20B9484641465A46FFF7D7
:10D22000D5FD09F101090137A945E4DB08F1010841
:10D23000A045CFDBBDE8FE8F13B50346B3F902402E
:10D24000B3F90420B0F90000B3F90630009121468B
:10D25000FFF7B6FF1CBD2DE9F74F01909DF8300098
:10D260001F460D469246FFF77DFB4FF61E039F4279
:10D2700083461DD100241BF80480019F6FEA080833
:10D280005FFA88F8082618F0800F04D03846611934
:10D290005246FFF79BFD013EF6B2013726B14FEA39
:10D2A00048085FFA88F8EEE701340E2CE3D145E038
:10D2B0009A451FD100241BF80490DDF804806FEA22
:10D2C00009095FFA89F9082619F0800F04D1404650
:10D2D00061193A46FFF77AFD013EF6B208F10108FE
:10D2E00026B14FEA49095FFA89F9EDE701340E2CBE
:10D2F000E1D123E000241BF80490019E6FEA0909A4
:10D300005FFA89F94FF0080819F0800F08F1FF382B
:10D31000304614BF52463A4629465FFA88F8FFF76E
:10D3200055FD0136B8F1000F04D04FEA49095FFA04
:10D3300089F9E9E7013401350E2CDCD10820BDE87C
:10D34000FE8F2DE9F7430A9F05460E469146984603
:10D35000AFB1387818B913E00A2B02D110362C4639
:10D3600007E00093204631464A464346FFF773FFE5
:10D37000241817F8013B002BEED1601B00E0384663
:10D38000BDE8FE83DDE72DE9F043A5B015462CAAE4
:10D390000E4652F8041B07460DF1080823A89946CB
:10D3A0002292CDF88C80FEF75EFF314604462A4675
:10D3B00038464B46CDF80080FFF7E4FF204625B005
:10D3C000BDE8F08337B5124B05460C46009330217B
:10D3D0001F2328204FF6FF72FFF7D4FF20211F23C1
:10D3E0004FF6FF7228200095FFF7CCFFA0B2FFF7A1
:10D3F00051F8102100904FF6FF7228201F23FFF7ED
:10D40000C1FF4FF47A7003B0BDE83040FFF72AB88F
:10D410009F74020808B502480421FFF7D3FFFEE716
:10D42000B17402080FB430B5A5B028AA52F8041B95
:10D4300002AC23A823942292FEF715FF23941EE04A
:10D440000A2B134C03D0A569B5F5C47F09DBE2694B
:10D4500000230E32E02AA361E2610DDD0C4AD361A4
:10D460000AE000932846E1694FF6FF724FF430431B
:10D47000FFF7F1FE4019A061239B01332393239B07
:10D480001B78002BDCD125B0BDE8304004B07047DC
:10D49000543200202DE9F74FC0EB020B5F1A1FFA40
:10D4A0008BFBBFB20FFA8BFA0FFA87F84FEADB3B20
:10D4B000FF0BBDF83090BAF1000FD4BFCBF1000BD9
:10D4C000CBF1010BB8F1000FD4BF7F42C7F10107C8
:10D4D000BAF1000FB8BFCAF1000AB8F1000FB8BF27
:10D4E000C8F100084FEA4A0A4FEA480800921FFABA
:10D4F0008AFA1FFA88F84A46019304460D460FFA45
:10D500008AF6FFF763FC0FFA88F39E4220DB1FFACE
:10D5100088F8A8EB6606B6B216E016F4004F09D1FB
:10D520001EB94FFA8BF3002B04DD7BB2CAEB060663
:10D53000ED18B6B24FFA8BF3E4184644204629465C
:10D540004A46B6B2FFF742FC009B9C42E5D11EE082
:10D550001FFA8AFAAAEB6306B6B215E016F4004F7A
:10D5600009D116B97BB2002B05DD4FFA8BF3C8EB5E
:10D570000606E418B6B27BB2ED185644204629469A
:10D580004A46B6B2FFF722FC019B9D42E6D1BDE8B8
:10D59000FE8F0020FFF7E6B908B500210420F6F75A
:10D5A00059FEC3439BB2C3F3802013F4006F1CBF2A
:10D5B00040F0020080B213F4805F18BF40F4807026
:10D5C00013F0080F18BF40F0040013F4004F18BF09
:10D5D00040F0080013F0400F18BF40F4007013F43F
:10D5E000804F18BF40F0100013F4005F18BF40F0E8
:10D5F000200013F4807F18BF40F0400013F4007F38
:10D6000018BF40F0800008BD07B50B200021F6F7D9
:10D6100021FE40B9074B303000931E211F224FF6E8
:10D62000FF73FFF78EFE1420002103B05DF804EBBA
:10D63000F6F70CBED7740208024B0146187124207D
:10D64000F6F704BE00300020014B1879704700BF88
:10D650000030002070B50CE09C1804EBD47464100A
:10D6600050F8246025468E4201D2621C01E004D9A4
:10D67000631E9342F0DA4FF0FF35284670BD2DE966
:10D68000F84F214C074604F5626008300E461546F7
:10D690009846002215230C99FFF7DCFFB0F1FF3FFD
:10D6A0009DF82890BDF82CA083462AD00C9A174BE1
:10D6B00005209A600021F6F7C9FD09203946F6F7E2
:10D6C000C5FD0A203146F6F7C1FD00202946F6F7D0
:10D6D000BDFD0B204146F6F7B9FD0C204946F6F793
:10D6E000B5FD04EB4B0401205146F6F7AFFD0720D2
:10D6F000B4F8801EF6F7AAFD0820B4F8AC1EF6F7C1
:10D70000A5FDBDE8F88F00BFC0650208003000200D
:10D7100008B503200021F6F79DFDC0B208BDF6F75D
:10D7200089BD08B506200121F6F790FDFEF790FEB1
:10D73000014B186208BD00BF543200202DE9F041B2
:10D7400006460C462220314615461F46F6F77EFD5A
:10D7500021202146F6F77AFD202047EAC501BDE8E1
:10D76000F041F6F773BDB0F5805F70B503DD0A4890
:10D77000CA21FFF727FE094C04F580452668FFF70C
:10D78000CEFF06F07F4620F07F4040EA060644F8D0
:10D79000046BAC42F2D170BDF07402087832002004
:10D7A0004FF480507047B0F5805F10B5044603D346
:10D7B0000348DB21FFF706FE024800EB840010BDA2
:10D7C000F07402087832002010B500210220F6F72C
:10D7D00041FD00210120F6F73DFD002100F001048C
:10D7E0000320F6F737FD10F0010F18BF44F00204D4
:10D7F000204610BD08B5FEF72BFE0B4B1B6AC01A66
:10D8000016F0D0F9094916F0D5FA094B996816F0C7
:10D81000D1FA084916F01AFA16F0DEFBB0F5805F6F
:10D82000A8BF4FF4805008BD5432002000007A4455
:10D83000003000200000F041034670B510200C4677
:10D8400019461546F6F702FD11202146F6F7FEFCB3
:10D8500012202946BDE87040F6F7F8BC094B10B518
:10D860001A68094C22F001021A60084A146043F257
:10D87000B0521A60064A116090601A6842F00102C4
:10D880001A6010BD44040240087400404C04024079
:10D8900048040240034B0121A3F83C0D03F55260FC
:10D8A0001C30DBE73C65002001460D20F6F7CEBCBE
:10D8B000004870477A72002008B5034602730020C2
:10D8C000012A587305D11A4609480833F6F7DEFCD9
:10D8D00006E0022A09D11A4605480833F6F7D4FCB7
:10D8E000D0F1010038BF002008BD012008BD00BFF5
:10D8F0007A72002008B5034608461946F6F7C8FCB8
:10D90000D0F1010038BF002008BD10B5044608461C
:10D910002146F6F7BFFC20B9637B01300133637306
:10D9200010BD002010BD10B5037B0446022B10D1A2
:10D93000B1F1FF3F08BF417B224608BF49020748BB
:10D9400004F10803F6F7A8FC28B903232373013078
:10D9500010BD012010BD002010BD00BF7A72002054
:10D96000F0B502EBD27700247F1001EB420523468D
:10D970000DE0BB42B4BF31F813C035F802CC065FEE
:10D98000013306FB0CF6360C0653023D0434934279
:10D99000EFDBF0BD0CF07EB8420803460DD000214D
:10D9A000B3FBF2F080184008121A0132022A04D99F
:10D9B000192902D001310246F2E7704705E0054A15
:10D9C000118811F0800FFAD0938010F8013B002BE2
:10D9D000F5D17047003801400F4B10489A6942F466
:10D9E00080429A610E4A40F27123138142F22C0365
:10D9F0009381138823F4A46323F005031B041B0CF9
:10DA00001380084B5A6822F47F6242F40A625A601B
:10DA10004FF480621A61D1E7001002401A750208C3
:10DA2000003801400008014010B54FF4FA70FEF7CD
:10DA300019FDFFF7B3F9FFF7E7FDBDE81040CBE7AD
:10DA400004F0F6BE034B1A8812F0800FFAD09880CB
:10DA5000704700BF003801400E200021F6F7FABBE6
:10DA60000D200021F6F7F6BB0F200021F6F7F2BBE0
:10DA700010200021F6F7EEBBF6F7E0BB014B9868EB
:10DA8000704700BF543200202DE9F0433F3189B088
:10DA9000234B804687B28CB2ADF1020213F8010C21
:10DAA0001978C0108910C002490141185878043310
:10DAB00001EBD00122F8021F1A498B42EED11A4E17
:10DAC0003D4616F8013B08AA1B0902EB4303284612
:10DAD0000135214633F8202CADB208F1FF09FFF7DC
:10DAE00075F94D4502DD013CA4B23D4616F8013CF6
:10DAF00008AA03F00F0302EB430328460135214631
:10DB000033F8202CADB2FFF761F94D4502DD013C41
:10DB1000A4B23D46054B9E42D3D109B0BDE8F08387
:10DB200037D8030877D8030876D8030876F80308AF
:10DB3000704700BF0C4B10B518600446FFF774FF28
:10DB400003F0BAFE07F0F9FC03F0B6FE0121002253
:10DB500007F000FF12F034FC12F0EEFB12F04AFA6C
:10DB6000FFF7DFFD204610BD7C740020704737B5FD
:10DB7000FEF76EFC294C2368B3F1FF3F08BF20601D
:10DB80002368C51AB5F57A7F0ED94FF47A72B5FBC2
:10DB9000F2F502FB053321490B6003F08DFE00F521
:10DBA0002C50436EED184566FFF7F6FCADF8060005
:10DBB00000B9A08003F080FE00F540500DF1060191
:10DBC000343003F0C2F903F077FE00F540503430F2
:10DBD0000DF1060103F0C1F9BDF80630ABB103F059
:10DBE0006BFE0221BDF8062007F0B4FEBDF806204A
:10DBF000A3889A4206D00A4B1B681B7A13B93220BD
:10DC0000FEF73AFCBDF80630A38003F055FE032171
:10DC1000002207F09FFE01203EBD00BF1030002013
:10DC200078A50020014B1868704700BF7C74002065
:10DC300008B5036849421B6849B2984708BD00000F
:10DC4000014B1868704700BF188202087047012016
:10DC500070474368826819688A181A607047436879
:10DC6000826819688A1A1A607047082070478368AA
:10DC70001B78CB1805D4027B9342CCBF0020012037
:10DC800070470020704783681A7801321A70704715
:10DC900083681A78013A1A70704783681970704760
:10DCA0008368187870470220704718207047022058
:10DCB0007047002070470020704708207047000020
:10DCC000034B1B68586A0028B8BF033080107047A8
:10DCD00078A500200020704719207047034B1B686F
:10DCE000986A0028B8BF03308010704778A50020DC
:10DCF000002070471920704770477047436882685A
:10DD00001B68CB18934205DBC0688342CCBF002060
:10DD1000012070470020704743681A6801321A607A
:10DD2000704743681A68013A1A60704702484FF416
:10DD30008871FFF747BB00BFB87D020808B50348EC
:10DD400040F20F11FFF73EFB002008BDB87D02082E
:10DD500002484FF48771FFF735BB00BFB87D02085A
:10DD6000024840F20D11FFF72DBB00BFB87D02083D
:10DD700002484FF48671FFF725BB00BFB87D02084B
:10DD800008B503484FF48571FFF71CFB022008BD5E
:10DD9000B87D020839B9042A05D146F26742934298
:10DDA00001D106F0BDBF704739B9042A05D146F24A
:10DDB0006742934201D106F0B3BF704739B9042AD4
:10DDC00005D146F26742934201D106F0A9BF7047E0
:10DDD000C36A70B504460D461BB90B484221FFF7D4
:10DDE000F1FA15F0100F08D0E168E36A204646F614
:10DDF0006352BDE8704006F09ABF20462946BDE850
:10DE0000704007F00AB800BFD27D020811F0100F71
:10DE100070B505460C4605D0C16846F66F52002322
:10DE200006F085FF28462146BDE8704006F0F5BFA4
:10DE300011F0010F70B504460D4615D0C06A0121DE
:10DE400003685B68984701280ED1E06A00210368E7
:10DE5000DB689847204606F063FF2046E16847F2FA
:10DE60007052002306F063FF15F0020F15D0E06A30
:10DE7000012103681B68984701280ED1E06A002140
:10DE800003689B689847204606F04AFF2046E168F1
:10DE900047F27052002306F04AFF15F0100F0ED023
:10DEA000E06A0368DB699847084B1B68984206D014
:10DEB0002046E16846F66542E36A06F038FF2046F0
:10DEC0002946BDE87040FFF7A1BF00BF18820208D5
:10DED00011F0010F70B504460D460DD0C36A002B3A
:10DEE0000ADD013BC36206F01BFF2046E16846F6EF
:10DEF0007512002306F01BFF15F0020F0ED0E36A27
:10DF0000132B0BDC0133E362204606F009FF2046A9
:10DF1000E16846F67512002306F009FF20462946FF
:10DF2000BDE87040FFF772BF11F0010F70B50446F5
:10DF30000D460DD0C36A012B0ADD013BC36206F01A
:10DF4000EFFE2046E16846F67512002306F0EFFE6C
:10DF500015F0020F0ED0E36A1D2B0BDC0133E362D8
:10DF6000204606F0DDFE2046E16846F675120023E5
:10DF700006F0DDFE20462946BDE87040FFF746BFAB
:10DF800011F0200F70B505460C4606D0C06846F269
:10DF900078520146002306F0CAFE28462146BDE815
:10DFA000704006F03ABF000011F0010F70B5044652
:10DFB0000D4615D0006A012103685B689847012867
:10DFC0000ED1206A00210368DB689847204606F0DE
:10DFD000A7FE2046E16847F27052002306F0A7FE34
:10DFE00015F0020F15D0206A012103681B689847BD
:10DFF00001280ED1206A002103689B6898472046BB
:10E0000006F08EFE2046E16847F27052002306F0CB
:10E010008EFE15F0100F0ED0206A0368DB6998475A
:10E02000084B1B68984206D02046E16846F66542D8
:10E03000236A06F07CFE20462946BDE87040FFF7C3
:10E040009FBF00BF1882020811F0010F70B504468F
:10E050000D4615D0C06A012103685B689847012806
:10E060000ED1E06A00210368DB689847204606F07D
:10E0700057FE2046E16846F67512002306F057FE6B
:10E0800015F0020F15D0E06A012103681B6898475C
:10E0900001280ED1E06A002103689B68984720465A
:10E0A00006F03EFE2046E16846F67512002306F0B3
:10E0B0003EFE20462946BDE8704006F0AEBE000098
:10E0C000C36A70B504460D461BB91A482A21FFF7EA
:10E0D00079F915F0100F08D0E168E36A204646F69A
:10E0E0006352BDE8704006F022BEE36A1A79043A32
:10E0F000D2B2012A17D815F0010F08D0DA6812F150
:10E10000FE0F04DB013ADA60204606F009FE15F046
:10E11000020F08D0E36ADA68FE2A04DC0132DA6012
:10E12000204606F0FDFD20462946BDE8704006F079
:10E1300074BE00BFFD7D0208C36A70B504460D467B
:10E140001BB91D482221FFF73DF915F0100F08D02B
:10E15000E168E36A204646F66352BDE8704006F087
:10E16000E6BD15F0010F0ED0E36A1A795AB1013AF3
:10E170001A71204606F0D4FD2046E16846F6751275
:10E18000E36A06F0D4FD15F0020F0FD0E36A1A79A6
:10E19000092A0BD801321A71204606F0C1FD20462B
:10E1A000E16846F67512E36A06F0C1FD204629468D
:10E1B000BDE8704006F031BE2B7E0208C36A70B520
:10E1C00004460D461BB90B484221FFF7FBF815F03A
:10E1D000100F08D0E168E36A204646F66352BDE8B6
:10E1E000704006F0A4BD20462946BDE8704006F008
:10E1F00014BE00BF5A7E020830B5028400250122F9
:10E20000456280F82820BDE8304006F04DBD000092
:10E210007FB5043302AC05460E4693E8030084E85C
:10E220000300BDF80E30284604339BB2ADF80A3027
:10E230000733ADF80E30044942F00202234600963F
:10E2400006F032FD7FBD00BF7C7E02087FB504333F
:10E2500002AC05460E4693E8030084E80300BDF8CF
:10E260000E30284602339BB2ADF80A300733ADF8C2
:10E270000E30044942F002022346009606F014FDD7
:10E280007FBD00BF887E020830B5049D0284012254
:10E290004562BDE8304006F007BD2DE9FF410A9E0A
:10E2A0000D4600214162028480F8283004464FF078
:10E2B0001108304608FB03F806F0AEFC5FFA88F858
:10E2C00002AF68B1304606F0A7FC043003C887E807
:10E2D0000300BDF80E3002339BB2ADF80A3006E001
:10E2E000331D93E8030087E80300BDF80A30984423
:10E2F00020462946012202ABADF80E80009606F0BA
:10E30000D3FCBDE8FF81FFF7C8BF00002DE9F04155
:10E31000DDF81880044615461F460E4621B9084808
:10E320004FF40371FFF74EF8204629463A46022380
:10E33000E662CDF81880BDE8F041FFF7AEBF00BF40
:10E34000B87D0208DBB2FFF7A8BFFFF7A6BF10B584
:10E350000A24C462BDE81040FFF79FBF10B50A242D
:10E36000C462BDE81040FFF798BF000073B50446D3
:10E3700016460D4619B907480C21FFF723F8E56248
:10E380002046002146F20C3202230096FFF785FF5B
:10E390007CBD00BFFD7D020810B50524C462BDE848
:10E3A0001040FFF77ABF13B503469C685B6824787A
:10E3B000088853F82430B1F9021000934FF6FF7328
:10E3C000002A14BF1A4600224FF61E03FEF7B9FFBB
:10E3D0001CBD00002DE9F341274DB0F906402B6824
:10E3E000B0F90460B3F84420244B21460093304632
:10E3F0000023FEF7A6FF2B68214F93F842302146F9
:10E4000057F82330801900934FF6FF720023FEF770
:10E4100098FF2B6806F16408B3F85820194B214681
:10E42000009340460023FEF78CFF2B68214693F8AB
:10E430005630404457F823304FF6FF7200930023C4
:10E44000FEF77FFF104BC83600932146002330466D
:10E450004BF29652FEF775FF2B68801993F89020C7
:10E460000A4B214653F822304FF6FF7200930023E7
:10E47000FEF767FFBDE8FC8178A5002091A00208A7
:10E480001C83020877A10208947E02088483020894
:10E49000F7B50E88154B083E4FF6FF75002A08BFEA
:10E4A0000025B6B20C460746B1F902102A46009381
:10E4B00030464FF61E03FEF7C4FD7B683618B6B231
:10E4C000B4F90210009330462B464FF61E02FEF7B9
:10E4D00038FF074B30180093B4F902102A464FF664
:10E4E0001E0380B2FEF7ADFDFEBD00BF386A060810
:10E4F000AA6A060873B5044606F002FCA688144B07
:10E50000083E4FF6FF75002808BF0025B6B2B4F9E3
:10E51000061000932A4630464FF61E03FEF791FD83
:10E52000E3693618B6B2B4F90610009330462B46AC
:10E530004FF61E02FEF705FF064B30180093B4F9A4
:10E5400006102A464FF61E0380B2FEF77AFD7CBD08
:10E55000386A0608AA6A060808B583681A78436804
:10E5600053F8220016F056F8C3004FF6F87003EA8D
:10E57000000008BD7FB5436804460D46164623B922
:10E5800012484FF42F71FEF71DFF63681A68A368E5
:10E5900092FBF3F20A2392FBF3F103FB1122002317
:10E5A000ADF80C30303204AB03F8042D4FF6FF7297
:10E5B0000093B5F90000B5F90210002E08BF002243
:10E5C0004FF61E03FEF7DEFE7FBD00BFB87D0208DA
:10E5D00070B50E4615461C4606F017FB2A46014646
:10E5E00023463046BDE8704006F0A1BB11F0130F82
:10E5F00070B505460C4607D006F007FB022201461F
:10E600002346284606F093FB28462146BDE8704085
:10E6100006F003BC11F0010F2DE9F04104460D4650
:10E6200016D0006A012103685B68984780B1206AB0
:10E6300000210368DB689847204606F0E6FA06F0FA
:10E640006FFBE06847F27052C168002306F06FFB71
:10E6500015F0020F16D0206A012103681B68984745
:10E6600080B1206A002103689B689847204606F025
:10E67000CCFA06F055FBE06847F27052C1680023FF
:10E6800006F055FB15F00C0F0FD00C4E2046294616
:10E690003768FFF775FC3368BB420CD0204606F0A4
:10E6A000B4FABDE8F04106F03BBB20462946BDE880
:10E6B000F041FFF765BCBDE8F08100BF8CA50020EC
:10E6C00010B50C4606F0A1FA036821465B6898472E
:10E6D00010BD11F0130F10B50C4606D006F095FAD8
:10E6E000036821465B68984710BDBDE8104006F0FE
:10E6F00094BB000011F0030F10B507D0FFF7A4FC86
:10E70000044B1868BDE8104004F0DEBFBDE81040BF
:10E71000FFF79ABC78A5002011F0030F10B507D0C1
:10E72000FFF792FC044B1868BDE8104004F0CCBF22
:10E73000BDE81040FFF788BC78A5002011F0030F5A
:10E7400010B507D0FFF780FC044B1868BDE81040F7
:10E7500004F0BABFBDE81040FFF776BC78A50020F2
:10E7600008B54368B3F9000005F0F6FF15F052FF55
:10E77000C3004FF6F87003EA000008BD4368F7B520
:10E780004FF6FF7604460D46002A08BF00261BB947
:10E7900013489721FEF716FE6368B5F900701868F4
:10E7A000A368984202DBE36898420ADD0D4BB5F995
:10E7B00002100093384632464FF61E03FEF7C1FDA5
:10E7C0000CE000B2B5F9024005F0C6FF214600900A
:10E7D000324638464FF61E03FEF7D4FDFEBD00BF9D
:10E7E000987E0208B37E02082DE9F0471F4647F2E3
:10E7F00070539A4204460D4616463FD100F1380345
:10E8000099423BD1436A93F80480A8F104095FFA66
:10E8100089F9B9F1010F8CBF4FF000094FF00109E0
:10E82000B9F1000F06D0A8F10503D3F1000848EBB9
:10E83000030801E04FF0010804F1A00A504606F079
:10E8400058FB814506D04946504606F078FA4FF00D
:10E85000010901E04FF0000904F16C0A504606F08E
:10E8600048FB804504D05046414606F068FA02E075
:10E87000B9F1000F02D0204606F052FA2046294690
:10E8800032463B46BDE8F047FFF7A2BEF7B5436806
:10E890000E881C88083E134BB6B20D462246B1F9CD
:10E8A0000210304600934FF61E03FEF7CAFB3618DF
:10E8B0002046B5F9027005F093FFB6B200903946D4
:10E8C000234630464FF61E02FEF75CFD064B30181D
:10E8D0000093B5F9021022464FF61E0380B2FEF7F0
:10E8E000B0FBFEBD386A0608AA6A060811F0100FD0
:10E8F00070B5044617D006F08AF918B90A483D21C8
:10E90000FEF760FD204606F080F90546204606F039
:10E910007EF90346DB692046294646F26452BDE88B
:10E92000704006F004BA70BDB57E020801804280D6
:10E93000704710B58380BDF8083001804280C380E5
:10E9400010BD00007FB5DE2305460E461446009339
:10E9500000211622D33B02A8FFF7EBFF284604490B
:10E9600044F0020202AB009606F09EF97FBD00BFA4
:10E97000D87E02087FB5152305460E46144600933F
:10E980000C21102202A84FF49C73FFF7D2FF2846F7
:10E99000034944F0020202AB009606F085F97FBD00
:10E9A000EC7E02087FB5F02305460E461446009320
:10E9B00000211022A03302A8FFF7BBFF284604491C
:10E9C00044F0120202AB009606F06EF97FBD00BF64
:10E9D000FF7E02087FB5F02305460E4614460093DD
:10E9E00000211022A03302A8FFF7A3FF2846044904
:10E9F00044F0020202AB009606F056F97FBD00BF5C
:10EA00000F7F02087FB5F02305460E46144600939B
:10EA100000211022A03302A8FFF78BFF28460449EB
:10EA200044F0020202AB009606F03EF97FBD00BF43
:10EA30001B7F020870B5F02388B004460E461546C9
:10EA4000009300211022A03306A8FFF772FF204692
:10EA50001A4945F0200206AB009606F025F9B4F9F4
:10EA60000A204FF4967100924FF4A573103A04A84F
:10EA7000FFF75FFF04F140001149012204AB00944D
:10EA800006F012F9B4F90A204FF4B47100924FF471
:10EA9000C373103A02A8FFF74CFF04F120000949A4
:10EAA000012202AB009406F0FFF800232366FEF774
:10EAB00077FE0138606608B070BD00BF2B7F02088A
:10EAC000387F02083D7F0208B0F90420B0F9003019
:10EAD000D0184010704707B5B0F90030B0F90410F5
:10EAE000B0F90620C918B0F902304910D2185210F6
:10EAF00001A8FFF71BFF019B00209AB262F30F00F1
:10EB00001B0C63F31F400EBD10B50488091901806A
:10EB10004188521842808288D31A8380C288029B1F
:10EB2000D31AC38010BD10B50488611A01804188D2
:10EB30008A1A428082889B188380029AC388D318DD
:10EB4000C38010BDB0F90420B0F90030D01A70476E
:10EB5000F0B587B004AC051D064695E8030084E8CF
:10EB60000300012100220B4620460092FFF7DBFF45
:10EB7000204648F21041FEF730FA94E80300184BA3
:10EB800002AF1B6887E803002846B3F89240FFF7FE
:10EB9000D9FFBDF80A3004FB00F20133ADF80A30AA
:10EBA00004F59674BDF80E304443013BADF80E30C9
:10EBB000B388384603EB223203EB2434BDF814301B
:10EBC000ADF80C40ADF8082024B21AB29442C8BF88
:10EBD000ADF80C300021FEF700FA07B0F0BD00BF21
:10EBE00078A5002073B5051D002104462846FEF7D0
:10EBF000F4F90F4B1B68B3F8A260B3F89230F61A21
:10EC000036B2002E12DB2846FFF79CFF86420DDA53
:10EC1000B4F90400074B04380093B4F906108019C6
:10EC200046F20C324FF61E03FEF70BFA7CBD00BF16
:10EC300078A50020A469060830B5051D85B00446F6
:10EC400000212846FEF7C9F92E4B802100930420AD
:10EC5000002348F21042FEF774FB2B4B80210093F7
:10EC6000A02000234BF29652FEF76BFB274BA0210E
:10EC700000930420002348F21042FEF762FB244B6D
:10EC8000A0200093014600234BF29652FEF759FB59
:10EC9000204BB02100930420002348F21042FEF7DD
:10ECA00050FB1D4BB0210093A02000234BF2965245
:10ECB000FEF747FB194BC02100930420002348F2C4
:10ECC0001042FEF73EFB164B4BF296520093042384
:10ECD000019301330293033B0393A020C021023B25
:10ECE000FEF751FB2846FFF72DFFB4F90610A0F5FB
:10ECF000807000EBD0704010183105B0BDE8304096
:10ED0000FEF7C2BE427F0208547F0208587F020805
:10ED1000627F02086F7F02087F7F0208947F0208EB
:10ED2000A67F0208F7B5061D002105463046FEF70E
:10ED300054F9514B802148F21042009304200023E3
:10ED4000FEF7FFFAFEF78CFE8021002300904BF2C5
:10ED50009652A020FEF7F5FA484B902148F2104257
:10ED6000009304200023FEF7ECFAFEF77DFE9021CD
:10ED7000002300904BF29652A020FEF7E2FA404B9F
:10ED8000A02148F21042009304200023FEF7D9FA94
:10ED9000FEF76EFE0090A020002301464BF2965233
:10EDA000FEF7CFFA374BB02148F21042009304200F
:10EDB0000023FEF7C6FAFEF74FFEB02100234BF208
:10EDC00096520090A020FEF7BCFAFEF757FE2E4B9D
:10EDD0000446009304200023C02148F21042FEF7AD
:10EDE000B0FA2A4B2A4F9C4204D02A4B9C4203D0B3
:10EDF00064B114E0284B00E0284B0093A020C02110
:10EE00004BF296520023FEF79CFA11E0244BA0200F
:10EE10000093C0214BF296522346FEF792FAA020AF
:10EE2000C0214BF29652002300970194FEF7ABFAF3
:10EE30001C4BD021009348F2104200230420FEF71F
:10EE400080FAFEF719FED02101904BF29652002372
:10EE5000A0200097FEF797FA3046FFF773FEB5F94A
:10EE60000610A0F5807000EBD0704010183103B090
:10EE7000BDE8F040FEF708BEB37F0208C57F020878
:10EE8000D57F0208E37F0208F07F02087667610001
:10EE900014800208279304020080020804800208FC
:10EEA0000C80020819800208B0F90620B0F902307F
:10EEB000D01A70470388CB1803808388C918438809
:10EEC0008180D3184380C388D218C2807047002342
:10EED000038043808380C3807047B0F90420B0F979
:10EEE00000309A42D4BF0020012070472DE9F04F36
:10EEF00000F126068BB004463046FFF7EEFF0546CC
:10EF0000002847D108AF04F1040898E8030087E817
:10EF1000030001210A460B4638460091FFF703FE25
:10EF200038464BF29651FDF79BFF29464046FEF7C7
:10EF300054F848F21042ADF81650ADF81850ADF83C
:10EF40001A50ADF81C50ADF814201935B4F904006E
:10EF5000B4F90A3005AA2818009205220192043B50
:10EF6000421CB4F906101935FDF7A6FFFA2DEDD1B4
:10EF7000E13DB4F9061005AB691800930523019330
:10EF8000B4F904004B1CB4F908201935FDF794FFBF
:10EF9000C82DEED1236A002B00F0A780251D28463E
:10EFA000FFF7D0FD80462846FFF77EFFB4F90AA0A0
:10EFB000323803902046AAF1190A05F0A1FE60B18B
:10EFC000216BA38C01FB08F198FBF3F202EBD272E8
:10EFD00091FBF3F303EB620301E06FF013033046A0
:10EFE0000293FFF77AFF18B9E084A4F82A802BE097
:10EFF000B4F90420B4F9263000259A42A8BF13467C
:10F00000E384B4F90820B4F92A3001219A42B8BF48
:10F01000134663852A460B4630460095FFF774FD7C
:10F0200030462946FDF7D9FF012130462A460B46D6
:10F030000095FFF778FDB4F90410B4F906203046C6
:10F0400049425242FFF736FF4FF00009E58CCB46AC
:10F0500044E0A28C236A6A4392FBF8F233F8127000
:10F06000B7F5805F03D322485D21FEF7ABF9039A21
:10F07000B4F92630574344BF07F57E671F373F1367
:10F08000B4F90420BFB29D4208BFBB46AA184FF690
:10F09000FF730093501EC7EB0A03CBEB0A01FEF788
:10F0A000F9F9029B9D4208BFB94603339D4212D134
:10F0B000B4F904000F4B626B0638AAF10401009307
:10F0C0004019C9EB0101082A14BF16221F224FF66E
:10F0D0001E03FDF7B6FF0135ADB2BB46B4F92A30C9
:10F0E0009D42B6DB3046FFF7F2FE0BB0BDE8F08F75
:10F0F00028800208D273060813B50446B4F902202A
:10F10000B0F90000B4F906300091114600F10C028C
:10F11000FEF756F8B4F90000B4F90210B4F904206F
:10F12000B4F9063008304BF296540094FDF766FEB1
:10F130001CBD37B50446B4F90250B0F90000B4F96B
:10F140000420B4F90630023800912946FEF738F859
:10F15000B4F90000B4F90210B4F90420B4F906308F
:10F1600006304FF6FF740131013A013B0094FEF77F
:10F1700027F83EBD07B50346B0F900000022B3F9F9
:10F180000210B3F90630009200F10802FDF736FED6
:10F190000EBD37B50446B0F90000B4F90210B4F959
:10F1A0000630002500F108020095FDF727FEB4F9AE
:10F1B0000420B4F90210B4F90630101F0095FDF7D1
:10F1C0001DFE3EBD436A37B504460BB11B88038460
:10F1D000204605F095FD231D18B11846FFF7D9FF0D
:10F1E00002E01846FFF7C6FFA38820460433A38039
:10F1F00005F086FD0546218C201D5DB1FFF799FFC6
:10F20000E369B3B1B4F90400B4F9061000930C300B
:10F2100000220AE0FFF770FFE36953B1B4F904007C
:10F22000B4F9061000930C302A464FF61E03FEF781
:10F2300088F8A388043BA3803EBD0000C36A2DE983
:10F24000F0431F795B79A7F10102574247EB0207B0
:10F2500048F21048002F18BF4FF00008012B87B06C
:10F26000044608D002D3022B0FD109E03A4B1B68A9
:10F27000B3F8443008E0384B1B68B3F8583003E06B
:10F28000354B1B68B3F8B63103862046FFF79AFF6B
:10F29000E36AB4F904909A79304BB4F9065053F804
:10F2A000223009F10E0600933046294642464FF6B9
:10F2B0001E03FEF746F8002F4BD0E36A284A9979DF
:10F2C0009F6852F8214038460021103514F05CFE4A
:10F2D00068B1244B30460093424629464FF61E0340
:10F2E000FDF7AFFE07F100428619174601E009F16C
:10F2F0001406384614F0BEF802460B4602A81A4916
:10F30000FDF73EFD05E006AA02EB0903002203F823
:10F31000112C02AF384615F07DF98146204615F0D4
:10F3200079F948440728EED83046294642464FF638
:10F330001E030097FEF726F85CB123784BB1043624
:10F340003018294644F208224FF61E030094FDF7B8
:10F35000F8FF07B0BDE8F08378A50020C08402085C
:10F36000F08402087C73060854800208F0B5C66970
:10F37000002585B00446C561FFF724FFE661231D23
:10F3800002AE93E803002A4686E803002B46304687
:10F3900010210095FFF7B8FBE3692A46BDF90A1072
:10F3A0000093BDF908004FF61E03FDF7CAFFBDF834
:10F3B0000A3020461033ADF80A3005F0A1FC0246B1
:10F3C000002837D0BDF808701E4B083FBFB2BDF90A
:10F3D0000A102A46009338B24FF61E03ADF80870A3
:10F3E000FDF72FFE3818ADF80800E06A03685B6986
:10F3F0009847BDF90A100746BDF9080001F10E0350
:10F400003A180095FDF7FAFCE06A314603680122DC
:10F410001B699847BDF80830BDF90A10FF180A4B60
:10F4200038B200932A464FF61E03ADF80870FDF778
:10F4300008FE04E0E06A314603681B69984705B09E
:10F44000F0BD00BF386A0608AA6A0608F0B504468F
:10F4500085B0FFF7B7FEB4F90450B4F90670E3695C
:10F46000103500932846394600224FF61E03FDF75B
:10F4700068FF204607F1100605F042FC00282ED058
:10F48000234B31460022009328464FF61E03FDF71A
:10F49000D8FD4519E06A1E3703685B699847324614
:10F4A0004319294602A80097FFF743FA002102A852
:10F4B000FDF793FDE76A20463B681D6905F020FCD7
:10F4C00002A902463846A847124BBDF90C0000932A
:10F4D000314600224FF61E03FDF7B3FD15E0E06A4A
:10F4E0001E3703685B69984729464319324602A8CC
:10F4F0000097FFF71EFAE66A204633681D6905F09B
:10F50000FFFB02A902463046A84705B0F0BD00BF88
:10F51000386A0608AA6A0608FFF754BE13B50446FF
:10F52000FFF750FE084BB4F904000093E36AB4F906
:10F53000061003EB830301931C30103100224FF6B9
:10F540001E03FDF720FF1CBDA198020813B5044659
:10F55000FFF738FE084BB4F904000093E36AB4F9EE
:10F56000061003EB830301931C30103100224FF689
:10F570001E03FDF708FF1CBDA198020873B50546E0
:10F58000FFF720FEEB6AB5F90440B5F906601B6988
:10F590000E340022009331464FF61E032046FDF73D
:10F5A000D0FEEB6A31461A79114B001953F822301C
:10F5B000002200934FF61E03FDF7C3FEEB6A06F12F
:10F5C00010011A79052A01D10A4A06E0042A03D05B
:10F5D000094A00929B6802E0084A0092DB680193A6
:10F5E000204600224FF61E03FDF7CDFE7CBD00BF76
:10F5F0005885020858800208A19802085F80020816
:10F60000C36AF7B51D79044648F21043002D0CBFBC
:10F610001D460025FFF7D6FDB4F90470B4F9066065
:10F620000C4B0E37009331462A4638464FF61E03E0
:10F63000FDF787FEE36A38461A79074B06F1100199
:10F6400053F822302A4600934FF61E03FDF779FE49
:10F65000FEBD00BF638002082C8502087FB5064608
:10F66000FFF7B0FD0E4BF06A009314F09BFA0D49C2
:10F6700014F0A0FB0C4914F0E1F913F0FBFEB6F90D
:10F680000450B6F906401C351034CDE902010022C1
:10F69000284621464FF61E03FDF775FE7FBD00BFCD
:10F6A0006D800208000020410AD7233CC36A2DE97F
:10F6B000F0431F795B79A7F101014F4247EB010746
:10F6C00048F21048002F18BF4FF00008012B87B0F8
:10F6D000044608D002D3022B0FD109E03A4B1B6835
:10F6E000B3F8443008E0384B1B68B3F8583003E0F7
:10F6F000354B1B68B3F8B63103862046FFF762FD31
:10F70000E36AB4F904909A79304BB4F9065053F88F
:10F71000223009F10E0600933046294642464FF644
:10F720001E03FDF70EFE002F4BD0E36A284A99799D
:10F730009F6852F8214038460021103514F024FC0F
:10F7400068B1244B30460093424629464FF61E03CB
:10F75000FDF777FC07F100428619174601E009F131
:10F760001406384613F086FE02460B4602A81A49D4
:10F77000FDF706FB05E006AA02EB0903002203F8E9
:10F78000112C02AF384614F045FF8146204614F094
:10F7900041FF48440728EED83046294642464FF6F6
:10F7A0001E030097FDF7EEFD5CB123784BB10436E4
:10F7B0003018294644F208224FF61E030094FDF744
:10F7C000C0FD07B0BDE8F08378A50020C084020822
:10F7D000F08402087C7306085480020873B5B0F9FF
:10F7E0000420B0F906300E46B0F9021004464FF47A
:10F7F000E045101F0431043204330095FDF7E0FCAE
:10F80000B4F90630B4F90000B4F90420191F04302B
:10F81000043204330095FDF7D3FCB4F90000B4F9C9
:10F820000210B4F9063000F10C020096FDF7C8FC96
:10F83000B4F90000B4F90420B4F90210B4F90630A8
:10F840004BF296550830043A0095FDF7D7FAB4F913
:10F850000420B4F90210B4F90630A2F108000095B2
:10F86000FDF7AEFC7CBD73B5B0F90420B0F90630ED
:10F870000E46B0F9021004464FF4E045101F043163
:10F88000043204330095FDF79BFCB4F90630B4F95B
:10F890000000B4F90420191F043004320433009529
:10F8A000FDF78EFCB4F90000B4F90210B4F904209D
:10F8B000B4F906300096FDF783FC7CBD30B50246F6
:10F8C00085B00D460068516802AB022403C302A84C
:10F8D0000021FDF7B1FC2246234602A821460094F0
:10F8E000FFF712F902A82946FDF7A6FC02A8214657
:10F8F0000E2223460094FFF707F902A84BF2965117
:10F90000FDF79AFC05B030BD73B50446051D218C8A
:10F910002846FFF7D3FF2846FFF7D6F8E5690646E5
:10F92000284614F077FEB4F90610C0B28000301AF1
:10F93000023100224FF61E030095FDF702FD7CBD4B
:10F94000F0B589B0031D054604AC93E8030084E8D4
:10F9500003001846298CFFF7B1FF2046FFF7B4F8E3
:10F96000EE690746304614F055FEBDF91210C0B2DC
:10F97000800002310022381A4FF61E030096FDF770
:10F98000E0FC122104230A46009320460B46FFF7B1
:10F99000BBF8686A14F03EFE07462046FFF79BF866
:10F9A000ADF80800C0F30F40ADF80A00029E2046F3
:10F9B0000796FFF790F8ADF80800C0F30F40ADF8D8
:10F9C0000A0002996B6AFF0036B2A6EB6706069141
:10F9D000091400933046073900224FF61E03FDF745
:10F9E000B0FC09B0F0BDF0B585B0031D044602AD12
:10F9F00093E8030085E803001846218CFFF75EFFBB
:10FA00002846FFF761F8E6690746304614F002FE23
:10FA1000BDF90A10C0B2800002310022381A4FF638
:10FA20001E030096FDF78DFC122104230093284647
:10FA30000A460B46FFF768F8636ABDF90800BDF98E
:10FA40000A1000930430043100224FF61E03FDF724
:10FA500078FC05B0F0BD4BF29651FDF7BEBA2DE92A
:10FA6000F041012104460026FDF7C6FAD02514E036
:10FA7000EB10DA024FEAA50842EA4818204648EAA5
:10FA80000308FFF75FF8074602E04046FDF7BEFABD
:10FA9000013FFAD20D3DEDB201362046FFF704FAE0
:10FAA0008642E5DBBDE8F041FDF7CABA10B5044671
:10FAB00005F026F9231D20B91846BDE81040FFF7D0
:10FAC000CABF1846BDE81040FFF7C9BF2DE9FF4780
:10FAD000044605F015F94FF6FF75002808BF00250C
:10FAE0002046FFF7E3FFE369B4F904002A46B4F9BE
:10FAF0000610009304304FF61E03FDF722FC206A27
:10FB000001210368B4F904805B6898478146206A44
:10FB10000121036808F178071B689847B9F1010FC4
:10FB2000064607D1244BB4F90610009308F1700083
:10FB30002A460AE0B9F1000F0BD11F4BB4F90610A9
:10FB4000009308F1700048F210424FF61E03FDF7D3
:10FB500078FAD4F820A0231D93E803000DF10809DA
:10FB6000DAF8003089E803002046D3F81080ADF8B9
:10FB70000870ADF80C7005F0C3F8494602465046CF
:10FB8000C047206A03685B699847012E384405D155
:10FB90000A4BB4F9061000932A4606E04EB9074B0B
:10FBA000B4F90610009348F210424FF61E03FDF719
:10FBB00048FABDE8FF8700BF2E670608A067060861
:10FBC00037B5054605F09CF84FF6FF74002808BFCE
:10FBD00000242846FFF76AFFEB69B5F9040000939B
:10FBE000B5F90610043022464FF61E03FDF7A9FBB7
:10FBF0003EBD13B50446FFF759FFE369B4F90400AD
:10FC00000093B4F90610043000224FF61E03FDF7EE
:10FC100098FB1CBDF0B585B0044605F071F84FF6B1
:10FC2000FF75002808BF0025204605F069F890B14F
:10FC300002AB221D92E8030083E80300BDF8082010
:10FC40001846083AADF80820BDF80C200832ADF887
:10FC50000C20FFF704FF204605F052F858B1174B6F
:10FC6000B4F904000093B4F9061007382A464FF699
:10FC70001E03FDF7E6F9276A20463B681E6905F07A
:10FC80003FF8211D02463846B047206AA78803681E
:10FC90005B6998470646204605F032F858B1084B94
:10FCA0003FB2781C0093B4F9061080192A464FF62B
:10FCB0001E03FDF7C6F905B0F0BD00BF2E670608AC
:10FCC000A067060838B54FF61F03994204460A4656
:10FCD00007D0056961698068E3682818C918FDF7CD
:10FCE00075F86269236912F0010F07D0591E0029C7
:10FCF00021610BDA01322361626138BDA069591CB0
:10FD00008142216102DB01322361626138BD10B59D
:10FD100000231A46416811F8014B416004F07F014D
:10FD20009140073214F0800F43EA0103F2D11846E4
:10FD300010BD38B54FF0FF3303600B780446472BF6
:10FD40000D461CD18B1C4360FFF7E1FFA0612046EC
:10FD5000FFF7DDFFE0616B78422B10D1234604F101
:10FD6000200061680A4612F8015B6260497801323E
:10FD7000626041EA05221A8402338342F1D138BD20
:10FD800003460068B0F1FF3F06D15A6812F8010B34
:10FD900018605A60001170474FF0FF3200F00F00FA
:10FDA0001A60704770B50024064625463046FFF7B6
:10FDB000E7FFC0B200F00703AB40033510F0080FB7
:10FDC00044EA0304F2D1204670BD00002DE9F84357
:10FDD0004FF0FF3303600133036143618769C369F7
:10FDE00004468160C260D0F804805F4301262FE0A2
:10FDF000AEB12046FFF7D6FF451C2046FFF7C0FFF7
:10FE00000026814607E009F11003204634F813105C
:10FE1000FFF758FF0136AE42F5DB002612E0204620
:10FE2000FFF7AEFF451C0AE02046FFF7A9FF00F1EF
:10FE3000100334F813102046FFF744FF0136AE429A
:10FE4000F2DB01267F1B03D504484821FDF7BAFAEF
:10FE5000002FCDDCC4F80480BDE8F883738002086D
:10FE6000074A08481168084B30B50468074DCB189D
:10FE700005FB04330131036058041160400C30BDB0
:10FE8000C4A4002018300020F390240021F17D004C
:10FE900030B5264B89B0044605AD93E807000C3316
:10FEA00085E8070093E8070094F8203002AD85E864
:10FEB0000700C3B1201D4FF6FF71FDF78EF8B4F9AE
:10FEC0000400B4F90A101A4B0830009314394FF6A5
:10FED0001E030022FDF735FA002384F82030059B2D
:10FEE0006362029BA362FFF7BBFF032290FBF2F267
:10FEF00002EB420208A9821A01EB82020346616A00
:10FF000052F80C0C9B0040184010606252F8181C0C
:10FF1000A26A89184FF6FC72491003EA0202A16234
:10FF200009B0BDE83040FCF751BF00BFA07D02081A
:10FF30008B8002084162704773B5044616460D4631
:10FF400019B90C480D21FDF73DFA0B4B00211B6838
:10FF50002046B3F844300A462386E5620223009621
:10FF6000FEF79BF9204604F1300102B0BDE8704075
:10FF7000FFF7E0BFD27D020878A5002073B50546E3
:10FF800016460C4619B90A480C21FDF71BFAEC621B
:10FF9000284634F8062F002102230096FEF77DF94B
:10FFA0002846214602B0BDE87040FFF7C3BF00BF3E
:10FFB0002B7E020873B5044616460D4619B90C4847
:10FFC0000D21FDF7FFF90B4B00211B682046B3F80C
:10FFD00044300A462386E56202230096FEF75DF967
:10FFE000204604F1300102B0BDE87040FFF7A2BF27
:10FFF0005A7E020878A500202DE9F0410C461546EE
:020000040801F1
:1000000098460026A75B1FB94FF61F03A3530DE0C8
:10001000FA08294602F0FC02404604F0A5FCFA0A60
:10002000A0530021D20004F09FFCA0530236202EE2
:10003000E8D1BDE8F08110B592B0044604F060FE4E
:10004000231D218C70B11846FFF70DFC616A21B3A6
:1000500002A8FFF76EFE20460AA94EF210424FF6A4
:10006000FF730DE01846FFF7B9FB616AA9B102A85A
:10007000FFF75FFE20460AA94EF21C724BF2965320
:10008000FFF7BAFF089BB4F90810B4F90A20C91A9F
:10009000099B02A8D21AFFF799FEE369B4F904009C
:1000A0000093B4F906100C3000224FF61E03FDF742
:1000B00048F912B010BD41608260037370470000C0
:1000C00008B50379012B09D002D3022B0FD10AE026
:1000D0008368188800F01F00400808BD83681888EE
:1000E000C0F3C31008BD83681888000B08BD03481F
:1000F0004FF48271FDF766F9002008BD987E020872
:1001000030B54FF6FF7585B00C46002A08BF0025B4
:10011000FFF7D6FF04F054FB00238DF80D3003AB3E
:100120008DF80C000093B4F90000B4F902102A46CF
:100130004FF61E03FDF726F905B030BD002908B5BE
:100140000CDDFFF7BDFF0E288CBF0020012008BD8D
:10015000FFF7B6FF003818BF012008BDF8DB00200C
:1001600008BD00000379012B12D002D3022B2CD141
:100170001DE08268138823F01F031B041B0C0F294A
:1001800002D04900C9B200E01F2141EA03031AE08E
:100190008268138823F4FC631B041B0C0F2902D014
:1001A0008900C9B200E03F2143EA41130BE08268B5
:1001B00013885B055B0D0F2902D04900C9B200E02E
:1001C0001F2143EAC1231380704702484FF48E7108
:1001D000FDF7F8B8987E020810B50446FFF770FFE7
:1001E00030B1411EC9B22046BDE81040FFF7BABF8A
:1001F00010BD10B50446FFF763FF0E2806D8411C5A
:10020000C9B22046BDE81040FFF7ACBF10BDC868BA
:100210004042704710B5044604F078FE014B20467A
:10022000236010BD48760208014B0360704700BF91
:100230009076020810B50446FFF7F6FF014B204602
:10024000236010BD6876020810B50446FFF7ECFF86
:10025000014B2046236010BD307A020810B50446D9
:1002600004F054FE014B2046236010BDD8760208EE
:1002700010B50446FFF7F2FF014B2046236010BD86
:10028000B876020810B50446FFF7E8FF014B204698
:10029000236010BDF07B020810B5044604F040FF57
:1002A0002046BDE8104004F019BFFFF7F5BFFFF787
:1002B000F3BF000038B50D4B1B68D3F8C040002CCD
:1002C00011DDD3F8B400013013F06CFC014608488E
:1002D00013F070FD0546204613F064FC01462846E5
:1002E00013F068FD38BD002038BD00BF78A50020A0
:1002F00000BA5B4A37B50446FEF764FF2046FFF7B5
:10030000D9FF13F069FE13F04DFC0821B4F9045035
:10031000B4F9064004F0AAFA1C35103400902146C6
:10032000284600224FF61E03FDF72CF83EBD0000C4
:1003300038B5104B084610491C6813F087FC054679
:10034000D4F8C00013F02EFC0146284613F07EFCC2
:1003500001460A4813F02EFD13F03EFED4F8B430E7
:1003600001380128B8BF0120C4F8B400C01A18BF72
:10037000012038BD78A500200000A0414054894CE0
:100380002DE9F04711F0010904460D4603D111F0A3
:10039000020F00F0CE802046FFF78CFF00210646BA
:1003A000012713F005FE00B9002717F0FF0F03D156
:1003B00062482321FDF706F83046614913F0EEFD4F
:1003C000E8B930465F4913F0E9FDD8B930465E49D7
:1003D00013F0E4FDC0B930465C4913F0DFFDA8B965
:1003E00030465B4913F0DAFD90B93046594913F0B5
:1003F000D5FD78B93046584913F0D0FD60B94FF0BB
:100400007E570AE0554F08E04D4F06E04D4F04E09F
:100410004D4F02E04D4F00E04D4FB9F1000F11D0AC
:100420003046394613F0CEFD28B13046394613F038
:1004300003FB804600E0B0464046002113F0AEFDCD
:1004400010B903E0B04601E04FF07E5815F0020FFE
:1004500010D04046424913F097FD20B1404639463E
:1004600013F0ECFA80464046002113F097FD08B1E6
:100470004FF07E583946404613F09CFC13F0ACFD1B
:1004800013F090FB394613F0E1FB4FF07E51074625
:1004900013F07AFD08B14FF07E573846314613F01D
:1004A00069FD002843D139462046FFF741FF8046C9
:1004B0002046FFF7FFFE31468246384613F082FDA4
:1004C00038B15046314613F069FD002818BF4FF08F
:1004D00000083846314613F057FD20B150463146EA
:1004E00013F066FD10B9B8F1000F16D11D4BB9F12C
:1004F000000F07D01B68D3F8B400B0F5803F0CDACA
:10050000013005E01B68D3F8B400012805DD01388F
:10051000C3F8B40080B2FDF7C7F9204604F000FC30
:100520002046E16846F67512002304F000FC2046E0
:100530002946BDE8F047FDF769BC00BF9880020876
:100540000000C84200007A4400401C460050C347E7
:10055000002474498096184B20BCBE4C00002041FA
:100560008096984B78A5002010B5054C2368586AF2
:10057000FBF7C6FF2368986ABDE81040FBF7C7BFCA
:1005800078A5002010B5054C890023685962FFF753
:10059000EBFF2068BDE8104003F096B878A5002076
:1005A00010B5074C890023689962FFF7DDFF6420CE
:1005B000FBF762FF2068BDE8104003F085B800BF7C
:1005C00078A500202DE9FF41044604F099FB4BF289
:1005D0009655B4F90A204FF6FF73002818BF1D4640
:1005E000B4F90410B4F90830101F083B0C3A00901D
:1005F000123102A8FEF79DF902A844F20821FCF787
:10060000ECFC02210A460B4602A80091FEF77CFA98
:1006100002A8FEF797FA23688046DB6920469847D0
:10062000236807469B6A20469847236806465B6A0C
:1006300020469847A8F1100807FB08F7361ABDF8BE
:10064000083097FBF6F7FF18BFB2ADF8087002A8A4
:1006500010372946ADF80C70FCF7BFFCBDE8FF81F0
:10066000036870B5DB690E460446984716F0010F23
:1006700005460DD0236820465B6A9847854207DD12
:10068000236820461B6A691E98472046FFF79AFF99
:1006900016F0020F0DD0236820469B6A98478542CA
:1006A00007DA236820461B6A691C98472046FFF733
:1006B00089FF20463146BDE87040FDF7A7BB10B565
:1006C0000446FEF77FFD2046BDE81040FFF77ABFE5
:1006D000014B18682C30704778A5002008B5FFF74B
:1006E000F7FF0368013B036008BD08B5FFF7F0FFA3
:1006F00003680133036008BD38B504460D46FFF7B3
:10070000E7FF006863682D189D4205DBA0688542FD
:10071000CCBF0020012038BD002038BD4160826080
:100720007047000010B5FFF7D3FF006838B100B282
:1007300004F012F80349044613F076FD00E0024C81
:10074000204610BDCE800208C880020808B5FFF719
:10075000E9FF13F05FFFC3004FF6F87003EA0000F3
:1007600008BD73B54FF6FF740E88002A08BF002439
:10077000B1F90250FFF7D6FF2946009022463046D5
:100780004FF61E03FCF7DDFD7CBD2DE9F04100F1C5
:10079000300405460F461646204600210F22DDF89C
:1007A0001880FFF7BBFF284621463A463346CDF86E
:1007B0001880BDE8F041FDF7A9BD00007FB50E46E9
:1007C000F0233C210446154600930A46283302A82C
:1007D000FEF7AFF820462A4602AB1049009604F017
:1007E00063FA04F1200002230D4948F210420094FC
:1007F000FDF789FD04F14C0002230A4948F210423A
:100800000094FDF780FD04F17800074948F210429A
:1008100002230094FFF7B9FF7FBD00BFD480020818
:10082000E5800208EF800208F68002080A4B73B5E3
:100830001A6800F1300405460E46204608320123AE
:100840000649FFF738FC28462146054A48F210437E
:100850000096FDF75BFD7CBD78A50020E4850208CD
:10086000098102084160704710B5044608F002FC97
:1008700063681B68002B04DA094ADB4352F8230043
:1008800010BD0C2202FB030002780AB9406810BDBB
:10089000013B0C38B3F1FF3FF6D1002010BD00BF83
:1008A000EC850208436810B51C68002C06DB08F0D4
:1008B000E1FB0C2303FB0404606810BD002010BDA5
:1008C00038B50446FFF7D0FF05462046FFF7EAFF9C
:1008D00004461DB1284613F09DFE05461CB1204676
:1008E00013F098FE00E02046451904B10235ED00F2
:1008F0004FF6F87005EA000038BD00002DE9F3411D
:100900004FF6FF7607460C46002A08BF00260D88E2
:10091000FFF7AAFF80463846FFF7C4FF0746B8F145
:10092000000F0BD02846B4F9021032464FF61E03D2
:10093000CDF80080FCF705FD2D18ADB2B7B10C4B1A
:100940000435ADB2B4F902100093284632464FF692
:100950001E03FCF7F6FC04352818B4F9021080B227
:1009600032464FF61E030097FCF7EBFCBDE8FC8116
:100970001681020838B50C46154608F07BFB2B198A
:1009800005D5124A13F1050FB8BF13461BE0002D21
:100990004FF00C020BDD631C02FB040402E00C347C
:1009A0008AB90133227B022AF9D1084B0BE0631E7E
:1009B00002FB040403E014F80C2D22B9013B002BC8
:1009C000F9DA4FF0FF33184638BD00BF19FCFFFFBE
:1009D00010B544684FF0FF322168FFF7CBFF20606D
:1009E00010BD10B5446801222168FFF7C3FF2060E5
:1009F00010BD000008B543680A461968FFF7BAFF42
:100A0000024BC01A18BF012008BD00BF19FCFFFF30
:100A100007B5009111461A4648F21043FDF776FCDF
:100A20000EBD00007FB51546F023282204460E4671
:100A300000933C219B1802A8FDF77BFF2A4602ABDE
:100A4000214D20462149009604F02EF904F12000A2
:100A50002146FFF7EBFE296804F1600630460C31B1
:100A6000FFF700FF324604F168002146184BFFF7FC
:100A7000CFFF296804F1980630461031FFF7F2FEE7
:100A8000324604F1A0002146124BFFF7C1FF29684E
:100A900004F1D00630461431FFF7E4FE324604F18B
:100AA000D80021460C4BFFF7B3FF296804F5847684
:100AB00030461831FFF7D6FE04F5887021463246DD
:100AC000064BFFF7A5FF7FBD78A50020188102081F
:100AD0002C8102083A8102084A81020854810208E6
:100AE00010B5044604F012FA014B2046236010BDF5
:100AF0000076020810B50446FFF7F2FF014B2046CE
:100B0000236010BDC87B020810B50446FFF78CFBBC
:100B1000014B2046236010BD107C020810B504462E
:100B2000FFF79CFB014B2046236010BD587C020858
:100B300070B50546FFF792FB064B2C4644F8203B68
:100B400005F1B00620462434FFF7E8FFB442F9D19E
:100B5000284670BD387C020810B50446FFF764FBD8
:100B6000014B2046236010BD787C020810B5044676
:100B7000FFF750FB214B204640F8243BFFF782FB58
:100B800004F14400FFF77EFB04F16400FFF77AFBF9
:100B900004F18400FFF776FB04F1A400FFF7B4FF33
:100BA00004F1B000FFF7B0FF04F1BC00FFF7ACFFA9
:100BB00004F1C800FFF7A8FF04F1D400FFF7B8FF65
:100BC00004F5C270FFF7A0FF04F5C870FFF79CFFA3
:100BD00004F5CE70FFF798FF04F5D470FFF794FF8B
:100BE00004F5DA70FFF7A4FF04F51970FFF7B4FFFE
:100BF00004F51B70FFF73CFB204610BD3094020843
:100C000010B50446FFF72AFB014B2046236010BDB8
:100C1000A07C020810B50446FFF7FCFA2D4B2046D5
:100C200040F8643BFFF7ECFF04F18400FFF7E8FFB6
:100C300004F1A400FFF7E4FF04F1C400FFF722FB76
:100C400004F1E400FFF71EFB04F58270FFF71AFBC6
:100C500004F59270FFF716FB04F5A270FFF712FB84
:100C600004F5B270FFF70EFB04F5C270FFF7E2FA6D
:100C700004F5CA70FFF7FCFA04F5DC70FFF7DAFA46
:100C800004F5E470FFF7F4FA04F5F670FFF764FF7B
:100C900004F5FA70FFF7ECFA04F50670FFF75CFF55
:100CA00004F50870FFF7E4FA04F51170FFF72CFF64
:100CB00004F51470FFF728FF04F51770FFF724FF01
:100CC00004F51A70FFF720FF04F51D70FFF730FFE1
:100CD000204610BD5093020810B5044604F016F9E2
:100CE000114B204640F8203BFFF704FF04F1500071
:100CF000FFF7F6FE04F17C00FFF7F2FE04F1A80016
:100D0000FFF7EEFE04F1D400FFF7EAFE04F5807071
:100D1000FFF7E6FE04F59670FFF728FF04F5717003
:100D2000FFF778FF204610BD8894020810B50446EE
:100D300004F0ECF8054B20462360012384F82830AA
:100D400000232362002384F8293010BDB8AC0208C8
:100D500070B504460D46164604F0D8F8024B2562DD
:100D600023606662204670BD409C020870B5044650
:100D70000D46164604F0CAF8024B256223606662EF
:100D8000204670BD209C020870B504460D461646EC
:100D900004F0BCF8034BED00F600236025626662A8
:100DA000204670BD009C020810B520213222044666
:100DB000FFF7CEFF014B2046236010BD5875020897
:100DC000202110B50A460446FFF7C2FF014B20461A
:100DD000236010BD7875020810B520210722044653
:100DE000FFF7C4FF014B2046236010BD9875020831
:100DF00010B5202110220446FFF7C6FF014B204604
:100E0000236010BDB875020870B5438986B0A3F1A0
:100E10001802153BADF81220ADF816300546066EE7
:100E2000FCF7BEFC4FF4C8746643B6FBF0F06D6E81
:100E3000ADF81000FCF7B4FC01356543BDF8103087
:100E4000B5FBF0F5ADF814501AB22DB2AD1A012D64
:100E500007DC0233ADF814301BB2A342C8BFADF8B3
:100E6000144004AC20464FF6FF71FCF7B6F8BDF80D
:100E7000102013B2002B0EDD02AB94E8030083E8D0
:100E80000300ADF80C201846002244F20821ADF80A
:100E90000820FCF7A2F8BDF8142013B2B3F5C87F00
:100EA0000FDA02AB04A903C983E80300ADF80820F8
:100EB00018464FF4C87244F20821ADF80C20FCF734
:100EC0008CF8FCF797FC0446FCF76AFC4FF4C873F7
:100ED0005C43BDF91210BDF916301F22B4FBF0F0CF
:100EE000009201310246013BFCF7D4FA06B070BD16
:100EF00010B5044604F00AF8044B20462360012391
:100F000084F82030013B636210BD00BF687B02089B
:100F100003F006BF47F269418A4201D1FFF7F8BFEB
:100F200044F644418A4205D001318A4202D101226D
:100F300080F82020704710B50446FBF789FA40F28C
:100F40002D1360602381204610BD038813B940F241
:100F50002D13038109880180704738B504460D467A
:100F6000FBF776FA62682389821A9A4215D9238898
:100F70009BB12B80238940F22D129342606002D1F5
:100F80004FF4967307E0B3F5967F01D1642302E036
:100F90000A2B04D90A3B238138BD00232B8038BD9E
:100FA00010B5044603F0B2FF014B2046236010BD8C
:100FB000F890020810B5044603F0A8FF014B204644
:100FC000236010BD3875020810B50446FFF788FD90
:100FD000014B2046236010BDD875020810B50446A9
:100FE000FFF718F9114B204640F8283BFFF722F98C
:100FF00004F13800FFF71EF904F14800FFF71AF971
:1010000004F15800FFF716F904F16800FFF730F912
:1010100004F18C00FFF72CF904F1B000FFF728F978
:1010200004F1D400FFF724F9204610BD2876020809
:1010300070B5054603F06AFF084B2C4644F8203B88
:1010400005F5AC7620463434FFF7BEFFB442F9D143
:101050002046FFF7C3FF284670BD00BFC0980208B6
:1010600010B50446FFF73CFD014B2046236010BD40
:101070005077020810B50446FFF7F2FF014B2046F7
:10108000236010BD1877020810B50446FFF7E8FF8B
:10109000014B2046236010BD8877020810B5044636
:1010A000FFF71EFD014B2046236010BDE8770208C4
:1010B00010B50446FFF7B8F8014B2046236010BD79
:1010C0001078020810B50446FFF7E8FF034B2046EE
:1010D00040F8303BFFF7ECFF204610BDC077020818
:1010E00010B5044603F012FF094B204640F8203BA0
:1010F000FFF7C0FF04F14C00FFF7C6FF04F17800D2
:10110000FFF7E0FF04F1B400FFF7EAFC204610BD52
:10111000F876020810B50446FFF7C0FF034B2046DF
:1011200040F8303BFFF786F8204610BD587802089B
:1011300010B50446FFF778F8014B2046236010BD38
:101140008078020810B50446FFF7A8FF014B20463F
:10115000236010BDA878020810B5044603F0D6FE3F
:10116000134B204640F8203BFFF7D4FF04F160000A
:10117000FFF7DEFF04F16800FFF7E4FF04F19800D9
:10118000FFF7D6FF04F1A000FFF7DCFF04F1D00069
:10119000FFF7CEFF04F1D800FFF7D4FF04F5847009
:1011A000FFF7C6FF04F58870FFF7CCFF204610BD9F
:1011B0003878020810B50446FFF792FC014B204630
:1011C000236010BDD078020810B5044603F09EFEDF
:1011D000194B204640F8203BFFF72CF804F1300073
:1011E000FFF728F804F14000FFF724F804F150005D
:1011F000FFF720F804F16000FFF71CF804F170001D
:10120000FFF718F804F18000FFF7D4FF04F1B000F5
:10121000FFF7D0FF04F1E000FFF7CCFF04F5887082
:10122000FFF7C8FF04F5A070FFF7C4FF04F5B8701E
:10123000FFF7C0FF204610BDC09B020810B5044652
:10124000FFF74EFC014B2046236010BDF8780208E2
:1012500010B5044603F05AFE154B204640F8203BDB
:10126000FFF7ECFF04F14C00FFF7E8FF04F1780012
:10127000FFF7E4FF04F1A400FFF7E0FF04F1D00062
:10128000FFF7DCFF04F1FC00FFF7D8FF04F59470D2
:10129000FFF790FF04F5AC70FEF7CCFF04F5B470D7
:1012A000FFF788FF04F5CC70FEF7C4FF204610BDA1
:1012B00000AC020810B50446FFF7F0FE034B2046D1
:1012C00040F8303BFEF7B6FF204610BD20790208FB
:1012D00010B50446FFF704FC014B2046236010BD07
:1012E0004879020810B50446FFF7FAFB014B204687
:1012F000236010BD7079020810B50446FFF7F0FBBB
:10130000014B2046236010BD9879020810B50446B1
:1013100003F0FCFD094B204640F8203BFFF7CAFFD5
:1013200004F16000FFF7D4FF04F18C00FFF7DAFF4F
:1013300004F1BC00FFF7E0FF204610BD60A60208E4
:1013400070B5054603F0E2FD064B2C4644F8203B01
:1013500005F1FC0620462C34FFF7C2FBB442F9D15C
:10136000284670BD40A7020810B5044603F0CEFD24
:101370000D4B204640F8203BFFF7B2FB04F14C0038
:10138000FFF7AEFB04F17800FFF7AAFB04F1A4001D
:10139000FFF7A6FB04F1D000FFF7A2FB04F1FC006D
:1013A000FFF79EFB204610BDB0A6020810B504460C
:1013B000FFF796FB014B2046236010BDC079020861
:1013C00010B50446FFF78CFB014B2046236010BD8F
:1013D000E879020810B50446FEF71CFF0D4B2046C5
:1013E00040F8283BFEF726FF04F13800FEF740FFE7
:1013F00004F15C00FEF728FF04F16C00FEF738FFF3
:1014000004F19000FEF720FF04F1A000FEF730FF8A
:10141000204610BD107A020810B50446FEF704FFFE
:10142000014B2046236010BD787A020810B50446AF
:10143000FEF7FAFE014B2046236010BDA07A020899
:1014400010B50446FEF7E6FE154B204640F8283B53
:10145000FFF7E2FF04F13000FFF7E8FF04F13C0082
:10146000FFF7E4FF04F14800FFF7E0FF04F1540048
:10147000FEF7FEFE04F17800FEF7FAFE04F19C0090
:10148000FEF7F6FE04F1C000FEF7F2FE04F1E40000
:10149000FEF7D0FE04F1F400FEF7EAFE204610BD90
:1014A000587A020810B5044603F030FD0D4B204673
:1014B00040F8203BFFF77AFF04F15000FFF776FF7A
:1014C00004F18000FFF772FF04F1B000FFF778FF2E
:1014D00004F1E000FFF77EFF04F5D270FFF7B0FFE4
:1014E000204610BD709B020810B5044603F00EFDA7
:1014F000014B2046236010BDC87A020810B504468F
:1015000003F004FD014B2046236010BDE87A020879
:1015100010B5044603F0FAFC014B2046236010BDD1
:10152000087B020810B5044603F0F0FC014B20468E
:10153000236010BD487B020810B5044603F0E6FCAA
:10154000014B2046236010BD887B020810B504467D
:1015500003F0DCFC014B2046236010BDA87B020891
:1015600010B50446FFF7BCFA014B2046236010BDBE
:10157000C07C020810B50446FEF74CFE114B204615
:1015800040F8283BFEF756FE04F13800FEF752FE05
:1015900004F14800FEF74EFE04F15800FEF74AFE43
:1015A00004F16800FEF764FE04F18C00FEF760FEB3
:1015B00004F1B000FEF75CFE04F1D400FEF758FE23
:1015C000204610BDE87C020870B5054603F09EFC7D
:1015D000084B2C4644F8203B05F5AC7620463434C5
:1015E000FFF7BEFFB442F9D12046FFF7C3FF2846FC
:1015F00070BD00BF08AD020810B5044603F086FCBC
:10160000014B2046236010BD389D020810B50446EA
:1016100003F07CFC014B2046236010BD087D0208CE
:1016200010B5044603F072FC134B204640F8203BF3
:10163000FFF7ECFF04F14800FFF7E8FF04F170004A
:10164000FFF7E4FF04F19800FFF7E0FF04F1C000AA
:10165000FFF7DCFF04F1E800FFF7D8FF04F588701E
:10166000FFF7D4FF04F59C70FFF7D0FF04F5B070CE
:10167000FFF7CCFF204610BDA891020810B5044624
:1016800003F044FC014B2046236010BD287D020876
:1016900010B5044603F03AFC014B2046236010BD10
:1016A000687D020810B5044603F030FC054B204667
:1016B00040F8303BFFF7ECFF04F15000FFF7E8FF84
:1016C000204610BD487D020810B5044603F01EFCFC
:1016D000014B2046236010BDE0AA020810B5044665
:1016E00003F014FC054B204640F8203BFFF7D0FFE9
:1016F00004F14000FFF7CCFF204610BD887D0208B2
:1017000010B5044603F002FC014B2046236010BDD7
:10171000C0AA020838B5044603F0F8FB5D4B20462A
:1017200040F8203BFFF73CFC04F1440001F088FB4B
:1017300004F53370FFF73EFC04F54270FFF734FB0D
:1017400004F54C70FFF73CFB04F55670FFF744FBC3
:1017500004F56070FFF74CFB04F56B7006F0DAF8E7
:1017600004F51A601C300AF005FD04F546600C30E3
:10177000FFF75EFC04F56A601C30FFF7B1FC04F56E
:1017800078601C30FFF7E8FC04F586501C30FFF74A
:101790001BFD04F592503C30FFF75AFD04F5A050B4
:1017A0002830FFF7B3FD04F5A8501430FFF7C8FD4B
:1017B00004F5B0501030FFF7D7FD04F5B8503830BD
:1017C000FFF770FE04F5CE5004F5D0553430FFF726
:1017D0008BFE05F11400FFF791FE05F1340004F5CE
:1017E000D255FFF795FE05F11400FFF79BFE05F1BA
:1017F0003400FFF77DFB04F5D550FFF79DFE04F59F
:10180000D650FFF7A3FE04F5085504F5D750FFF7AF
:1018100063FA05F13800FFF789FA05F16400FFF774
:10182000D3FE04F51250343009F04AFB04F5185089
:1018300004F51A5520300DF043FD05F14400FFF783
:10184000DBFE05F16400FFF7EBFE04F520506C3081
:10185000FFF714FF04F5225004F524551430FFF768
:1018600021FF281D0BF0FFF905F1300004F52A5582
:101870000BF027FE05F10C00FFF726FF05F1300005
:10188000FFF72CFF04F52C501830FFF739FF2046E6
:1018900038BD00BFB08A020810B50446FFF73AFF12
:1018A00004F52C50443001F0A5FE04F540503430CE
:1018B000FFF741FB204610BD10B5064C236813F01E
:1018C000010F04D10448FFF7E7FF0123236002481A
:1018D00010BD00BF8074002084740020F8B5046837
:1018E00005460E461046214612F0A6F80746B6F900
:1018F0000200B6F90060801B12F054F90146384628
:1019000012F0A4F921460746686812F095F80146DE
:10191000384612F04FFA0446304612F043F90146B9
:10192000204612F08BF812F057FBF8BD0A4600F182
:101930000801FFF7D3BF0000094B10B5C06A1C684F
:1019400012F030F9074912F035FA04F59C640146AB
:101950002046FFF7EBFF80B2BDE81040FBF79ABFCF
:1019600078A500200000204111F0010F70B5044659
:101970000D4609D0C36A032B06DD013BC36203F0A9
:10198000CFF92046FFF7D8FF15F0020F0AD0E36A1F
:10199000182B07DC01332046E36203F0C1F920462F
:1019A000FFF7CAFF20462946BDE87040FCF72EBA73
:1019B00070B50523002408E0E5186D1030F91560B6
:1019C000B242B8BF2B46A8BF2C461D1B012DF3DC2D
:1019D00030F9145051F8244051F82310521B091BC0
:1019E0004A4330F91300451B92FBF5F0001970BD16
:1019F000B0F9003010B50C684968D21A091B4A4387
:101A0000B0F90200C31A92FBF3F0001910BD0000F8
:101A10002DE9F8438F7930257D43B1F90A900646C8
:101A200005F118014019144671184A460C30FFF7A9
:101A3000BFFF804660607019011D4A46FFF7D8FF5E
:101A4000044BA06053F8273090FBF8F0E06023606F
:101A5000BDE8F883207B0208F0B5314D87B004461D
:101A600000210430FBF7B9FA2B68C826B3F8A03080
:101A7000B4F90A1073432B4A0539A1EB13210092E4
:101A80004FF61E03B4F9040046F20C32FBF7D9FA04
:101A9000296891F85430E3B101F5587002AA503129
:101AA000FFF7B6FF2F6802A907F55870FEF7AFFBE6
:101AB00080B24643B4F90A101B4B0539B7F85820D9
:101AC000B4F904000093A1EB16214FF61E03FBF7B7
