:020000040800F2
:10C0000000000120193805082D3605082F360508CF
:10C0100031360508333605083536050800000000BE
:10C020000000000000000000000000003936050894
:10C0300037360508000000003B3605083D36050888
:10C040003F360508413605084336050845360508DC
:10C0500047360508493605084B3605084D360508AC
:10C060004F3605085136050853360508553605087C
:10C0700057360508593605085B3605085D3605084C
:10C080005F3605086136050863360508653605081C
:10C09000693605086D3605086F36050871360508DE
:10C0A00073360508753605087736050879360508AC
:10C0B0007B3605087D360508913705089337050856
:10C0C0009537050897370508993705089B37050800
:10C0D0009D3705089F370508AD370508AF370508B8
:10C0E000B1370508B3370508B5370508B737050870
:10C0F000B9370508BB370508BD370508BF37050840
:10C10000C1370508C3370508C5370508C73705080F
:10C11000C9370508CB370508CD370508CF370508DF
:10C12000D1370508D3370508D5370508D7370508AF
:10C1300044534F5F4150503A204761626F6E6174C3
:10C140006F727320616C7465726E617469766520BC
:10C1500055493B416C7465722055493B4761627299
:10C1600069656C2056616C6B7920323031333B004D
:020000040804EE
:10C0000020B10368197003680133036070472DE99C
:10C01000F041161E04460D4614DD002200E00132F8
:10C02000A95C0029FBD1B24203F00208B4BFC2EB05
:10C0300006060E46B8F1000F0CBF4FF020084FF077
:10C04000300801E04FF0200813F0010709D105E0A6
:10C0500020464146FFF7D4FF0137013E002EF7DCB2
:10C0600005E0002703E02046FFF7CAFF013715F877
:10C07000011B0029F7D105E020464146FFF7C0FF2C
:10C080000137013E002EF7DC3846BDE8F0812DE98E
:10C09000FF410A9F05460B9EDDF830C08E4651B920
:10C0A00030238DF804308DF805103A4601A9334647
:10C0B000FFF7ADFF3CE03BB10A2A07D1002905DAC2
:10C0C000C1F1000E012402E01C4600E0002404A996
:10C0D000002301F8013D0EE0BEFBF2F302FB13EE7C
:10C0E000BEF1090FC4BFACF13A0086440EF1300E28
:10C0F00001F801ED9E468846BEF1000FECD184B1F7
:10C100004FB116F0020F06D028462D21FFF778FF19
:10C11000013F012405E02D2301F1FF3801F8013C26
:10C120000024284641463A463346FFF770FF00197F
:10C1300004B0BDE8F0812DE9F0478AB006460D460F
:10C1400005920024DBE0252B40F0D38015F8013F59
:10C15000002B00F0D880252B00F0CB802D2B02D1B6
:10C1600001352C3B03E0002301E043F002032946A4
:10C1700015F8012B302AF8D0002702E00A2202FB32
:10C1800007070A780D46A2F130005FFA80FC013102
:10C19000BCF1090FF2D9732A09D1059A3046111D55
:10C1A000059111685C4A002908BF11469DE0642A88
:10C1B0000ED1059A01936123111D029300970591F9
:10C1C00030461168603B0A22FFF761FF241895E0B2
:10C1D000662A54D1059B073323F0070303F10802B5
:10C1E000D3E9000105921BF0EBF8002180461BF01B
:10C1F000E3FB38B12D238DF8183008F100480DF11C
:10C20000190A01E00DF1180A40461BF0FDFB01235D
:10C2100000E013460A225A439042FADA90FBF3F206
:10C2200002F1300103FB12000A2293FBF2F30AF839
:10C23000011B002BF2D124328AF80020002F08BF06
:10C240000327994640461BF0DFFB1BF0C3F901466C
:10C2500040461BF009F931491BF010FA80461BF0EB
:10C26000D3FB09F101093030B9450AF8010FE9DBC8
:10C2700000228AF80120304606A9202336E0782AD9
:10C280000AD1059A01936123111D0097029305912C
:10C2900030461168102219E0582A0BD1059A0193F3
:10C2A0004123111D02930097059130461168413BCF
:10C2B000102289E7752A0BD1059A01936123111D7C
:10C2C000009702930591304611680A22613B7BE793
:10C2D000632A13D1059A3046111D126805918DF815
:10C2E000242000228DF8252009A93A46FFF78FFE69
:10C2F0006CE730462978FFF783FE013401352B784F
:10C30000002B7FF420AF16B1336800221A7020464C
:10C310000AB0BDE8F08700BFE0AE0608000020418B
:10C32000014BD86C80B2704700240140014B186863
:10C33000704700BFC4A7002001461420B7F786BF8E
:10C34000034B18801A8892B2002AFBD1704700BFB5
:10C35000D0A70020044B10B5196804460320B7F796
:10C3600075FF024B1C8010BD00300020D2A70020BA
:10C3700030B5002308E00A24B0FBF4F104FB1100FF
:10C380003030D054013388B2084A0028F3D1D05459
:10C390005910013BD31804E0145C5D7815545C70AF
:10C3A0000130013B8842F7DB004830BDAC32002051
:10C3B00008B506200021B7F74DFF5A234343A3F5E4
:10C3C0008223A3F56B6340F2145093FBF0F00A3024
:10C3D0006428A8BF642020EAE07008BD0128ACBF33
:10C3E000014601210220B7F731BF00EBD070024BAC
:10C3F00040101860704700BF00300020052810B5BD
:10C4000007D8044B53F8200018B1046807F0BCF8B3
:10C41000A04710BDF09F0608052898BF094B10B52E
:10C420009ABF03EB80008369002303F54872184626
:10C43000054953F8044B8C4202D09342F7D10020B7
:10C4400010BD00BFF09F060844534F5FC0B2B7F75E
:10C45000FDBE47F26623984201D1B7F7EBBEC0B2EA
:10C46000B7F7F8BE43680A6823F4702323F4807397
:10C4700013430A7910B543EA022343608A68CB6804
:10C4800084681A43094B04EA030342EA03034A7926
:10C4900043EA420383600B7CC26A013B22F47002D0
:10C4A000DBB242EA0353C36210BD00BFFDF7F1FFE8
:10C4B00000230360037143718360C360013303741D
:10C4C000704719B1836843F0010302E0836823F0E9
:10C4D00001038360704719B1836843F4807302E0FD
:10C4E000836823F4807383607047C9B212B14368D4
:10C4F000194302E0436823EA010141607047836801
:10C5000043F00803836070478068C0F3C000704741
:10C51000836843F00403836070478068C0F3800041
:10C52000704719B1836843F4A00302E0836823F4E1
:10C53000A003836070478068C0F3805070474368F1
:10C54000013923F4604343EA41334360704719B132
:10C55000436843F4006302E0436823F400634360EC
:10C560007047092970B54FEA41040BD964181E3C85
:10C570000725A540A340C66826EA050545EA030449
:10C58000C4600AE064180725A54013FA04F406699C
:10C5900026EA050545EA04030361062A0CD8013A98
:10C5A00002EB82021F2393409140446B24EA030371
:10C5B00043EA0102426370BD0C2A4FEA82030BD8A2
:10C5C0009A18233A1F2393409140046B24EA0303F3
:10C5D00043EA0102026370BD9A18413A1F23934057
:10C5E0009140C46A24EA030343EA0102C26270BDB7
:10C5F00019B1836843F4801302E0836823F4801345
:10C6000083607047C06C80B27047014B18687047F8
:10C610004C24014019B1436843F4806302E043684D
:10C6200023F480634360704719B1436843F4805337
:10C6300002E0436823F4805343607047836823F427
:10C64000E04341EA03038360704719B1836843F410
:10C65000004302E0836823F400438360704719B10C
:10C66000836843F4021302E0836823F402138360B7
:10C6700070478068C0F340507047092970B54FEA91
:10C6800041040BD964181E3C0725A540A340C66889
:10C6900026EA050545EA0304C4600AE06418072594
:10C6A000A54013FA04F4066926EA050545EA0403E1
:10C6B0000361836B03F440146FEA145412190332BC
:10C6C000D2B202EB82021F249440914023EA040379
:10C6D0000B43836370BD836B013923F4401343EA3A
:10C6E00001538363704782B00A5002B0704782B032
:10C6F00001902830405880B202B07047436823F45C
:10C70000400323F4007341EA03034360704741622E
:10C7100082627047436823F01F0341EA03034360CA
:10C720007047054B18B19A6842F4000202E09A681B
:10C7300022F400029A607047002401400368194205
:10C740000CBF002001207047C94301607047436857
:10C75000006810EA112004D0C9B219420CBF0020B1
:10C76000012070476FEA112101607047044B11B13D
:10C77000DA68104302E0DA6822EA0000D860704705
:10C780000010024007B5124B019098420DD0114B9A
:10C79000984212D0104B984219D14FF400700121E9
:10C7A000FFF7E4FF4FF400700EE04FF480600121CA
:10C7B000FFF7DCFF4FF4806006E04FF400400121FA
:10C7C000FFF7D4FF4FF400400021FFF7CFFF0EBD6D
:10C7D00000280140003C014000240140044B11B1FD
:10C7E0005A69104302E05A6922EA00005861704712
:10C7F00000100240044B11B19A69104302E09A699B
:10C8000022EA0000986170470010024008B501203C
:10C81000FFF787FF10210A4801220523FFF7A1FE39
:10C820000120FFF78DFD06480121FFF77AFE022166
:10C830000348FFF783FF0128F9D1FFF771FD08BD19
:10C840000024014008B50120FFF76BFF11210A48C1
:10C8500001220523FFF785FE0120FFF771FD064841
:10C860000121FFF75EFE02210348FFF767FF012861
:10C87000F9D1FFF755FD08BD00240140024B0E22FF
:10C8800002FB0030704700BF20A00608034B188051
:10C890001A8892B2002AFBD1704700BFD0A70020AF
:10C8A000044A4FF4805313604FF0C0421080024A94
:10C8B00013607047141401401014014010B5EF20AC
:10C8C000FFF7EEFF4FF0C0431A881C8818881A88BB
:10C8D0001988C3B2C9B241EA046141EA03431206AE
:10C8E00043EA1242014B9A6010BD00BFAC320020F7
:10C8F000054B4FF480521A604FF0C0431880034834
:10C9000002601980704700BF1414014010140140E8
:10C910002DE9F041E9204FF0C044FFF7C1FF20228C
:10C9200022801120FFF7BCFF6420FFF7AFFFD1206A
:10C93000FFF7B6FF002517225E232580D020238035
:10C940002280FFF7ADFF0C260723238036202380AB
:10C950004FF040082680FFF7A3FF3046A4F8008080
:10C960004936FFF79DFF26803A20FFF799FF268082
:10C97000C120FFF795FF533E10232380C020238062
:10C9800026802680FFF78CFF012735232580C520D0
:10C9900023802580258027802680FFF781FF278040
:10C9A000D220FFF77DFF22232780C8202380FFF7B6
:10C9B00077FF7322372327802280238004220F23CE
:10C9C00025802380268022806722A4F80080228090
:10C9D000258080222680238008232380292022800E
:10C9E0002580FFF75DFF2C20BDE8F04158E70020CF
:10C9F00008B50146FFF77CFF00200146FFF778FFEE
:10CA000000200146FFF774FF00200146FFF770FF8A
:10CA10000A20FFF73BFF01214FF4C060FFF768FFDA
:10CA20000A20FFF733FF40214FF4DE60FFF760FF7D
:10CA30000A20FFF72BFF4FF480604FF4C441FFF74B
:10CA400057FF082040F60801FFF752FF01204FF47E
:10CA50008071FFF74DFF02204FF48071FFF748FF10
:10CA600003203021FFF744FF09200121FFF740FF99
:10CA70000C200021FFF73CFF90204FF40041FFF70E
:10CA800037FF0F200021FFF733FF10201621FFF79B
:10CA90002FFF112040F20111FFF72AFF1220002181
:10CAA000FFF726FF13200121FFF722FF4FF48070CC
:10CAB0004FF44C71FFF71CFF40F2011040F2372198
:10CAC000FFF716FF40F203104FF47061FFF710FFFD
:10CAD0004FF420704FF4D641FFF70AFF4CF2B0112B
:10CAE0004FF48170FFF704FF6420FFF7CFFE4FF48F
:10CAF00040704FF44061FFF7FBFE40F2013045F615
:10CB00000B21FFF7F5FE40F2023040F60611FFF769
:10CB1000EFFE40F2033041F21701FFF7E9FE4FF458
:10CB200041704FF40C51FFF7E3FE40F205304FF433
:10CB3000B851FFF7DDFE40F2063046F20931FFF74B
:10CB4000D7FE40F2073040F60941FFF7D1FE4FF41F
:10CB5000427041F20C01FFF7CBFE40F2093042F285
:10CB60003221FFF7C5FE4FF404700021FFF7C0FE2D
:10CB700040F21120EF21FFF7BBFE40F2122000210E
:10CB8000FFF7B6FE40F2132040F28F11FFF7B0FE20
:10CB90004FF4A0600021FFF7ABFE40F201500021EE
:10CBA000FFF7A6FE40F202500521FFF7A1FE40F27A
:10CBB00001400121FFF79CFE002140F20440FFF7F5
:10CBC00097FE6420FFF762FE4FF480710720FFF7A5
:10CBD0008FFE6420FFF75AFE4FF400700021FFF72C
:10CBE00087FE002140F20120FFF782FE054A4FF444
:10CBF0008053136040F202214FF0C0421180024A7C
:10CC0000136008BD141401401014014070B5104C9D
:10CC10004FF480534FF40065236001202560FFF737
:10CC200035FE0C4B0A201D60FFF730FE32202560D8
:10CC3000FFF72CFEFFF742FE074B9A68074B9A421C
:10CC400002D1BDE8704063E6BDE87040CFE600BFAA
:10CC50001014014014140140AC3200202793040248
:10CC60000B4B10B59A680B4B4FF0C0449A4209D158
:10CC70002E20FFF715FE238824882C20A4B2FFF76E
:10CC80000FFE02E023882488A4B2204610BD00BF16
:10CC9000AC320020279304020EB403B503AA52F865
:10CCA000041B019001A80092FFF745FABDE80C4073
:10CCB00003B07047AAE713B502AC24F8020D0020B8
:10CCC0000146B7F7A3FA20464BF68031B7F7ACFA26
:10CCD000B7F7A6FA20464BF68031B7F7A5FAB7F7B3
:10CCE0009FFA1CBDC1F1EF0110B580B289B21446A4
:10CCF000B7F78CFA2046BDE81040B7F789BAC1F102
:10CD0000EF0110B580B289B2B7F780FABDE81040E4
:10CD1000B7F7AABA38B5151A5C1A6C434BF67F35CB
:10CD2000AC4280B202F1FF35C3F1F0020FD9C1F17C
:10CD3000EF0392B2A9B29BB26508B7F76FFA04A8E5
:10CD4000A9B2B7F771FA641BB7F76AFA06E0C1F146
:10CD5000EF0392B2A9B29BB2B7F760FA04A8A1B2EE
:10CD6000B7F762FAB7F75CFA002040F28F1102467B
:10CD7000EF23B7F753FA38BD37B50D46B0F90210B7
:10CD800004464B1CB0F90000B4F904200095FFF7ED
:10CD9000C1FFB4F90630B4F90000591EB4F90420FB
:10CDA0000095FFF7B7FFB4F90000B4F90210421C78
:10CDB000B4F906300095FFF7ADFFB4F90420B4F9DB
:10CDC0000210B4F90630501E0095FFF7A3FF3EBDD8
:10CDD0002DE9F14F0A9C1E460B9B88461746511EB3
:10CDE00004EB4309C6F1F002C8F1EF03054689B22E
:10CDF00080B292B29BB2B7F711FAA2460CE03AF8B1
:10CE0000020BB7F705FACA4508BFA2460BF1010BA2
:10CE1000BB45F4DB08F10108B04501DAAB46F7E7A2
:10CE2000002040F28F110246EF2301B0BDE8F04F21
:10CE3000B7F7F4B92DE9F843B0F800800446894605
:10CE40001FFA88F7002614E0B4F9065009E0C5F18E
:10CE5000EF01384689B2B7F7D9F9FFF701FF29F892
:10CE6000020BB4F90230013D9D42F0DA0137013680
:10CE7000BFB20FFA88F2B4F90430B2189A42E3DB79
:10CE8000BDE8F8832DE9F047C28843880D468188C4
:10CE9000C2F1F0020139C3F1EF03044689B2008800
:10CEA00092B29BB2B7F7BAF90026B4F8028010E04C
:10CEB000B4F80090002703E035F8020BB7F7A8F9A3
:10CEC0000FFA89F2B4F90430BA1801379A42F3DB49
:10CED00001360FFA88F2B4F90630B2189A42E7DB4D
:10CEE000002040F28F110246EF23BDE8F047B7F76C
:10CEF00095B913B50346B3F90240B3F90420B0F96C
:10CF00000000B3F9063000912146FFF703FF1CBD76
:10CF10000268034BDA6042681A6102685A6170471E
:10CF2000AC32002010B50B4C0246B4F91610B4F91F
:10CF30001400FFF7D7FEA38AB4F910200133A382AF
:10CF40001BB29A4204DCA389A382E38A0133E38201
:10CF500010BD00BFAC32002070472DE9F74F994655
:10CF60000C9B0191924613F801BB054600241DE07D
:10CF700018F8013BFBB113F0040F4FF61E0305D068
:10CF80009A450AD028463146524604E0994504D0D5
:10CF9000284631464A46FFF7A5FE013701365F4570
:10CFA0004346E5DB01340135502C03D0019E984601
:10CFB0000027F4E708242046BDE8FE8F2DE9F04164
:10CFC0001E460F46B6B2C7F1F00714460546B7F73E
:10CFD0002DF9B91BA8B289B2B7F718F92046314626
:10CFE000B7F720F9BDE8F041B7F71AB930F00303FD
:10CFF00009D131F0030208D140EA8100044909183F
:10D0000091F8300E7047002070471846704700BFF7
:10D01000F09F06082DE9F04F85B004469A469DF82A
:10D0200039009DF838300D4616469DF83AB002900A
:10D030000393274645E0C5EB0A01701E0139C01B6A
:10D040003B1BC8EB01019842A8BF18464145A8BF49
:10D050004146FFF7CBFF68BBC9F1EF0189B2B8B217
:10D06000B7F7D4F8B7F700F91A4BC10001F0FF0188
:10D07000C208000A00EA0303C1EB0B000190DDF8CF
:10D0800008C0039802F0FC02C2EB0C0EC3EB000CCC
:10D0900003EB6C03DDF804C0DB1001EB6C00C01087
:10D0A00040EAC32302EB6E00801043EA401080B2D6
:10D0B000B7F7AEF809F1010908F10108D145BADB6B
:10D0C0000137B74203DAA9464FF00008F6E705B08A
:10D0D000BDE8F08FF8FF07002DE9F74F06468A46B6
:10D0E00015461C46BDF830B088462DE00AF1030312
:10D0F000984509D1E71E414630462A463B46CDF8C1
:10D1000000B0FFF707FEB846B146002718E0A81B9D
:10D110000138611EC01BC8EB0101CAEB0803B8420D
:10D12000A8BF38469942A8BF1946FFF75FFF20B94C
:10D13000484641465A46FFF7D5FD09F10109013736
:10D14000A945E4DB08F10108A045CFDBBDE8FE8F6F
:10D1500013B50346B3F90240B3F90420B0F9000057
:10D16000B3F9063000912146FFF7B6FF1CBD2DE94B
:10D17000F74F01909DF830001F460D469246FFF78D
:10D180007DFB4FF61E039F4283461DD100241BF8F2
:10D190000480019F6FEA08085FFA88F8082618F0F3
:10D1A000800F04D0384661195246FFF79BFD013EBF
:10D1B000F6B2013726B14FEA48085FFA88F8EEE781
:10D1C00001340E2CE3D145E09A451FD100241BF811
:10D1D0000490DDF804806FEA09095FFA89F90826EE
:10D1E00019F0800F04D1404661193A46FFF77AFDE5
:10D1F000013EF6B208F1010826B14FEA49095FFA8B
:10D2000089F9EDE701340E2CE1D123E000241BF86D
:10D210000490019E6FEA09095FFA89F94FF0080846
:10D2200019F0800F08F1FF38304614BF52463A46D5
:10D2300029465FFA88F8FFF755FD0136B8F1000F6F
:10D2400004D04FEA49095FFA89F9E9E70134013569
:10D250000E2CDCD10820BDE8FE8F2DE9F7430A9F94
:10D2600005460E4691469846AFB1387818B913E096
:10D270000A2B02D110362C4607E000932046314697
:10D280004A464346FFF773FF241817F8013B002B6B
:10D29000EED1601B00E03846BDE8FE83DDE72DE9F6
:10D2A000F043A5B015462CAA0E4652F8041B0746BB
:10D2B0000DF1080823A899462292CDF88C80FEF73C
:10D2C0003AFF314604462A4638464B46CDF80080A0
:10D2D000FFF7E4FF204625B0BDE8F08337B5124BD9
:10D2E00005460C46009330211F2328204FF6FF727D
:10D2F000FFF7D4FF20211F234FF6FF72282000954F
:10D30000FFF7CCFFA0B2FFF733F8102100904FF6E3
:10D31000FF7228201F23FFF7C1FF4FF47A7003B07C
:10D32000BDE83040FFF70CB8E7AE060808B5024884
:10D330000421FFF7D3FFFEE7F9AE06080FB430B5BE
:10D34000A5B028AA52F8041B02AC23A82394229269
:10D35000FEF7F1FE23941EE00A2B134C03D0A569BF
:10D36000B5F5C47F09DBE26900230E32E02AA36130
:10D37000E2610DDD0C4AD3610AE000932846E169C1
:10D380004FF6FF724FF43043FFF7F1FE4019A061F2
:10D39000239B01332393239B1B78002BDCD125B0E7
:10D3A000BDE8304004B07047AC3200202DE9F74FA3
:10D3B000C0EB020B5F1A1FFA8BFBBFB20FFA8BFA9E
:10D3C0000FFA87F84FEADB3BFF0BBDF83090BAF15C
:10D3D000000FD4BFCBF1000BCBF1010BB8F1000F64
:10D3E000D4BF7F42C7F10107BAF1000FB8BFCAF13D
:10D3F000000AB8F1000FB8BFC8F100084FEA4A0AA6
:10D400004FEA480800921FFA8AFA1FFA88F84A463B
:10D41000019304460D460FFA8AF6FFF763FC0FFAF4
:10D4200088F39E4220DB1FFA88F8A8EB6606B6B2A6
:10D4300016E016F4004F09D11EB94FFA8BF3002BFA
:10D4400004DD7BB2CAEB0606ED18B6B24FFA8BF3D9
:10D45000E4184644204629464A46B6B2FFF742FC45
:10D46000009B9C42E5D11EE01FFA8AFAAAEB6306F4
:10D47000B6B215E016F4004F09D116B97BB2002BF5
:10D4800005DD4FFA8BF3C8EB0606E418B6B27BB2A3
:10D49000ED185644204629464A46B6B2FFF722FC0C
:10D4A000019B9D42E6D1BDE8FE8F0020FFF7E6B963
:10D4B00008B500210420B6F7CDFEC3439BB2C3F3E9
:10D4C000802013F4006F1CBF40F0020080B213F400
:10D4D000805F18BF40F4807013F0080F18BF40F051
:10D4E000040013F4004F18BF40F0080013F0400F81
:10D4F00018BF40F4007013F4804F18BF40F01000C4
:10D5000013F4005F18BF40F0200013F4807F18BFB1
:10D5100040F0400013F4007F18BF40F0800008BDC9
:10D5200007B50B200021B6F795FE40B9074B303008
:10D5300000931E211F224FF6FF73FFF78EFE14206B
:10D54000002103B05DF804EBB6F780BE1FAF0608FC
:10D55000024B014618712420B6F778BE0030002037
:10D56000014B1879704700BF0030002070B50CE007
:10D570009C1804EBD474641050F8246025468E4245
:10D5800001D2621C01E004D9631E9342F0DA4FF02D
:10D59000FF35284670BD2DE9F84F204C07460E4652
:10D5A000154698460022152304F564600C99FFF790
:10D5B000DDFFB0F1FF3F9DF82890BDF82CA0834619
:10D5C0002AD00C9A164B05209A600021B6F73EFE31
:10D5D00009203946B6F73AFE0A203146B6F736FE3C
:10D5E00000202946B6F732FE0B204146B6F72EFE44
:10D5F0000C204946B6F72AFE04EB4B0401205146A5
:10D60000B6F724FE0720B4F8981EB6F71FFE0820D0
:10D61000B4F8C41EB6F71AFEBDE8F88FF09F0608EE
:10D620000030002008B503200021B6F713FEC0B279
:10D6300008BDB6F7FFBD08B506200121B6F706FE06
:10D64000FEF774FE014B186208BD00BFAC3200202B
:10D650002DE9F04106460C462220314615461F466C
:10D66000B6F7F4FD21202146B6F7F0FD202047EA69
:10D67000C501BDE8F041B6F7E9BDB0F5805F70B512
:10D6800003DD0A48CA21FFF729FE094C04F580454D
:10D690002668FFF7CEFF06F07F4620F07F4040EA85
:10D6A000060644F8046BAC42F2D170BD38AF0608F0
:10D6B000D03200204FF480507047B0F5805F10B535
:10D6C000044603D30348DB21FFF708FE024800EBC2
:10D6D000840010BD38AF0608D032002010B50021FC
:10D6E0000220B6F7B7FD00210120B6F7B3FD0021F7
:10D6F00000F001040320B6F7ADFD10F0010F18BFD4
:10D7000044F00204204610BD08B5FEF70FFE0B4B97
:10D710001B6AC01A19F05EFF09491AF063F8094B39
:10D7200099681AF05FF8084919F0A8FF1AF06CF927
:10D73000B0F5805FA8BF4FF4805008BDAC32002028
:10D7400000007A44003000200000F041034670B52C
:10D7500010200C4619461546B6F778FD11202146D3
:10D76000B6F774FD12202946BDE87040B6F76EBDCD
:10D77000094B10B51A68094C22F001021A60084AD8
:10D78000146043F2B0521A60064A116090601A6841
:10D7900042F001021A6010BD4404024008740040C7
:10D7A0004C04024048040240034B0121A3F83C0D05
:10D7B00003F552601C30DBE79465002001460D2024
:10D7C000B6F744BD00487047D272002008B5034642
:10D7D00002730020012A587305D11A4609480833FC
:10D7E000B6F754FD06E0022A09D11A460548083367
:10D7F000B6F74AFDD0F1010038BF002008BD012076
:10D8000008BD00BFD272002008B50346084619467D
:10D81000B6F73EFDD0F1010038BF002008BD10B5BD
:10D82000044608462146B6F735FD20B9637B013032
:10D830000133637310BD002010BD10B5037B044697
:10D84000022B10D1B1F1FF3F08BF417B224608BF38
:10D850004902074804F10803B6F71EFD28B903235F
:10D860002373013010BD012010BD002010BD00BF8A
:10D87000D2720020024B034A93FBF0F313817047EE
:10D8800000A24A040038014005E0054A118811F061
:10D89000800FFAD0938010F8013B002BF5D1704730
:10D8A000003801400F4B10489A6942F480429A6157
:10D8B0000E4A40F27123138142F22C0393811388A4
:10D8C00023F4A46323F005031B041B0C1380084BF3
:10D8D0005A6822F47F6242F40A625A604FF480620E
:10D8E0001A61D1E70010024062AF0608003801401B
:10D8F0000008014010B54FF4FA70FEF721FDFFF764
:10D90000D9F9FFF70DFEBDE81040CBE705F06EBE7C
:10D91000034B1A8812F0800FFAD09880704700BF2E
:10D92000003801400E200021B6F794BC0D200021E4
:10D93000B6F790BC0F200021B6F78CBC1020002158
:10D94000B6F788BCB6F77ABC014B9868704700BF41
:10D95000AC3200202DE9F0433F3189B0234B8046A3
:10D9600087B28CB2ADF1020213F8010C1978C01025
:10D970008910C002490141185878043301EBD001E5
:10D9800022F8021F1A498B42EED11A4E3D4616F874
:10D99000013B08AA1B0902EB430328460135214637
:10D9A00033F8202CADB208F1FF09FFF79BF94D4584
:10D9B00002DD013CA4B23D4616F8013C08AA03F082
:10D9C0000F0302EB430328460135214633F8202C90
:10D9D000ADB2FFF787F94D4502DD013CA4B23D46EB
:10D9E000054B9E42D3D109B0BDE8F08337D8030878
:10D9F00077D8030876D8030876F803080020704724
:10DA0000002070470020704700207047704700BF1B
:10DA1000014B1860704700BFD47400207047014B61
:10DA200018687047D474002037B5FEF77FFC294C86
:10DA30002368B3F1FF3F08BF20602368C51AB5F51E
:10DA40007A7F0ED94FF47A72B5FBF2F502FB0533FB
:10DA500020490B6005F0FCF900F53450436AED18DD
:10DA60004562FFF725FDADF8060000B9A08005F07E
:10DA7000EFF900F548500DF10601283003F034FFAE
:10DA800005F0E6F900F5485028300DF1060103F0E5
:10DA900033FFBDF80630ABB105F0DAF90221BDF86D
:10DAA000062009F043FDBDF80620A3889A4206D05F
:10DAB000094B1B681B7A13B93220FEF74BFCBDF8EB
:10DAC0000630A38005F0C4F90321002209F02EFDE1
:10DAD00001203EBD10300020E4A7002010B5FFF764
:10DAE00009FF05F0B5F909F058FA05F0B1F901217F
:10DAF000002209F01BFD14F021FF14F0D9FE14F0F0
:10DB000041FDBDE81040FFF796BD00BF08B50368B2
:10DB100049421B6849B2984708BD0000014B18688C
:10DB2000704700BF38C3060870470120704743683C
:10DB3000826819688A181A60704743688268196891
:10DB40008A1A1A6070470820704783681B78CB18C0
:10DB500005D4027B9342CCBF0020012070470020F7
:10DB6000704783681A7801321A70704783681A7890
:10DB7000013A1A7070478368197070478368187883
:10DB8000704702207047182070470220704700201D
:10DB9000704700207047082070470000034B1B6847
:10DBA000586A0028B8BF033080107047E4A70020EF
:10DBB0000020704719207047034B1B68986A0028A3
:10DBC000B8BF033080107047E4A7002000207047E2
:10DBD0001920704770477047436882681B68CB18EC
:10DBE000934205DBC0688342CCBF00200120704710
:10DBF0000020704743681A6801321A607047436812
:10DC00001A68013A1A607047024840F21F11FFF784
:10DC100065BB00BF28BD060808B503484FF48F71E7
:10DC2000FFF75CFB002008BD28BD0608024840F253
:10DC30001D11FFF753BB00BF28BD060802484FF473
:10DC40008E71FFF74BBB00BF28BD0608024840F2AB
:10DC50001B11FFF743BB00BF28BD060808B50348EA
:10DC600040F21911FFF73AFB022008BD28BD060853
:10DC700039B9042A05D146F26742934201D108F02E
:10DC80005DBD704739B9042A05D146F26742934217
:10DC900001D108F053BD704739B9042A05D146F2C5
:10DCA0006742934201D108F049BD7047C36A70B51D
:10DCB00004460D461BB916484E21FFF70FFB15F021
:10DCC000010F07D0E36A9A7922B1013A9A7120468E
:10DCD00008F034FD15F0020F08D0E36A9A790B2A98
:10DCE00004D801329A71204608F028FD15F0100F73
:10DCF00008D0E168E36A204646F66352BDE870400A
:10DD000008F023BD20462946BDE8704008F093BDC9
:10DD100042BD060811F0100F70B505460C4605D03F
:10DD2000C16846F66F52002308F00FFD28462146D1
:10DD3000BDE8704008F07FBD11F0010F70B50446DA
:10DD40000D4615D0C06A012103685B689847012819
:10DD50000ED1E06A00210368DB689847204608F08E
:10DD6000EDFC2046E16847F27052002308F0EDFC1C
:10DD700015F0020F15D0E06A012103681B6898476F
:10DD800001280ED1E06A002103689B68984720466D
:10DD900008F0D4FC2046E16847F27052002308F0F6
:10DDA000D4FC15F0100F0ED0E06A0368DB699847C9
:10DDB000084B1B68984206D02046E16846F665424B
:10DDC000E36A08F0C2FC20462946BDE87040FFF730
:10DDD000A1BF00BF38C3060811F0010F70B504469B
:10DDE0000D460DD0C36A002B0ADD013BC36208F06B
:10DDF000A5FC2046E16846F67512002308F0A5FC54
:10DE000015F0020F0ED0E36A132B0BDC0133E36233
:10DE1000204608F093FC2046E16846F67512002380
:10DE200008F093FC20462946BDE87040FFF772BF1A
:10DE300011F0010F70B504460D4615D0C06A0121DE
:10DE400003685B68984701280ED1E06A00210368E7
:10DE5000DB689847204608F071FC2046E16847F2ED
:10DE60007052002308F071FC15F0020F15D0E06A23
:10DE7000012103681B68984701280ED1E06A002140
:10DE800003689B689847204608F058FC2046E168E4
:10DE900047F27052002308F058FC15F0100F0ED016
:10DEA000E06A0368DB699847084B1B68984206D014
:10DEB0002046E16846F66542E36A08F046FC2046E3
:10DEC0002946BDE87040FFF725BF00BF38C30608EC
:10DED00011F0010F70B504460D460DD0C36A012B39
:10DEE0000ADD013BC36208F029FC2046E16846F6E2
:10DEF0007512002308F029FC15F0020F0ED0E36A1A
:10DF00001D2B0BDC0133E362204608F017FC204692
:10DF1000E16846F67512002308F017FC20462946F2
:10DF2000BDE87040FFF7F6BE11F0200F70B5054652
:10DF30000C4606D0C06846F278520146002308F02D
:10DF400004FC28462146BDE8704008F074BC00007F
:10DF500011F0010F70B504460D4615D0006A01217D
:10DF600003685B68984701280ED1206A0021036886
:10DF7000DB689847204608F0E1FB2046E16847F25D
:10DF80007052002308F0E1FB15F0020F15D0206A53
:10DF9000012103681B68984701280ED1206A0021DF
:10DFA00003689B689847204608F0C8FB2046E16854
:10DFB00047F27052002308F0C8FB15F0100F0ED086
:10DFC000206A0368DB699847084B1B68984206D0B3
:10DFD0002046E16846F66542236A08F0B6FB204613
:10DFE0002946BDE87040FFF79FBF00BF38C3060851
:10DFF00011F0010F70B504460D4615D0C06A01211D
:10E0000003685B68984701280ED1E06A0021036825
:10E01000DB689847204608F091FB2046E16846F609
:10E020007512002308F091FB15F0020F15D0E06A7D
:10E03000012103681B68984701280ED1E06A00217E
:10E0400003689B689847204608F078FB2046E16803
:10E0500046F67512002308F078FB20462946BDE8F5
:10E06000704008F0E8BB0000C36A70B504460D4676
:10E070001BB91A482A21FFF731F915F0100F08D003
:10E08000E168E36A204646F66352BDE8704008F056
:10E090005CBBE36A1A79043AD2B2012A17D815F0A8
:10E0A000010F08D0DA6812F1FE0F04DB013ADA60E2
:10E0B000204608F043FB15F0020F08D0E36ADA6847
:10E0C000FE2A04DC0132DA60204608F037FB2046E5
:10E0D0002946BDE8704008F0AEBB00BF6DBD060824
:10E0E000C36A70B504460D461BB91D482221FFF7CF
:10E0F000F5F815F0100F08D0E168E36A204646F6FF
:10E100006352BDE8704008F020BB15F0010F0ED03F
:10E11000E36A1A795AB1013A1A71204608F00EFBE7
:10E120002046E16846F67512E36A08F00EFB15F02A
:10E13000020F0FD0E36A1A790B2A0BD801321A7139
:10E14000204608F0FBFA2046E16846F67512E36ABD
:10E1500008F0FBFA20462946BDE8704008F06BBB8A
:10E160009BBD0608C36A70B504460D461BB9164828
:10E170004D21FFF7B3F815F0010F07D0E36A9A7944
:10E1800022B1013A9A71204608F0D8FA15F0020F30
:10E1900008D0E36A9A79092A04D801329A71204694
:10E1A00008F0CCFA15F0100F08D0E168E36A2046B9
:10E1B00046F66352BDE8704008F0C7BA20462946CB
:10E1C000BDE8704008F037BBCABD060830B5028410
:10E1D00000250122456280F82820BDE8304008F083
:10E1E00071BA00007FB5043302AC05460E4693E8D1
:10E1F000030084E80300BDF80E30284604339BB2C8
:10E20000ADF80A300733ADF80E30044942F002028F
:10E210002346009608F056FA7FBD00BFECBD060805
:10E220007FB5043302AC05460E4693E8030084E84C
:10E230000300BDF80E30284602339BB2ADF80A3019
:10E240000733ADF80E30044942F00202234600962F
:10E2500008F038FA7FBD00BFF8BD060830B5049D50
:10E26000028401224562BDE8304008F02BBA2DE956
:10E27000FF410A9E0D4600214162028480F8283049
:10E2800004464FF01108304608FB03F808F0D2F9B5
:10E290005FFA88F802AF68B1304608F0CBF9043075
:10E2A00003C887E80300BDF80E3002339BB2ADF817
:10E2B0000A3006E0331D93E8030087E80300BDF849
:10E2C0000A30984420462946012202ABADF80E8060
:10E2D000009608F0F7F9BDE8FF81FFF7C8BF00001E
:10E2E0002DE9F041DDF81880044615461F460E461C
:10E2F00021B9084840F21B21FEF7F0FF20462946CD
:10E300003A460223E662CDF81880BDE8F041FFF7F7
:10E31000AEBF00BF28BD0608DBB2FFF7A8BFFFF7FE
:10E32000A6BF10B50A24C462BDE81040FFF79FBF26
:10E3300010B50A24C462BDE81040FFF798BF000082
:10E3400073B5044616460D4619B907480C21FEF769
:10E35000C5FFE5622046002146F20C3202230096FA
:10E36000FFF785FF7CBD00BF6DBD060810B5052415
:10E37000C462BDE81040FFF77ABF13B503469C683E
:10E380005B682478088853F82430B1F902100093B0
:10E390004FF6FF73002A14BF1A4600224FF61E03E1
:10E3A000FEF75BFF1CBD00002DE9F341274DB0F9DE
:10E3B00006402B68B0F90460B3F84C20244B21468A
:10E3C000009330460023FEF748FF2B68214F93F857
:10E3D0004A30214657F82330801900934FF6FF72D8
:10E3E0000023FEF73AFF2B6806F16408B3F86020BB
:10E3F000194B2146009340460023FEF72EFF2B6861
:10E40000214693F85E30404457F823304FF6FF72B0
:10E4100000930023FEF721FF104BC83600932146DE
:10E42000002330464BF29652FEF717FF2B688019F7
:10E4300093F898200A4B214653F822304FF6FF728A
:10E4400000930023FEF709FFBDE8FC81E4A700204C
:10E450005BFA06085CC4060841FB060804BE060811
:10E46000C4C4060813B504300021FEF742FD2D4B4D
:10E47000402100930420002348F21042FEF7EDFEF5
:10E48000294B50210093294C0023042048F21042CC
:10E49000FEF7E3FE60210023082044F208220094E6
:10E4A000FEF7DBFE224B702100930420002348F28C
:10E4B0001042FEF7D2FE1F4B802100930420002360
:10E4C00048F21042FEF7C9FE1B4B90210093042036
:10E4D000002348F21042FEF7C0FEB02100230820BE
:10E4E00044F208220094FEF7B8FE144BC0210093BA
:10E4F000042048F210420023FEF7AFFE104BD0215B
:10E5000000930420002348F21042FEF7A6FE0D4BB4
:10E5100004200093E02148F210420023FEF79DFE04
:10E520001CBD00BF08BE060819BE060826BE0608A8
:10E530004FBE060866BE060882BE060893BE0608E1
:10E54000A6BE0608BEBE0608F7B50E88154B083EE7
:10E550004FF6FF75002A08BF0025B6B20C460746E5
:10E56000B1F902102A46009330464FF61E03FEF71B
:10E57000F4FC7B683618B6B2B4F90210009330464A
:10E580002B464FF61E02FEF768FE074B301800932D
:10E59000B4F902102A464FF61E0380B2FEF7DDFCE6
:10E5A000FEBD00BFA20F07081410070873B504468C
:10E5B00008F0B4F8A688144B083E4FF6FF75002803
:10E5C00008BF0025B6B2B4F9061000932A463046BB
:10E5D0004FF61E03FEF7C1FCE3693618B6B2B4F974
:10E5E0000610009330462B464FF61E02FEF735FE0E
:10E5F000064B30180093B4F906102A464FF61E0356
:10E6000080B2FEF7AAFC7CBDA20F07081410070811
:10E6100013B504464FF6FF710430FEF76AFCB4F9F7
:10E620000400B4F90A10054B083000931439002295
:10E630004FF61E03FEF711FE1CBD00BFCBBE060841
:10E6400008B583681A78436853F8220019F0FAFC79
:10E65000C3004FF6F87003EA000008BD7FB54368B9
:10E6600004460D46164623B9124840F2CB21FEF768
:10E6700035FE63681A68A36892FBF3F20A2392FBE3
:10E68000F3F103FB11220023ADF80C30303204AB60
:10E6900003F8042D4FF6FF720093B5F90000B5F9A9
:10E6A0000210002E08BF00224FF61E03FEF7F6FDF3
:10E6B0007FBD00BF28BD060870B50E4615461C4636
:10E6C00007F0B1FF2A46014623463046BDE87040B8
:10E6D00008F03BB811F0130F70B505460C4607D093
:10E6E00007F0A1FF022201462346284608F02DF834
:10E6F00028462146BDE8704008F09DB811F0010F92
:10E700002DE9F04104460D4616D0006A0121036848
:10E710005B68984780B1206A00210368DB689847EE
:10E72000204607F080FF08F009F8E06847F27052D1
:10E73000C168002308F009F815F0020F16D0206A0E
:10E74000012103681B68984780B1206A0021036893
:10E750009B689847204607F066FF07F0EFFFE068E8
:10E7600047F27052C168002307F0EFFF15F00C0F5D
:10E770000FD00C4E204629463768FFF7D5FB33688B
:10E78000BB420CD0204607F04EFFBDE8F04107F039
:10E79000D5BF20462946BDE8F041FFF7C5BBBDE81F
:10E7A000F08100BFF8A7002010B50C4607F03BFF32
:10E7B000036821465B68984710BD11F0130F10B530
:10E7C0000C4606D007F02FFF036821465B68984788
:10E7D00010BDBDE8104008F02EB8000011F0030F86
:10E7E00010B507D0FFF704FC044B1868BDE81040D3
:10E7F00006F032BBBDE81040FFF7FABBE4A70020EB
:10E8000011F0030F10B507D0FFF7F2FB044B1868A7
:10E81000BDE8104006F020BBBDE81040FFF7E8BBA4
:10E82000E4A7002011F0030F10B507D0FFF7E0FBBD
:10E83000044B1868BDE8104006F00EBBBDE8104060
:10E84000FFF7D6BBE4A7002008B54368B3F9000082
:10E8500007F0FAFB19F0F6FBC3004FF6F87003EA75
:10E86000000008BD4368F7B54FF6FF7604460D4635
:10E87000002A08BF00261BB913489721FEF72EFD7A
:10E880006368B5F900701868A368984202DBE36812
:10E8900098420ADD0D4BB5F9021000933846324616
:10E8A0004FF61E03FEF7D9FC0CE000B2B5F90240AA
:10E8B00007F0CAFB21460090324638464FF61E0349
:10E8C000FEF7ECFCFEBD00BFD8BE0608F3BE06088E
:10E8D0002DE9F0471F4647F270539A4204460D4611
:10E8E00016463FD100F1380399423BD1436A93F871
:10E8F0000480A8F104095FFA89F9B9F1010F8CBF0E
:10E900004FF000094FF00109B9F1000F06D0A8F14E
:10E910000503D3F1000848EB030801E04FF00108BC
:10E9200004F1A00A504607F0F2FF814506D049469F
:10E93000504607F012FF4FF0010901E04FF00009C7
:10E9400004F16C0A504607F0E2FF804504D05046BF
:10E95000414607F002FF02E0B9F1000F02D0204665
:10E9600007F0ECFE2046294632463B46BDE8F0471C
:10E97000FFF7A2BEF7B543680E881C88083E134B0C
:10E98000B6B20D462246B1F90210304600934FF65A
:10E990001E03FEF7E2FA36182046B5F9027007F0BA
:10E9A00097FBB6B200903946234630464FF61E021A
:10E9B000FEF774FC064B30180093B5F9021022469E
:10E9C0004FF61E0380B2FEF7C8FAFEBDA20F07087D
:10E9D00014100708002280F8312008F0C3B844F66C
:10E9E00044418A4201D108F0BDB844F645418A420B
:10E9F00002D1012280F82020704744F644439A4215
:10EA000001D108F0AFB844F645439A4202D16421DF
:10EA100007F0AEBF7047000070B5043092B000211F
:10EA2000FEF767FA01252824681EFDF7F5FC064667
:10EA300058B1204B029000930420214648F2104226
:10EA400000230195FEF72BFC0AE01B4B04200093EA
:10EA50002146334648F210420195FEF720FC174E3E
:10EA6000342205A8002119F09DF805AB06F130020B
:10EA7000306871680836964203C3F9D13188B2789C
:10EA800005AE19809A7030463B2119F009F908B19A
:10EA9000002303700420002304F110014BF296526E
:10EAA00000960135FEF7FAFBB82C01D03034BBE7F5
:10EAB00012B070BDFDBE060822BF0608F5BE0608EE
:10EAC000012117F0C3BD10B544F64444A24204D05E
:10EAD00045F24834A24207D153B9002380F83130BF
:10EAE000BDE8104008F03EB844F64544A24200E0BC
:10EAF000012B03D1012380F8303010BD49B9042A1D
:10EB000007D146F2674293420CD1BDE8104017F09E
:10EB10009DBD47F269439A4204D10021BDE81040EF
:10EB200017F05FBB10BD000011F0100F70B5044668
:10EB300017D007F07AFD18B90A483D21FEF7CEFB41
:10EB4000204607F070FD0546204607F06EFD03469F
:10EB5000DB692046294646F26452BDE8704007F062
:10EB6000F4BD70BD43BF060801804280704710B5F8
:10EB70008380BDF8083001804280C38010BD000052
:10EB80007FB5DE2305460E4614460093002116226B
:10EB9000D33B02A8FFF7EBFF2846044944F00202EA
:10EBA00002AB009607F08EFD7FBD00BF66BF060872
:10EBB0007FB5152305460E46144600930C211022FE
:10EBC00002A84FF49C73FFF7D2FF2846034944F094
:10EBD000020202AB009607F075FD7FBD7ABF060802
:10EBE0007FB5F02305460E461446009300211022FF
:10EBF000A03302A8FFF7BBFF2846044944F00202F5
:10EC000002AB009607F05EFD7FBD00BF8DBF06081A
:10EC10007FB5F02305460E461446009300211022CE
:10EC2000A03302A8FFF7A3FF2846044944F00202DC
:10EC300002AB009607F046FD7FBD00BF99BF0608F6
:10EC40007FB5F02305460E4614460093002110229E
:10EC5000A03302A8FFF78BFF2846044944F00202C4
:10EC600002AB009607F02EFD7FBD00BFA9BF0608CE
:10EC70007FB5F02305460E4614460093002110226E
:10EC8000A03302A8FFF773FF2846044944F00202AC
:10EC900002AB009607F016FD7FBD00BFB9BF0608A6
:10ECA0007FB5F02305460E4614460093002110223E
:10ECB0004C3302A8FFF75BFF2846044944F03202B8
:10ECC00002AB009607F0FEFC7FBD00BFCABF06087E
:10ECD00070B5F02388B004460E4615460093002117
:10ECE0001022A03306A8FFF742FF20461A4945F03C
:10ECF000200206AB009607F0E5FCB4F90A204FF4B9
:10ED0000967100924FF4A573103A04A8FFF72FFFF5
:10ED100004F140001149012204AB009407F0D2FC39
:10ED2000B4F90A204FF4B47100924FF4C373103A4F
:10ED300002A8FFF71CFF04F120000949012202ABE1
:10ED4000009407F0BFFC00232366FEF7B3FC0138F4
:10ED5000606608B070BD00BFD6BF0608E3BF0608F6
:10ED6000E8BF06087FB5F02305460E46144600931B
:10ED700000211022A03302A8FFF7F9FE284604491B
:10ED800044F0120202AB009607F09CFC7FBD00BF6E
:10ED9000EDBF06087FB5F02305460E4614460093E6
:10EDA00000211022A03302A8FFF7E1FE2846034904
:10EDB000224602AB009607F085FC7FBDFDBF06082A
:10EDC000B0F90420B0F90030D0184010704707B5F2
:10EDD000B0F90030B0F90410B0F90620C918B0F944
:10EDE00002304910D218521001A8FFF7BDFE019B56
:10EDF00000209AB262F30F001B0C63F31F400EBD9C
:10EE000010B504880919018041885218428082880F
:10EE1000D31A8380C288029BD31AC38010BD10B559
:10EE20000488611A018041888A1A428082889B186E
:10EE30008380029AC388D318C38010BDB0F9042020
:10EE4000B0F90030D01A7047F0B587B004AC051D9A
:10EE5000064695E8030084E80300012100220B46E2
:10EE600020460092FFF7DBFF204648F21041FEF7F4
:10EE700040F894E80300184B02AF1B6887E80300D2
:10EE80002846B3F89A40FFF7D9FFBDF80A3004FBD3
:10EE900000F20133ADF80A3004F59674BDF80E3077
:10EEA0004443013BADF80E30B388384603EB2232C1
:10EEB00003EB2434BDF81430ADF80C40ADF8082055
:10EEC00024B21AB29442C8BFADF80C300021FEF74C
:10EED00010F807B0F0BD00BFE4A7002073B5051D12
:10EEE000002104462846FEF704F80F4B1B68B3F8D0
:10EEF000AA60B3F89A30F61A36B2002E12DB284612
:10EF0000FFF79CFF86420DDAB4F90400074B043882
:10EF10000093B4F90610801946F20C324FF61E0326
:10EF2000FEF71BF87CBD00BFE4A700200E0F07080A
:10EF300030B5051D85B0044600212846FDF7D9FFF0
:10EF4000384B802100930420002348F21042FEF742
:10EF500084F9354B802100937F230193A0207F3BD0
:10EF60004BF29652FEF79BF9304B90210093042010
:10EF7000002348F21042FEF770F92D4B90210093C8
:10EF8000A02000234BF29652FEF767F9294BA021EF
:10EF900000930420002348F21042FEF75EF9264B4E
:10EFA000A0200093014600234BF29652FEF755F93C
:10EFB000224BB02100930420002348F21042FEF7B8
:10EFC0004CF91F4BB0210093A0204BF29652002326
:10EFD000FEF743F91B4BC02100930420002348F2A5
:10EFE0001042FEF73AF9184BC02100930423019315
:10EFF00001330293033B03934BF29652023BA02052
:10F00000FEF74DF92846FFF719FFB4F90610A0F5F1
:10F01000807000EBD0704010183105B0BDE8304072
:10F02000FEF798BC07C0060819C0060825C00608E8
:10F030002FC0060837C0060841C006084EC00608A3
:10F040005EC0060873C0060885C00608F7B5061D31
:10F05000002105463046FDF74CFF514B802148F218
:10F060001042009304200023FEF7F7F8FEF75EFC41
:10F070008021002300904BF29652A020FEF7EDF87D
:10F08000484B902148F21042009304200023FEF7E1
:10F09000E4F8FEF74FFC9021002300904BF29652CB
:10F0A000A020FEF7DAF8404BA02148F2104200936E
:10F0B00004200023FEF7D1F8FEF740FC0090A020CA
:10F0C000002301464BF29652FEF7C7F8374BB021AA
:10F0D00048F21042009304200023FEF7BEF8FEF72A
:10F0E00021FCB02100234BF296520090A020FEF7A5
:10F0F000B4F8FEF729FC2E4B0446009304200023AD
:10F10000C02148F21042FEF7A8F82A4B2A4F9C4231
:10F1100004D02A4B9C4203D064B114E0284B00E099
:10F12000284B0093A020C0214BF296520023FEF7FB
:10F1300094F811E0244BA0200093C0214BF296528A
:10F140002346FEF78AF8A020C0214BF296520023F6
:10F1500000970194FEF7A3F81C4BD021009348F2CE
:10F16000104200230420FEF778F8FEF7EBFBD021D5
:10F1700001904BF296520023A0200097FEF78FF8E3
:10F180003046FFF75BFEB5F90610A0F5807000EB86
:10F19000D0704010183103B0BDE8F040FEF7DABB84
:10F1A00092C00608A4C00608B4C00608C2C006087B
:10F1B000CFC0060876676100F3C0060827930402F3
:10F1C000DFC00608E3C00608EBC00608F8C0060862
:10F1D000B0F90620B0F90230D01A70470388CB1876
:10F1E00003808388C91843888180D3184380C388EB
:10F1F000D218C28070470023038043808380C3807D
:10F200007047B0F90420B0F900309A42D4BF002012
:10F21000012070472DE9F04F00F126068BB004461F
:10F220003046FFF7EEFF0546002847D108AF04F14E
:10F23000040898E8030087E8030001210A460B460A
:10F2400038460091FFF7EBFD38464BF29651FDF73B
:10F2500093FD29464046FDF74CFE48F21042ADF8BA
:10F260001650ADF81850ADF81A50ADF81C50ADF866
:10F2700014201935B4F90400B4F90A3005AA281885
:10F28000009205220192043B421CB4F90610193584
:10F29000FDF79EFDFA2DEDD1E13DB4F9061005AB69
:10F2A0006918009305230193B4F904004B1CB4F9C9
:10F2B00008201935FDF78CFDC82DEED1236A002BEF
:10F2C00000F0A780251D2846FFF7B8FD8046284698
:10F2D000FFF77EFFB4F90AA0323803902046AAF166
:10F2E000190A07F01BFA60B1216BA38C01FB08F12E
:10F2F00098FBF3F202EBD27291FBF3F303EB6203A0
:10F3000001E06FF0130330460293FFF77AFF18B95C
:10F31000E084A4F82A802BE0B4F90420B4F9263064
:10F3200000259A42A8BF1346E384B4F90820B4F933
:10F330002A3001219A42B8BF134663852A460B46FC
:10F3400030460095FFF75CFD30462946FDF7D1FDBC
:10F35000012130462A460B460095FFF760FDB4F9BF
:10F360000410B4F90620304649425242FFF736FFF6
:10F370004FF00009E58CCB4644E0A28C236A6A4337
:10F3800092FBF8F233F81270B7F5805F03D322488E
:10F390005D21FDF7A3FF039AB4F92630574344BF1C
:10F3A00007F57E671F373F13B4F90420BFB29D42B3
:10F3B00008BFBB46AA184FF6FF730093501EC7EB59
:10F3C0000A03CBEB0A01FDF7F1FF029B9D4208BF48
:10F3D000B94603339D4212D1B4F904000F4B626B5E
:10F3E0000638AAF1040100934019C9EB0101082A6B
:10F3F00014BF16221F224FF61E03FDF7AEFD013586
:10F40000ADB2BB46B4F92A309D42B6DB3046FFF7B9
:10F41000F2FE0BB0BDE8F08F07C106083C190708E3
:10F4200013B50446B4F90220B0F90000B4F906306F
:10F430000091114600F10C02FDF74EFEB4F90000F8
:10F44000B4F90210B4F90420B4F9063008304BF2D4
:10F4500096540094FDF75EFC1CBD37B50446B4F924
:10F460000250B0F90000B4F90420B4F906300238B3
:10F4700000912946FDF730FEB4F90000B4F90210FE
:10F48000B4F90420B4F9063006304FF6FF740131A8
:10F49000013A013B0094FDF71FFE3EBD07B5034650
:10F4A000B0F900000022B3F90210B3F9063000925F
:10F4B00000F10802FDF72EFC0EBD37B50446B0F989
:10F4C0000000B4F90210B4F90630002500F108027A
:10F4D0000095FDF71FFCB4F90420B4F90210B4F94B
:10F4E0000630101F0095FDF715FC3EBD436A37B589
:10F4F00004460BB11B880384204607F00FF9231D37
:10F5000018B11846FFF7D9FF02E01846FFF7C6FF0B
:10F51000A38820460433A38007F000F90546218C18
:10F52000201D5DB1FFF799FFE369B3B1B4F90400A1
:10F53000B4F9061000930C3000220AE0FFF770FFC8
:10F54000E36953B1B4F90400B4F9061000930C3028
:10F550002A464FF61E03FDF780FEA388043BA380D6
:10F560003EBD0000F0B5C669002585B00446C56102
:10F57000FFF7BCFFE661231D02AE93E803002A46B5
:10F5800086E803002B46304610210095FFF738FC33
:10F59000E3692A46BDF90A100093BDF908004FF649
:10F5A0001E03FDF75AFEBDF80A3020461033ADF8B1
:10F5B0000A3007F0B3F80246002837D0BDF80870CB
:10F5C0001E4B083FBFB2BDF90A102A46009338B25D
:10F5D0004FF61E03ADF80870FDF7BFFC3818ADF804
:10F5E0000800E06A03685B699847BDF90A1007469E
:10F5F000BDF9080001F10E033A180095FDF78AFBEA
:10F60000E06A3146036801221B699847BDF808305B
:10F61000BDF90A10FF180A4B38B200932A464FF67C
:10F620001E03ADF80870FDF798FC04E0E06A31466F
:10F6300003681B69984705B0F0BD00BFA20F07081B
:10F6400014100708F0B5044685B0FFF74FFFB4F972
:10F650000450B4F90670E369103500932846394622
:10F6600000224FF61E03FDF7F8FD204607F11006B5
:10F6700007F054F800282ED0234B31460022009387
:10F6800028464FF61E03FDF768FC4519E06A1E3751
:10F6900003685B69984732464319294602A80097D8
:10F6A000FFF765FA002102A8FDF723FCE76A204670
:10F6B0003B681D6907F032F802A902463846A847A0
:10F6C000124BBDF90C000093314600224FF61E0389
:10F6D000FDF743FC15E0E06A1E3703685B69984755
:10F6E00029464319324602A80097FFF740FAE66A16
:10F6F000204633681D6907F011F802A9024630461A
:10F70000A84705B0F0BD00BFA20F070814100708F6
:10F71000FFF7ECBE13B50446FFF7E8FE084BB4F95B
:10F7200004000093E36AB4F9061003EB830301932A
:10F730001C30103100224FF61E03FDF7B0FD1CBD3A
:10F7400069F2060813B50446FFF7D0FE084BB4F97A
:10F7500004000093E36AB4F9061003EB83030193FA
:10F760001C30103100224FF61E03FDF798FD1CBD22
:10F7700069F2060873B50546FFF7B8FEEB6AB5F9FE
:10F780000440B5F906601B690E340022009331462F
:10F790004FF61E032046FDF760FDEB6A31461A79ED
:10F7A000114B001953F82230002200934FF61E032C
:10F7B000FDF753FDEB6A06F110011A79052A01D114
:10F7C0000A4A06E0042A03D0094A00929B6802E034
:10F7D000084A0092DB680193204600224FF61E0380
:10F7E000FDF75DFD7CBD00BF20C7060833C10608DC
:10F7F00069F206083AC10608C36AF7B51D790446DE
:10F8000048F21043002D0CBF1D460025FFF76EFE89
:10F81000B4F90470B4F906600C4B0E37009331460E
:10F820002A4638464FF61E03FDF717FDE36A3846B1
:10F830001A79074B06F1100153F822302A4600933B
:10F840004FF61E03FDF709FDFEBD00BF3EC10608D1
:10F85000ECC606087FB50646FFF748FE0E4BF06A79
:10F86000009317F0B7FE0D4917F0BCFF0C4917F0D5
:10F87000FDFD17F017FBB6F90450B6F906401C352C
:10F880001034CDE902010022284621464FF61E031E
:10F89000FDF705FD7FBD00BF48C1060800002041FF
:10F8A0000AD7233CF0B5044685B0FFF71FFEB4F934
:10F8B0000450B4F90670E3691035009328463946C0
:10F8C00000224FF61E03FDF7C8FC204607F1100684
:10F8D00006F024FF00282ED0234B3146002200934F
:10F8E00028464FF61E03FDF738FB4519E06A1E3720
:10F8F00003685B69984732464319294602A8009776
:10F90000FFF735F9002102A8FDF7F3FAE76A204670
:10F910003B681D6906F002FF02A902463846A84767
:10F92000124BBDF90C000093314600224FF61E0326
:10F93000FDF713FB15E0E06A1E3703685B69984723
:10F9400029464319324602A80097FFF710F9E66AE4
:10F95000204633681D6906F0E1FE02A902463046E2
:10F96000A84705B0F0BD00BFA20F07081410070894
:10F9700073B5B0F90420B0F906300E46B0F90210A4
:10F9800004464FF4E045101F04310432043300955F
:10F99000FDF7A2FBB4F90630B4F90000B4F9042075
:10F9A000191F0430043204330095FDF795FBB4F9B8
:10F9B0000000B4F90210B4F9063000F10C02009610
:10F9C000FDF78AFBB4F90000B4F90420B4F9021081
:10F9D000B4F906304BF296550830043A0095FDF71D
:10F9E00099F9B4F90420B4F90210B4F90630A2F17F
:10F9F00008000095FDF770FB7CBD73B5B0F90420DD
:10FA0000B0F906300E46B0F9021004464FF4E04556
:10FA1000101F0431043204330095FDF75DFBB4F987
:10FA20000630B4F90000B4F90420191F0430043280
:10FA300004330095FDF750FBB4F90000B4F902104F
:10FA4000B4F90420B4F906300096FDF745FB7CBDFF
:10FA500030B5024685B00D460068516802AB0224FD
:10FA600003C302A80021FDF773FB2246234602A828
:10FA700021460094FFF7C4F902A82946FDF768FB68
:10FA800002A821460E2223460094FFF7B9F902A8E6
:10FA90004BF29651FDF75CFB05B030BD73B50446E3
:10FAA000051D218C2846FFF7D3FF2846FFF788F96C
:10FAB000E5690646284618F0C5FAB4F90610C0B242
:10FAC0008000301A023100224FF61E030095FDF728
:10FAD000C4FB7CBDF0B589B0031D054604AC93E8BA
:10FAE000030084E803001846298CFFF7B1FF204685
:10FAF000FFF766F9EE690746304618F0A3FABDF93C
:10FB00001210C0B2800002310022381A4FF61E03D4
:10FB10000096FDF7A2FB122104230A46009320461B
:10FB20000B46FFF76DF9686A18F08CFA0746204615
:10FB3000FFF74DF9ADF80800C0F30F40ADF80A002B
:10FB4000029E20460796FFF742F9ADF80800C0F381
:10FB50000F40ADF80A0002996B6AFF0036B2A6EBBF
:10FB600067060691091400933046073900224FF6C4
:10FB70001E03FDF772FB09B0F0BDF0B585B0031DA3
:10FB8000044602AD93E8030085E803001846218C83
:10FB9000FFF75EFF2846FFF713F9E6690746304690
:10FBA00018F050FABDF90A10C0B2800002310022EC
:10FBB000381A4FF61E030096FDF74FFB122104235F
:10FBC000009328460A460B46FFF71AF9636ABDF907
:10FBD0000800BDF90A1000930430043100224FF6EA
:10FBE0001E03FDF73AFB05B0F0BD4BF29651FDF751
:10FBF00080B92DE9F041012104460026FDF788F97E
:10FC0000D02514E0EB10DA024FEAA50842EA4818C2
:10FC1000204648EA0308FFF711F9074602E040468C
:10FC2000FDF780F9013FFAD20D3DEDB201362046D5
:10FC3000FFF7CEFA8642E5DBBDE8F041FDF78CB96F
:10FC400010B5044606F06AFD231D20B91846BDE82C
:10FC50001040FFF7CABF1846BDE81040FFF7C9BF04
:10FC60002DE9FF47044606F059FD4FF6FF750028C1
:10FC700008BF00252046FFF7E3FFE369B4F904005D
:10FC80002A46B4F90610009304304FF61E03FDF720
:10FC9000E4FA206A01210368B4F904805B6898479C
:10FCA0008146206A0121036808F178071B6898479C
:10FCB000B9F1010F064607D1244BB4F906100093A1
:10FCC00008F170002A460AE0B9F1000F0BD11F4B72
:10FCD000B4F90610009308F1700048F210424FF694
:10FCE0001E03FDF73AF9D4F820A0231D93E8030082
:10FCF0000DF10809DAF8003089E803002046D3F84E
:10FD00001080ADF80870ADF80C7006F007FD49469C
:10FD100002465046C047206A03685B699847012E37
:10FD2000384405D10A4BB4F9061000932A4606E080
:10FD30004EB9074BB4F90610009348F210424FF643
:10FD40001E03FDF70AF9BDE8FF8700BF980C0708FE
:10FD50000A0D070837B5054606F0E0FC4FF6FF74BC
:10FD6000002808BF00242846FFF76AFFEB69B5F9B1
:10FD700004000093B5F90610043022464FF61E0326
:10FD8000FDF76BFA3EBD13B50446FFF759FFE36973
:10FD9000B4F904000093B4F90610043000224FF6C1
:10FDA0001E03FDF75AFA1CBDF0B585B0044606F0F7
:10FDB000B5FC4FF6FF75002808BF0025204606F069
:10FDC000ADFC90B102AB221D92E8030083E8030072
:10FDD000BDF808201846083AADF80820BDF80C20F8
:10FDE0000832ADF80C20FFF704FF204606F096FC21
:10FDF00058B1174BB4F904000093B4F90610073852
:10FE00002A464FF61E03FDF7A8F8276A20463B68EE
:10FE10001E6906F083FC211D02463846B047206A61
:10FE2000A78803685B6998470646204606F076FC7B
:10FE300058B1084B3FB2781C0093B4F906108019F2
:10FE40002A464FF61E03FDF788F805B0F0BD00BF47
:10FE5000980C07080A0D070838B54FF61F0399429A
:10FE600004460A4607D0056961698068E368281876
:10FE7000C918FCF737FF6269236912F0010F07D038
:10FE8000591E002921610BDA01322361626138BDFC
:10FE9000A069591C8142216102DB01322361626148
:10FEA00038BD10B500231A46416811F8014B416076
:10FEB00004F07F019140073214F0800F43EA010300
:10FEC000F2D1184610BD38B54FF0FF3303600B7800
:10FED0000446472B0D461CD18B1C4360FFF7E1FF06
:10FEE000A0612046FFF7DDFFE0616B78422B10D167
:10FEF000234604F1200061680A4612F8015B626043
:10FF000049780132626041EA05221A840233834251
:10FF1000F1D138BD03460068B0F1FF3F06D15A6801
:10FF200012F8010B18605A60001170474FF0FF3251
:10FF300000F00F001A60704770B500240646254691
:10FF40003046FFF7E7FFC0B200F00703AB400335D0
:10FF500010F0080F44EA0304F2D1204670BD0000FF
:10FF60002DE9F8434FF0FF33036001330361436130
:10FF70008769C36904468160C260D0F804805F432A
:10FF800001262FE0AEB12046FFF7D6FF451C2046E4
:10FF9000FFF7C0FF0026814607E009F11003204665
:10FFA00034F81310FFF758FF0136AE42F5DB002698
:10FFB00012E02046FFF7AEFF451C0AE02046FFF79F
:10FFC000A9FF00F1100334F813102046FFF744FF97
:10FFD0000136AE42F2DB01267F1B03D504484821DF
:10FFE000FDF77CF9002FCDDCC4F80480BDE8F88370
:10FFF0004EC10608074A08481168084B30B5046826
:020000040805ED
:10000000074DCB1805FB0433013103605804116020
:10001000400C30BD34A7002018300020F39024009D
:1000200021F17D004162704773B5044616460D46C6
:1000300019B90C480D21FDF751F90B4B00211B6834
:100040002046B3F84C300A462386E5620223009628
:10005000FEF70DF9204604F1300102B0BDE8704012
:10006000FFF7E0BF42BD0608E4A7002073B50546D0
:1000700016460C4619B90A480C21FDF72FF9EC6217
:10008000284634F8062F002102230096FEF7EFF8E9
:100090002846214602B0BDE87040FFF7C3BF00BF4D
:1000A0009BBD060873B5044616460D4619B90C48A3
:1000B0003F21FDF713F90B4B00211B682046B3F8D5
:1000C0004C300A462386E56202230096FEF7CFF8FD
:1000D000204604F1300102B0BDE87040FFF7A2BF36
:1000E000CABD0608E4A70020F7B5B0F90A40B0F988
:1000F0000470B0F90660B0F9085006F00FFB4BF23F
:1001000096524FF6FF73002808BF13460F3710367C
:10011000043D0093384631462A462346FCF7FAFD53
:10012000FEBD2DE9F0410C46154698460026A75B1A
:100130001FB94FF61F03A3530DE0FA08294602F03A
:10014000FC02404606F016F9FA0AA0530021D2003C
:1001500006F010F9A0530236202EE8D1BDE8F08158
:1001600010B592B0044606F0D9FA231D218C70B167
:100170001846FFF742FC616A21B302A8FFF7A3FE0D
:1001800020460AA94EF210424FF6FF730DE01846C2
:10019000FFF7EEFB616AA9B102A8FFF794FE2046C3
:1001A0000AA94EF21C724BF29653FFF7BAFF089B56
:1001B000B4F90810B4F90A20C91A099B02A8D21A86
:1001C000FFF7CEFEE369B4F904000093B4F906101A
:1001D0000C3000224FF61E03FDF73FF812B010BDA1
:1001E000416082600373704708B50379012B09D021
:1001F00002D3022B0FD10AE08368188800F01F0099
:10020000400808BD83681888C0F3C31008BD836820
:100210001888000B08BD03484FF48271FDF75EF8A3
:10022000002008BDD8BE060830B54FF6FF7585B072
:100230000C46002A08BF0025FFF7D6FF05F038FF5F
:1002400000238DF80D3003AB8DF80C000093B4F94A
:100250000000B4F902102A464FF61E03FDF71EF8FF
:1002600005B030BD002908B50CDDFFF7BDFF0E2835
:100270008CBF0020012008BDFFF7B6FF003818BF73
:10028000012008BDF8DB002008BD00000379012B28
:1002900012D002D3022B2CD11DE08268138823F0E8
:1002A0001F031B041B0C0F2902D04900C9B200E038
:1002B0001F2141EA03031AE08268138823F4FC63D8
:1002C0001B041B0C0F2902D08900C9B200E03F219A
:1002D00043EA41130BE0826813885B055B0D0F292D
:1002E00002D04900C9B200E01F2143EAC1231380B4
:1002F000704702484FF48E71FCF7F0BFD8BE060875
:1003000010B50446FFF770FF30B1411EC9B2204658
:10031000BDE81040FFF7BABF10BD10B50446FFF7A7
:1003200063FF0E2806D8411CC9B22046BDE8104024
:10033000FFF7ACBF10BDC8684042704710B5044617
:1003400006F0F2FA014B2046236010BD90B006087B
:10035000014B0360704700BFD8B0060810B50446D3
:10036000FFF7F6FF014B2046236010BDB0B0060832
:1003700010B50446FFF7ECFF014B2046236010BD8B
:1003800078B4060810B5044606F0CEFA014B2046B4
:10039000236010BD20B1060810B50446FFF7F2FF38
:1003A000014B2046236010BD00B1060810B504467D
:1003B000FFF7E8FF014B2046236010BD58B6060842
:1003C000C36A2DE9F0431F795B79A7F10102574217
:1003D00047EB020748F21048002F18BF4FF0000803
:1003E000012B87B0044608D002D3022B0FD109E0BD
:1003F0003C4B1B68B3F84C3008E03A4B1B68B3F831
:10040000603003E0374B1B68B3F8EA310386B4F978
:100410000450B4F906600E3581B12046FFF766F846
:10042000E36A28469A79304B314653F822304246E7
:1004300000934FF61E03FCF710FF02E02046FFF783
:1004400053FE002F4AD0E36A284A99799F6852F8F0
:10045000214038460021103617F0AEFA68B1244B1F
:1004600028460093424631464FF61E03FCF775FDC1
:1004700007F100424519174600E00635384616F0E8
:1004800011FD02460B4602A81A49FCF705FC05E0DF
:1004900006AA02EB0903002203F8112C02AF38462A
:1004A00017F0D0FD8146204617F0CCFD48440728C0
:1004B000EED82846314642464FF61E030097FCF719
:1004C000EDFE5CB123784BB104352818314644F277
:1004D00008224FF61E030094FCF7BFFE07B0BDE8EC
:1004E000F08300BFE4A7002000C6060834C6060853
:1004F000E618070866C106080121FFF761BF10B5BD
:10050000044606F02FFB2046BDE8104006F0F4BA82
:10051000FFF7F5BFFFF7F3BF38B50D4B1B68D3F8F6
:10052000C840002C11DDD3F8BC00013017F052F8A0
:100530000146084817F056F90546204617F04AF8D4
:100540000146284617F04EF938BD002038BD00BFDF
:10055000E4A7002000BA5B4A37B50446FEF7C6FFA1
:100560002046FFF7D9FF17F04FFA17F033F80821AC
:10057000B4F90450B4F9064005F0F0FD1C35103410
:1005800000902146284600224FF61E03FCF786FE07
:100590003EBD000038B5104B084610491C6817F0E6
:1005A0006DF80546D4F8C80017F014F8014628463F
:1005B00017F064F801460A4817F014F917F024FA06
:1005C000D4F8BC3001380128B8BF0120C4F8BC0001
:1005D000C01A18BF012038BDE4A700200000A041C8
:1005E0004054894C2DE9F04711F0010904460D46AD
:1005F00003D111F0020F00F0CE802046FFF78CFFF0
:1006000000210646012717F0EBF900B9002717F083
:10061000FF0F03D162482321FCF760FE3046614999
:1006200017F0D4F9E8B930465F4917F0CFF9D8B9D7
:1006300030465E4917F0CAF9C0B930465C4917F038
:10064000C5F9A8B930465B4917F0C0F990B93046F2
:10065000594917F0BBF978B93046584917F0B6F93F
:1006600060B94FF07E570AE0554F08E04D4F06E065
:100670004D4F04E04D4F02E04D4F00E04D4FB9F1BA
:10068000000F11D03046394617F0B4F928B1304682
:10069000394616F0E9FE804600E0B04640460021AB
:1006A00017F094F910B903E0B04601E04FF07E581E
:1006B00015F0020F10D04046424917F07DF920B1E5
:1006C0004046394616F0D2FE80464046002117F0DB
:1006D0007DF908B14FF07E583946404617F082F850
:1006E00017F092F916F076FF394616F0C7FF4FF073
:1006F0007E51074617F060F908B14FF07E57384633
:10070000314617F04FF9002843D139462046FFF70C
:1007100041FF80462046FFF7FFFE314682463846BD
:1007200017F068F938B15046314617F04FF90028F4
:1007300018BF4FF000083846314617F03DF920B198
:100740005046314617F04CF910B9B8F1000F16D1E8
:100750001D4BB9F1000F07D01B68D3F8BC00B0F5F2
:10076000803F0CDA013005E01B68D3F8BC0001289B
:1007700005DD0138C3F8BC0080B2FDF71FF8204644
:1007800005F0DCFF2046E16846F67512002305F00F
:10079000DCFF20462946BDE8F047FDF7BBBA00BFA5
:1007A0006AC106080000C84200007A4400401C46A6
:1007B0000050C347002474498096184B20BCBE4C9F
:1007C000000020418096984BE4A70020002303609E
:1007D00043608360704710B50446FFF7F7FF20467B
:1007E00010BD836830B5456803B985608368DC2235
:1007F0005343B83A02FB0533002BB8BFFF331A123C
:100800008260046805B944604368DC256B43B83DE9
:1008100005FB0433002BB8BFFF331B1243600CB938
:100820000B0203600368DC2463434FF4105404FBA1
:1008300001310029B8BFFF3109120160101EB8BF95
:10084000FF30001230BD0000F0B585B0FBF7DEFFD1
:100850000746FBF7F7FF644C0646236813F0010FC9
:1008600004D16248FFF7B7FF0123236039465F4890
:10087000FFF7B7FF5E4D04467021F0204BF2965211
:10088000002300950197FCF70AFD002C40D04BF2A5
:10089000965200238021F02001940095FCF7FFFC84
:1008A000A4F50660193816F095FE524916F0E6FEDA
:1008B000514916F097FF0146504816F0D5FD504BB0
:1008C00050490093044616F0D1FD16F0EBFA4BF2B6
:1008D0009652CDE9020100239021F020FCF7DFFCC5
:1008E0004949204616F0CAFE484B4FF08441009318
:1008F00016F0BCFD434916F0B9FD16F0D3FA4BF2E1
:100900009652CDE902010023F020A021FCF7C7FC9C
:100910003F4C236813F0010F04D13E48FFF75BFF03
:100920000123236031463B48FFF75BFF3A4D044605
:10093000C021F0204BF29652002300950196FCF75F
:10094000AEFC0CB34BF29652D0210023F020009560
:100950000194FCF7A4FC314B2046009316F03AFEBC
:100960002F4916F08BFE2F4916F03CFF254916F053
:100970007DFD16F097FA4BF29652CDE90201002365
:10098000F020E021FCF78BFC00210620FBF761FD45
:10099000002105460520FBF75CFD234B0446284655
:1009A000009316F017FE214916F068FE16F07AFA49
:1009B0000023CDE902014BF296524021F020FCF7D2
:1009C0006EFC1B4B1B4AF020002C0CBF14461C462F
:1009D000194B502100934BF2965200230194FCF7DF
:1009E0005EFC05B0F0BD00BF10A7002024A70020CA
:1009F0009D3B0708CCCC90410000CA42CDCC4C4076
:100A0000A1C106080AD7A33B6666E63FAAC106084D
:100A100014A7002018A700202DD50608B3C106088A
:100A2000333333400080DB44BBC106086F12833A86
:100A30009AC106089EC10608C2C1060810B5054C39
:100A40002368586AFBF7CAFC2368986ABDE810401F
:100A5000FBF7CBBCE4A7002010B5054C8900236848
:100A60005962FFF7EBFF2068BDE8104004F0F4B9CD
:100A7000E4A7002010B5074C890023689962FFF7AE
:100A8000DDFF6420FBF766FC2068BDE8104004F041
:100A9000E3B900BFE4A700202DE9FF41044605F0BB
:100AA0003DFE4BF29655B4F90A204FF6FF7300282D
:100AB00018BF1D46B4F90410B4F90830101F083BE4
:100AC0000C3A0090123102A8FEF751F802A844F245
:100AD0000821FCF70EFA02210A460B4602A80091F3
:100AE000FEF78EF902A8FEF7A9F923688046DB69B4
:100AF00020469847236807469B6A20469847236804
:100B000006465B6A20469847A8F1100807FB08F7DD
:100B1000361ABDF8083097FBF6F7FF18BFB2ADF8EC
:100B2000087002A810372946ADF80C70FCF7E1F9FF
:100B3000BDE8FF81036870B5DB690E46044698473F
:100B400016F0010F05460DD0236820465B6A9847D2
:100B5000854207DD236820461B6A691E98472046A8
:100B6000FFF79AFF16F0020F0DD0236820469B6A0C
:100B70009847854207DA236820461B6A691C984714
:100B80002046FFF789FF20463146BDE87040FDF75B
:100B9000C1B810B50446FEF7A9FC2046BDE81040D8
:100BA000FFF77ABF014B18682C307047E4A700208C
:100BB00008B5FFF7F7FF0368013B036008BD08B500
:100BC000FFF7F0FF03680133036008BD38B5044642
:100BD0000D46FFF7E7FF006863682D189D4205DBAF
:100BE000A0688542CCBF0020012038BD002038BD60
:100BF000416082607047000010B5FFF7D3FF0068C6
:100C000038B100B205F020FA0349044617F024F881
:100C100000E0024C204610BDCDC10608C7C1060841
:100C200008B5FFF7E9FF17F00DFAC3004FF6F870AB
:100C300003EA000008BD73B54FF6FF740E88002A62
:100C400008BF0024B1F90250FFF7D6FF29460090F3
:100C5000224630464FF61E03FCF7FFFA7CBD2DE915
:100C6000F04100F1300405460F46164620460021AB
:100C70000F22DDF81880FFF7BBFF284621463A46D1
:100C80003346CDF81880BDE8F041FDF729BB0000E0
:100C90007FB50E46F0233C210446154600930A46D4
:100CA000283302A8FDF763FF20462A4602AB10490D
:100CB000009605F007FD04F1200002230D4948F2DB
:100CC00010420094FDF709FB04F14C0002230A498D
:100CD00048F210420094FDF700FB04F17800074948
:100CE00048F2104202230094FFF7B9FF7FBD00BF16
:100CF000D3C1060869D8060877D80608E4C10608F3
:100D00000A4B73B51A6800F1300405460E462046BA
:100D1000083201230649FFF763FA28462146054AAF
:100D200048F210430096FDF7DBFA7CBDE4A70020F3
:100D3000ACC70608F7C106084160704710B5044605
:100D40000AF050FF63681B68002B04DA094ADB4392
:100D500052F8230010BD0C2202FB030002780AB9EE
:100D6000406810BD013B0C38B3F1FF3FF6D10020C5
:100D700010BD00BFB4C70608436810B51C68002C3E
:100D800006DB0AF02FFF0C2303FB0404606810BD90
:100D9000002010BD38B50446FFF7D0FF05462046B9
:100DA000FFF7EAFF04461DB1284617F04BF9054648
:100DB0001CB1204617F046F900E02046451904B161
:100DC0000235ED004FF6F87005EA000038BD00006E
:100DD0002DE9F3414FF6FF7607460C46002A08BF7F
:100DE00000260D88FFF7AAFF80463846FFF7C4FFAC
:100DF0000746B8F1000F0BD02846B4F9021032466E
:100E00004FF61E03CDF80080FCF727FA2D18ADB27F
:100E1000B7B10C4B0435ADB2B4F9021000932846BB
:100E200032464FF61E03FCF718FA04352818B4F9B9
:100E3000021080B232464FF61E030097FCF70DFAFF
:100E4000BDE8FC8104C2060838B50C4615460AF018
:100E5000C9FE2B1905D5124A13F1050FB8BF134669
:100E60001BE0002D4FF00C020BDD631C02FB0404A1
:100E700002E00C348AB90133227B022AF9D1084BF3
:100E80000BE0631E02FB040403E014F80C2D22B9EE
:100E9000013B002BF9DA4FF0FF33184638BD00BF95
:100EA00019FCFFFF10B544684FF0FF322168FFF7CF
:100EB000CBFF206010BD10B5446801222168FFF708
:100EC000C3FF206010BD000008B543680A461968DA
:100ED000FFF7BAFF024BC01A18BF012008BD00BFC0
:100EE00019FCFFFF07B5009111461A4648F210435E
:100EF000FDF7F6F90EBD00007FB51546F023282258
:100F000004460E4600933C219B1802A8FDF72FFED5
:100F10002A4602AB214D20462149009605F0D2FB1E
:100F200004F120002146FFF7EBFE296804F160067A
:100F300030460C31FFF700FF324604F168002146CD
:100F4000184BFFF7CFFF296804F19806304610319F
:100F5000FFF7F2FE324604F1A0002146124BFFF7E4
:100F6000C1FF296804F1D00630461431FFF7E4FED2
:100F7000324604F1D80021460C4BFFF7B3FF296835
:100F800004F5847630461831FFF7D6FE04F58870F4
:100F900021463246064BFFF7A5FF7FBDE4A70020A0
:100FA00006C206081AC2060828C2060838C2060881
:100FB00042C2060810B5044605F0B6FC014B2046B7
:100FC000236010BD48B0060810B50446FFF7F2FFD5
:100FD000014B2046236010BD30B6060810B504460C
:100FE000FFF7B6F9014B2046236010BD78B606081E
:100FF00010B50446FFF7C6F9014B2046236010BD2B
:10100000C0B6060870B50546FFF7BCF9064B2C467E
:1010100044F8203B05F1B00620462434FFF7E8FFF2
:10102000B442F9D1284670BDA0B6060810B50446F2
:10103000FFF78EF9014B2046236010BDE0B606088D
:1010400010B50446FFF77AF9214B204640F8243BBF
:10105000FFF7ACF904F14400FFF7A8F904F16400CC
:10106000FFF7A4F904F18400FFF7A0F904F1A4004C
:10107000FFF7B4FF04F1B000FFF7B0FF04F1BC00CC
:10108000FFF7ACFF04F1C800FFF7A8FF04F1D4009C
:10109000FFF7B8FF04F5C270FFF7A0FF04F5C870B2
:1010A000FFF79CFF04F5CE70FFF798FF04F5D470AE
:1010B000FFF794FF04F5DA70FFF7A4FF04F5197049
:1010C000FFF7B4FF04F51B70FFF766F9204610BD6B
:1010D00008EE060810B50446FFF754F9014B204608
:1010E000236010BD08B7060810B50446FFF726F9BF
:1010F0002D4B204640F8643BFFF7ECFF04F18400E1
:10110000FFF7E8FF04F1A400FFF7E4FF04F1C400D7
:10111000FFF74CF904F1E400FFF748F904F5827099
:10112000FFF744F904F59270FFF740F904F5A27057
:10113000FFF73CF904F5B270FFF738F904F5C27017
:10114000FFF70CF904F5CA70FFF726F904F5DC7017
:10115000FFF704F904F5E470FFF71EF904F5F670E3
:10116000FFF764FF04F5FA70FFF716F904F506704F
:10117000FFF75CFF04F50870FFF70EF904F5117036
:10118000FFF72CFF04F51470FFF728FF04F5177024
:10119000FFF724FF04F51A70FFF720FF04F51D7018
:1011A000FFF730FF204610BD30ED060810B50446AD
:1011B00005F0BAFB114B204640F8203BFFF704FF37
:1011C00004F15000FFF7F6FE04F17C00FFF7F2FE99
:1011D00004F1A800FFF7EEFE04F1D400FFF7EAFEE9
:1011E00004F58070FFF7E6FE04F59670FFF728FF20
:1011F00004F57170FFF778FF204610BD60EE060819
:10120000C36A2DE9F0431F795B79A7F101056F42AD
:1012100047EB050748F21048002F18BF4FF00008B1
:10122000012B394BB0F904501B6887B014BFB3F8D9
:101230004C30B3F86030044603860E35B0F90660D2
:1012400079B1FEF753F9E36A28469A792F4B314674
:1012500053F82230424600934FF61E03FBF7FDFF82
:1012600001E0FEF741FF002F4AD0E36A284A99794E
:101270009F6852F8214038460021103616F09CFB3A
:1012800068B1244B28460093424631464FF61E0370
:10129000FBF763FE07F100424519174600E00635EB
:1012A000384615F0FFFD02460B4602A81A49FBF727
:1012B000F3FC05E006AA02EB0903002203F8112C57
:1012C00002AF384616F0BEFE8146204616F0BAFE42
:1012D00048440728EED82846314642464FF61E03BA
:1012E0000097FBF7DBFF5CB123784BB1043528187E
:1012F000314644F208224FF61E030094FBF7ADFF7F
:1013000007B0BDE8F08300BFE4A7002080C6060850
:10131000B0C60608E618070866C106080121FFF7EF
:101320006FBF000010B5044605F0FEFA074B01221E
:101330002360002384F83020236284F82420A362F1
:10134000E36284F83130204610BD00BF28B706089C
:1013500070B504460D46164605F0E6FA024B2562C6
:1013600023606662204670BD00F6060870B504462C
:101370000D46164605F0D8FA024B256223606662D8
:10138000204670BDE0F5060870B504460D461646C9
:1013900005F0CAFA034BED00F60023602562666291
:1013A000204670BDC0F5060810B520213222044643
:1013B000FFF7CEFF014B2046236010BDA0AF06080B
:1013C000202110B50A460446FFF7C2FF014B204614
:1013D000236010BDC0AF060810B5202107220446C7
:1013E000FFF7C4FF014B2046236010BDE0AF0608A5
:1013F00010B5202110220446FFF7C6FF014B2046FE
:10140000236010BD00B00608C8228260503AC26056
:10141000793A026142610132027642768276704701
:1014200070B5438986B0A3F11802153BADF81220C0
:10143000ADF816300546066EFCF73CF94FF4C8745B
:101440006643B6FBF0F06D6EADF81000FCF732F9B4
:1014500001356543BDF81030B5FBF0F5ADF814501B
:101460001AB22DB2AD1A012D07DC0233ADF81430DB
:101470001BB2A342C8BFADF8144004AC20464FF6DF
:10148000FF71FBF736FDBDF8102013B2002B0EDD07
:1014900002AB94E8030083E80300ADF80C20184683
:1014A000002244F20821ADF80820FBF722FDBDF828
:1014B000142013B2B3F5C87F0FDA02AB04A903C935
:1014C00083E80300ADF8082018464FF4C87244F2D0
:1014D0000821ADF80C20FBF70CFDFCF715F90446CC
:1014E000FCF7E8F84FF4C8735C43BDF91210BDF97E
:1014F00016301F22B4FBF0F0009201310246013B8E
:10150000FBF754FF06B070BD10B5044605F00CFAA9
:10151000034B204623604FF0FF332362636210BD0C
:1015200058B8060830B51D4B87B0044603AD93E8A4
:1015300007000C3385E8070093E80700236A6D462F
:10154000B3F1FF3F85E8070002D1039B606223628D
:10155000FEF750FD032290FBF2F202EB420206A9D5
:10156000821A01EB82020346216A52F80C0C9B009E
:10157000401800EBD0704010206252F8181C626ACC
:10158000891801EBD1714FF6FC72491003EA02028F
:10159000616207B0BDE83040FBF7A4BB90B8060815
:1015A00047F269439A4201D1FFF7BCBF704710B5BB
:1015B00001704270837010BD02EBD27310B55B10E6
:1015C000192404FB030312F0010F0B4493F83C00B1
:1015D00001D0000910BD00F00F0010BD30B502EBC6
:1015E000D2746410192505FB0414041912F0010FBC
:1015F00094F83C2015BF02F00F0222F00F0242EADD
:101600000313134384F83C3030BD73B50646FEF730
:10161000F1FC1923B0FBF3F505FB1305FEF7EAFC1B
:101620000E23B0FBF3F404FB130429463046224694
:10163000FFF7C2FF0128EAD130462946224602239D
:10164000FFF7CCFFE2B2002301A8E9B2FFF7AFFF3A
:10165000019B00201A0CDBB263F307009DF80530F4
:1016600063F30F20D3B263F317407CBDF8B5144B7E
:101670004FF4AF76074606FB013600251CE0335DCC
:10168000202B02D0232B0CD104E0384621462A46D9
:10169000012303E0384621462A460023FFF79EFF38
:1016A00003E00848F721FBF719FE0134192CE6D1B5
:1016B000013519360E2D01D00024E0E7F8BD00BF3A
:1016C000A8B806084CC20608002370B50446C362D9
:1016D000FEF790FC1923B0FBF3F202FB13036362E5
:1016E000FEF788FC0E23B0FBF3F505FB1305666AD5
:1016F000A562204631462A46FFF75EFF0128E7D162
:10170000204631462A460523BDE87040FFF766BFF4
:101710002DE9F0474FEA41180F242FE0032B03D89F
:10172000DFE803F005090C0F00252E460BE0C0F1A1
:101730000F063D4607E02646054604E025460646D8
:1017400001E005463E46134946EA05154AEA4006C9
:1017500001EB8606D6F8786146FA09FC1CF00F0CFE
:1017600008BF4FF0020C01EB4C01B1F878140130C6
:10177000102822F81510D1D1013C09D3C4F10F076C
:1017800004F0070948EAE70A4FEA89090020C5E79B
:10179000BDE8F08790B8060870B5ADF5027D0C463F
:1017A00006461546FFF708FF0528014603D13046D7
:1017B00002AAF36A06E0042808BF336B304602AA87
:1017C00018BF0023FFF7A4FF02A8691C621CAB1C12
:1017D00000904FF4807001900901200112011B015B
:1017E000FBF7F6FA0DF5027D70BD11F0020F03460E
:1017F00006D0C26A0132032AC2620EDD002206E070
:1018000011F0010F07D0C26A002A02DD013ADA6244
:1018100003E00322FBE705F00EB8596A9A6A1846FE
:10182000FFF7BABF70B5064600240AE029463046E5
:1018300022460135FFF7B0FF192DF7D101340E2CE8
:1018400001D00025F2E770BD10B5044605F08AF915
:10185000A36B6FF00901594301F596712046642985
:10186000B8BF6421BDE8104005F082B8836AC36246
:101870000023036343638363704700000D4B10B57F
:10188000C3610D4B044603620C4B43620C4B8362F5
:101890000C4BC3600C4B03600C4B43600C4B8360E0
:1018A0004FF07E530361002343618361FFF7DEFF46
:1018B000204610BD6F12033ACDCCCC3D9A99194009
:1018C00066E6F6C20AD7233CCDCC4C3ECDCC4C3D8F
:1018D0000000F04110B50446FAF728FD40F22D1340
:1018E00060602381204610BD038813B940F22D1398
:1018F000038109880180704738B504460D46FAF720
:1019000015FD62682389821A9A4215D923889BB1F2
:101910002B80238940F22D129342606002D14FF454
:10192000967307E0B3F5967F01D1642302E00A2B9A
:1019300004D90A3B238138BD00232B8038BD000029
:1019400010B5044604F0F0FF014B2046236010BDA3
:1019500050DD060810B5044604F0E6FF014B2046B2
