:020000040800F2
:10C00000000001201D3505083133050833330508CC
:10C0100035330508373305083933050800000000BB
:10C020000000000000000000000000003D33050893
:10C030003B330508000000003F3305084133050885
:10C0400043330508453305084733050849330508D8
:10C050004B3305084D3305084F33050851330508A8
:10C060005333050855330508573305085933050878
:10C070005B3305085D3305085F3305086133050848
:10C080006333050865330508673305086933050818
:10C090006D330508713305087333050875330508DA
:10C0A00077330508793305087B3305087D330508A8
:10C0B0007F33050881330508953405089734050852
:10C0C000993405089B3405089D3405089F340508FC
:10C0D000A1340508A3340508B1340508B3340508B4
:10C0E000B5340508B7340508B9340508BB3405086C
:10C0F000BD340508BF340508C1340508C33405083C
:10C10000C5340508C7340508C9340508CB3405080B
:10C11000CD340508CF340508D1340508D3340508DB
:10C12000D5340508D7340508D9340508DB340508AB
:020000040804EE
:10C0000020B10368197003680133036070472DE99C
:10C01000F041161E04460D4614DD002200E00132F8
:10C02000A95C0029FBD1B24203F00208B4BFC2EB05
:10C0300006060E46B8F1000F0CBF4FF020084FF077
:10C04000300801E04FF0200813F0010709D105E0A6
:10C0500020464146FFF7D4FF0137013E002EF7DCB2
:10C0600005E0002703E02046FFF7CAFF013715F877
:10C07000011B0029F7D105E020464146FFF7C0FF2C
:10C080000137013E002EF7DC3846BDE8F0812DE98E
:10C09000FF410A9F05460B9EDDF830C08E4651B920
:10C0A00030238DF804308DF805103A4601A9334647
:10C0B000FFF7ADFF3CE03BB10A2A07D1002905DAC2
:10C0C000C1F1000E012402E01C4600E0002404A996
:10C0D000002301F8013D0EE0BEFBF2F302FB13EE7C
:10C0E000BEF1090FC4BFACF13A0086440EF1300E28
:10C0F00001F801ED9E468846BEF1000FECD184B1F7
:10C100004FB116F0020F06D028462D21FFF778FF19
:10C11000013F012405E02D2301F1FF3801F8013C26
:10C120000024284641463A463346FFF770FF00197F
:10C1300004B0BDE8F0812DE9F0478AB006460D460F
:10C1400005920024DBE0252B40F0D38015F8013F59
:10C15000002B00F0D880252B00F0CB802D2B02D1B6
:10C1600001352C3B03E0002301E043F002032946A4
:10C1700015F8012B302AF8D0002702E00A2202FB32
:10C1800007070A780D46A2F130005FFA80FC013102
:10C19000BCF1090FF2D9732A09D1059A3046111D55
:10C1A000059111685C4A002908BF11469DE0642A88
:10C1B0000ED1059A01936123111D029300970591F9
:10C1C00030461168603B0A22FFF761FF241895E0B2
:10C1D000662A54D1059B073323F0070303F10802B5
:10C1E000D3E9000105921AF02FFA002180461AF0D7
:10C1F00027FD38B12D238DF8183008F100480DF1D6
:10C20000190A01E00DF1180A40461AF041FD012318
:10C2100000E013460A225A439042FADA90FBF3F206
:10C2200002F1300103FB12000A2293FBF2F30AF839
:10C23000011B002BF2D124328AF80020002F08BF06
:10C240000327994640461AF023FD1AF007FB0146E2
:10C2500040461AF04DFA31491AF054FB80461AF064
:10C2600017FD09F101093030B9450AF8010FE9DB82
:10C2700000228AF80120304606A9202336E0782AD9
:10C280000AD1059A01936123111D0097029305912C
:10C2900030461168102219E0582A0BD1059A0193F3
:10C2A0004123111D02930097059130461168413BCF
:10C2B000102289E7752A0BD1059A01936123111D7C
:10C2C000009702930591304611680A22613B7BE793
:10C2D000632A13D1059A3046111D126805918DF815
:10C2E000242000228DF8252009A93A46FFF78FFE69
:10C2F0006CE730462978FFF783FE013401352B784F
:10C30000002B7FF420AF16B1336800221A7020464C
:10C310000AB0BDE8F08700BF50A106080000204128
:10C32000014BD86C80B2704700240140014B186863
:10C33000704700BF2CA7002001461420B7F786BF26
:10C34000034B18801A8892B2002AFBD1704700BFB5
:10C3500038A70020044B10B5196804460320B7F72E
:10C3600075FF024B1C8010BD003000203AA7002052
:10C3700030B5002308E00A24B0FBF4F104FB1100FF
:10C380003030D054013388B2084A0028F3D1D05459
:10C390005910013BD31804E0145C5D7815545C70AF
:10C3A0000130013B8842F7DB004830BDA03200205D
:10C3B00008B506200021B7F74DFF5A234343A3F5E4
:10C3C0008223A3F56B6340F2145093FBF0F00A3024
:10C3D0006428A8BF642020EAE07008BD0128ACBF33
:10C3E000014601210220B7F731BF00EBD070024BAC
:10C3F00040101860704700BF00300020052810B5BD
:10C4000007D8044B53F8200018B1046806F03EFF2B
:10C41000A04710BD78920608C0B2B7F717BF47F221
:10C420006623984201D1B7F705BFC0B2B7F712BF74
:10C4300043680A6823F4702323F4807313430A7952
:10C4400010B543EA022343608A68CB6884681A43C4
:10C45000094B04EA030342EA03034A7943EA42032D
:10C4600083600B7CC26A013B22F47002DBB242EAB9
:10C470000353C36210BD00BFFDF7F1FF002303604B
:10C48000037143718360C36001330374704719B152
:10C49000836843F0010302E0836823F001038360B3
:10C4A000704719B1836843F4807302E0836823F412
:10C4B000807383607047C9B212B14368194302E0C8
:10C4C000436823EA010141607047836843F0080331
:10C4D000836070478068C0F3C0007047836843F092
:10C4E0000403836070478068C0F38000704719B10F
:10C4F000836843F4A00302E0836823F4A00383600D
:10C5000070478068C0F3805070474368013923F456
:10C51000604343EA41334360704719B1436843F4D1
:10C52000006302E0436823F4006343607047092915
:10C5300070B54FEA41040BD964181E3C0725A5408D
:10C54000A340C66826EA050545EA0304C4600AE07C
:10C5500064180725A54013FA04F4066926EA0505C0
:10C5600045EA04030361062A0CD8013A02EB820271
:10C570001F2393409140446B24EA030343EA0102E2
:10C58000426370BD0C2A4FEA82030BD89A18233AF3
:10C590001F2393409140046B24EA030343EA010202
:10C5A000026370BD9A18413A1F2393409140C46AB8
:10C5B00024EA030343EA0102C26270BD19B1836831
:10C5C00043F4801302E0836823F480138360704790
:10C5D000C06C80B27047014B186870474C24014012
:10C5E00019B1436843F4806302E0436823F4806335
:10C5F0004360704719B1436843F4805302E04368D5
:10C6000023F4805343607047836823F4E04341EA96
:10C6100003038360704719B1836843F4004302E069
:10C62000836823F400438360704719B1836843F43F
:10C63000021302E0836823F402138360704780686A
:10C64000C0F340507047092970B54FEA41040BD937
:10C6500064181E3C0725A540A340C66826EA0505C8
:10C6600045EA0304C4600AE064180725A54013FAEC
:10C6700004F4066926EA050545EA04030361836BB1
:10C6800003F440146FEA145412190332D2B202EBCD
:10C6900082021F249440914023EA04030B438363E6
:10C6A00070BD836B013923F4401343EA0153836364
:10C6B000704782B00A5002B0704782B001902830B3
:10C6C000405880B202B07047436823F4400323F41B
:10C6D000007341EA0303436070474162826270471E
:10C6E000436823F01F0341EA030343607047054B8F
:10C6F00018B19A6842F4000202E09A6822F400023B
:10C700009A60704700240140036819420CBF002062
:10C7100001207047C943016070474368006810EA10
:10C72000112004D0C9B219420CBF0020012070476B
:10C730006FEA112101607047044B11B1DA681043B0
:10C7400002E0DA6822EA0000D86070470010024078
:10C7500007B5124B019098420DD0114B984212D060
:10C76000104B984219D14FF400700121FFF7E4FFFC
:10C770004FF400700EE04FF480600121FFF7DCFF02
:10C780004FF4806006E04FF400400121FFF7D4FF32
:10C790004FF400400021FFF7CFFF0EBD00280140FD
:10C7A000003C014000240140044B11B15A69104380
:10C7B00002E05A6922EA0000586170470010024006
:10C7C000044B11B19A69104302E09A6922EA000011
:10C7D000986170470010024008B50120FFF787FFFD
:10C7E00010210A4801220523FFF7A1FE0120FFF7CF
:10C7F000A7FD06480121FFF77AFE02210348FFF753
:10C8000083FF0128F9D1FFF78BFD08BD002401400B
:10C8100008B50120FFF76BFF11210A48012205230B
:10C82000FFF785FE0120FFF78BFD06480121FFF78A
:10C830005EFE02210348FFF767FF0128F9D1FFF7E9
:10C840006FFD08BD00240140024B0E2202FB0030A8
:10C85000704700BF90920608034B18801A8892B266
:10C86000002AFBD1704700BF38A70020044A4FF4CC
:10C87000805313604FF0C0421080024A136070472B
:10C88000141401401014014010B5EF20FFF7EEFF23
:10C890004FF0C0431A881C8818881A881988C3B2B8
:10C8A000C9B241EA046141EA0343120643EA124273
:10C8B000014B9A6010BD00BFA0320020054B4FF421
:10C8C00080521A604FF0C0431880034802601980FC
:10C8D000704700BF14140140101401402DE9F041CD
:10C8E000E9204FF0C044FFF7C1FF20222280112031
:10C8F000FFF7BCFF6420FFF7AFFFD120FFF7B6FFC3
:10C90000002517225E232580D02023802280FFF778
:10C91000ADFF0C2607232380362023804FF04008EC
:10C920002680FFF7A3FF3046A4F800804936FFF7C2
:10C930009DFF26803A20FFF799FF2680C120FFF750
:10C9400095FF533E10232380C0202380268026801D
:10C95000FFF78CFF012735232580C5202380258004
:10C96000258027802680FFF781FF2780D220FFF7D0
:10C970007DFF22232780C8202380FFF777FF7322C3
:10C98000372327802280238004220F2325802380C1
:10C99000268022806722A4F80080228025808022C1
:10C9A0002680238008232380292022802580FFF7EA
:10C9B0005DFF2C20BDE8F04158E7002008B5014696
:10C9C000FFF77CFF00200146FFF778FF00200146BB
:10C9D000FFF774FF00200146FFF770FF0A20FFF702
:10C9E0003BFF01214FF4C060FFF768FF0A20FFF70B
:10C9F00033FF40214FF4DE60FFF760FF0A20FFF7AE
:10CA00002BFF4FF480604FF4C441FFF757FF08201D
:10CA100040F60801FFF752FF01204FF48071FFF745
:10CA20004DFF02204FF48071FFF748FF03203021B3
:10CA3000FFF744FF09200121FFF740FF0C200021F0
:10CA4000FFF73CFF90204FF40041FFF737FF0F2026
:10CA50000021FFF733FF10201621FFF72FFF1120D1
:10CA600040F20111FFF72AFF12200021FFF726FFF5
:10CA700013200121FFF722FF4FF480704FF44C7117
:10CA8000FFF71CFF40F2011040F23721FFF716FFBD
:10CA900040F203104FF47061FFF710FF4FF4207065
:10CAA0004FF4D641FFF70AFF4CF2B0114FF48170FA
:10CAB000FFF704FF6420FFF7CFFE4FF440704FF400
:10CAC0004061FFF7FBFE40F2013045F60B21FFF716
:10CAD000F5FE40F2023040F60611FFF7EFFE40F29D
:10CAE000033041F21701FFF7E9FE4FF441704FF4B4
:10CAF0000C51FFF7E3FE40F205304FF4B851FFF759
:10CB0000DDFE40F2063046F20931FFF7D7FE40F273
:10CB1000073040F60941FFF7D1FE4FF4427041F271
:10CB20000C01FFF7CBFE40F2093042F23221FFF751
:10CB3000C5FE4FF404700021FFF7C0FE40F2112043
:10CB4000EF21FFF7BBFE40F212200021FFF7B6FEF7
:10CB500040F2132040F28F11FFF7B0FE4FF4A060B7
:10CB60000021FFF7ABFE40F201500021FFF7A6FEC7
:10CB700040F202500521FFF7A1FE40F201400121E1
:10CB8000FFF79CFE002140F20440FFF797FE64206F
:10CB9000FFF762FE4FF480710720FFF78FFE6420DD
:10CBA000FFF75AFE4FF400700021FFF787FE0021C7
:10CBB00040F20120FFF782FE054A4FF480531360D4
:10CBC00040F202214FF0C0421180024A136008BDBA
:10CBD000141401401014014070B5104C4FF48053F0
:10CBE0004FF40065236001202560FFF735FE0C4BF4
:10CBF0000A201D60FFF730FE32202560FFF72CFE73
:10CC0000FFF742FE074B9A68074B9A4202D1BDE8F4
:10CC1000704063E6BDE87040CFE600BF10140140ED
:10CC200014140140A0320020279304020B4B10B5CE
:10CC30009A680B4B4FF0C0449A4209D12E20FFF75F
:10CC400015FE238824882C20A4B2FFF70FFE02E0F3
:10CC500023882488A4B2204610BD00BFA032002043
:10CC6000279304020EB403B503AA52F8041B0190E3
:10CC700001A80092FFF75FFABDE80C4003B07047CF
:10CC8000AAE713B502AC24F8020D00200146B7F75D
:10CC9000BDFA20464BF68031B7F7C6FAB7F7C0FAAF
:10CCA00020464BF68031B7F7BFFAB7F7B9FA1CBD8B
:10CCB000C1F1EF0110B580B289B21446B7F7A6FAF8
:10CCC0002046BDE81040B7F7A3BAC1F1EF0110B597
:10CCD00080B289B2B7F79AFABDE81040B7F7C4BA84
:10CCE00038B5151A5C1A6C434BF67F35AC4280B2EE
:10CCF00002F1FF35C3F1F0020FD9C1F1EF0392B297
:10CD0000A9B29BB26508B7F789FA04A8A9B2B7F728
:10CD10008BFA641BB7F784FA06E0C1F1EF0392B215
:10CD2000A9B29BB2B7F77AFA04A8A1B2B7F77CFA16
:10CD3000B7F776FA002040F28F110246EF23B7F7DB
:10CD40006DFA38BD37B50D46B0F9021004464B1CDC
:10CD5000B0F90000B4F904200095FFF7C1FFB4F961
:10CD60000630B4F90000591EB4F904200095FFF70D
:10CD7000B7FFB4F90000B4F90210421CB4F9063050
:10CD80000095FFF7ADFFB4F90420B4F90210B4F92F
:10CD90000630501E0095FFF7A3FF3EBD2DE9F14F71
:10CDA0000A9C1E460B9B88461746511E04EB4309FE
:10CDB000C6F1F002C8F1EF03054689B280B292B223
:10CDC0009BB2B7F72BFAA2460CE03AF8020BB7F782
:10CDD0001FFACA4508BFA2460BF1010BBB45F4DBA5
:10CDE00008F10108B04501DAAB46F7E7002040F250
:10CDF0008F110246EF2301B0BDE8F04FB7F70EBA2E
:10CE00002DE9F843B0F80080044689461FFA88F7F8
:10CE1000002614E0B4F9065009E0C5F1EF013846E8
:10CE200089B2B7F7F3F9FFF701FF29F8020BB4F95C
:10CE30000230013D9D42F0DA01370136BFB20FFAF0
:10CE400088F2B4F90430B2189A42E3DBBDE8F88303
:10CE50002DE9F047C28843880D468188C2F1F0026F
:10CE60000139C3F1EF03044689B2008892B29BB244
:10CE7000B7F7D4F90026B4F8028010E0B4F80090B7
:10CE8000002703E035F8020BB7F7C2F90FFA89F271
:10CE9000B4F90430BA1801379A42F3DB01360FFABD
:10CEA00088F2B4F90630B2189A42E7DB002040F26B
:10CEB0008F110246EF23BDE8F047B7F7AFB913B5BE
:10CEC0000346B3F90240B3F90420B0F90000B3F906
:10CED000063000912146FFF703FF1CBD0268034B9B
:10CEE000DA6042681A6102685A617047A032002015
:10CEF00010B50B4C0246B4F91610B4F91400FFF744
:10CF0000D7FEA38AB4F910200133A3821BB29A4240
:10CF100004DCA389A382E38A0133E38210BD00BF4E
:10CF2000A032002070472DE9F74F99460C9B0191E4
:10CF3000924613F801BB054600241DE018F8013B9A
:10CF4000FBB113F0040F4FF61E0305D09A450AD02B
:10CF500028463146524604E0994504D028463146D9
:10CF60004A46FFF7A5FE013701365F454346E5DB3C
:10CF700001340135502C03D0019E98460027F4E778
:10CF800008242046BDE8FE8F2DE9F0411E460F46DD
:10CF9000B6B2C7F1F00714460546B7F747F9B91B13
:10CFA000A8B289B2B7F732F920463146B7F73AF955
:10CFB000BDE8F041B7F734B930F0030309D131F0DF
:10CFC000030208D140EA81000449091891F8180EBB
:10CFD0007047002070471846704700BF78920608D7
:10CFE0002DE9F04F85B004469A469DF839009DF82A
:10CFF00038300D4616469DF83AB002900393274606
:10D0000045E0C5EB0A01701E0139C01B3B1BC8EB94
:10D0100001019842A8BF18464145A8BF4146FFF705
:10D02000CBFF68BBC9F1EF0189B2B8B2B7F7EEF830
:10D03000B7F71AF91A4BC10001F0FF01C208000A44
:10D0400000EA0303C1EB0B000190DDF808C0039870
:10D0500002F0FC02C2EB0C0EC3EB000C03EB6C0302
:10D06000DDF804C0DB1001EB6C00C01040EAC32304
:10D0700002EB6E00801043EA401080B2B7F7C8F8A8
:10D0800009F1010908F10108D145BADB0137B742BE
:10D0900003DAA9464FF00008F6E705B0BDE8F08FC7
:10D0A000F8FF07002DE9F74F06468A4615461C464D
:10D0B000BDF830B088462DE00AF10303984509D148
:10D0C000E71E414630462A463B46CDF800B0FFF702
:10D0D00007FEB846B146002718E0A81B0138611EBC
:10D0E000C01BC8EB0101CAEB0803B842A8BF384611
:10D0F0009942A8BF1946FFF75FFF20B9484641464D
:10D100005A46FFF7D5FD09F101090137A945E4DBCE
:10D1100008F10108A045CFDBBDE8FE8F13B503463B
:10D12000B3F90240B3F90420B0F90000B3F90630B6
:10D1300000912146FFF7B6FF1CBD2DE9F74F019086
:10D140009DF830001F460D469246FFF77DFB4FF6D7
:10D150001E039F4283461DD100241BF80480019FBB
:10D160006FEA08085FFA88F8082618F0800F04D0E4
:10D17000384661195246FFF79BFD013EF6B2013772
:10D1800026B14FEA48085FFA88F8EEE701340E2C22
:10D19000E3D145E09A451FD100241BF80490DDF847
:10D1A00004806FEA09095FFA89F9082619F0800FEF
:10D1B00004D1404661193A46FFF77AFD013EF6B2C6
:10D1C00008F1010826B14FEA49095FFA89F9EDE74C
:10D1D00001340E2CE1D123E000241BF80490019EC1
:10D1E0006FEA09095FFA89F94FF0080819F0800F12
:10D1F00008F1FF38304614BF52463A4629465FFAD6
:10D2000088F8FFF755FD0136B8F1000F04D04FEA5A
:10D2100049095FFA89F9E9E7013401350E2CDCD1BF
:10D220000820BDE8FE8F2DE9F7430A9F05460E460C
:10D2300091469846AFB1387818B913E00A2B02D15D
:10D2400010362C4607E00093204631464A464346B6
:10D25000FFF773FF241817F8013B002BEED1601B7A
:10D2600000E03846BDE8FE83DDE72DE9F043A5B0D8
:10D2700015462CAA0E4652F8041B07460DF1080865
:10D2800023A899462292CDF88C80FEF754FF3146B0
:10D2900004462A4638464B46CDF80080FFF7E4FFA7
:10D2A000204625B0BDE8F08337B5124B05460C4645
:10D2B000009330211F2328204FF6FF72FFF7D4FF81
:10D2C00020211F234FF6FF7228200095FFF7CCFF87
:10D2D000A0B2FFF74DF8102100904FF6FF72282002
:10D2E0001F23FFF7C1FF4FF47A7003B0BDE8304051
:10D2F000FFF726B857A1060808B502480421FFF732
:10D30000D3FFFEE769A106080FB430B5A5B028AA7F
:10D3100052F8041B02AC23A823942292FEF70BFFC1
:10D3200023941EE00A2B134C03D0A569B5F5C47FE6
:10D3300009DBE26900230E32E02AA361E2610DDD20
:10D340000C4AD3610AE000932846E1694FF6FF7268
:10D350004FF43043FFF7F1FE4019A061239B0133E6
:10D360002393239B1B78002BDCD125B0BDE83040F4
:10D3700004B07047A03200202DE9F74FC0EB020B3C
:10D380005F1A1FFA8BFBBFB20FFA8BFA0FFA87F8FE
:10D390004FEADB3BFF0BBDF83090BAF1000FD4BF72
:10D3A000CBF1000BCBF1010BB8F1000FD4BF7F42E2
:10D3B000C7F10107BAF1000FB8BFCAF1000AB8F10E
:10D3C000000FB8BFC8F100084FEA4A0A4FEA480800
:10D3D00000921FFA8AFA1FFA88F84A460193044617
:10D3E0000D460FFA8AF6FFF763FC0FFA88F39E42A8
:10D3F00020DB1FFA88F8A8EB6606B6B216E016F432
:10D40000004F09D11EB94FFA8BF3002B04DD7BB21C
:10D41000CAEB0606ED18B6B24FFA8BF3E418464491
:10D42000204629464A46B6B2FFF742FC009B9C4282
:10D43000E5D11EE01FFA8AFAAAEB6306B6B215E040
:10D4400016F4004F09D116B97BB2002B05DD4FFA57
:10D450008BF3C8EB0606E418B6B27BB2ED1856445F
:10D46000204629464A46B6B2FFF722FC019B9D4260
:10D47000E6D1BDE8FE8F0020FFF7E6B908B5002130
:10D480000420B6F7E7FEC3439BB2C3F3802013F436
:10D49000006F1CBF40F0020080B213F4805F18BF21
:10D4A00040F4807013F0080F18BF40F0040013F42C
:10D4B000004F18BF40F0080013F0400F18BF40F4B1
:10D4C000007013F4804F18BF40F0100013F4005F99
:10D4D00018BF40F0200013F4807F18BF40F04000D8
:10D4E00013F4007F18BF40F0800008BD07B50B2083
:10D4F0000021B6F7AFFE40B9074B303000931E2134
:10D500001F224FF6FF73FFF78EFE1420002103B099
:10D510005DF804EBB6F79ABE8FA10608024B0146F0
:10D5200018712420B6F792BE00300020014B187904
:10D53000704700BF0030002070B50CE09C1804EB71
:10D54000D474641050F8246025468E4201D2621CC7
:10D5500001E004D9631E9342F0DA4FF0FF3528460C
:10D5600070BD2DE9F84F214C074604F56260083084
:10D570000E4615469846002215230C99FFF7DCFF4E
:10D58000B0F1FF3F9DF82890BDF82CA083462AD02B
:10D590000C9A174B05209A600021B6F757FE092018
:10D5A0003946B6F753FE0A203146B6F74FFE002043
:10D5B0002946B6F74BFE0B204146B6F747FE0C2036
:10D5C0004946B6F743FE04EB4B0401205146B6F73B
:10D5D0003DFE0720B4F8801EB6F738FE0820B4F8E8
:10D5E000AC1EB6F733FEBDE8F88F00BF7892060890
:10D5F0000030002008B503200021B6F72BFEC0B292
:10D6000008BDB6F717BE08B506200121B6F71EFE05
:10D61000FEF78CFE014B186208BD00BFA03200204F
:10D620002DE9F04106460C462220314615461F469C
:10D63000B6F70CFE21202146B6F708FE202047EA67
:10D64000C501BDE8F041B6F701BEB0F5805F70B529
:10D6500003DD0A48CA21FFF727FE094C04F580457F
:10D660002668FFF7CEFF06F07F4620F07F4040EAB5
:10D67000060644F8046BAC42F2D170BDA8A10608BE
:10D68000C43200204FF480507047B0F5805F10B571
:10D69000044603D30348DB21FFF706FE024800EBF4
:10D6A000840010BDA8A10608C432002010B50021D6
:10D6B0000220B6F7CFFD00210120B6F7CBFD0021F7
:10D6C00000F001040320B6F7C5FD10F0010F18BFEC
:10D6D00044F00204204610BD08B5FEF727FE0B4BB0
:10D6E0001B6AC01A19F0BAF8094919F0BFF9094BB9
:10D6F000996819F0BBF9084919F004F919F0C8FA4A
:10D70000B0F5805FA8BF4FF4805008BDA032002064
:10D7100000007A44003000200000F041034670B55C
:10D7200010200C4619461546B6F790FD11202146EB
:10D73000B6F78CFD12202946BDE87040B6F786BDCD
:10D74000094B10B51A68094C22F001021A60084A08
:10D75000146043F2B0521A60064A116090601A6871
:10D7600042F001021A6010BD4404024008740040F7
:10D770004C04024048040240034B0121A3F83C0D35
:10D7800003F552601C30DBE78865002001460D2060
:10D79000B6F75CBD00487047C672002008B5034666
:10D7A00002730020012A587305D11A46094808332C
:10D7B000B6F76CFD06E0022A09D11A46054808337F
:10D7C000B6F762FDD0F1010038BF002008BD01208E
:10D7D00008BD00BFC672002008B5034608461946BA
:10D7E000B6F756FDD0F1010038BF002008BD10B5D6
:10D7F000044608462146B6F74DFD20B9637B01304B
:10D800000133637310BD002010BD10B5037B0446C7
:10D81000022B10D1B1F1FF3F08BF417B224608BF68
:10D820004902074804F10803B6F736FD28B9032377
:10D830002373013010BD012010BD002010BD00BFBA
:10D84000C6720020024B034A93FBF0F3138170472A
:10D8500000A24A040038014005E0054A118811F091
:10D86000800FFAD0938010F8013B002BF5D1704760
:10D87000003801400F4B10489A6942F480429A6187
:10D880000E4A40F27123138142F22C0393811388D4
:10D8900023F4A46323F005031B041B0C1380084B23
:10D8A0005A6822F47F6242F40A625A604FF480623E
:10D8B0001A61D1E700100240D2A1060800380140E9
:10D8C0000008014010B54FF4FA70FEF739FDFFF77C
:10D8D000D7F9FFF70BFEBDE81040CBE705F008BD18
:10D8E000034B1A8812F0800FFAD09880704700BF5F
:10D8F000003801400E200021B6F7ACBC0D200021FD
:10D90000B6F7A8BC0F200021B6F7A4BC1020002158
:10D91000B6F7A0BCB6F792BC014B9868704700BF41
:10D92000A03200202DE9F0433F3189B0234B8046DF
:10D9300087B28CB2ADF1020213F8010C1978C01055
:10D940008910C002490141185878043301EBD00115
:10D9500022F8021F1A498B42EED11A4E3D4616F8A4
:10D96000013B08AA1B0902EB430328460135214667
:10D9700033F8202CADB208F1FF09FFF799F94D45B6
:10D9800002DD013CA4B23D4616F8013C08AA03F0B2
:10D990000F0302EB430328460135214633F8202CC0
:10D9A000ADB2FFF785F94D4502DD013CA4B23D461D
:10D9B000054B9E42D3D109B0BDE8F08337D80308A8
:10D9C00077D8030876D8030876F80308704700BFB5
:10D9D000014B1860704700BFC87400207047014BAE
:10D9E00018687047C874002037B5FEF79FFC294CB3
:10D9F0002368B3F1FF3F08BF20602368C51AB5F55F
:10DA00007A7F0ED94FF47A72B5FBF2F502FB05333B
:10DA100020490B6005F09EF800F53250036AED18BE
:10DA20000562FFF72BFDADF8060000B9A08005F0F8
:10DA300091F800F546500DF106011C3003F0F8FD99
:10DA400005F088F800F546501C300DF1060103F092
:10DA5000F7FDBDF80630ABB105F07CF80221BDF84A
:10DA6000062009F041FBBDF80620A3889A4206D0A3
:10DA7000094B1B681B7A13B93220FEF76BFCBDF80B
:10DA80000630A38005F066F80321002209F02CFB84
:10DA900001203EBD103000204CA7002010B5FFF73C
:10DAA00011FF05F057F809F0D6F805F053F80121F9
:10DAB000002209F019FB14F0A9F914F061F913F030
:10DAC000C9FFBDE81040FFF79EBD00BF08B5036861
:10DAD00049421B6849B2984708BD0000014B1868CD
:10DAE000704700BF00B506087047012070474368C3
:10DAF000826819688A181A607047436882681968D2
:10DB00008A1A1A6070470820704783681B78CB1800
:10DB100005D4027B9342CCBF002001207047002037
:10DB2000704783681A7801321A70704783681A78D0
:10DB3000013A1A70704783681970704783681878C3
:10DB4000704702207047182070470220704700205D
:10DB5000704700207047082070470000034B1B6887
:10DB6000586A0028B8BF0330801070474CA70020C7
:10DB70000020704719207047034B1B68986A0028E3
:10DB8000B8BF0330801070474CA7002000207047BA
:10DB90001920704770477047436882681B68CB182C
:10DBA000934205DBC0688342CCBF00200120704750
:10DBB0000020704743681A6801321A607047436852
:10DBC0001A68013A1A607047024840F21F11FFF7C5
:10DBD0006BBB00BF50AF060808B503484FF48F7108
:10DBE000FFF762FB002008BD50AF0608024840F274
:10DBF0001D11FFF759BB00BF50AF060802484FF494
:10DC00008E71FFF751BB00BF50AF0608024840F2CB
:10DC10001B11FFF749BB00BF50AF060808B503480A
:10DC200040F21911FFF740FB022008BD50AF060873
:10DC300039B9042A05D146F26742934201D108F06E
:10DC4000D3BB704739B9042A05D146F267429342E3
:10DC500001D108F0C9BB704739B9042A05D146F291
:10DC60006742934201D108F0BFBB7047C36A70B5E9
:10DC700004460D461BB916484E21FFF715FB15F05B
:10DC8000010F07D0E36A9A7922B1013A9A712046CE
:10DC900008F0AAFB15F0020F08D0E36A9A790A2A65
:10DCA00004D801329A71204608F09EFB15F0100F3F
:10DCB00008D0E168E36A204646F66352BDE870404A
:10DCC00008F099BB20462946BDE8704008F009BC21
:10DCD0006AAF060811F0100F70B505460C4605D066
:10DCE000C16846F66F52002308F085FB284621469E
:10DCF000BDE8704008F0F5BB11F0010F70B50446A7
:10DD00000D4615D0C06A012103685B689847012859
:10DD10000ED1E06A00210368DB689847204608F0CE
:10DD200063FB2046E16847F27052002308F063FB72
:10DD300015F0020F15D0E06A012103681B689847AF
:10DD400001280ED1E06A002103689B6898472046AD
:10DD500008F04AFB2046E16847F27052002308F0C1
:10DD60004AFB15F0100F0ED0E06A0368DB69984794
:10DD7000084B1B68984206D02046E16846F665428B
:10DD8000E36A08F038FB20462946BDE87040FFF7FB
:10DD9000A1BF00BF00B5060811F0010F70B5044621
:10DDA0000D460DD0C36A002B0ADD013BC36208F0AB
:10DDB0001BFB2046E16846F67512002308F01BFBAA
:10DDC00015F0020F0ED0E36A132B0BDC0133E36274
:10DDD000204608F009FB2046E16846F6751200234C
:10DDE00008F009FB20462946BDE87040FFF772BFE6
:10DDF00011F0010F70B504460D460DD0C36A012B1A
:10DE00000ADD013BC36208F0EFFA2046E16846F6FE
:10DE10007512002308F0EFFA15F0020F0ED0E36A36
:10DE20001D2B0BDC0133E362204608F0DDFA2046AF
:10DE3000E16846F67512002308F0DDFA204629460F
:10DE4000BDE87040FFF746BF11F0200F70B50546E2
:10DE50000C4606D0C06846F278520146002308F00E
:10DE6000CAFA28462146BDE8704008F03ABB0000D7
:10DE700011F0010F70B504460D4615D0006A01215E
:10DE800003685B68984701280ED1206A0021036867
:10DE9000DB689847204608F0A7FA2046E16847F279
:10DEA0007052002308F0A7FA15F0020F15D0206A6F
:10DEB000012103681B68984701280ED1206A0021C0
:10DEC00003689B689847204608F08EFA2046E16870
:10DED00047F27052002308F08EFA15F0100F0ED0A2
:10DEE000206A0368DB699847084B1B68984206D094
:10DEF0002046E16846F66542236A08F07CFA20462F
:10DF00002946BDE87040FFF79FBF00BF00B5060877
:10DF100011F0010F70B504460D4615D0C06A0121FD
:10DF200003685B68984701280ED1E06A0021036806
:10DF3000DB689847204608F057FA2046E16846F625
:10DF40007512002308F057FA15F0020F15D0E06A99
:10DF5000012103681B68984701280ED1E06A00215F
:10DF600003689B689847204608F03EFA2046E1681F
:10DF700046F67512002308F03EFA20462946BDE811
:10DF8000704008F0AEBA0000C36A70B504460D4692
:10DF90001BB91A482A21FFF787F915F0100F08D08E
:10DFA000E168E36A204646F66352BDE8704008F037
:10DFB00022BAE36A1A79043AD2B2012A17D815F0C4
:10DFC000010F08D0DA6812F1FE0F04DB013ADA60C3
:10DFD000204608F009FA15F0020F08D0E36ADA6863
:10DFE000FE2A04DC0132DA60204608F0FDF9204602
:10DFF0002946BDE8704008F074BA00BF95AF060826
:10E00000C36A70B504460D461BB91D482221FFF7AF
:10E010004BF915F0100F08D0E168E36A204646F688
:10E020006352BDE8704008F0E6B915F0010F0ED05C
:10E03000E36A1A795AB1013A1A71204608F0D4F904
:10E040002046E16846F67512E36A08F0D4F915F047
:10E05000020F0FD0E36A1A790B2A0BD801321A711A
:10E06000204608F0C1F92046E16846F67512E36AD9
:10E0700008F0C1F920462946BDE8704008F031BAE1
:10E08000C3AF0608C36A70B504460D461BB91648EF
:10E090004D21FFF709F915F0010F07D0E36A9A79CE
:10E0A00022B1013A9A71204608F09EF915F0020F4C
:10E0B00008D0E36A9A79092A04D801329A71204675
:10E0C00008F092F915F0100F08D0E168E36A2046D5
:10E0D00046F66352BDE8704008F08DB920462946E7
:10E0E000BDE8704008F0FDB9F2AF060830B5028413
:10E0F00000250122456280F82820BDE8304008F064
:10E1000037B900007FB5043302AC05460E4693E8EC
:10E11000030084E80300BDF80E30284604339BB2A8
:10E12000ADF80A300733ADF80E30044942F0020270
:10E130002346009608F01CF97FBD00BF14B0060806
:10E140007FB5043302AC05460E4693E8030084E82D
:10E150000300BDF80E30284602339BB2ADF80A30FA
:10E160000733ADF80E30044942F002022346009610
:10E1700008F0FEF87FBD00BF20B0060830B5049D52
:10E18000028401224562BDE8304008F0F1B82DE973
:10E19000FF410A9E0D4600214162028480F828302A
:10E1A00004464FF01108304608FB03F808F098F8D1
:10E1B0005FFA88F802AF68B1304608F091F8043091
:10E1C00003C887E80300BDF80E3002339BB2ADF8F8
:10E1D0000A3006E0331D93E8030087E80300BDF82A
:10E1E0000A30984420462946012202ABADF80E8041
:10E1F000009608F0BDF8BDE8FF81FFF7C8BF00003A
:10E200002DE9F041DDF81880044615461F460E46FC
:10E2100021B9084840F21B21FFF746F8204629465D
:10E220003A460223E662CDF81880BDE8F041FFF7D8
:10E23000AEBF00BF50AF0608DBB2FFF7A8BFFFF7C5
:10E24000A6BF10B50A24C462BDE81040FFF79FBF07
:10E2500010B50A24C462BDE81040FFF798BF000063
:10E2600073B5044616460D4619B907480C21FFF749
:10E270001BF8E5622046002146F20C32022300968C
:10E28000FFF785FF7CBD00BF95AF060810B50524DC
:10E29000C462BDE81040FFF77ABF13B503469C681F
:10E2A0005B682478088853F82430B1F90210009391
:10E2B0004FF6FF73002A14BF1A4600224FF61E03C2
:10E2C000FEF7B1FF1CBD00002DE9F341274DB0F969
:10E2D00006402B68B0F90460B3F84C20244B21466B
:10E2E000009330460023FEF79EFF2B68214F93F8E2
:10E2F0004A30214657F82330801900934FF6FF72B9
:10E300000023FEF790FF2B6806F16408B3F8602045
:10E31000194B2146009340460023FEF784FF2B68EB
:10E32000214693F85E30404457F823304FF6FF7291
:10E3300000930023FEF777FF104BC8360093214669
:10E34000002330464BF29652FEF76DFF2B68801982
:10E3500093F898200A4B214653F822304FF6FF726B
:10E3600000930023FEF75FFFBDE8FC814CA700206F
:10E370005BEB060814B6060841EC06082CB006084C
:10E380007CB6060813B504300021FEF798FD2D4B2E
:10E39000402100930420002348F21042FEF743FF7F
:10E3A000294B50210093294C0023042048F21042AD
:10E3B000FEF739FF60210023082044F20822009470
:10E3C000FEF731FF224B702100930420002348F216
:10E3D0001042FEF728FF1F4B8021009304200023EA
:10E3E00048F21042FEF71FFF1B4B902100930420C0
:10E3F000002348F21042FEF716FFB0210023082048
:10E4000044F208220094FEF70EFF144BC021009343
:10E41000042048F210420023FEF705FF104BD021E4
:10E4200000930420002348F21042FEF7FCFE0D4B3F
:10E4300004200093E02148F210420023FEF7F3FE8F
:10E440001CBD00BF30B0060841B006084EB006083B
:10E4500077B006088EB00608AAB00608BBB006085A
:10E46000CEB00608E6B00608F7B50E88154B083E94
:10E470004FF6FF75002A08BF0025B6B20C460746C6
:10E48000B1F902102A46009330464FF61E03FEF7FC
:10E490004AFD7B683618B6B2B4F9021000933046D4
:10E4A0002B464FF61E02FEF7BEFE074B30180093B8
:10E4B000B4F902102A464FF61E0380B2FEF733FD70
:10E4C000FEBD00BFA20007081401070873B504468B
:10E4D00007F07AFFA688144B083E4FF6FF75002818
:10E4E00008BF0025B6B2B4F9061000932A4630469C
:10E4F0004FF61E03FEF717FDE3693618B6B2B4F9FE
:10E500000610009330462B464FF61E02FEF78BFE98
:10E51000064B30180093B4F906102A464FF61E0336
:10E5200080B2FEF700FD7CBDA200070814010708B9
:10E5300013B504464FF6FF710430FEF7C0FCB4F982
:10E540000400B4F90A10054B083000931439002276
:10E550004FF61E03FEF767FE1CBD00BFF3B00608B2
:10E5600008B583681A78436853F8220018F0AEFEA5
:10E57000C3004FF6F87003EA000008BD7FB543689A
:10E5800004460D46164623B9124840F2CB21FEF749
:10E590008BFE63681A68A36892FBF3F20A2392FB6E
:10E5A000F3F103FB11220023ADF80C30303204AB41
:10E5B00003F8042D4FF6FF720093B5F90000B5F98A
:10E5C0000210002E08BF00224FF61E03FEF74CFE7D
:10E5D0007FBD00BF50AF060870B50E4615461C46FD
:10E5E00007F077FE2A46014623463046BDE87040D4
:10E5F00007F001BF11F0130F70B505460C4607D0A8
:10E6000007F067FE022201462346284607F0F3FE84
:10E6100028462146BDE8704007F063BF11F0010FA6
:10E620002DE9F04104460D4616D0006A0121036829
:10E630005B68984780B1206A00210368DB689847CF
:10E64000204607F046FE07F0CFFEE06847F2705222
:10E65000C168002307F0CFFE15F0020F16D0206A24
:10E66000012103681B68984780B1206A0021036874
:10E670009B689847204607F02CFE07F0B5FEE0683F
:10E6800047F27052C168002307F0B5FE15F00C0F79
:10E690000FD00C4E204629463768FFF7D5FB33686C
:10E6A000BB420CD0204607F014FEBDE8F04107F055
:10E6B0009BBE20462946BDE8F041FFF7C5BBBDE83B
:10E6C000F08100BF60A7002010B50C4607F001FEE6
:10E6D000036821465B68984710BD11F0130F10B511
:10E6E0000C4606D007F0F5FD036821465B689847A5
:10E6F00010BDBDE8104007F0F4BE000011F0030F9C
:10E7000010B507D0FFF704FC044B1868BDE81040B3
:10E7100006F020BABDE81040FFF7FABB4CA7002076
:10E7200011F0030F10B507D0FFF7F2FB044B186888
:10E73000BDE8104006F00EBABDE81040FFF7E8BB98
:10E740004CA7002011F0030F10B507D0FFF7E0FB36
:10E75000044B1868BDE8104006F0FCB9BDE8104055
:10E76000FFF7D6BB4CA7002008B54368B3F90000FB
:10E7700007F0C0FA18F0AAFDC3004FF6F87003EADC
:10E78000000008BD4368F7B54FF6FF7604460D4616
:10E79000002A08BF00261BB913489721FEF784FD05
:10E7A0006368B5F900701868A368984202DBE368F3
:10E7B00098420ADD0D4BB5F90210009338463246F7
:10E7C0004FF61E03FEF72FFD0CE000B2B5F9024034
:10E7D00007F090FA21460090324638464FF61E0365
:10E7E000FEF742FDFEBD00BF00B106081BB10608E2
:10E7F0002DE9F0471F4647F270539A4204460D46F2
:10E8000016463FD100F1380399423BD1436A93F851
:10E810000480A8F104095FFA89F9B9F1010F8CBFEE
:10E820004FF000094FF00109B9F1000F06D0A8F12F
:10E830000503D3F1000848EB030801E04FF001089D
:10E8400004F1A00A504607F0B8FE814506D04946BB
:10E85000504607F0D8FD4FF0010901E04FF00009E4
:10E8600004F16C0A504607F0A8FE804504D05046DB
:10E87000414607F0C8FD02E0B9F1000F02D0204682
:10E8800007F0B2FD2046294632463B46BDE8F04738
:10E89000FFF7A2BEF7B543680E881C88083E134BED
:10E8A000B6B20D462246B1F90210304600934FF63B
:10E8B0001E03FEF738FB36182046B5F9027007F044
:10E8C0005DFAB6B200903946234630464FF61E0236
:10E8D000FEF7CAFC064B30180093B5F90210224629
:10E8E0004FF61E0380B2FEF71EFBFEBDA200070816
:10E8F00014010708002280F8292007F089BF44F698
:10E9000044418A4201D107F083BF44F645418A421F
:10E9100002D1012280F82020704744F644439A42F5
:10E9200001D107F075BF44F645439A4202D16421F4
:10E9300007F074BE704710B544F64444A24204D0B8
:10E9400045F24834A24207D153B9002380F8293058
:10E95000BDE8104007F05CBF44F64544A24200E029
:10E96000012B03D1012380F8283010BD49B9042AB6
:10E9700007D146F26742934203D1BDE8104016F03A
:10E98000A7BF10BD012116F0A3BF000011F0100FAA
:10E9900070B5044617D007F09EFC18B90A483D210F
:10E9A000FEF782FC204607F094FC0546204607F05F
:10E9B00092FC0346DB692046294646F26452BDE8D4
:10E9C000704007F018BD70BD1DB10608018042807F
:10E9D000704710B58380BDF8083001804280C38045
:10E9E00010BD00007FB5DE2305460E461446009399
:10E9F00000211622D33B02A8FFF7EBFF284604496B
:10EA000044F0020202AB009607F0B2FC7FBD00BFEB
:10EA100040B106087FB5152305460E4614460093FF
:10EA20000C21102202A84FF49C73FFF7D2FF284656
:10EA3000034944F0020202AB009607F099FC7FBD47
:10EA400054B106087FB5F02305460E4614460093E0
:10EA500000211022A03302A8FFF7BBFF284604497B
:10EA600044F0020202AB009607F082FC7FBD00BFBB
:10EA700067B106087FB5F02305460E46144600939D
:10EA800000211022A03302A8FFF7A3FF2846044963
:10EA900044F0020202AB009607F06AFC7FBD00BFA3
:10EAA00073B106087FB5F02305460E461446009361
:10EAB00000211022A03302A8FFF78BFF284604494B
:10EAC00044F0020202AB009607F052FC7FBD00BF8B
:10EAD00083B106087FB5F02305460E461446009321
:10EAE000002110224C3302A8FFF773FF2846044987
:10EAF00044F0220202AB009607F03AFC7FBD00BF53
:10EB000093B1060870B5F02388B004460E4615464A
:10EB1000009300211022A03306A8FFF75AFF2046D9
:10EB20001A4945F0200206AB009607F021FCB4F923
:10EB30000A204FF4967100924FF4A573103A04A87E
:10EB4000FFF747FF04F140001149012204AB009494
:10EB500007F00EFCB4F90A204FF4B47100924FF4A0
:10EB6000C373103A02A8FFF734FF04F120000949EB
:10EB7000012202AB009407F0FBFB00232366FEF7A3
:10EB800081FD0138606608B070BD00BF9FB1060806
:10EB9000ACB10608B1B106087FB5F02305460E46B4
:10EBA0001446009300211022A03302A8FFF711FFA2
:10EBB0002846044944F0120202AB009607F0D8FB45
:10EBC0007FBD00BFB6B106087FB5F02305460E46EF
:10EBD0001446009300211022A03302A8FFF7F9FE8B
:10EBE00028460349224602AB009607F0C1FB7FBDD1
:10EBF000C6B10608B0F90420B0F90030D0184010B2
:10EC0000704707B5B0F90030B0F90410B0F906202C
:10EC1000C918B0F902304910D218521001A8FFF7F4
:10EC2000D5FE019B00209AB262F30F001B0C63F328
:10EC30001F400EBD10B50488091901804188521883
:10EC400042808288D31A8380C288029BD31AC380F1
:10EC500010BD10B50488611A018041888A1A42806B
:10EC600082889B188380029AC388D318C38010BD02
:10EC7000B0F90420B0F90030D01A7047F0B587B071
:10EC800004AC051D064695E8030084E80300012155
:10EC900000220B4620460092FFF7DBFF204648F299
:10ECA0001041FEF70CF994E80300184B02AF1B6803
:10ECB00087E803002846B3F89A40FFF7D9FFBDF86C
:10ECC0000A3004FB00F20133ADF80A3004F5967403
:10ECD000BDF80E304443013BADF80E30B3883846E2
:10ECE00003EB223203EB2434BDF81430ADF80C40B2
:10ECF000ADF8082024B21AB29442C8BFADF80C3067
:10ED00000021FEF7DCF807B0F0BD00BF4CA70020E3
:10ED100073B5051D002104462846FEF7D0F80F4BB9
:10ED20001B68B3F8AA60B3F89A30F61A36B2002E10
:10ED300012DB2846FFF79CFF86420DDAB4F9040087
:10ED4000074B04380093B4F90610801946F20C32D0
:10ED50004FF61E03FEF7E7F87CBD00BF4CA700206E
:10ED60000E00070830B5051D85B004460021284671
:10ED7000FEF7A5F8384B802100930420002348F2C9
:10ED80001042FEF750FA354B80210093782301930F
:10ED9000A020783B4BF29652FEF767FA304B902159
:10EDA00000930420002348F21042FEF73CFA2D4B5A
:10EDB00090210093A02000234BF29652FEF733FAE5
:10EDC000294BA02100930420002348F21042FEF7B3
:10EDD0002AFA264BA0200093014600234BF29652BC
:10EDE000FEF721FA224BB02100930420002348F2C1
:10EDF0001042FEF718FA1F4BB0210093A0204BF2EF
:10EE000096520023FEF70FFA1B4BC02100930420FB
:10EE1000002348F21042FEF706FA184BC021009377
:10EE20000423019301330293033B03934BF2965265
:10EE3000023BA020FEF719FA2846FFF719FFB4F9A4
:10EE40000610A0F5807000EBD0704010183105B0AE
:10EE5000BDE83040FEF766BDD0B10608E2B1060855
:10EE6000EEB10608F8B1060800B206080AB20608B4
:10EE700017B2060827B206083CB206084EB20608CA
:10EE8000F7B5061D002105463046FEF718F8514B30
:10EE9000802148F21042009304200023FEF7C3F9BA
:10EEA000FEF72CFD8021002300904BF29652A0200B
:10EEB000FEF7B9F9484B902148F210420093042024
:10EEC0000023FEF7B0F9FEF71DFD9021002300900E
:10EED0004BF29652A020FEF7A6F9404BA02148F233
:10EEE0001042009304200023FEF79DF9FEF70EFD6B
:10EEF0000090A020002301464BF29652FEF793F9B2
:10EF0000374BB02148F21042009304200023FEF753
:10EF10008AF9FEF7EFFCB02100234BF296520090E5
:10EF2000A020FEF780F9FEF7F7FC2E4B0446009375
:10EF300004200023C02148F21042FEF774F92A4B46
:10EF40002A4F9C4204D02A4B9C4203D064B114E067
:10EF5000284B00E0284B0093A020C0214BF2965292
:10EF60000023FEF760F911E0244BA0200093C0219C
:10EF70004BF296522346FEF756F9A020C0214BF2E1
:10EF80009652002300970194FEF76FF91C4BD02195
:10EF9000009348F2104200230420FEF744F9FEF7E4
:10EFA000B9FCD02101904BF296520023A02000978B
:10EFB000FEF75BF93046FFF75BFEB5F90610A0F5EA
:10EFC000807000EBD0704010183103B0BDE8F04005
:10EFD000FEF7A8BC5BB206086DB206087DB2060853
:10EFE0008BB2060898B2060876676100BCB20608C4
:10EFF00027930402A8B20608ACB20608B4B2060809
:10F00000C1B20608B0F90620B0F90230D01A704734
:10F010000388CB1803808388C91843888180D3185C
:10F020004380C388D218C280704700230380438086
:10F030008380C3807047B0F90420B0F900309A4251
:10F04000D4BF0020012070472DE9F04F00F12606C3
:10F050008BB004463046FFF7EEFF0546002847D147
:10F0600008AF04F1040898E8030087E803000121D1
:10F070000A460B4638460091FFF7EBFD38464BF247
:10F080009651FDF75FFE29464046FDF718FF48F20E
:10F090001042ADF81650ADF81850ADF81A50ADF852
:10F0A0001C50ADF814201935B4F90400B4F90A3035
:10F0B00005AA2818009205220192043B421CB4F9CB
:10F0C00006101935FDF76AFEFA2DEDD1E13DB4F9D0
:10F0D000061005AB6918009305230193B4F90400E9
:10F0E0004B1CB4F908201935FDF758FEC82DEED198
:10F0F000236A002B00F0A780251D2846FFF7B8FDE6
:10F1000080462846FFF77EFFB4F90AA03238039004
:10F110002046AAF1190A07F057F960B1216BA38CB8
:10F1200001FB08F198FBF3F202EBD27291FBF3F3CF
:10F1300003EB620301E06FF0130330460293FFF725
:10F140007AFF18B9E084A4F82A802BE0B4F90420EF
:10F15000B4F9263000259A42A8BF1346E384B4F9D7
:10F160000820B4F92A3001219A42B8BF13466385BA
:10F170002A460B4630460095FFF75CFD304629468F
:10F18000FDF79DFE012130462A460B460095FFF70C
:10F1900060FDB4F90410B4F90620304649425242E9
:10F1A000FFF736FF4FF00009E58CCB4644E0A28C18
:10F1B000236A6A4392FBF8F233F81270B7F5805F66
:10F1C00003D322485D21FEF76FF8039AB4F9263085
:10F1D000574344BF07F57E671F373F13B4F9042038
:10F1E000BFB29D4208BFBB46AA184FF6FF730093FB
:10F1F000501EC7EB0A03CBEB0A01FEF7BDF8029BDA
:10F200009D4208BFB94603339D4212D1B4F90400B0
:10F210000F4B626B0638AAF1040100934019C9EB49
:10F220000101082A14BF16221F224FF61E03FDF704
:10F230007AFE0135ADB2BB46B4F92A309D42B6DB49
:10F240003046FFF7F2FE0BB0BDE8F08FD0B20608F3
:10F250003C0A070813B50446B4F90220B0F90000CF
:10F26000B4F906300091114600F10C02FDF71AFFC7
:10F27000B4F90000B4F90210B4F90420B4F906306E
:10F2800008304BF296540094FDF72AFD1CBD37B5AB
:10F290000446B4F90250B0F90000B4F90420B4F9FE
:10F2A0000630023800912946FDF7FCFEB4F9000053
:10F2B000B4F90210B4F90420B4F9063006304FF660
:10F2C000FF740131013A013B0094FDF7EBFE3EBDB6
:10F2D00007B50346B0F900000022B3F90210B3F9F4
:10F2E0000630009200F10802FDF7FAFC0EBD37B5BA
:10F2F0000446B0F90000B4F90210B4F90630002554
:10F3000000F108020095FDF7EBFCB4F90420B4F914
:10F310000210B4F90630101F0095FDF7E1FC3EBD68
:10F32000436A37B504460BB11B880384204607F0B7
:10F330004BF8231D18B11846FFF7D9FF02E0184615
:10F34000FFF7C6FFA38820460433A38007F03CF8EC
:10F350000546218C201D5DB1FFF799FFE369B3B12C
:10F36000B4F90400B4F9061000930C3000220AE04E
:10F37000FFF770FFE36953B1B4F90400B4F9061064
:10F3800000930C302A464FF61E03FDF74CFFA3886E
:10F39000043BA3803EBD0000F0B5C669002585B0E2
:10F3A0000446C561FFF7BCFFE661231D02AE93E88A
:10F3B00003002A4686E803002B46304610210095BC
:10F3C000FFF738FCE3692A46BDF90A100093BDF93E
:10F3D00008004FF61E03FDF726FFBDF80A30204651
:10F3E0001033ADF80A3006F0EFFF0246002837D0A0
:10F3F000BDF808701E4B083FBFB2BDF90A102A467F
:10F40000009338B24FF61E03ADF80870FDF78BFD80
:10F410003818ADF80800E06A03685B699847BDF9E1
:10F420000A100746BDF9080001F10E033A180095CD
:10F43000FDF756FCE06A3146036801221B699847D4
:10F44000BDF80830BDF90A10FF180A4B38B2009316
:10F450002A464FF61E03ADF80870FDF764FD04E080
:10F46000E06A314603681B69984705B0F0BD00BFEC
:10F47000A200070814010708F0B5044685B0FFF79D
:10F480004FFFB4F90450B4F90670E36910350093E6
:10F490002846394600224FF61E03FDF7C4FE2046DB
:10F4A00007F1100606F090FF00282ED0234B3146BE
:10F4B0000022009328464FF61E03FDF734FD451940
:10F4C000E06A1E3703685B6998473246431929464C
:10F4D00002A80097FFF77DFA002102A8FDF7EFFCD4
:10F4E000E76A20463B681D6906F06EFF02A90246E6
:10F4F0003846A847124BBDF90C0000933146002254
:10F500004FF61E03FDF70FFD15E0E06A1E37036896
:10F510005B69984729464319324602A80097FFF7CE
:10F5200058FAE66A204633681D6906F04DFF02A9C5
:10F5300002463046A84705B0F0BD00BFA20007084C
:10F5400014010708FFF7ECBE13B50446FFF7E8FE09
:10F55000084BB4F904000093E36AB4F9061003EB16
:10F56000830301931C30103100224FF61E03FDF778
:10F570007CFE1CBD69E3060813B50446FFF7D0FE08
:10F58000084BB4F904000093E36AB4F9061003EBE6
:10F59000830301931C30103100224FF61E03FDF748
:10F5A00064FE1CBD69E3060873B50546FFF7B8FEA7
:10F5B000EB6AB5F90440B5F906601B690E34002208
:10F5C000009331464FF61E032046FDF72CFEEB6AF2
:10F5D00031461A79114B001953F82230002200935A
:10F5E0004FF61E03FDF71FFEEB6A06F110011A79B4
:10F5F000052A01D10A4A06E0042A03D0094A0092EA
:10F600009B6802E0084A0092DB68019320460022D2
:10F610004FF61E03FDF729FE7CBD00BFC8B80608E3
:10F62000FCB2060869E3060803B30608C36AF7B527
:10F630001D79044648F21043002D0CBF1D460025DD
:10F64000FFF76EFEB4F90470B4F906600C4B0E3788
:10F65000009331462A4638464FF61E03FDF7E3FD78
:10F66000E36A38461A79074B06F1100153F8223045
:10F670002A4600934FF61E03FDF7D5FDFEBD00BFE1
:10F6800007B3060894B806087FB50646FFF748FE9C
:10F690000E4BF06A009317F0E1F80D4917F0E6F908
:10F6A0000C4917F027F816F041FDB6F90450B6F9E9
:10F6B00006401C351034CDE90201002228462146BF
:10F6C0004FF61E03FDF7D1FD7FBD00BF11B3060845
:10F6D000000020410AD7233C73B5B0F90420B0F9EB
:10F6E00006300E46B0F9021004464FF4E045101FF4
:10F6F0000431043204330095FDF7D4FCB4F906302C
:10F70000B4F90000B4F90420191F043004320433A2
:10F710000095FDF7C7FCB4F90000B4F90210B4F984
:10F72000063000F10C020096FDF7BCFCB4F90000B5
:10F73000B4F90420B4F90210B4F906304BF296552E
:10F740000830043A0095FDF7CBFAB4F90420B4F977
:10F750000210B4F90630A2F108000095FDF7A2FCF2
:10F760007CBD73B5B0F90420B0F906300E46B0F98F
:10F77000021004464FF4E045101F043104320433F4
:10F780000095FDF78FFCB4F90630B4F90000B4F928
:10F790000420191F0430043204330095FDF782FC65
:10F7A000B4F90000B4F90210B4F90420B4F9063039
:10F7B0000096FDF777FC7CBD30B5024685B00D465E
:10F7C0000068516802AB022403C302A80021FDF7C0
:10F7D000A5FC2246234602A821460094FFF72AFAF8
:10F7E00002A82946FDF79AFC02A821460E222346CC
:10F7F0000094FFF71FFA02A84BF29651FDF78EFC1A
:10F8000005B030BD73B50446051D218C2846FFF7B1
:10F81000D3FF2846FFF7EEF9E5690646284617F0BC
:10F8200055FDB4F90610C0B28000301A0231002232
:10F830004FF61E030095FDF7F6FC7CBDF0B589B0D0
:10F84000031D054604AC93E8030084E80300184652
:10F85000298CFFF7B1FF2046FFF7CCF9EE69074688
:10F86000304617F033FDBDF91210C0B280000231EE
:10F870000022381A4FF61E030096FDF7D4FC122121
:10F8800004230A46009320460B46FFF7D3F9686A23
:10F8900017F01CFD07462046FFF7B3F9ADF8080046
:10F8A000C0F30F40ADF80A00029E20460796FFF70E
:10F8B000A8F9ADF80800C0F30F40ADF80A000299AE
:10F8C0006B6AFF0036B2A6EB670606910914009337
:10F8D0003046073900224FF61E03FDF7A4FC09B09D
:10F8E000F0BDF0B585B0031D044602AD93E80300FA
:10F8F00085E803001846218CFFF75EFF2846FFF7D6
:10F9000079F9E6690746304617F0E0FCBDF90A10C0
:10F91000C0B2800002310022381A4FF61E03009652
:10F92000FDF781FC12210423009328460A460B466A
:10F93000FFF780F9636ABDF90800BDF90A1000936A
:10F940000430043100224FF61E03FDF76CFC05B0B5
:10F95000F0BD4BF29651FDF7B2BA2DE9F04101210D
:10F9600004460026FDF7BAFAD02514E0EB10DA02BF
:10F970004FEAA50842EA4818204648EA0308FFF77C
:10F9800077F9074602E04046FDF7B2FA013FFAD2A6
:10F990000D3DEDB201362046FFF734FB8642E5DB34
:10F9A000BDE8F041FDF7BEBA10B5044606F00CFD07
:10F9B000231D20B91846BDE81040FFF7CABF1846FE
:10F9C000BDE81040FFF7C9BF2DE9FF47044606F028
:10F9D000FBFC4FF6FF75002808BF00252046FFF707
:10F9E000E3FFE369B4F904002A46B4F90610009372
:10F9F00004304FF61E03FDF716FC206A0121036850
:10FA0000B4F904805B6898478146206A0121036845
:10FA100008F178071B689847B9F1010F064607D12E
:10FA2000244BB4F90610009308F170002A460AE04E
:10FA3000B9F1000F0BD11F4BB4F90610009308F178
:10FA4000700048F210424FF61E03FDF76CFAD4F82E
:10FA500020A0231D93E803000DF10809DAF8003017
:10FA600089E803002046D3F81080ADF80870ADF89F
:10FA70000C7006F0A9FC494602465046C047206A71
:10FA800003685B699847012E384405D10A4BB4F9E5
:10FA9000061000932A4606E04EB9074BB4F906104B
:10FAA000009348F210424FF61E03FDF73CFABDE802
:10FAB000FF8700BF98FD06080AFE060837B5054611
:10FAC00006F082FC4FF6FF74002808BF0024284689
:10FAD000FFF76AFFEB69B5F904000093B5F906106A
:10FAE000043022464FF61E03FDF79DFB3EBD13B5C5
:10FAF0000446FFF759FFE369B4F904000093B4F931
:10FB00000610043000224FF61E03FDF78CFB1CBDCF
:10FB1000F0B585B0044606F057FC4FF6FF75002897
:10FB200008BF0025204606F04FFC90B102AB221D15
:10FB300092E8030083E80300BDF808201846083A5D
:10FB4000ADF80820BDF80C200832ADF80C20FFF706
:10FB500004FF204606F038FC58B1174BB4F90400F6
:10FB60000093B4F9061007382A464FF61E03FDF736
:10FB7000DAF9276A20463B681E6906F025FC211D3C
:10FB800002463846B047206AA78803685B699847F1
:10FB90000646204606F018FC58B1084B3FB2781CC8
:10FBA0000093B4F9061080192A464FF61E03FDF79C
:10FBB000BAF905B0F0BD00BF98FD06080AFE0608B8
:10FBC00038B54FF61F03994204460A4607D0056927
:10FBD00061698068E3682818C918FDF769F86269E7
:10FBE000236912F0010F07D0591E002921610BDA99
:10FBF00001322361626138BDA069591C81422161D3
:10FC000002DB01322361626138BD10B500231A4660
:10FC1000416811F8014B416004F07F0191400732C7
:10FC200014F0800F43EA0103F2D1184610BD38B535
:10FC30004FF0FF3303600B780446472B0D461CD171
:10FC40008B1C4360FFF7E1FFA0612046FFF7DDFF5B
:10FC5000E0616B78422B10D1234604F120006168EB
:10FC60000A4612F8015B626049780132626041EA3B
:10FC700005221A8402338342F1D138BD034600685D
:10FC8000B0F1FF3F06D15A6812F8010B18605A60B4
:10FC9000001170474FF0FF3200F00F001A607047FC
:10FCA00070B50024064625463046FFF7E7FFC0B290
:10FCB00000F00703AB40033510F0080F44EA0304DB
:10FCC000F2D1204670BD00002DE9F8434FF0FF331C
:10FCD00003600133036143618769C369044681603E
:10FCE000C260D0F804805F4301262FE0AEB1204609
:10FCF000FFF7D6FF451C2046FFF7C0FF00268146D0
:10FD000007E009F11003204634F81310FFF758FFFD
:10FD10000136AE42F5DB002612E02046FFF7AEFFCB
:10FD2000451C0AE02046FFF7A9FF00F1100334F854
:10FD300013102046FFF744FF0136AE42F2DB0126E6
:10FD40007F1B03D504484821FDF7AEFA002FCDDC18
:10FD5000C4F80480BDE8F88317B30608074A0848CA
:10FD60001168084B30B50468074DCB1805FB043308
:10FD70000131036058041160400C30BD9CA6002086
:10FD800018300020F390240021F17D00416270477B
:10FD900073B5044616460D4619B90C480D21FDF7FA
:10FDA00083FA0B4B00211B682046B3F84C300A46FF
:10FDB0002386E56202230096FEF7E9F9204604F166
:10FDC000300102B0BDE87040FFF7E0BF6AAF06083F
:10FDD0004CA7002073B5054616460C4619B90A48CB
:10FDE0000C21FDF761FAEC62284634F8062F002159
:10FDF00002230096FEF7CBF92846214602B0BDE863
:10FE00007040FFF7C3BF00BFC3AF060873B5044619
:10FE100016460D4619B90C483F21FDF745FA0B4B24
:10FE200000211B682046B3F84C300A462386E56261
:10FE300002230096FEF7ABF9204604F1300102B030
:10FE4000BDE87040FFF7A2BFF2AF06084CA7002044
:10FE5000F7B5B0F90A40B0F90470B0F90660B0F92E
:10FE6000085006F0B1FA4BF296524FF6FF73002895
:10FE700008BF13460F371036043D0093384631460D
:10FE80002A462346FCF72CFFFEBD2DE9F0410C4627
:10FE9000154698460026A75B1FB94FF61F03A353CC
:10FEA0000DE0FA08294602F0FC02404606F0B8F8D8
:10FEB000FA0AA0530021D20006F0B2F8A05302368D
:10FEC000202EE8D1BDE8F08110B592B0044606F0CE
:10FED0007BFA231D218C70B11846FFF742FC616A42
:10FEE00021B302A8FFF7A3FE20460AA94EF2104252
:10FEF0004FF6FF730DE01846FFF7EEFB616AA9B1FC
:10FF000002A8FFF794FE20460AA94EF21C724BF29B
:10FF10009653FFF7BAFF089BB4F90810B4F90A200A
:10FF2000C91A099B02A8D21AFFF7CEFEE369B4F9F9
:10FF300004000093B4F906100C3000224FF61E03A3
:10FF4000FDF771F912B010BD416082600373704714
:10FF500008B50379012B09D002D3022B0FD10AE097
:10FF60008368188800F01F00400808BD836818885F
:10FF7000C0F3C31008BD83681888000B08BD034890
:10FF80004FF48271FDF790F9002008BD00B106081A
:10FF900030B54FF6FF7585B00C46002A08BF002526
:10FFA000FFF7D6FF05F0DAFE00238DF80D3003AB26
:10FFB0008DF80C000093B4F90000B4F902102A4641
:10FFC0004FF61E03FDF750F905B030BD002908B506
:10FFD0000CDDFFF7BDFF0E288CBF0020012008BDFF
:10FFE000FFF7B6FF003818BF012008BDF8DB00207E
:10FFF00008BD00000379012B12D002D3022B2CD1B3
:020000040805ED
:100000001DE08268138823F01F031B041B0C0F29BB
:1000100002D04900C9B200E01F2141EA03031AE0FF
:100020008268138823F4FC631B041B0C0F2902D085
:100030008900C9B200E03F2143EA41130BE0826826
:1000400013885B055B0D0F2902D04900C9B200E09F
:100050001F2143EAC1231380704702484FF48E7179
:10006000FDF722B900B1060810B50446FFF770FF8E
:1000700030B1411EC9B22046BDE81040FFF7BABFFB
:1000800010BD10B50446FFF763FF0E2806D8411CCB
:10009000C9B22046BDE81040FFF7ACBF10BDC8682C
:1000A0004042704710B5044606F094FA014B2046D2
:1000B000236010BD00A30608014B0360704700BF1A
:1000C00048A3060810B50446FFF7F6FF014B20468B
:1000D000236010BD20A3060810B50446FFF7ECFF0F
:1000E000014B2046236010BDE8A6060810B5044663
:1000F00006F070FA014B2046236010BD90A306085D
:1001000010B50446FFF7F2FF014B2046236010BDF7
:1001100070A3060810B50446FFF7E8FF014B204620
:10012000236010BDA8A80608C36A2DE9F0431F7913
:100130005B79A7F10102574247EB020748F21048EA
:10014000002F18BF4FF00008012B87B0044608D0DD
:1001500002D3022B0FD109E03C4B1B68B3F84C30A3
:1001600008E03A4B1B68B3F8603003E0374B1B687C
:10017000B3F8E2310386B4F90450B4F906600E35E1
:1001800081B12046FFF7CCF8E36A28469A79304BD4
:10019000314653F82230424600934FF61E03FDF7D6
:1001A00042F802E02046FFF753FE002F4AD0E36AF0
:1001B000284A99799F6852F8214038460021103624
:1001C00016F03EFD68B1244B284600934246314666
:1001D0004FF61E03FCF7A7FE07F10042451917462C
:1001E00000E00635384615F0A1FF02460B4602A88E
:1001F0001A49FCF737FD05E006AA02EB09030022C5
:1002000003F8112C02AF384617F060F881462046FB
:1002100017F05CF848440728EED828463146424695
:100220004FF61E030097FDF71FF85CB123784BB122
:1002300004352818314644F208224FF61E03009474
:10024000FCF7F1FF07B0BDE8F08300BF4CA700202A
:10025000B8B70608E8B70608E60907082FB3060886
:100260000121FFF761BF10B5044606F0D1FA204620
:10027000BDE8104006F096BAFFF7F5BFFFF7F3BFF1
:1002800038B50D4B1B68D3F8C840002C11DDD3F8EE
:10029000BC00013016F0E2FA0146084816F0E6FB11
:1002A0000546204616F0DAFA0146284616F0DEFB2F
:1002B00038BD002038BD00BF4CA7002000BA5B4A03
:1002C00037B50446FFF72CF82046FFF7D9FF16F0A4
:1002D000DFFC16F0C3FA0821B4F90450B4F9064063
:1002E00005F092FD1C35103400902146284600226E
:1002F0004FF61E03FCF7B8FF3EBD000038B5104BAB
:10030000084610491C6816F0FDFA0546D4F8C800E6
:1003100016F0A4FA0146284616F0F4FA01460A48F7
:1003200016F0A4FB16F0B4FCD4F8BC300138012858
:10033000B8BF0120C4F8BC00C01A18BF012038BDE6
:100340004CA700200000A0414054894C2DE9F04703
:1003500011F0010904460D4603D111F0020F00F01F
:10036000CE802046FFF78CFF00210646012716F0BD
:100370007BFC00B9002717F0FF0F03D1624823214F
:10038000FCF792FF3046614916F064FCE8B930464C
:100390005F4916F05FFCD8B930465E4916F05AFC4A
:1003A000C0B930465C4916F055FCA8B930465B49E7
:1003B00016F050FC90B93046594916F04BFC78B90C
:1003C0003046584916F046FC60B94FF07E570AE0B7
:1003D000554F08E04D4F06E04D4F04E04D4F02E011
:1003E0004D4F00E04D4FB9F1000F11D03046394666
:1003F00016F044FC28B13046394616F079F98046AB
:1004000000E0B0464046002116F024FC10B903E09D
:10041000B04601E04FF07E5815F0020F10D0404674
:10042000424916F00DFC20B14046394616F062F9FB
:1004300080464046002116F00DFC08B14FF07E5872
:100440003946404616F012FB16F022FC16F006FA6A
:10045000394616F057FA4FF07E51074616F0F0FB7A
:1004600008B14FF07E573846314616F0DFFB0028C2
:1004700043D139462046FFF741FF80462046FFF72B
:10048000FFFE31468246384616F0F8FB38B150463A
:10049000314616F0DFFB002818BF4FF00008384641
:1004A000314616F0CDFB20B15046314616F0DCFB4C
:1004B00010B9B8F1000F16D11D4BB9F1000F07D0DC
:1004C0001B68D3F8BC00B0F5803F0CDA013005E0C2
:1004D0001B68D3F8BC00012805DD0138C3F8BC0057
:1004E00080B2FDF753F9204605F07EFF2046E16813
:1004F00046F67512002305F07EFF20462946BDE82A
:10050000F047FDF7E7BB00BF33B306080000C84261
:1005100000007A4400401C460050C3470024744940
:100520008096184B20BCBE4C000020418096984B12
:100530004CA700200023036043608360704710B520
:100540000446FFF7F7FF204610BD836830B54568C5
:1005500003B985608368DC225343B83A02FB053354
:10056000002BB8BFFF331A128260046805B94460DB
:100570004368DC256B43B83D05FB0433002BB8BF53
:10058000FF331B1243600CB90B0203600368DC24C9
:1005900063434FF4105404FB01310029B8BFFF310D
:1005A00009120160101EB8BFFF30001230BD0000FC
:1005B000F0B585B0FCF710F90746FCF729F9644C53
:1005C0000646236813F0010F04D16248FFF7B7FF16
:1005D0000123236039465F48FFF7B7FF5E4D0446AD
:1005E0007021F0204BF29652002300950197FCF702
:1005F0003CFE002C40D04BF2965200238021F0208C
:1006000001940095FCF731FEA4F50660193816F048
:1006100025F9524916F076F9514916F027FA0146A4
:10062000504816F065F8504B50490093044616F0B8
:1006300061F815F07BFD4BF29652CDE902010023E3
:100640009021F020FCF711FE4949204616F05AF996
:10065000484B4FF08441009316F04CF8434916F094
:1006600049F815F063FD4BF29652CDE902010023E3
:10067000F020A021FCF7F9FD3F4C236813F0010F97
:1006800004D13E48FFF75BFF0123236031463B481E
:10069000FFF75BFF3A4D0446C021F0204BF2965223
:1006A000002300950196FCF7E0FD0CB34BF2965247
:1006B000D0210023F02000950194FCF7D6FD314BAA
:1006C0002046009316F0CAF82F4916F01BF92F495F
:1006D00016F0CCF9254916F00DF815F027FD4BF270
:1006E0009652CDE902010023F020E021FCF7BDFD88
:1006F00000210620FBF793FE002105460520FBF7AD
:100700008EFE234B04462846009316F0A7F8214995
:1007100016F0F8F815F00AFD0023CDE902014BF2BE
:1007200096524021F020FCF7A0FD1B4B1B4AF02005
:10073000002C0CBF14461C46194B502100934BF261
:10074000965200230194FCF790FD05B0F0BD00BF68
:1007500078A600208CA600209D2C0708CCCC9041C8
:100760000000CA42CDCC4C406AB306080AD7A33B6E
:100770006666E63F73B306087CA6002080A60020CC
:1007800052C606087CB30608333333400080DB448E
:1007900084B306086F12833A63B3060867B306088A
:1007A0008BB3060810B5054C2368586AFBF716FE94
:1007B0002368986ABDE81040FBF717BE4CA70020DD
:1007C00010B5054C890023685962FFF7EBFF2068DC
:1007D000BDE8104004F0BEB94CA7002010B5074C8E
:1007E000890023689962FFF7DDFF6420FBF7B2FD03
:1007F0002068BDE8104004F0ADB900BF4CA7002050
:100800002DE9FF41044605F0DFFD4BF29655B4F9A2
:100810000A204FF6FF73002818BF1D46B4F90410D4
:10082000B4F90830101F083B0C3A0090123102A8AE
:10083000FEF7CFF802A844F20821FCF740FB0221A2
:100840000A460B4602A80091FEF7F4F902A8FEF74B
:100850000FFA23688046DB692046984723680746DD
:100860009B6A20469847236806465B6A204698475D
:10087000A8F1100807FB08F7361ABDF8083097FBF7
:10088000F6F7FF18BFB2ADF8087002A81037294676
:10089000ADF80C70FCF713FBBDE8FF81036870B581
:1008A000DB690E460446984716F0010F05460DD049
:1008B000236820465B6A9847854207DD2368204607
:1008C0001B6A691E98472046FFF79AFF16F0020F31
:1008D0000DD0236820469B6A9847854207DA236833
:1008E00020461B6A691C98472046FFF789FF20466F
:1008F0003146BDE87040FDF7EDB910B50446FEF78E
:100900000FFD2046BDE81040FFF77ABF014B186885
:100910002C3070474CA7002008B5FFF7F7FF03689D
:10092000013B036008BD08B5FFF7F0FF0368013322
:10093000036008BD38B504460D46FFF7E7FF0068C1
:1009400063682D189D4205DBA0688542CCBF00205E
:10095000012038BD002038BD416082607047000032
:1009600010B5FFF7D3FF006838B100B205F0C2F947
:100970000349044616F0B4FA00E0024C204610BDCC
:1009800096B3060890B3060808B5FFF7E9FF16F01E
:100990009DFCC3004FF6F87003EA000008BD73B574
:1009A0004FF6FF740E88002A08BF0024B1F90250E8
:1009B000FFF7D6FF29460090224630464FF61E0329
:1009C000FCF731FC7CBD2DE9F04100F13004054617
:1009D0000F461646204600210F22DDF81880FFF74B
:1009E000BBFF284621463A463346CDF81880BDE87D
:1009F000F041FDF705BC00007FB50E46F0233C2119
:100A00000446154600930A46283302A8FDF7E1FF85
:100A100020462A4602AB1049009605F0A9FC04F1D5
:100A2000200002230D4948F210420094FDF7E5FB37
:100A300004F14C0002230A4948F210420094FDF7E9
:100A4000DCFB04F17800074948F2104202230094CD
:100A5000FFF7B9FF7FBD00BF9CB30608A3C9060816
:100A6000B1C90608ADB306080A4B73B51A6800F1A0
:100A7000300405460E462046083201230649FFF79A
:100A800063FA28462146054A48F210430096FDF7CE
:100A9000B7FB7CBD4CA7002054B90608C0B30608BC
:100AA0004160704710B504460AF096FB63681B6806
:100AB000002B04DA094ADB4352F8230010BD0C2254
:100AC00002FB030002780AB9406810BD013B0C38F4
:100AD000B3F1FF3FF6D1002010BD00BF5CB906089E
:100AE000436810B51C68002C06DB0AF075FB0C236C
:100AF00003FB0404606810BD002010BD38B5044637
:100B0000FFF7D0FF05462046FFF7EAFF04461DB178
:100B1000284616F0DBFB05461CB1204616F0D6FB36
:100B200000E02046451904B10235ED004FF6F8709B
:100B300005EA000038BD00002DE9F3414FF6FF76CD
:100B400007460C46002A08BF00260D88FFF7AAFFBB
:100B500080463846FFF7C4FF0746B8F1000F0BD0B8
:100B60002846B4F9021032464FF61E03CDF8008035
:100B7000FCF759FB2D18ADB2B7B10C4B0435ADB233
:100B8000B4F902100093284632464FF61E03FCF7D4
:100B90004AFB04352818B4F9021080B232464FF6E9
:100BA0001E030097FCF73FFBBDE8FC81CDB30608B0
:100BB00038B50C4615460AF00FFB2B1905D5124A1D
:100BC00013F1050FB8BF13461BE0002D4FF00C02C8
:100BD0000BDD631C02FB040402E00C348AB9013310
:100BE000227B022AF9D1084B0BE0631E02FB0404AE
:100BF00003E014F80C2D22B9013B002BF9DA4FF079
:100C0000FF33184638BD00BF19FCFFFF10B544681C
:100C10004FF0FF322168FFF7CBFF206010BD10B509
:100C2000446801222168FFF7C3FF206010BD000067
:100C300008B543680A461968FFF7BAFF024BC01AA5
:100C400018BF012008BD00BF19FCFFFF07B50091C8
:100C500011461A4648F21043FDF7D2FA0EBD0000C5
:100C60007FB51546F023282204460E4600933C210A
:100C70009B1802A8FDF7ADFE2A4602AB214D204687
:100C80002149009605F074FB04F120002146FFF78E
:100C9000EBFE296804F1600630460C31FFF700FFD7
:100CA000324604F168002146184BFFF7CFFF296850
:100CB00004F1980630461031FFF7F2FE324604F197
:100CC000A0002146124BFFF7C1FF296804F1D006AE
:100CD00030461431FFF7E4FE324604F1D8002146D5
:100CE0000C4BFFF7B3FF296804F5847630461831C2
:100CF000FFF7D6FE04F5887021463246064BFFF713
:100D0000A5FF7FBD4CA70020CFB30608E3B30608BC
:100D1000F1B3060801B406080BB4060810B5044682
:100D200005F058FC014B2046236010BDB8A2060810
:100D300010B50446FFF7F2FF014B2046236010BDBB
:100D400080A8060810B50446FFF7B6F9014B204607
:100D5000236010BDC8A8060810B50446FFF7C6F901
:100D6000014B2046236010BD10A9060870B505464A
:100D7000FFF7BCF9064B2C4644F8203B05F1B006C2
:100D800020462434FFF7E8FFB442F9D1284670BD6D
:100D9000F0A8060810B50446FFF78EF9014B20466F
:100DA000236010BD30A9060810B50446FFF77AF994
:100DB000214B204640F8243BFFF7ACF904F14400F6
:100DC000FFF7A8F904F16400FFF7A4F904F1840027
:100DD000FFF7A0F904F1A400FFF7B4FF04F1B0009D
:100DE000FFF7B0FF04F1BC00FFF7ACFF04F1C8004F
:100DF000FFF7A8FF04F1D400FFF7B8FF04F5C270B5
:100E0000FFF7A0FF04F5C870FFF79CFF04F5CE7054
:100E1000FFF798FF04F5D470FFF794FF04F5DA703C
:100E2000FFF7A4FF04F51970FFF7B4FF04F51B707A
:100E3000FFF766F9204610BD08DF060810B5044626
:100E4000FFF754F9014B2046236010BD58A906084E
:100E500010B50446FFF726F92D4B204640F8643BB9
:100E6000FFF7ECFF04F18400FFF7E8FF04F1A400B2
:100E7000FFF7E4FF04F1C400FFF74CF904F1E400CC
:100E8000FFF748F904F58270FFF744F904F5927012
:100E9000FFF740F904F5A270FFF73CF904F5B270D2
:100EA000FFF738F904F5C270FFF70CF904F5CA70C2
:100EB000FFF726F904F5DC70FFF704F904F5E47098
:100EC000FFF71EF904F5F670FFF764FF04F5FA70FA
:100ED000FFF716F904F50670FFF75CFF04F50870DC
:100EE000FFF70EF904F51170FFF72CFF04F51470ED
:100EF000FFF728FF04F51770FFF724FF04F51A70B9
:100F0000FFF720FF04F51D70FFF730FF204610BDEE
:100F100030DE060810B5044605F05CFB114B204698
:100F200040F8203BFFF704FF04F15000FFF7F6FE06
:100F300004F17C00FFF7F2FE04F1A800FFF7EEFEDB
:100F400004F1D400FFF7EAFE04F58070FFF7E6FE37
:100F500004F59670FFF728FF04F57170FFF778FF2E
:100F6000204610BD60DF0608C36A2DE9F0431F79F3
:100F70005B79A7F101056F4247EB050748F210487E
:100F8000002F18BF4FF00008012B394BB0F9045067
:100F90001B6887B014BFB3F84C30B3F86030044618
:100FA00003860E35B0F9066079B1FEF7B9F9E36A48
:100FB00028469A792F4B314653F822304246009307
:100FC0004FF61E03FCF72FF901E0FEF741FF002F5B
:100FD0004AD0E36A284A99799F6852F821403846F6
:100FE0000021103615F02CFE68B1244B28460093E2
:100FF000424631464FF61E03FBF795FF07F10042CC
:101000004519174600E00635384615F08FF80246B8
:101010000B4602A81A49FBF725FE05E006AA02EBDB
:101020000903002203F8112C02AF384616F04EF9DE
:101030008146204616F04AF948440728EED828464B
:10104000314642464FF61E030097FCF70DF95CB19E
:1010500023784BB104352818314644F208224FF664
:101060001E030094FCF7DFF807B0BDE8F08300BF73
:101070004CA7002034B8060864B80608E60907083B
:101080002FB306080121FFF76FBF000010B504461B
:1010900005F0A0FA054B20462360012384F8283090
:1010A00000232362002384F8293010BD78A90608A4
:1010B00070B504460D46164605F08CFA024B2562C3
:1010C00023606662204670BD00E7060870B50446DE
:1010D0000D46164605F07EFA024B256223606662D5
:1010E000204670BDE0E6060870B504460D4616467B
:1010F00005F070FA034BED00F6002360256266628E
:10110000204670BDC0E6060810B5202132220446F4
:10111000FFF7CEFF014B2046236010BD10A206084A
:10112000202110B50A460446FFF7C2FF014B2046B6
:10113000236010BD30A2060810B520210722044606
:10114000FFF7C4FF014B2046236010BD50A20608E4
:1011500010B5202110220446FFF7C6FF014B2046A0
:10116000236010BD70A2060870B5438986B0A3F154
:101170001802153BADF81220ADF816300546066E84
:10118000FCF780FA4FF4C8746643B6FBF0F06D6E5E
:10119000ADF81000FCF776FA01356543BDF8103064
:1011A000B5FBF0F5ADF814501AB22DB2AD1A012D01
:1011B00007DC0233ADF814301BB2A342C8BFADF850
:1011C000144004AC20464FF6FF71FBF778FEBDF8E3
:1011D000102013B2002B0EDD02AB94E8030083E86D
:1011E0000300ADF80C201846002244F20821ADF8A7
:1011F0000820FBF764FEBDF8142013B2B3F5C87FD6
:101200000FDA02AB04A903C983E80300ADF8082094
:1012100018464FF4C87244F20821ADF80C20FBF7D1
:101220004EFEFCF759FA0446FCF72CFA4FF4C8734B
:101230005C43BDF91210BDF916301F22B4FBF0F06B
:10124000009201310246013BFCF796F806B070BDF2
:1012500010B5044605F0BEF9034B204623604FF05D
:10126000FF332362636210BD80AA060830B51D4BB0
:1012700087B0044603AD93E807000C3385E8070008
:1012800093E80700236A6D46B3F1FF3F85E8070046
:1012900002D1039B60622362FEF760FD032290FB94
:1012A000F2F202EB420206A9821A01EB8202034625
:1012B000216A52F80C0C9B00401800EBD0704010D3
:1012C000206252F8181C626A891801EBD1714FF63E
:1012D000FC72491003EA0202616207B0BDE83040C7
:1012E000FBF7E6BCB8AA060847F269439A4201D167
:1012F000FFF7BCBF704710B501704270837010BD1E
:1013000002EBD27310B55B10192404FB030312F037
:10131000010F0B4493F83C0001D0000910BD00F010
:101320000F0010BD30B502EBD2746410192505FB17
:101330000414041912F0010F94F83C2015BF02F0B8
:101340000F0222F00F0242EA0313134384F83C30E9
:1013500030BD73B50646FEF701FD1923B0FBF3F56A
:1013600005FB1305FEF7FAFC0E23B0FBF3F404FBB8
:101370001304294630462246FFF7C2FF0128EAD16E
:101380003046294622460223FFF7CCFFE2B2002373
:1013900001A8E9B2FFF7AFFF019B00201A0CDBB2F6
:1013A00063F307009DF8053063F30F20D3B263F3B6
:1013B00017407CBDF8B5144B4FF4AF76074606FBDB
:1013C000013600251CE0335D202B02D0232B0CD1ED
:1013D00004E0384621462A46012303E038462146E8
:1013E0002A460023FFF79EFF03E00848F721FBF79A
:1013F0005BFF0134192CE6D1013519360E2D01D0D1
:101400000024E0E7F8BD00BFD0AA060815B406081E
:10141000002370B50446C362FEF7A0FC1923B0FB9D
:10142000F3F202FB13036362FEF798FC0E23B0FB9A
:10143000F3F505FB1305666AA562204631462A4688
:10144000FFF75EFF0128E7D1204631462A460523F3
:10145000BDE87040FFF766BF2DE9F0474FEA41183D
:101460000F242FE0032B03D8DFE803F005090C0F4E
:1014700000252E460BE0C0F10F063D4607E026464C
:10148000054604E02546064601E005463E4613496A
:1014900046EA05154AEA400601EB8606D6F8786169
:1014A00046FA09FC1CF00F0C08BF4FF0020C01EBD0
:1014B0004C01B1F878140130102822F81510D1D160
:1014C000013C09D3C4F10F0704F0070948EAE70A11
:1014D0004FEA89090020C5E7BDE8F087B8AA0608E9
:1014E00070B5ADF5027D0C4606461546FFF708FFC0
:1014F0000528014603D1304602AAF36A06E0042813
:1015000008BF336B304602AA18BF0023FFF7A4FFC1
:1015100002A8691C621CAB1C00904FF48070019003
:101520000901200112011B01FBF738FC0DF5027DBA
:1015300070BD11F0020F034606D0C26A0132032AC1
:10154000C2620EDD002206E011F0010F07D0C26A70
:10155000002A02DD013ADA6203E00322FBE704F02D
:10156000C0BF596A9A6A1846FFF7BABF70B50646F7
:1015700000240AE02946304622460135FFF7B0FF35
:10158000192DF7D101340E2C01D00025F2E770BDE2
:1015900010B5044605F03CF9A36B6FF009015943FF
:1015A00001F5967120466429B8BF6421BDE810405A
:1015B00005F034B8836AC362002303634363836323
:1015C000704700000D4B10B5C3610D4B044603621C
:1015D0000C4B43620C4B83620C4BC3600C4B03609F
:1015E0000C4B43600C4B83604FF07E530361002330
:1015F00043618361FFF7DEFF204610BD6F12033A9F
:10160000CDCCCC3D9A99194066E6F6C20AD7233C68
:10161000CDCC4C3ECDCC4C3D0000F04110B5044645
:10162000FAF784FE40F22D1360602381204610BD3E
:10163000038813B940F22D13038109880180704794
:1016400038B504460D46FAF771FE62682389821A9E
:101650009A4215D923889BB12B80238940F22D1201
:101660009342606002D14FF4967307E0B3F5967F22
:1016700001D1642302E00A2B04D90A3B238138BD3F
:1016800000232B8038BD000010B5044604F0A2FFF3
:10169000014B2046236010BD48CE060810B5044615
:1016A00004F098FF014B2046236010BDF0A106080E
:1016B00010B50446FFF732FB014B2046236010BDF6
:1016C00090A2060810B50446FEF7ECFC114B20462C
:1016D00040F8283BFEF7F6FC04F13800FEF7F2FC78
:1016E00004F14800FEF7EEFC04F15800FEF7EAFCB6
:1016F00004F16800FEF704FD04F18C00FEF700FD24
:1017000004F1B000FEF7FCFC04F1D400FEF7F8FC95
:10171000204610BDE0A2060870B5054604F05AFF49
:10172000084B2C4644F8203B05F5AC762046343473
:10173000FFF7BEFFB442F9D12046FFF7C3FF2846AA
:1017400070BD00BF88E3060810B50446FFF7E6FA4F
:10175000014B2046236010BD08A4060810B50446BE
:10176000FFF7F2FF014B2046236010BDD0A306080F
:1017700010B50446FFF7E8FF014B2046236010BD7B
:1017800040A4060810B50446FFF7C8FA014B2046EE
:10179000236010BDA0A4060810B50446FEF78CFC1B
:1017A000014B2046236010BDC8A4060810B50446AE
:1017B000FFF7E8FF034B204640F8303BFFF7ECFF14
:1017C000204610BD78A4060810B5044604F002FFB8
:1017D000094B204640F8203BFFF7C0FF04F14C00C6
:1017E000FFF7C6FF04F17800FFF7E0FF04F1B40053
:1017F000FFF794FA204610BDB0A3060810B50446C2
:10180000FFF7C0FF034B204640F8303BFEF75AFC81
:10181000204610BD10A5060810B50446FEF74CFC86
:10182000014B2046236010BD38A5060810B50446BC
:10183000FFF7A8FF014B2046236010BD60A50608F6
:1018400010B5044604F0C6FE134B204640F8203B7A
:10185000FFF7D4FF04F16000FFF7DEFF04F168003A
:10186000FFF7E4FF04F19800FFF7D6FF04F1A000B2
:10187000FFF7DCFF04F1D000FFF7CEFF04F1D80042
:10188000FFF7D4FF04F58470FFF7C6FF04F58870F6
:10189000FFF7CCFF204610BDF0A4060810B50446A3
:1018A000FFF73CFA014B2046236010BD88A50608CF
:1018B00010B5044604F08EFE194B204640F8203B3C
:1018C000FEF700FC04F13000FEF7FCFB04F14000E1
:1018D000FEF7F8FB04F15000FEF7F4FB04F16000A2
:1018E000FEF7F0FB04F17000FEF7ECFB04F1800062
:1018F000FFF7D4FF04F1B000FFF7D0FF04F1E000E0
:10190000FFF7CCFF04F58870FFF7C8FF04F5A0705F
:10191000FFF7C4FF04F5B870FFF7C0FF204610BD05
:1019200090E6060810B50446FFF7F8F9014B20468B
:10193000236010BDB0A5060810B5044604F04AFEA9
:10194000154B204640F8203BFFF7ECFF04F14C001C
:10195000FFF7E8FF04F17800FFF7E4FF04F1A400CB
:10196000FFF7E0FF04F1D000FFF7DCFF04F1FC001B
:10197000FFF7D8FF04F59470FFF790FF04F5AC7003
:10198000FEF7A0FB04F5B470FFF788FF04F5CC70F8
:10199000FEF798FB204610BDB82E070810B5044688
